{"contracts/parents/DepositFactoryContract.sol":{"DepositFactoryContract":{"abi":[{"inputs":[{"internalType":"address","name":"acceptToken","type":"address"},{"internalType":"address","name":"owner","type":"address"},{"internalType":"address","name":"adminWallet","type":"address"},{"internalType":"address","name":"depositRoleAccount","type":"address"}],"stateMutability":"nonpayable","type":"constructor"},{"anonymous":false,"inputs":[{"indexed":false,"internalType":"address","name":"seller","type":"address"},{"indexed":false,"internalType":"address","name":"receiveFactoryContract","type":"address"},{"indexed":false,"internalType":"uint16","name":"dstChainId","type":"uint16"}],"name":"CreatedLZSenderContract","type":"event"},{"anonymous":false,"inputs":[{"components":[{"internalType":"uint256","name":"mintPrice","type":"uint256"},{"internalType":"uint256","name":"mintQuantity","type":"uint256"},{"internalType":"address","name":"sellerAddress","type":"address"},{"internalType":"uint16","name":"dstChainId","type":"uint16"},{"internalType":"bool","name":"isMintAvailable","type":"bool"},{"internalType":"uint256","name":"deadline","type":"uint256"}],"indexed":false,"internalType":"struct DepositItem","name":"depositItem","type":"tuple"}],"name":"DepositedToken","type":"event"},{"anonymous":false,"inputs":[{"indexed":false,"internalType":"address","name":"account","type":"address"}],"name":"Paused","type":"event"},{"anonymous":false,"inputs":[{"indexed":true,"internalType":"bytes32","name":"role","type":"bytes32"},{"indexed":true,"internalType":"bytes32","name":"previousAdminRole","type":"bytes32"},{"indexed":true,"internalType":"bytes32","name":"newAdminRole","type":"bytes32"}],"name":"RoleAdminChanged","type":"event"},{"anonymous":false,"inputs":[{"indexed":true,"internalType":"bytes32","name":"role","type":"bytes32"},{"indexed":true,"internalType":"address","name":"account","type":"address"},{"indexed":true,"internalType":"address","name":"sender","type":"address"}],"name":"RoleGranted","type":"event"},{"anonymous":false,"inputs":[{"indexed":true,"internalType":"bytes32","name":"role","type":"bytes32"},{"indexed":true,"internalType":"address","name":"account","type":"address"},{"indexed":true,"internalType":"address","name":"sender","type":"address"}],"name":"RoleRevoked","type":"event"},{"anonymous":false,"inputs":[{"indexed":false,"internalType":"address","name":"adminWallet","type":"address"}],"name":"SetAdminWallet","type":"event"},{"anonymous":false,"inputs":[{"indexed":false,"internalType":"uint96","name":"platformFee","type":"uint96"}],"name":"SetPlatformFee","type":"event"},{"anonymous":false,"inputs":[{"indexed":false,"internalType":"address","name":"account","type":"address"}],"name":"Unpaused","type":"event"},{"inputs":[],"name":"DEFAULT_ADMIN_ROLE","outputs":[{"internalType":"bytes32","name":"","type":"bytes32"}],"stateMutability":"view","type":"function"},{"inputs":[],"name":"DEPOSIT_ROLE","outputs":[{"internalType":"bytes32","name":"","type":"bytes32"}],"stateMutability":"view","type":"function"},{"inputs":[{"internalType":"address","name":"layerZeroEndpoint","type":"address"},{"internalType":"address","name":"receiveFactoryContract","type":"address"},{"internalType":"uint16","name":"dstChainId","type":"uint16"}],"name":"createLZsenderContractBySeller","outputs":[],"stateMutability":"nonpayable","type":"function"},{"inputs":[{"components":[{"internalType":"uint256","name":"mintPrice","type":"uint256"},{"internalType":"uint256","name":"mintQuantity","type":"uint256"},{"internalType":"address","name":"sellerAddress","type":"address"},{"internalType":"uint16","name":"dstChainId","type":"uint16"},{"internalType":"bool","name":"isMintAvailable","type":"bool"},{"internalType":"uint256","name":"deadline","type":"uint256"}],"internalType":"struct DepositItem","name":"depositItem","type":"tuple"},{"internalType":"bytes","name":"signature","type":"bytes"},{"internalType":"uint256","name":"lzGasFee","type":"uint256"}],"name":"depositTokenByClient","outputs":[],"stateMutability":"payable","type":"function"},{"inputs":[{"internalType":"bytes32","name":"role","type":"bytes32"}],"name":"getRoleAdmin","outputs":[{"internalType":"bytes32","name":"","type":"bytes32"}],"stateMutability":"view","type":"function"},{"inputs":[{"internalType":"bytes32","name":"role","type":"bytes32"},{"internalType":"address","name":"account","type":"address"}],"name":"grantRole","outputs":[],"stateMutability":"nonpayable","type":"function"},{"inputs":[{"internalType":"bytes32","name":"role","type":"bytes32"},{"internalType":"address","name":"account","type":"address"}],"name":"hasRole","outputs":[{"internalType":"bool","name":"","type":"bool"}],"stateMutability":"view","type":"function"},{"inputs":[{"internalType":"address","name":"","type":"address"},{"internalType":"uint16","name":"","type":"uint16"}],"name":"lzSenderContracts","outputs":[{"internalType":"address","name":"","type":"address"}],"stateMutability":"view","type":"function"},{"inputs":[],"name":"pause","outputs":[],"stateMutability":"nonpayable","type":"function"},{"inputs":[],"name":"paused","outputs":[{"internalType":"bool","name":"","type":"bool"}],"stateMutability":"view","type":"function"},{"inputs":[],"name":"platformFee","outputs":[{"internalType":"uint96","name":"","type":"uint96"}],"stateMutability":"view","type":"function"},{"inputs":[{"internalType":"bytes32","name":"role","type":"bytes32"},{"internalType":"address","name":"account","type":"address"}],"name":"renounceRole","outputs":[],"stateMutability":"nonpayable","type":"function"},{"inputs":[{"internalType":"bytes32","name":"role","type":"bytes32"},{"internalType":"address","name":"account","type":"address"}],"name":"revokeRole","outputs":[],"stateMutability":"nonpayable","type":"function"},{"inputs":[{"internalType":"address","name":"adminWallet_","type":"address"}],"name":"setAdminWallet","outputs":[],"stateMutability":"nonpayable","type":"function"},{"inputs":[{"internalType":"uint96","name":"platformFee_","type":"uint96"}],"name":"setPlatformFee","outputs":[],"stateMutability":"nonpayable","type":"function"},{"inputs":[{"internalType":"address","name":"account","type":"address"}],"name":"setupDepositRole","outputs":[],"stateMutability":"nonpayable","type":"function"},{"inputs":[{"internalType":"bytes4","name":"interfaceId","type":"bytes4"}],"name":"supportsInterface","outputs":[{"internalType":"bool","name":"","type":"bool"}],"stateMutability":"view","type":"function"},{"inputs":[],"name":"unpause","outputs":[],"stateMutability":"nonpayable","type":"function"}],"evm":{"bytecode":{"linkReferences":{},"object":"61016060405260028054610100600160681b03191661fa001790553480156200002757600080fd5b50604051620049a8380380620049a88339810160408190526200004a91620002fa565b604080518082018252601781527f4d756c7469636861696e4d696e74696e67456e67696e650000000000000000006020808301918252835180850190945260058452640312e302e360dc1b908401528151902060e08190527f06c015bd22b4c69690933c1058878ebdfef31f9aaae40bbe86d8a09fe1b2972c6101008190524660a0529192917f8b73c3c69bb8fe3d512ecc4cf759cc79239f7b179b0ffacaa9a75d522b39400f620001418184846040805160208101859052908101839052606081018290524660808201523060a082015260009060c0016040516020818303038152906040528051906020012090509392505050565b6080523060c0526101205250506001805550506002805460ff191690556001600160a01b038416620001c45760405162461bcd60e51b815260206004820152602260248201527f416363657074546f6b656e2063616e6e6f74206265207a65726f206164647265604482015261737360f01b606482015260840160405180910390fd5b6001600160a01b0384811661014052600380546001600160a01b031916918416919091179055620001f76000846200022d565b620002237f2561bf26f818282a3be40719542054d2173eb0d38539e8a8d3cff22f29fd2384826200022d565b5050505062000357565b6200023982826200023d565b5050565b6000828152602081815260408083206001600160a01b038516845290915290205460ff1662000239576000828152602081815260408083206001600160a01b03851684529091529020805460ff19166001179055620002993390565b6001600160a01b0316816001600160a01b0316837f2f8788117e7eff1d82e926ec794901d17c78024a50270940304540a733656f0d60405160405180910390a45050565b80516001600160a01b0381168114620002f557600080fd5b919050565b600080600080608085870312156200031157600080fd5b6200031c85620002dd565b93506200032c60208601620002dd565b92506200033c60408601620002dd565b91506200034c60608601620002dd565b905092959194509250565b60805160a05160c05160e0516101005161012051610140516145ef620003b96000396000818161097401526109c101526000611377015260006113c6015260006113a1015260006112f8015260006113230152600061134e01526145ef6000f3fe6080604052600436106200011f5760003560e01c806354b317d111620000a1578063a217fddf116200006c578063a217fddf1462000333578063a94d13f7146200034a578063d547741f14620003a8578063eea16b8414620003cd578063f99e5dbb14620003f257600080fd5b806354b317d114620002b75780635c975abb14620002dc5780638456cb5914620002f657806391d14854146200030e57600080fd5b80633508293311620000ee578063350829331462000208578063353efdcf146200022d57806336568abe14620002635780633f4ba83a14620002885780634d748d9214620002a057600080fd5b806301ffc9a71462000124578063248a9ca3146200015e57806326232a2e14620001a15780632f2ff15d14620001e1575b600080fd5b3480156200013157600080fd5b50620001496200014336600462001a45565b62000417565b60405190151581526020015b60405180910390f35b3480156200016b57600080fd5b50620001926200017d36600462001a71565b60009081526020819052604090206001015490565b60405190815260200162000155565b348015620001ae57600080fd5b50600254620001c89061010090046001600160601b031681565b6040516001600160601b03909116815260200162000155565b348015620001ee57600080fd5b50620002066200020036600462001aa8565b6200042a565b005b3480156200021557600080fd5b50620002066200022736600462001ad7565b62000458565b3480156200023a57600080fd5b50620001927f2561bf26f818282a3be40719542054d2173eb0d38539e8a8d3cff22f29fd238481565b3480156200027057600080fd5b50620002066200028236600462001aa8565b6200052c565b3480156200029557600080fd5b5062000206620005ae565b62000206620002b136600462001af5565b620005c8565b348015620002c457600080fd5b5062000206620002d636600462001ba0565b62000a37565b348015620002e957600080fd5b5060025460ff1662000149565b3480156200030357600080fd5b506200020662000bab565b3480156200031b57600080fd5b50620001496200032d36600462001aa8565b62000bc2565b3480156200034057600080fd5b5062000192600081565b3480156200035757600080fd5b506200038f6200036936600462001bea565b60056020908152600092835260408084209091529082529020546001600160a01b031681565b6040516001600160a01b03909116815260200162000155565b348015620003b557600080fd5b5062000206620003c736600462001aa8565b62000beb565b348015620003da57600080fd5b5062000206620003ec36600462001ad7565b62000c14565b348015620003ff57600080fd5b50620002066200041136600462001c19565b62000c4d565b6000620004248262000d86565b92915050565b600082815260208190526040902060010154620004478162000dbd565b62000453838362000dc9565b505050565b6000620004658162000dbd565b6001600160a01b038216620004d65760405162461bcd60e51b815260206004820152602c60248201527f61646d696e57616c6c65742061646472657373206d757374206e6f742062652060448201526b7a65726f206164647265737360a01b60648201526084015b60405180910390fd5b600380546001600160a01b0319166001600160a01b0384169081179091556040519081527f1b651cfd0a3f185590087e7e632381434dfada46f037b9081264f9f5bdbfcd9b906020015b60405180910390a15050565b6001600160a01b03811633146200059e5760405162461bcd60e51b815260206004820152602f60248201527f416363657373436f6e74726f6c3a2063616e206f6e6c792072656e6f756e636560448201526e103937b632b9903337b91039b2b63360891b6064820152608401620004cd565b620005aa828262000e51565b5050565b6000620005bb8162000dbd565b620005c562000eb9565b50565b620005d262000f0d565b620005dc62000f68565b3332146200062d5760405162461bcd60e51b815260206004820152601f60248201527f436f6e74726163742061646472657373206973206e6f7420616c6c6f776564006044820152606401620004cd565b8360a00135421115620006835760405162461bcd60e51b815260206004820152601d60248201527f496e76616c69642065787069726174696f6e20696e206465706f7369740000006044820152606401620004cd565b6200069560a085016080860162001c60565b620006db5760405162461bcd60e51b81526020600482015260156024820152744d696e74206973206e6f7420617661696c61626c6560581b6044820152606401620004cd565b6000600581620006f2606088016040890162001ad7565b6001600160a01b03168152602081019190915260400160009081209062000720608088016060890162001c80565b61ffff1681526020810191909152604001600020546001600160a01b03169050806200078f5760405162461bcd60e51b815260206004820181905260248201527f4c5a53656e64657220636f6e7472616374206973206e6f7420637265617465646044820152606401620004cd565b62000805620007c8620007c2620007ac3689900389018962001cb4565b3360009081526004602052604090205462000fb2565b6200106a565b85858080601f0160208091040260200160405190810160405280939291908181526020018383808284376000920191909152506200108192505050565b620008475760405162461bcd60e51b8152602060048201526011602482015270496e76616c6964207369676e617475726560781b6044820152606401620004cd565b3360009081526004602052604081208054600101905560025461271087356101009092046001600160601b031682020491906200088690839062001d6f565b90506000336020890135620008a260608b0160408c0162001ad7565b6040516bffffffffffffffffffffffff19606094851b811660208301526034820193909352921b166054820152606801604051602081830303815290604052905062000961848233604051602401620008fd92919062001dd9565b60408051601f19818403018152918152602080830180516001600160e01b0316630b0374eb60e21b1790528151808301909252601982527f4661696c656420746f2073656e64204c5a206d65737361676500000000000000908201528890620010bb565b50600354620009a0906001600160a01b037f000000000000000000000000000000000000000000000000000000000000000081169133911686620011a0565b620009ea33620009b760608b0160408c0162001ad7565b6001600160a01b037f000000000000000000000000000000000000000000000000000000000000000016919085620011a0565b7f2f54e8025778f8c9994df64d5a3cccc164943effdce0ad2aeaf891dbb6968dae8860405162000a1b919062001e05565b60405180910390a15050505062000a3160018055565b50505050565b6000838260405162000a499062001a37565b6001600160a01b03909216825261ffff166020820152604001604051809103906000f08015801562000a7f573d6000803e3d6000fd5b506040516bffffffffffffffffffffffff19606086811b8216602084015283901b166034820152909150819060009060480160408051601f198184030181529082905263eb8d72b760e01b825291506001600160a01b0384169063eb8d72b79062000af1908790859060040162001e73565b600060405180830381600087803b15801562000b0c57600080fd5b505af115801562000b21573d6000803e3d6000fd5b505033600081815260056020908152604080832061ffff8b168085529083529281902080546001600160a01b0319166001600160a01b038a81169190911790915581519485528b16918401919091528201527f0ed3118257f65b09800eb55a189dadb80679f57cadd83e3b8f112ecf7974cfad9250606001905060405180910390a1505050505050565b600062000bb88162000dbd565b620005c5620011fc565b6000918252602082815260408084206001600160a01b0393909316845291905290205460ff1690565b60008281526020819052604090206001015462000c088162000dbd565b62000453838362000e51565b600062000c218162000dbd565b620005aa7f2561bf26f818282a3be40719542054d2173eb0d38539e8a8d3cff22f29fd23848362000dc9565b600062000c5a8162000dbd565b6000826001600160601b03161162000cc35760405162461bcd60e51b815260206004820152602560248201527f706c6174666f726d466565206d7573742062652067726561746572207468616e604482015264207a65726f60d81b6064820152608401620004cd565b612710826001600160601b03161062000d2a5760405162461bcd60e51b815260206004820152602260248201527f706c6174666f726d466565206d757374206265206c657373207468616e203130604482015261302560f01b6064820152608401620004cd565b600280546cffffffffffffffffffffffff0019166101006001600160601b038516908102919091179091556040519081527fbe3599c33046219ddc3706f4b99caca706dc0f53775580d18a367dc2188c96e59060200162000520565b60006001600160e01b03198216637965db0b60e01b14806200042457506301ffc9a760e01b6001600160e01b031983161462000424565b620005c581336200123c565b62000dd5828262000bc2565b620005aa576000828152602081815260408083206001600160a01b03851684529091529020805460ff1916600117905562000e0d3390565b6001600160a01b0316816001600160a01b0316837f2f8788117e7eff1d82e926ec794901d17c78024a50270940304540a733656f0d60405160405180910390a45050565b62000e5d828262000bc2565b15620005aa576000828152602081815260408083206001600160a01b0385168085529252808320805460ff1916905551339285917ff6391f5c32d9c69d2a47ea670b442974b53935d1edc7fd64eb21e047a839171b9190a45050565b62000ec3620012a0565b6002805460ff191690557f5db9ee0a495bf2e6ff9c91a7834c1ba4fdd244a5e8aa4e537bd38aeae4b073aa335b6040516001600160a01b03909116815260200160405180910390a1565b60026001540362000f615760405162461bcd60e51b815260206004820152601f60248201527f5265656e7472616e637947756172643a207265656e7472616e742063616c6c006044820152606401620004cd565b6002600155565b60025460ff161562000fb05760405162461bcd60e51b815260206004820152601060248201526f14185d5cd8589b194e881c185d5cd95960821b6044820152606401620004cd565b565b60007f67c02de736e9c6dc641c0bcee496661b6fc4f976c46fab69b489896b51083b8c83600001518460200151856040015186606001518760800151878960a001516040516020016200104c989796959493929190978852602088019690965260408701949094526001600160a01b0392909216606086015261ffff166080850152151560a084015260c083015260e08201526101000190565b60405160208183030381529060405280519060200120905092915050565b6000620004246200107a620012eb565b8362001414565b6000620010b47f2561bf26f818282a3be40719542054d2173eb0d38539e8a8d3cff22f29fd23846200032d85856200143c565b9392505050565b6060824710156200111e5760405162461bcd60e51b815260206004820152602660248201527f416464726573733a20696e73756666696369656e742062616c616e636520666f6044820152651c8818d85b1b60d21b6064820152608401620004cd565b600080866001600160a01b031685876040516200113c919062001e92565b60006040518083038185875af1925050503d80600081146200117b576040519150601f19603f3d011682016040523d82523d6000602084013e62001180565b606091505b5091509150620011938783838762001464565b925050505b949350505050565b604080516001600160a01b0385811660248301528416604482015260648082018490528251808303909101815260849091019091526020810180516001600160e01b03166323b872dd60e01b17905262000a31908590620014e4565b6200120662000f68565b6002805460ff191660011790557f62e78cea01bee320cd4e420270b5ea74000d11b0c9f74754ebdbfc544b05a25862000ef03390565b62001248828262000bc2565b620005aa576200125881620015bd565b62001265836020620015d0565b6040516020016200127892919062001eb0565b60408051601f198184030181529082905262461bcd60e51b8252620004cd9160040162001f29565b60025460ff1662000fb05760405162461bcd60e51b815260206004820152601460248201527314185d5cd8589b194e881b9bdd081c185d5cd95960621b6044820152606401620004cd565b6000306001600160a01b037f0000000000000000000000000000000000000000000000000000000000000000161480156200134557507f000000000000000000000000000000000000000000000000000000000000000046145b156200137057507f000000000000000000000000000000000000000000000000000000000000000090565b50604080517f00000000000000000000000000000000000000000000000000000000000000006020808301919091527f0000000000000000000000000000000000000000000000000000000000000000828401527f000000000000000000000000000000000000000000000000000000000000000060608301524660808301523060a0808401919091528351808403909101815260c0909201909252805191012090565b60405161190160f01b602082015260228101839052604281018290526000906062016200104c565b60008060006200144d85856200178a565b915091506200145c81620017d3565b509392505050565b60608315620014d8578251600003620014d0576001600160a01b0385163b620014d05760405162461bcd60e51b815260206004820152601d60248201527f416464726573733a2063616c6c20746f206e6f6e2d636f6e74726163740000006044820152606401620004cd565b508162001198565b62001198838362001930565b60006200153b826040518060400160405280602081526020017f5361666545524332303a206c6f772d6c6576656c2063616c6c206661696c6564815250856001600160a01b03166200195d9092919063ffffffff16565b8051909150156200045357808060200190518101906200155c919062001f3e565b620004535760405162461bcd60e51b815260206004820152602a60248201527f5361666545524332303a204552433230206f7065726174696f6e20646964206e6044820152691bdd081cdd58d8d9595960b21b6064820152608401620004cd565b6060620004246001600160a01b03831660145b60606000620015e183600262001f5e565b620015ee90600262001f78565b67ffffffffffffffff81111562001609576200160962001c9e565b6040519080825280601f01601f19166020018201604052801562001634576020820181803683370190505b509050600360fc1b8160008151811062001652576200165262001f8e565b60200101906001600160f81b031916908160001a905350600f60fb1b8160018151811062001684576200168462001f8e565b60200101906001600160f81b031916908160001a9053506000620016aa84600262001f5e565b620016b790600162001f78565b90505b600181111562001739576f181899199a1a9b1b9c1cb0b131b232b360811b85600f1660108110620016ef57620016ef62001f8e565b1a60f81b82828151811062001708576200170862001f8e565b60200101906001600160f81b031916908160001a90535060049490941c93620017318162001fa4565b9050620016ba565b508315620010b45760405162461bcd60e51b815260206004820181905260248201527f537472696e67733a20686578206c656e67746820696e73756666696369656e746044820152606401620004cd565b6000808251604103620017c45760208301516040840151606085015160001a620017b7878285856200196e565b94509450505050620017cc565b506000905060025b9250929050565b6000816004811115620017ea57620017ea62001fbe565b03620017f35750565b60018160048111156200180a576200180a62001fbe565b03620018595760405162461bcd60e51b815260206004820152601860248201527f45434453413a20696e76616c6964207369676e617475726500000000000000006044820152606401620004cd565b600281600481111562001870576200187062001fbe565b03620018bf5760405162461bcd60e51b815260206004820152601f60248201527f45434453413a20696e76616c6964207369676e6174757265206c656e677468006044820152606401620004cd565b6003816004811115620018d657620018d662001fbe565b03620005c55760405162461bcd60e51b815260206004820152602260248201527f45434453413a20696e76616c6964207369676e6174757265202773272076616c604482015261756560f01b6064820152608401620004cd565b815115620019415781518083602001fd5b8060405162461bcd60e51b8152600401620004cd919062001f29565b6060620011988484600085620010bb565b6000807f7fffffffffffffffffffffffffffffff5d576e7357a4501ddfe92f46681b20a0831115620019a7575060009050600362001a2e565b6040805160008082526020820180845289905260ff881692820192909252606081018690526080810185905260019060a0016020604051602081039080840390855afa158015620019fc573d6000803e3d6000fd5b5050604051601f1901519150506001600160a01b03811662001a275760006001925092505062001a2e565b9150600090505b94509492505050565b6125e58062001fd583390190565b60006020828403121562001a5857600080fd5b81356001600160e01b031981168114620010b457600080fd5b60006020828403121562001a8457600080fd5b5035919050565b80356001600160a01b038116811462001aa357600080fd5b919050565b6000806040838503121562001abc57600080fd5b8235915062001ace6020840162001a8b565b90509250929050565b60006020828403121562001aea57600080fd5b620010b48262001a8b565b60008060008084860361010081121562001b0e57600080fd5b60c081121562001b1d57600080fd5b5084935060c085013567ffffffffffffffff8082111562001b3d57600080fd5b818701915087601f83011262001b5257600080fd5b81358181111562001b6257600080fd5b88602082850101111562001b7557600080fd5b95986020929092019750949560e00135945092505050565b803561ffff8116811462001aa357600080fd5b60008060006060848603121562001bb657600080fd5b62001bc18462001a8b565b925062001bd16020850162001a8b565b915062001be16040850162001b8d565b90509250925092565b6000806040838503121562001bfe57600080fd5b62001c098362001a8b565b915062001ace6020840162001b8d565b60006020828403121562001c2c57600080fd5b81356001600160601b0381168114620010b457600080fd5b8015158114620005c557600080fd5b803562001aa38162001c44565b60006020828403121562001c7357600080fd5b8135620010b48162001c44565b60006020828403121562001c9357600080fd5b620010b48262001b8d565b634e487b7160e01b600052604160045260246000fd5b600060c0828403121562001cc757600080fd5b60405160c0810181811067ffffffffffffffff8211171562001cf957634e487b7160e01b600052604160045260246000fd5b8060405250823581526020830135602082015262001d1a6040840162001a8b565b604082015262001d2d6060840162001b8d565b606082015262001d406080840162001c53565b608082015260a083013560a08201528091505092915050565b634e487b7160e01b600052601160045260246000fd5b8181038181111562000424576200042462001d59565b60005b8381101562001da257818101518382015260200162001d88565b50506000910152565b6000815180845262001dc581602086016020860162001d85565b601f01601f19169290920160200192915050565b60408152600062001dee604083018562001dab565b905060018060a01b03831660208301529392505050565b813581526020808301359082015260c081016001600160a01b0362001e2d6040850162001a8b565b16604083015261ffff62001e446060850162001b8d565b166060830152608083013562001e5a8162001c44565b80151560808401525060a083013560a083015292915050565b61ffff8316815260406020820152600062001198604083018462001dab565b6000825162001ea681846020870162001d85565b9190910192915050565b7f416363657373436f6e74726f6c3a206163636f756e742000000000000000000081526000835162001eea81601785016020880162001d85565b7001034b99036b4b9b9b4b733903937b6329607d1b601791840191820152835162001f1d81602884016020880162001d85565b01602801949350505050565b602081526000620010b4602083018462001dab565b60006020828403121562001f5157600080fd5b8151620010b48162001c44565b808202811582820484141762000424576200042462001d59565b8082018082111562000424576200042462001d59565b634e487b7160e01b600052603260045260246000fd5b60008162001fb65762001fb662001d59565b506000190190565b634e487b7160e01b600052602160045260246000fdfe60c06040523480156200001157600080fd5b50604051620025e5380380620025e58339810160408190526200003491620000b1565b8180620000413362000061565b6001600160a01b031660805250600160065561ffff1660a0525062000101565b600080546001600160a01b038381166001600160a01b0319831681178455604051919092169283917f8be0079c531659141344cd1fd0a4f28419497f9722a3daafe3b4186f6b6457e09190a35050565b60008060408385031215620000c557600080fd5b82516001600160a01b0381168114620000dd57600080fd5b602084015190925061ffff81168114620000f657600080fd5b809150509250929050565b60805160a05161247f620001666000396000818161024f01526109320152600081816104b4015281816105f701528181610846015281816108ee01528181610a9901528181610ea40152818161116d015281816113b8015261168d015261247f6000f3fe6080604052600436106101b65760003560e01c80638da5cb5b116100ec578063cbed8b9c1161008a578063df2a5b3b11610064578063df2a5b3b14610574578063eb8d72b714610594578063f2fde38b146105b4578063f5ecbdbc146105d457600080fd5b8063cbed8b9c1461050c578063d1deba1f1461052c578063d46fb1881461053f57600080fd5b8063a6c3d165116100c6578063a6c3d16514610482578063b353aaa7146104a2578063baf3292d146104d6578063c4461834146104f657600080fd5b80638da5cb5b14610410578063950c8a74146104425780639f38369a1461046257600080fd5b80633f1f4fa41161015957806366ad5c8a1161013357806366ad5c8a14610376578063715018a6146103965780637533d788146103ab5780638cfd8f5c146103d857600080fd5b80633f1f4fa4146102cc57806342d65a8d146103075780635b8c41e61461032757600080fd5b806310ddb1371161019557806310ddb1371461021d57806330c593f71461023d5780633d0d0b6e146102895780633d8b38f61461029c57600080fd5b80621d3567146101bb57806307e0db17146101dd5780630df37483146101fd575b600080fd5b3480156101c757600080fd5b506101db6101d6366004611a7a565b6105f4565b005b3480156101e957600080fd5b506101db6101f8366004611b0d565b610825565b34801561020957600080fd5b506101db610218366004611b28565b6108ae565b34801561022957600080fd5b506101db610238366004611b0d565b6108cd565b34801561024957600080fd5b506102717f000000000000000000000000000000000000000000000000000000000000000081565b60405161ffff90911681526020015b60405180910390f35b6101db610297366004611b69565b610925565b3480156102a857600080fd5b506102bc6102b7366004611bbc565b6109ae565b6040519015158152602001610280565b3480156102d857600080fd5b506102f96102e7366004611b0d565b60036020526000908152604090205481565b604051908152602001610280565b34801561031357600080fd5b506101db610322366004611bbc565b610a7a565b34801561033357600080fd5b506102f9610342366004611c7b565b6005602090815260009384526040808520845180860184018051928152908401958401959095209452929052825290205481565b34801561038257600080fd5b506101db610391366004611a7a565b610b00565b3480156103a257600080fd5b506101db610bdc565b3480156103b757600080fd5b506103cb6103c6366004611b0d565b610bf0565b6040516102809190611d62565b3480156103e457600080fd5b506102f96103f3366004611d75565b600260209081526000928352604080842090915290825290205481565b34801561041c57600080fd5b506000546001600160a01b03165b6040516001600160a01b039091168152602001610280565b34801561044e57600080fd5b5060045461042a906001600160a01b031681565b34801561046e57600080fd5b506103cb61047d366004611b0d565b610c8a565b34801561048e57600080fd5b506101db61049d366004611bbc565b610da0565b3480156104ae57600080fd5b5061042a7f000000000000000000000000000000000000000000000000000000000000000081565b3480156104e257600080fd5b506101db6104f1366004611da8565b610e29565b34801561050257600080fd5b506102f961271081565b34801561051857600080fd5b506101db610527366004611dc3565b610e85565b6101db61053a366004611a7a565b610f1a565b34801561054b57600080fd5b5061055f61055a366004611e31565b611130565b60408051928352602083019190915201610280565b34801561058057600080fd5b506101db61058f366004611e98565b611202565b3480156105a057600080fd5b506101db6105af366004611bbc565b6112b4565b3480156105c057600080fd5b506101db6105cf366004611da8565b61130e565b3480156105e057600080fd5b506103cb6105ef366004611ed4565b611387565b337f00000000000000000000000000000000000000000000000000000000000000006001600160a01b0316146106715760405162461bcd60e51b815260206004820152601e60248201527f4c7a4170703a20696e76616c696420656e64706f696e742063616c6c6572000060448201526064015b60405180910390fd5b61ffff86166000908152600160205260408120805461068f90611f1f565b80601f01602080910402602001604051908101604052809291908181526020018280546106bb90611f1f565b80156107085780601f106106dd57610100808354040283529160200191610708565b820191906000526020600020905b8154815290600101906020018083116106eb57829003601f168201915b50505050509050805186869050148015610723575060008151115b801561074b5750805160208201206040516107419088908890611f59565b6040518091039020145b6107a65760405162461bcd60e51b815260206004820152602660248201527f4c7a4170703a20696e76616c696420736f757263652073656e64696e6720636f6044820152651b9d1c9858dd60d21b6064820152608401610668565b61081c8787878080601f01602080910402602001604051908101604052809392919081815260200183838082843760009201919091525050604080516020601f8a018190048102820181019092528881528a93509150889088908190840183828082843760009201919091525061143892505050565b50505050505050565b61082d6114b1565b6040516307e0db1760e01b815261ffff821660048201527f00000000000000000000000000000000000000000000000000000000000000006001600160a01b0316906307e0db17906024015b600060405180830381600087803b15801561089357600080fd5b505af11580156108a7573d6000803e3d6000fd5b5050505050565b6108b66114b1565b61ffff909116600090815260036020526040902055565b6108d56114b1565b6040516310ddb13760e01b815261ffff821660048201527f00000000000000000000000000000000000000000000000000000000000000006001600160a01b0316906310ddb13790602401610879565b61092d61150b565b61099f7f000000000000000000000000000000000000000000000000000000000000000084848080601f01602080910402602001604051908101604052809392919081815260200183838082843760009201829052506040805160208101909152818152889450909250905034611564565b6109a96001600655565b505050565b61ffff8316600090815260016020526040812080548291906109cf90611f1f565b80601f01602080910402602001604051908101604052809291908181526020018280546109fb90611f1f565b8015610a485780601f10610a1d57610100808354040283529160200191610a48565b820191906000526020600020905b815481529060010190602001808311610a2b57829003601f168201915b505050505090508383604051610a5f929190611f59565b60405180910390208180519060200120149150509392505050565b610a826114b1565b6040516342d65a8d60e01b81526001600160a01b037f000000000000000000000000000000000000000000000000000000000000000016906342d65a8d90610ad290869086908690600401611f92565b600060405180830381600087803b158015610aec57600080fd5b505af115801561081c573d6000803e3d6000fd5b333014610b5e5760405162461bcd60e51b815260206004820152602660248201527f4e6f6e626c6f636b696e674c7a4170703a2063616c6c6572206d7573742062656044820152650204c7a4170760d41b6064820152608401610668565b610bd48686868080601f01602080910402602001604051908101604052809392919081815260200183838082843760009201919091525050604080516020601f89018190048102820181019092528781528993509150879087908190840183828082843760009201919091525061170992505050565b505050505050565b610be46114b1565b610bee600061170f565b565b60016020526000908152604090208054610c0990611f1f565b80601f0160208091040260200160405190810160405280929190818152602001828054610c3590611f1f565b8015610c825780601f10610c5757610100808354040283529160200191610c82565b820191906000526020600020905b815481529060010190602001808311610c6557829003601f168201915b505050505081565b61ffff8116600090815260016020526040812080546060929190610cad90611f1f565b80601f0160208091040260200160405190810160405280929190818152602001828054610cd990611f1f565b8015610d265780601f10610cfb57610100808354040283529160200191610d26565b820191906000526020600020905b815481529060010190602001808311610d0957829003601f168201915b505050505090508051600003610d7e5760405162461bcd60e51b815260206004820152601d60248201527f4c7a4170703a206e6f20747275737465642070617468207265636f72640000006044820152606401610668565b610d99600060148351610d919190611fc6565b83919061175f565b9392505050565b610da86114b1565b818130604051602001610dbd93929190611fdf565b60408051601f1981840301815291815261ffff8516600090815260016020522090610de8908261204b565b507f8c0400cfe2d1199b1a725c78960bcc2a344d869b80590d0f2bd005db15a572ce838383604051610e1c93929190611f92565b60405180910390a1505050565b610e316114b1565b600480546001600160a01b0319166001600160a01b0383169081179091556040519081527f5db758e995a17ec1ad84bdef7e8c3293a0bd6179bcce400dff5d4c3d87db726b9060200160405180910390a150565b610e8d6114b1565b6040516332fb62e760e21b81526001600160a01b037f0000000000000000000000000000000000000000000000000000000000000000169063cbed8b9c90610ee1908890889088908890889060040161210a565b600060405180830381600087803b158015610efb57600080fd5b505af1158015610f0f573d6000803e3d6000fd5b505050505050505050565b61ffff86166000908152600560205260408082209051610f3d9088908890611f59565b90815260408051602092819003830190206001600160401b03871660009081529252902054905080610fbd5760405162461bcd60e51b815260206004820152602360248201527f4e6f6e626c6f636b696e674c7a4170703a206e6f2073746f726564206d65737360448201526261676560e81b6064820152608401610668565b808383604051610fce929190611f59565b60405180910390201461102d5760405162461bcd60e51b815260206004820152602160248201527f4e6f6e626c6f636b696e674c7a4170703a20696e76616c6964207061796c6f616044820152601960fa1b6064820152608401610668565b61ffff871660009081526005602052604080822090516110509089908990611f59565b90815260408051602092819003830181206001600160401b038916600090815290845282902093909355601f880182900482028301820190528682526110e8918991899089908190840183828082843760009201919091525050604080516020601f8a018190048102820181019092528881528a93509150889088908190840183828082843760009201919091525061170992505050565b7fc264d91f3adc5588250e1551f547752ca0cfa8f6b530d243b9f9f4cab10ea8e5878787878560405161111f959493929190612143565b60405180910390a150505050505050565b60408051600060208201819052603482018190526054820181905282516048818403018152606883019384905263040a7bb160e41b9093529182917f00000000000000000000000000000000000000000000000000000000000000006001600160a01b0316906340a7bb10906111b4908a90309086908c908c908c90606c0161217e565b6040805180830381865afa1580156111d0573d6000803e3d6000fd5b505050506040513d601f19601f820116820180604052508101906111f491906121d4565b925092505094509492505050565b61120a6114b1565b600081116112525760405162461bcd60e51b81526020600482015260156024820152744c7a4170703a20696e76616c6964206d696e47617360581b6044820152606401610668565b61ffff83811660008181526002602090815260408083209487168084529482529182902085905581519283528201929092529081018290527f9d5c7c0b934da8fefa9c7760c98383778a12dfbfc0c3b3106518f43fb9508ac090606001610e1c565b6112bc6114b1565b61ffff831660009081526001602052604090206112da8284836121f8565b507ffa41487ad5d6728f0b19276fa1eddc16558578f5109fc39d2dc33c3230470dab838383604051610e1c93929190611f92565b6113166114b1565b6001600160a01b03811661137b5760405162461bcd60e51b815260206004820152602660248201527f4f776e61626c653a206e6577206f776e657220697320746865207a65726f206160448201526564647265737360d01b6064820152608401610668565b6113848161170f565b50565b604051633d7b2f6f60e21b815261ffff808616600483015284166024820152306044820152606481018290526060907f00000000000000000000000000000000000000000000000000000000000000006001600160a01b03169063f5ecbdbc90608401600060405180830381865afa158015611407573d6000803e3d6000fd5b505050506040513d6000823e601f3d908101601f1916820160405261142f91908101906122b7565b95945050505050565b60008061149b5a60966366ad5c8a60e01b898989896040516024016114609493929190612324565b60408051601f198184030181529190526020810180516001600160e01b03166001600160e01b0319909316929092179091523092919061186c565b9150915081610bd457610bd486868686856118f6565b6000546001600160a01b03163314610bee5760405162461bcd60e51b815260206004820181905260248201527f4f776e61626c653a2063616c6c6572206973206e6f7420746865206f776e65726044820152606401610668565b60026006540361155d5760405162461bcd60e51b815260206004820152601f60248201527f5265656e7472616e637947756172643a207265656e7472616e742063616c6c006044820152606401610668565b6002600655565b61ffff86166000908152600160205260408120805461158290611f1f565b80601f01602080910402602001604051908101604052809291908181526020018280546115ae90611f1f565b80156115fb5780601f106115d0576101008083540402835291602001916115fb565b820191906000526020600020905b8154815290600101906020018083116115de57829003601f168201915b50505050509050805160000361166c5760405162461bcd60e51b815260206004820152603060248201527f4c7a4170703a2064657374696e6174696f6e20636861696e206973206e6f742060448201526f61207472757374656420736f7572636560801b6064820152608401610668565b611677878751611993565b60405162c5803160e81b81526001600160a01b037f0000000000000000000000000000000000000000000000000000000000000000169063c58031009084906116ce908b9086908c908c908c908c90600401612362565b6000604051808303818588803b1580156116e757600080fd5b505af11580156116fb573d6000803e3d6000fd5b505050505050505050505050565b50505050565b600080546001600160a01b038381166001600160a01b0319831681178455604051919092169283917f8be0079c531659141344cd1fd0a4f28419497f9722a3daafe3b4186f6b6457e09190a35050565b60608161176d81601f6123bc565b10156117ac5760405162461bcd60e51b815260206004820152600e60248201526d736c6963655f6f766572666c6f7760901b6044820152606401610668565b6117b682846123bc565b845110156117fa5760405162461bcd60e51b8152602060048201526011602482015270736c6963655f6f75744f66426f756e647360781b6044820152606401610668565b6060821580156118195760405191506000825260208201604052611863565b6040519150601f8416801560200281840101858101878315602002848b0101015b8183101561185257805183526020928301920161183a565b5050858452601f01601f1916604052505b50949350505050565b6000606060008060008661ffff166001600160401b0381111561189157611891611c0e565b6040519080825280601f01601f1916602001820160405280156118bb576020820181803683370190505b50905060008087516020890160008d8df191503d9250868311156118dd578692505b828152826000602083013e909890975095505050505050565b8180519060200120600560008761ffff1661ffff1681526020019081526020016000208560405161192791906123cf565b9081526040805191829003602090810183206001600160401b0388166000908152915220919091557fe183f33de2837795525b4792ca4cd60535bd77c53b7e7030060bfcf5734d6b0c9061198490879087908790879087906123eb565b60405180910390a15050505050565b61ffff8216600090815260036020526040812054908190036119b457506127105b808211156109a95760405162461bcd60e51b815260206004820181905260248201527f4c7a4170703a207061796c6f61642073697a6520697320746f6f206c617267656044820152606401610668565b803561ffff81168114611a1657600080fd5b919050565b60008083601f840112611a2d57600080fd5b5081356001600160401b03811115611a4457600080fd5b602083019150836020828501011115611a5c57600080fd5b9250929050565b80356001600160401b0381168114611a1657600080fd5b60008060008060008060808789031215611a9357600080fd5b611a9c87611a04565b955060208701356001600160401b0380821115611ab857600080fd5b611ac48a838b01611a1b565b9097509550859150611ad860408a01611a63565b94506060890135915080821115611aee57600080fd5b50611afb89828a01611a1b565b979a9699509497509295939492505050565b600060208284031215611b1f57600080fd5b610d9982611a04565b60008060408385031215611b3b57600080fd5b611b4483611a04565b946020939093013593505050565b80356001600160a01b0381168114611a1657600080fd5b600080600060408486031215611b7e57600080fd5b83356001600160401b03811115611b9457600080fd5b611ba086828701611a1b565b9094509250611bb3905060208501611b52565b90509250925092565b600080600060408486031215611bd157600080fd5b611bda84611a04565b925060208401356001600160401b03811115611bf557600080fd5b611c0186828701611a1b565b9497909650939450505050565b634e487b7160e01b600052604160045260246000fd5b604051601f8201601f191681016001600160401b0381118282101715611c4c57611c4c611c0e565b604052919050565b60006001600160401b03821115611c6d57611c6d611c0e565b50601f01601f191660200190565b600080600060608486031215611c9057600080fd5b611c9984611a04565b925060208401356001600160401b03811115611cb457600080fd5b8401601f81018613611cc557600080fd5b8035611cd8611cd382611c54565b611c24565b818152876020838501011115611ced57600080fd5b81602084016020830137600060208383010152809450505050611bb360408501611a63565b60005b83811015611d2d578181015183820152602001611d15565b50506000910152565b60008151808452611d4e816020860160208601611d12565b601f01601f19169290920160200192915050565b602081526000610d996020830184611d36565b60008060408385031215611d8857600080fd5b611d9183611a04565b9150611d9f60208401611a04565b90509250929050565b600060208284031215611dba57600080fd5b610d9982611b52565b600080600080600060808688031215611ddb57600080fd5b611de486611a04565b9450611df260208701611a04565b93506040860135925060608601356001600160401b03811115611e1457600080fd5b611e2088828901611a1b565b969995985093965092949392505050565b60008060008060608587031215611e4757600080fd5b611e5085611a04565b935060208501358015158114611e6557600080fd5b925060408501356001600160401b03811115611e8057600080fd5b611e8c87828801611a1b565b95989497509550505050565b600080600060608486031215611ead57600080fd5b611eb684611a04565b9250611ec460208501611a04565b9150604084013590509250925092565b60008060008060808587031215611eea57600080fd5b611ef385611a04565b9350611f0160208601611a04565b9250611f0f60408601611b52565b9396929550929360600135925050565b600181811c90821680611f3357607f821691505b602082108103611f5357634e487b7160e01b600052602260045260246000fd5b50919050565b8183823760009101908152919050565b81835281816020850137506000828201602090810191909152601f909101601f19169091010190565b61ffff8416815260406020820152600061142f604083018486611f69565b634e487b7160e01b600052601160045260246000fd5b81810381811115611fd957611fd9611fb0565b92915050565b8284823760609190911b6bffffffffffffffffffffffff19169101908152601401919050565b601f8211156109a957600081815260208120601f850160051c8101602086101561202c5750805b601f850160051c820191505b81811015610bd457828155600101612038565b81516001600160401b0381111561206457612064611c0e565b612078816120728454611f1f565b84612005565b602080601f8311600181146120ad57600084156120955750858301515b600019600386901b1c1916600185901b178555610bd4565b600085815260208120601f198616915b828110156120dc578886015182559484019460019091019084016120bd565b50858210156120fa5787850151600019600388901b60f8161c191681555b5050505050600190811b01905550565b600061ffff808816835280871660208401525084604083015260806060830152612138608083018486611f69565b979650505050505050565b61ffff86168152608060208201526000612161608083018688611f69565b6001600160401b0394909416604083015250606001529392505050565b61ffff871681526001600160a01b038616602082015260a0604082018190526000906121ac90830187611d36565b851515606084015282810360808401526121c7818587611f69565b9998505050505050505050565b600080604083850312156121e757600080fd5b505080516020909101519092909150565b6001600160401b0383111561220f5761220f611c0e565b6122238361221d8354611f1f565b83612005565b6000601f841160018114612257576000851561223f5750838201355b600019600387901b1c1916600186901b1783556108a7565b600083815260209020601f19861690835b828110156122885786850135825560209485019460019092019101612268565b50868210156122a55760001960f88860031b161c19848701351681555b505060018560011b0183555050505050565b6000602082840312156122c957600080fd5b81516001600160401b038111156122df57600080fd5b8201601f810184136122f057600080fd5b80516122fe611cd382611c54565b81815285602083850101111561231357600080fd5b61142f826020830160208601611d12565b61ffff851681526080602082015260006123416080830186611d36565b6001600160401b038516604084015282810360608401526121388185611d36565b61ffff8716815260c06020820152600061237f60c0830188611d36565b82810360408401526123918188611d36565b6001600160a01b0387811660608601528616608085015283810360a085015290506121c78185611d36565b80820180821115611fd957611fd9611fb0565b600082516123e1818460208701611d12565b9190910192915050565b61ffff8616815260a06020820152600061240860a0830187611d36565b6001600160401b038616604084015282810360608401526124298186611d36565b9050828103608084015261243d8185611d36565b9897505050505050505056fea2646970667358221220614a0fd9abd4b06adf9c788a4aae8bddda67bc63a8698423805de5f341af3fbf64736f6c63430008110033a264697066735822122060ff6eae26d7a62fed0c9cf5a4c9b888a791a2b6d18e5dbc53f63dce1c0a11e364736f6c63430008110033","opcodes":"PUSH2 0x160 PUSH1 0x40 MSTORE PUSH1 0x2 DUP1 SLOAD PUSH2 0x100 PUSH1 0x1 PUSH1 0x68 SHL SUB NOT AND PUSH2 0xFA00 OR SWAP1 SSTORE CALLVALUE DUP1 ISZERO PUSH3 0x27 JUMPI PUSH1 0x0 DUP1 REVERT JUMPDEST POP PUSH1 0x40 MLOAD PUSH3 0x49A8 CODESIZE SUB DUP1 PUSH3 0x49A8 DUP4 CODECOPY DUP2 ADD PUSH1 0x40 DUP2 SWAP1 MSTORE PUSH3 0x4A SWAP2 PUSH3 0x2FA JUMP JUMPDEST PUSH1 0x40 DUP1 MLOAD DUP1 DUP3 ADD DUP3 MSTORE PUSH1 0x17 DUP2 MSTORE PUSH32 0x4D756C7469636861696E4D696E74696E67456E67696E65000000000000000000 PUSH1 0x20 DUP1 DUP4 ADD SWAP2 DUP3 MSTORE DUP4 MLOAD DUP1 DUP6 ADD SWAP1 SWAP5 MSTORE PUSH1 0x5 DUP5 MSTORE PUSH5 0x312E302E3 PUSH1 0xDC SHL SWAP1 DUP5 ADD MSTORE DUP2 MLOAD SWAP1 KECCAK256 PUSH1 0xE0 DUP2 SWAP1 MSTORE PUSH32 0x6C015BD22B4C69690933C1058878EBDFEF31F9AAAE40BBE86D8A09FE1B2972C PUSH2 0x100 DUP2 SWAP1 MSTORE CHAINID PUSH1 0xA0 MSTORE SWAP2 SWAP3 SWAP2 PUSH32 0x8B73C3C69BB8FE3D512ECC4CF759CC79239F7B179B0FFACAA9A75D522B39400F PUSH3 0x141 DUP2 DUP5 DUP5 PUSH1 0x40 DUP1 MLOAD PUSH1 0x20 DUP2 ADD DUP6 SWAP1 MSTORE SWAP1 DUP2 ADD DUP4 SWAP1 MSTORE PUSH1 0x60 DUP2 ADD DUP3 SWAP1 MSTORE CHAINID PUSH1 0x80 DUP3 ADD MSTORE ADDRESS PUSH1 0xA0 DUP3 ADD MSTORE PUSH1 0x0 SWAP1 PUSH1 0xC0 ADD PUSH1 0x40 MLOAD PUSH1 0x20 DUP2 DUP4 SUB SUB DUP2 MSTORE SWAP1 PUSH1 0x40 MSTORE DUP1 MLOAD SWAP1 PUSH1 0x20 ADD KECCAK256 SWAP1 POP SWAP4 SWAP3 POP POP POP JUMP JUMPDEST PUSH1 0x80 MSTORE ADDRESS PUSH1 0xC0 MSTORE PUSH2 0x120 MSTORE POP POP PUSH1 0x1 DUP1 SSTORE POP POP PUSH1 0x2 DUP1 SLOAD PUSH1 0xFF NOT AND SWAP1 SSTORE PUSH1 0x1 PUSH1 0x1 PUSH1 0xA0 SHL SUB DUP5 AND PUSH3 0x1C4 JUMPI PUSH1 0x40 MLOAD PUSH3 0x461BCD PUSH1 0xE5 SHL DUP2 MSTORE PUSH1 0x20 PUSH1 0x4 DUP3 ADD MSTORE PUSH1 0x22 PUSH1 0x24 DUP3 ADD MSTORE PUSH32 0x416363657074546F6B656E2063616E6E6F74206265207A65726F206164647265 PUSH1 0x44 DUP3 ADD MSTORE PUSH2 0x7373 PUSH1 0xF0 SHL PUSH1 0x64 DUP3 ADD MSTORE PUSH1 0x84 ADD PUSH1 0x40 MLOAD DUP1 SWAP2 SUB SWAP1 REVERT JUMPDEST PUSH1 0x1 PUSH1 0x1 PUSH1 0xA0 SHL SUB DUP5 DUP2 AND PUSH2 0x140 MSTORE PUSH1 0x3 DUP1 SLOAD PUSH1 0x1 PUSH1 0x1 PUSH1 0xA0 SHL SUB NOT AND SWAP2 DUP5 AND SWAP2 SWAP1 SWAP2 OR SWAP1 SSTORE PUSH3 0x1F7 PUSH1 0x0 DUP5 PUSH3 0x22D JUMP JUMPDEST PUSH3 0x223 PUSH32 0x2561BF26F818282A3BE40719542054D2173EB0D38539E8A8D3CFF22F29FD2384 DUP3 PUSH3 0x22D JUMP JUMPDEST POP POP POP POP PUSH3 0x357 JUMP JUMPDEST PUSH3 0x239 DUP3 DUP3 PUSH3 0x23D JUMP JUMPDEST POP POP JUMP JUMPDEST PUSH1 0x0 DUP3 DUP2 MSTORE PUSH1 0x20 DUP2 DUP2 MSTORE PUSH1 0x40 DUP1 DUP4 KECCAK256 PUSH1 0x1 PUSH1 0x1 PUSH1 0xA0 SHL SUB DUP6 AND DUP5 MSTORE SWAP1 SWAP2 MSTORE SWAP1 KECCAK256 SLOAD PUSH1 0xFF AND PUSH3 0x239 JUMPI PUSH1 0x0 DUP3 DUP2 MSTORE PUSH1 0x20 DUP2 DUP2 MSTORE PUSH1 0x40 DUP1 DUP4 KECCAK256 PUSH1 0x1 PUSH1 0x1 PUSH1 0xA0 SHL SUB DUP6 AND DUP5 MSTORE SWAP1 SWAP2 MSTORE SWAP1 KECCAK256 DUP1 SLOAD PUSH1 0xFF NOT AND PUSH1 0x1 OR SWAP1 SSTORE PUSH3 0x299 CALLER SWAP1 JUMP JUMPDEST PUSH1 0x1 PUSH1 0x1 PUSH1 0xA0 SHL SUB AND DUP2 PUSH1 0x1 PUSH1 0x1 PUSH1 0xA0 SHL SUB AND DUP4 PUSH32 0x2F8788117E7EFF1D82E926EC794901D17C78024A50270940304540A733656F0D PUSH1 0x40 MLOAD PUSH1 0x40 MLOAD DUP1 SWAP2 SUB SWAP1 LOG4 POP POP JUMP JUMPDEST DUP1 MLOAD PUSH1 0x1 PUSH1 0x1 PUSH1 0xA0 SHL SUB DUP2 AND DUP2 EQ PUSH3 0x2F5 JUMPI PUSH1 0x0 DUP1 REVERT JUMPDEST SWAP2 SWAP1 POP JUMP JUMPDEST PUSH1 0x0 DUP1 PUSH1 0x0 DUP1 PUSH1 0x80 DUP6 DUP8 SUB SLT ISZERO PUSH3 0x311 JUMPI PUSH1 0x0 DUP1 REVERT JUMPDEST PUSH3 0x31C DUP6 PUSH3 0x2DD JUMP JUMPDEST SWAP4 POP PUSH3 0x32C PUSH1 0x20 DUP7 ADD PUSH3 0x2DD JUMP JUMPDEST SWAP3 POP PUSH3 0x33C PUSH1 0x40 DUP7 ADD PUSH3 0x2DD JUMP JUMPDEST SWAP2 POP PUSH3 0x34C PUSH1 0x60 DUP7 ADD PUSH3 0x2DD JUMP JUMPDEST SWAP1 POP SWAP3 SWAP6 SWAP2 SWAP5 POP SWAP3 POP JUMP JUMPDEST PUSH1 0x80 MLOAD PUSH1 0xA0 MLOAD PUSH1 0xC0 MLOAD PUSH1 0xE0 MLOAD PUSH2 0x100 MLOAD PUSH2 0x120 MLOAD PUSH2 0x140 MLOAD PUSH2 0x45EF PUSH3 0x3B9 PUSH1 0x0 CODECOPY PUSH1 0x0 DUP2 DUP2 PUSH2 0x974 ADD MSTORE PUSH2 0x9C1 ADD MSTORE PUSH1 0x0 PUSH2 0x1377 ADD MSTORE PUSH1 0x0 PUSH2 0x13C6 ADD MSTORE PUSH1 0x0 PUSH2 0x13A1 ADD MSTORE PUSH1 0x0 PUSH2 0x12F8 ADD MSTORE PUSH1 0x0 PUSH2 0x1323 ADD MSTORE PUSH1 0x0 PUSH2 0x134E ADD MSTORE PUSH2 0x45EF PUSH1 0x0 RETURN INVALID PUSH1 0x80 PUSH1 0x40 MSTORE PUSH1 0x4 CALLDATASIZE LT PUSH3 0x11F JUMPI PUSH1 0x0 CALLDATALOAD PUSH1 0xE0 SHR DUP1 PUSH4 0x54B317D1 GT PUSH3 0xA1 JUMPI DUP1 PUSH4 0xA217FDDF GT PUSH3 0x6C JUMPI DUP1 PUSH4 0xA217FDDF EQ PUSH3 0x333 JUMPI DUP1 PUSH4 0xA94D13F7 EQ PUSH3 0x34A JUMPI DUP1 PUSH4 0xD547741F EQ PUSH3 0x3A8 JUMPI DUP1 PUSH4 0xEEA16B84 EQ PUSH3 0x3CD JUMPI DUP1 PUSH4 0xF99E5DBB EQ PUSH3 0x3F2 JUMPI PUSH1 0x0 DUP1 REVERT JUMPDEST DUP1 PUSH4 0x54B317D1 EQ PUSH3 0x2B7 JUMPI DUP1 PUSH4 0x5C975ABB EQ PUSH3 0x2DC JUMPI DUP1 PUSH4 0x8456CB59 EQ PUSH3 0x2F6 JUMPI DUP1 PUSH4 0x91D14854 EQ PUSH3 0x30E JUMPI PUSH1 0x0 DUP1 REVERT JUMPDEST DUP1 PUSH4 0x35082933 GT PUSH3 0xEE JUMPI DUP1 PUSH4 0x35082933 EQ PUSH3 0x208 JUMPI DUP1 PUSH4 0x353EFDCF EQ PUSH3 0x22D JUMPI DUP1 PUSH4 0x36568ABE EQ PUSH3 0x263 JUMPI DUP1 PUSH4 0x3F4BA83A EQ PUSH3 0x288 JUMPI DUP1 PUSH4 0x4D748D92 EQ PUSH3 0x2A0 JUMPI PUSH1 0x0 DUP1 REVERT JUMPDEST DUP1 PUSH4 0x1FFC9A7 EQ PUSH3 0x124 JUMPI DUP1 PUSH4 0x248A9CA3 EQ PUSH3 0x15E JUMPI DUP1 PUSH4 0x26232A2E EQ PUSH3 0x1A1 JUMPI DUP1 PUSH4 0x2F2FF15D EQ PUSH3 0x1E1 JUMPI JUMPDEST PUSH1 0x0 DUP1 REVERT JUMPDEST CALLVALUE DUP1 ISZERO PUSH3 0x131 JUMPI PUSH1 0x0 DUP1 REVERT JUMPDEST POP PUSH3 0x149 PUSH3 0x143 CALLDATASIZE PUSH1 0x4 PUSH3 0x1A45 JUMP JUMPDEST PUSH3 0x417 JUMP JUMPDEST PUSH1 0x40 MLOAD SWAP1 ISZERO ISZERO DUP2 MSTORE PUSH1 0x20 ADD JUMPDEST PUSH1 0x40 MLOAD DUP1 SWAP2 SUB SWAP1 RETURN JUMPDEST CALLVALUE DUP1 ISZERO PUSH3 0x16B JUMPI PUSH1 0x0 DUP1 REVERT JUMPDEST POP PUSH3 0x192 PUSH3 0x17D CALLDATASIZE PUSH1 0x4 PUSH3 0x1A71 JUMP JUMPDEST PUSH1 0x0 SWAP1 DUP2 MSTORE PUSH1 0x20 DUP2 SWAP1 MSTORE PUSH1 0x40 SWAP1 KECCAK256 PUSH1 0x1 ADD SLOAD SWAP1 JUMP JUMPDEST PUSH1 0x40 MLOAD SWAP1 DUP2 MSTORE PUSH1 0x20 ADD PUSH3 0x155 JUMP JUMPDEST CALLVALUE DUP1 ISZERO PUSH3 0x1AE JUMPI PUSH1 0x0 DUP1 REVERT JUMPDEST POP PUSH1 0x2 SLOAD PUSH3 0x1C8 SWAP1 PUSH2 0x100 SWAP1 DIV PUSH1 0x1 PUSH1 0x1 PUSH1 0x60 SHL SUB AND DUP2 JUMP JUMPDEST PUSH1 0x40 MLOAD PUSH1 0x1 PUSH1 0x1 PUSH1 0x60 SHL SUB SWAP1 SWAP2 AND DUP2 MSTORE PUSH1 0x20 ADD PUSH3 0x155 JUMP JUMPDEST CALLVALUE DUP1 ISZERO PUSH3 0x1EE JUMPI PUSH1 0x0 DUP1 REVERT JUMPDEST POP PUSH3 0x206 PUSH3 0x200 CALLDATASIZE PUSH1 0x4 PUSH3 0x1AA8 JUMP JUMPDEST PUSH3 0x42A JUMP JUMPDEST STOP JUMPDEST CALLVALUE DUP1 ISZERO PUSH3 0x215 JUMPI PUSH1 0x0 DUP1 REVERT JUMPDEST POP PUSH3 0x206 PUSH3 0x227 CALLDATASIZE PUSH1 0x4 PUSH3 0x1AD7 JUMP JUMPDEST PUSH3 0x458 JUMP JUMPDEST CALLVALUE DUP1 ISZERO PUSH3 0x23A JUMPI PUSH1 0x0 DUP1 REVERT JUMPDEST POP PUSH3 0x192 PUSH32 0x2561BF26F818282A3BE40719542054D2173EB0D38539E8A8D3CFF22F29FD2384 DUP2 JUMP JUMPDEST CALLVALUE DUP1 ISZERO PUSH3 0x270 JUMPI PUSH1 0x0 DUP1 REVERT JUMPDEST POP PUSH3 0x206 PUSH3 0x282 CALLDATASIZE PUSH1 0x4 PUSH3 0x1AA8 JUMP JUMPDEST PUSH3 0x52C JUMP JUMPDEST CALLVALUE DUP1 ISZERO PUSH3 0x295 JUMPI PUSH1 0x0 DUP1 REVERT JUMPDEST POP PUSH3 0x206 PUSH3 0x5AE JUMP JUMPDEST PUSH3 0x206 PUSH3 0x2B1 CALLDATASIZE PUSH1 0x4 PUSH3 0x1AF5 JUMP JUMPDEST PUSH3 0x5C8 JUMP JUMPDEST CALLVALUE DUP1 ISZERO PUSH3 0x2C4 JUMPI PUSH1 0x0 DUP1 REVERT JUMPDEST POP PUSH3 0x206 PUSH3 0x2D6 CALLDATASIZE PUSH1 0x4 PUSH3 0x1BA0 JUMP JUMPDEST PUSH3 0xA37 JUMP JUMPDEST CALLVALUE DUP1 ISZERO PUSH3 0x2E9 JUMPI PUSH1 0x0 DUP1 REVERT JUMPDEST POP PUSH1 0x2 SLOAD PUSH1 0xFF AND PUSH3 0x149 JUMP JUMPDEST CALLVALUE DUP1 ISZERO PUSH3 0x303 JUMPI PUSH1 0x0 DUP1 REVERT JUMPDEST POP PUSH3 0x206 PUSH3 0xBAB JUMP JUMPDEST CALLVALUE DUP1 ISZERO PUSH3 0x31B JUMPI PUSH1 0x0 DUP1 REVERT JUMPDEST POP PUSH3 0x149 PUSH3 0x32D CALLDATASIZE PUSH1 0x4 PUSH3 0x1AA8 JUMP JUMPDEST PUSH3 0xBC2 JUMP JUMPDEST CALLVALUE DUP1 ISZERO PUSH3 0x340 JUMPI PUSH1 0x0 DUP1 REVERT JUMPDEST POP PUSH3 0x192 PUSH1 0x0 DUP2 JUMP JUMPDEST CALLVALUE DUP1 ISZERO PUSH3 0x357 JUMPI PUSH1 0x0 DUP1 REVERT JUMPDEST POP PUSH3 0x38F PUSH3 0x369 CALLDATASIZE PUSH1 0x4 PUSH3 0x1BEA JUMP JUMPDEST PUSH1 0x5 PUSH1 0x20 SWAP1 DUP2 MSTORE PUSH1 0x0 SWAP3 DUP4 MSTORE PUSH1 0x40 DUP1 DUP5 KECCAK256 SWAP1 SWAP2 MSTORE SWAP1 DUP3 MSTORE SWAP1 KECCAK256 SLOAD PUSH1 0x1 PUSH1 0x1 PUSH1 0xA0 SHL SUB AND DUP2 JUMP JUMPDEST PUSH1 0x40 MLOAD PUSH1 0x1 PUSH1 0x1 PUSH1 0xA0 SHL SUB SWAP1 SWAP2 AND DUP2 MSTORE PUSH1 0x20 ADD PUSH3 0x155 JUMP JUMPDEST CALLVALUE DUP1 ISZERO PUSH3 0x3B5 JUMPI PUSH1 0x0 DUP1 REVERT JUMPDEST POP PUSH3 0x206 PUSH3 0x3C7 CALLDATASIZE PUSH1 0x4 PUSH3 0x1AA8 JUMP JUMPDEST PUSH3 0xBEB JUMP JUMPDEST CALLVALUE DUP1 ISZERO PUSH3 0x3DA JUMPI PUSH1 0x0 DUP1 REVERT JUMPDEST POP PUSH3 0x206 PUSH3 0x3EC CALLDATASIZE PUSH1 0x4 PUSH3 0x1AD7 JUMP JUMPDEST PUSH3 0xC14 JUMP JUMPDEST CALLVALUE DUP1 ISZERO PUSH3 0x3FF JUMPI PUSH1 0x0 DUP1 REVERT JUMPDEST POP PUSH3 0x206 PUSH3 0x411 CALLDATASIZE PUSH1 0x4 PUSH3 0x1C19 JUMP JUMPDEST PUSH3 0xC4D JUMP JUMPDEST PUSH1 0x0 PUSH3 0x424 DUP3 PUSH3 0xD86 JUMP JUMPDEST SWAP3 SWAP2 POP POP JUMP JUMPDEST PUSH1 0x0 DUP3 DUP2 MSTORE PUSH1 0x20 DUP2 SWAP1 MSTORE PUSH1 0x40 SWAP1 KECCAK256 PUSH1 0x1 ADD SLOAD PUSH3 0x447 DUP2 PUSH3 0xDBD JUMP JUMPDEST PUSH3 0x453 DUP4 DUP4 PUSH3 0xDC9 JUMP JUMPDEST POP POP POP JUMP JUMPDEST PUSH1 0x0 PUSH3 0x465 DUP2 PUSH3 0xDBD JUMP JUMPDEST PUSH1 0x1 PUSH1 0x1 PUSH1 0xA0 SHL SUB DUP3 AND PUSH3 0x4D6 JUMPI PUSH1 0x40 MLOAD PUSH3 0x461BCD PUSH1 0xE5 SHL DUP2 MSTORE PUSH1 0x20 PUSH1 0x4 DUP3 ADD MSTORE PUSH1 0x2C PUSH1 0x24 DUP3 ADD MSTORE PUSH32 0x61646D696E57616C6C65742061646472657373206D757374206E6F7420626520 PUSH1 0x44 DUP3 ADD MSTORE PUSH12 0x7A65726F2061646472657373 PUSH1 0xA0 SHL PUSH1 0x64 DUP3 ADD MSTORE PUSH1 0x84 ADD JUMPDEST PUSH1 0x40 MLOAD DUP1 SWAP2 SUB SWAP1 REVERT JUMPDEST PUSH1 0x3 DUP1 SLOAD PUSH1 0x1 PUSH1 0x1 PUSH1 0xA0 SHL SUB NOT AND PUSH1 0x1 PUSH1 0x1 PUSH1 0xA0 SHL SUB DUP5 AND SWAP1 DUP2 OR SWAP1 SWAP2 SSTORE PUSH1 0x40 MLOAD SWAP1 DUP2 MSTORE PUSH32 0x1B651CFD0A3F185590087E7E632381434DFADA46F037B9081264F9F5BDBFCD9B SWAP1 PUSH1 0x20 ADD JUMPDEST PUSH1 0x40 MLOAD DUP1 SWAP2 SUB SWAP1 LOG1 POP POP JUMP JUMPDEST PUSH1 0x1 PUSH1 0x1 PUSH1 0xA0 SHL SUB DUP2 AND CALLER EQ PUSH3 0x59E JUMPI PUSH1 0x40 MLOAD PUSH3 0x461BCD PUSH1 0xE5 SHL DUP2 MSTORE PUSH1 0x20 PUSH1 0x4 DUP3 ADD MSTORE PUSH1 0x2F PUSH1 0x24 DUP3 ADD MSTORE PUSH32 0x416363657373436F6E74726F6C3A2063616E206F6E6C792072656E6F756E6365 PUSH1 0x44 DUP3 ADD MSTORE PUSH15 0x103937B632B9903337B91039B2B633 PUSH1 0x89 SHL PUSH1 0x64 DUP3 ADD MSTORE PUSH1 0x84 ADD PUSH3 0x4CD JUMP JUMPDEST PUSH3 0x5AA DUP3 DUP3 PUSH3 0xE51 JUMP JUMPDEST POP POP JUMP JUMPDEST PUSH1 0x0 PUSH3 0x5BB DUP2 PUSH3 0xDBD JUMP JUMPDEST PUSH3 0x5C5 PUSH3 0xEB9 JUMP JUMPDEST POP JUMP JUMPDEST PUSH3 0x5D2 PUSH3 0xF0D JUMP JUMPDEST PUSH3 0x5DC PUSH3 0xF68 JUMP JUMPDEST CALLER ORIGIN EQ PUSH3 0x62D JUMPI PUSH1 0x40 MLOAD PUSH3 0x461BCD PUSH1 0xE5 SHL DUP2 MSTORE PUSH1 0x20 PUSH1 0x4 DUP3 ADD MSTORE PUSH1 0x1F PUSH1 0x24 DUP3 ADD MSTORE PUSH32 0x436F6E74726163742061646472657373206973206E6F7420616C6C6F77656400 PUSH1 0x44 DUP3 ADD MSTORE PUSH1 0x64 ADD PUSH3 0x4CD JUMP JUMPDEST DUP4 PUSH1 0xA0 ADD CALLDATALOAD TIMESTAMP GT ISZERO PUSH3 0x683 JUMPI PUSH1 0x40 MLOAD PUSH3 0x461BCD PUSH1 0xE5 SHL DUP2 MSTORE PUSH1 0x20 PUSH1 0x4 DUP3 ADD MSTORE PUSH1 0x1D PUSH1 0x24 DUP3 ADD MSTORE PUSH32 0x496E76616C69642065787069726174696F6E20696E206465706F736974000000 PUSH1 0x44 DUP3 ADD MSTORE PUSH1 0x64 ADD PUSH3 0x4CD JUMP JUMPDEST PUSH3 0x695 PUSH1 0xA0 DUP6 ADD PUSH1 0x80 DUP7 ADD PUSH3 0x1C60 JUMP JUMPDEST PUSH3 0x6DB JUMPI PUSH1 0x40 MLOAD PUSH3 0x461BCD PUSH1 0xE5 SHL DUP2 MSTORE PUSH1 0x20 PUSH1 0x4 DUP3 ADD MSTORE PUSH1 0x15 PUSH1 0x24 DUP3 ADD MSTORE PUSH21 0x4D696E74206973206E6F7420617661696C61626C65 PUSH1 0x58 SHL PUSH1 0x44 DUP3 ADD MSTORE PUSH1 0x64 ADD PUSH3 0x4CD JUMP JUMPDEST PUSH1 0x0 PUSH1 0x5 DUP2 PUSH3 0x6F2 PUSH1 0x60 DUP9 ADD PUSH1 0x40 DUP10 ADD PUSH3 0x1AD7 JUMP JUMPDEST PUSH1 0x1 PUSH1 0x1 PUSH1 0xA0 SHL SUB AND DUP2 MSTORE PUSH1 0x20 DUP2 ADD SWAP2 SWAP1 SWAP2 MSTORE PUSH1 0x40 ADD PUSH1 0x0 SWAP1 DUP2 KECCAK256 SWAP1 PUSH3 0x720 PUSH1 0x80 DUP9 ADD PUSH1 0x60 DUP10 ADD PUSH3 0x1C80 JUMP JUMPDEST PUSH2 0xFFFF AND DUP2 MSTORE PUSH1 0x20 DUP2 ADD SWAP2 SWAP1 SWAP2 MSTORE PUSH1 0x40 ADD PUSH1 0x0 KECCAK256 SLOAD PUSH1 0x1 PUSH1 0x1 PUSH1 0xA0 SHL SUB AND SWAP1 POP DUP1 PUSH3 0x78F JUMPI PUSH1 0x40 MLOAD PUSH3 0x461BCD PUSH1 0xE5 SHL DUP2 MSTORE PUSH1 0x20 PUSH1 0x4 DUP3 ADD DUP2 SWAP1 MSTORE PUSH1 0x24 DUP3 ADD MSTORE PUSH32 0x4C5A53656E64657220636F6E7472616374206973206E6F742063726561746564 PUSH1 0x44 DUP3 ADD MSTORE PUSH1 0x64 ADD PUSH3 0x4CD JUMP JUMPDEST PUSH3 0x805 PUSH3 0x7C8 PUSH3 0x7C2 PUSH3 0x7AC CALLDATASIZE DUP10 SWAP1 SUB DUP10 ADD DUP10 PUSH3 0x1CB4 JUMP JUMPDEST CALLER PUSH1 0x0 SWAP1 DUP2 MSTORE PUSH1 0x4 PUSH1 0x20 MSTORE PUSH1 0x40 SWAP1 KECCAK256 SLOAD PUSH3 0xFB2 JUMP JUMPDEST PUSH3 0x106A JUMP JUMPDEST DUP6 DUP6 DUP1 DUP1 PUSH1 0x1F ADD PUSH1 0x20 DUP1 SWAP2 DIV MUL PUSH1 0x20 ADD PUSH1 0x40 MLOAD SWAP1 DUP2 ADD PUSH1 0x40 MSTORE DUP1 SWAP4 SWAP3 SWAP2 SWAP1 DUP2 DUP2 MSTORE PUSH1 0x20 ADD DUP4 DUP4 DUP1 DUP3 DUP5 CALLDATACOPY PUSH1 0x0 SWAP3 ADD SWAP2 SWAP1 SWAP2 MSTORE POP PUSH3 0x1081 SWAP3 POP POP POP JUMP JUMPDEST PUSH3 0x847 JUMPI PUSH1 0x40 MLOAD PUSH3 0x461BCD PUSH1 0xE5 SHL DUP2 MSTORE PUSH1 0x20 PUSH1 0x4 DUP3 ADD MSTORE PUSH1 0x11 PUSH1 0x24 DUP3 ADD MSTORE PUSH17 0x496E76616C6964207369676E6174757265 PUSH1 0x78 SHL PUSH1 0x44 DUP3 ADD MSTORE PUSH1 0x64 ADD PUSH3 0x4CD JUMP JUMPDEST CALLER PUSH1 0x0 SWAP1 DUP2 MSTORE PUSH1 0x4 PUSH1 0x20 MSTORE PUSH1 0x40 DUP2 KECCAK256 DUP1 SLOAD PUSH1 0x1 ADD SWAP1 SSTORE PUSH1 0x2 SLOAD PUSH2 0x2710 DUP8 CALLDATALOAD PUSH2 0x100 SWAP1 SWAP3 DIV PUSH1 0x1 PUSH1 0x1 PUSH1 0x60 SHL SUB AND DUP3 MUL DIV SWAP2 SWAP1 PUSH3 0x886 SWAP1 DUP4 SWAP1 PUSH3 0x1D6F JUMP JUMPDEST SWAP1 POP PUSH1 0x0 CALLER PUSH1 0x20 DUP10 ADD CALLDATALOAD PUSH3 0x8A2 PUSH1 0x60 DUP12 ADD PUSH1 0x40 DUP13 ADD PUSH3 0x1AD7 JUMP JUMPDEST PUSH1 0x40 MLOAD PUSH12 0xFFFFFFFFFFFFFFFFFFFFFFFF NOT PUSH1 0x60 SWAP5 DUP6 SHL DUP2 AND PUSH1 0x20 DUP4 ADD MSTORE PUSH1 0x34 DUP3 ADD SWAP4 SWAP1 SWAP4 MSTORE SWAP3 SHL AND PUSH1 0x54 DUP3 ADD MSTORE PUSH1 0x68 ADD PUSH1 0x40 MLOAD PUSH1 0x20 DUP2 DUP4 SUB SUB DUP2 MSTORE SWAP1 PUSH1 0x40 MSTORE SWAP1 POP PUSH3 0x961 DUP5 DUP3 CALLER PUSH1 0x40 MLOAD PUSH1 0x24 ADD PUSH3 0x8FD SWAP3 SWAP2 SWAP1 PUSH3 0x1DD9 JUMP JUMPDEST PUSH1 0x40 DUP1 MLOAD PUSH1 0x1F NOT DUP2 DUP5 SUB ADD DUP2 MSTORE SWAP2 DUP2 MSTORE PUSH1 0x20 DUP1 DUP4 ADD DUP1 MLOAD PUSH1 0x1 PUSH1 0x1 PUSH1 0xE0 SHL SUB AND PUSH4 0xB0374EB PUSH1 0xE2 SHL OR SWAP1 MSTORE DUP2 MLOAD DUP1 DUP4 ADD SWAP1 SWAP3 MSTORE PUSH1 0x19 DUP3 MSTORE PUSH32 0x4661696C656420746F2073656E64204C5A206D65737361676500000000000000 SWAP1 DUP3 ADD MSTORE DUP9 SWAP1 PUSH3 0x10BB JUMP JUMPDEST POP PUSH1 0x3 SLOAD PUSH3 0x9A0 SWAP1 PUSH1 0x1 PUSH1 0x1 PUSH1 0xA0 SHL SUB PUSH32 0x0 DUP2 AND SWAP2 CALLER SWAP2 AND DUP7 PUSH3 0x11A0 JUMP JUMPDEST PUSH3 0x9EA CALLER PUSH3 0x9B7 PUSH1 0x60 DUP12 ADD PUSH1 0x40 DUP13 ADD PUSH3 0x1AD7 JUMP JUMPDEST PUSH1 0x1 PUSH1 0x1 PUSH1 0xA0 SHL SUB PUSH32 0x0 AND SWAP2 SWAP1 DUP6 PUSH3 0x11A0 JUMP JUMPDEST PUSH32 0x2F54E8025778F8C9994DF64D5A3CCCC164943EFFDCE0AD2AEAF891DBB6968DAE DUP9 PUSH1 0x40 MLOAD PUSH3 0xA1B SWAP2 SWAP1 PUSH3 0x1E05 JUMP JUMPDEST PUSH1 0x40 MLOAD DUP1 SWAP2 SUB SWAP1 LOG1 POP POP POP POP PUSH3 0xA31 PUSH1 0x1 DUP1 SSTORE JUMP JUMPDEST POP POP POP POP JUMP JUMPDEST PUSH1 0x0 DUP4 DUP3 PUSH1 0x40 MLOAD PUSH3 0xA49 SWAP1 PUSH3 0x1A37 JUMP JUMPDEST PUSH1 0x1 PUSH1 0x1 PUSH1 0xA0 SHL SUB SWAP1 SWAP3 AND DUP3 MSTORE PUSH2 0xFFFF AND PUSH1 0x20 DUP3 ADD MSTORE PUSH1 0x40 ADD PUSH1 0x40 MLOAD DUP1 SWAP2 SUB SWAP1 PUSH1 0x0 CREATE DUP1 ISZERO DUP1 ISZERO PUSH3 0xA7F JUMPI RETURNDATASIZE PUSH1 0x0 DUP1 RETURNDATACOPY RETURNDATASIZE PUSH1 0x0 REVERT JUMPDEST POP PUSH1 0x40 MLOAD PUSH12 0xFFFFFFFFFFFFFFFFFFFFFFFF NOT PUSH1 0x60 DUP7 DUP2 SHL DUP3 AND PUSH1 0x20 DUP5 ADD MSTORE DUP4 SWAP1 SHL AND PUSH1 0x34 DUP3 ADD MSTORE SWAP1 SWAP2 POP DUP2 SWAP1 PUSH1 0x0 SWAP1 PUSH1 0x48 ADD PUSH1 0x40 DUP1 MLOAD PUSH1 0x1F NOT DUP2 DUP5 SUB ADD DUP2 MSTORE SWAP1 DUP3 SWAP1 MSTORE PUSH4 0xEB8D72B7 PUSH1 0xE0 SHL DUP3 MSTORE SWAP2 POP PUSH1 0x1 PUSH1 0x1 PUSH1 0xA0 SHL SUB DUP5 AND SWAP1 PUSH4 0xEB8D72B7 SWAP1 PUSH3 0xAF1 SWAP1 DUP8 SWAP1 DUP6 SWAP1 PUSH1 0x4 ADD PUSH3 0x1E73 JUMP JUMPDEST PUSH1 0x0 PUSH1 0x40 MLOAD DUP1 DUP4 SUB DUP2 PUSH1 0x0 DUP8 DUP1 EXTCODESIZE ISZERO DUP1 ISZERO PUSH3 0xB0C JUMPI PUSH1 0x0 DUP1 REVERT JUMPDEST POP GAS CALL ISZERO DUP1 ISZERO PUSH3 0xB21 JUMPI RETURNDATASIZE PUSH1 0x0 DUP1 RETURNDATACOPY RETURNDATASIZE PUSH1 0x0 REVERT JUMPDEST POP POP CALLER PUSH1 0x0 DUP2 DUP2 MSTORE PUSH1 0x5 PUSH1 0x20 SWAP1 DUP2 MSTORE PUSH1 0x40 DUP1 DUP4 KECCAK256 PUSH2 0xFFFF DUP12 AND DUP1 DUP6 MSTORE SWAP1 DUP4 MSTORE SWAP3 DUP2 SWAP1 KECCAK256 DUP1 SLOAD PUSH1 0x1 PUSH1 0x1 PUSH1 0xA0 SHL SUB NOT AND PUSH1 0x1 PUSH1 0x1 PUSH1 0xA0 SHL SUB DUP11 DUP2 AND SWAP2 SWAP1 SWAP2 OR SWAP1 SWAP2 SSTORE DUP2 MLOAD SWAP5 DUP6 MSTORE DUP12 AND SWAP2 DUP5 ADD SWAP2 SWAP1 SWAP2 MSTORE DUP3 ADD MSTORE PUSH32 0xED3118257F65B09800EB55A189DADB80679F57CADD83E3B8F112ECF7974CFAD SWAP3 POP PUSH1 0x60 ADD SWAP1 POP PUSH1 0x40 MLOAD DUP1 SWAP2 SUB SWAP1 LOG1 POP POP POP POP POP POP JUMP JUMPDEST PUSH1 0x0 PUSH3 0xBB8 DUP2 PUSH3 0xDBD JUMP JUMPDEST PUSH3 0x5C5 PUSH3 0x11FC JUMP JUMPDEST PUSH1 0x0 SWAP2 DUP3 MSTORE PUSH1 0x20 DUP3 DUP2 MSTORE PUSH1 0x40 DUP1 DUP5 KECCAK256 PUSH1 0x1 PUSH1 0x1 PUSH1 0xA0 SHL SUB SWAP4 SWAP1 SWAP4 AND DUP5 MSTORE SWAP2 SWAP1 MSTORE SWAP1 KECCAK256 SLOAD PUSH1 0xFF AND SWAP1 JUMP JUMPDEST PUSH1 0x0 DUP3 DUP2 MSTORE PUSH1 0x20 DUP2 SWAP1 MSTORE PUSH1 0x40 SWAP1 KECCAK256 PUSH1 0x1 ADD SLOAD PUSH3 0xC08 DUP2 PUSH3 0xDBD JUMP JUMPDEST PUSH3 0x453 DUP4 DUP4 PUSH3 0xE51 JUMP JUMPDEST PUSH1 0x0 PUSH3 0xC21 DUP2 PUSH3 0xDBD JUMP JUMPDEST PUSH3 0x5AA PUSH32 0x2561BF26F818282A3BE40719542054D2173EB0D38539E8A8D3CFF22F29FD2384 DUP4 PUSH3 0xDC9 JUMP JUMPDEST PUSH1 0x0 PUSH3 0xC5A DUP2 PUSH3 0xDBD JUMP JUMPDEST PUSH1 0x0 DUP3 PUSH1 0x1 PUSH1 0x1 PUSH1 0x60 SHL SUB AND GT PUSH3 0xCC3 JUMPI PUSH1 0x40 MLOAD PUSH3 0x461BCD PUSH1 0xE5 SHL DUP2 MSTORE PUSH1 0x20 PUSH1 0x4 DUP3 ADD MSTORE PUSH1 0x25 PUSH1 0x24 DUP3 ADD MSTORE PUSH32 0x706C6174666F726D466565206D7573742062652067726561746572207468616E PUSH1 0x44 DUP3 ADD MSTORE PUSH5 0x207A65726F PUSH1 0xD8 SHL PUSH1 0x64 DUP3 ADD MSTORE PUSH1 0x84 ADD PUSH3 0x4CD JUMP JUMPDEST PUSH2 0x2710 DUP3 PUSH1 0x1 PUSH1 0x1 PUSH1 0x60 SHL SUB AND LT PUSH3 0xD2A JUMPI PUSH1 0x40 MLOAD PUSH3 0x461BCD PUSH1 0xE5 SHL DUP2 MSTORE PUSH1 0x20 PUSH1 0x4 DUP3 ADD MSTORE PUSH1 0x22 PUSH1 0x24 DUP3 ADD MSTORE PUSH32 0x706C6174666F726D466565206D757374206265206C657373207468616E203130 PUSH1 0x44 DUP3 ADD MSTORE PUSH2 0x3025 PUSH1 0xF0 SHL PUSH1 0x64 DUP3 ADD MSTORE PUSH1 0x84 ADD PUSH3 0x4CD JUMP JUMPDEST PUSH1 0x2 DUP1 SLOAD PUSH13 0xFFFFFFFFFFFFFFFFFFFFFFFF00 NOT AND PUSH2 0x100 PUSH1 0x1 PUSH1 0x1 PUSH1 0x60 SHL SUB DUP6 AND SWAP1 DUP2 MUL SWAP2 SWAP1 SWAP2 OR SWAP1 SWAP2 SSTORE PUSH1 0x40 MLOAD SWAP1 DUP2 MSTORE PUSH32 0xBE3599C33046219DDC3706F4B99CACA706DC0F53775580D18A367DC2188C96E5 SWAP1 PUSH1 0x20 ADD PUSH3 0x520 JUMP JUMPDEST PUSH1 0x0 PUSH1 0x1 PUSH1 0x1 PUSH1 0xE0 SHL SUB NOT DUP3 AND PUSH4 0x7965DB0B PUSH1 0xE0 SHL EQ DUP1 PUSH3 0x424 JUMPI POP PUSH4 0x1FFC9A7 PUSH1 0xE0 SHL PUSH1 0x1 PUSH1 0x1 PUSH1 0xE0 SHL SUB NOT DUP4 AND EQ PUSH3 0x424 JUMP JUMPDEST PUSH3 0x5C5 DUP2 CALLER PUSH3 0x123C JUMP JUMPDEST PUSH3 0xDD5 DUP3 DUP3 PUSH3 0xBC2 JUMP JUMPDEST PUSH3 0x5AA JUMPI PUSH1 0x0 DUP3 DUP2 MSTORE PUSH1 0x20 DUP2 DUP2 MSTORE PUSH1 0x40 DUP1 DUP4 KECCAK256 PUSH1 0x1 PUSH1 0x1 PUSH1 0xA0 SHL SUB DUP6 AND DUP5 MSTORE SWAP1 SWAP2 MSTORE SWAP1 KECCAK256 DUP1 SLOAD PUSH1 0xFF NOT AND PUSH1 0x1 OR SWAP1 SSTORE PUSH3 0xE0D CALLER SWAP1 JUMP JUMPDEST PUSH1 0x1 PUSH1 0x1 PUSH1 0xA0 SHL SUB AND DUP2 PUSH1 0x1 PUSH1 0x1 PUSH1 0xA0 SHL SUB AND DUP4 PUSH32 0x2F8788117E7EFF1D82E926EC794901D17C78024A50270940304540A733656F0D PUSH1 0x40 MLOAD PUSH1 0x40 MLOAD DUP1 SWAP2 SUB SWAP1 LOG4 POP POP JUMP JUMPDEST PUSH3 0xE5D DUP3 DUP3 PUSH3 0xBC2 JUMP JUMPDEST ISZERO PUSH3 0x5AA JUMPI PUSH1 0x0 DUP3 DUP2 MSTORE PUSH1 0x20 DUP2 DUP2 MSTORE PUSH1 0x40 DUP1 DUP4 KECCAK256 PUSH1 0x1 PUSH1 0x1 PUSH1 0xA0 SHL SUB DUP6 AND DUP1 DUP6 MSTORE SWAP3 MSTORE DUP1 DUP4 KECCAK256 DUP1 SLOAD PUSH1 0xFF NOT AND SWAP1 SSTORE MLOAD CALLER SWAP3 DUP6 SWAP2 PUSH32 0xF6391F5C32D9C69D2A47EA670B442974B53935D1EDC7FD64EB21E047A839171B SWAP2 SWAP1 LOG4 POP POP JUMP JUMPDEST PUSH3 0xEC3 PUSH3 0x12A0 JUMP JUMPDEST PUSH1 0x2 DUP1 SLOAD PUSH1 0xFF NOT AND SWAP1 SSTORE PUSH32 0x5DB9EE0A495BF2E6FF9C91A7834C1BA4FDD244A5E8AA4E537BD38AEAE4B073AA CALLER JUMPDEST PUSH1 0x40 MLOAD PUSH1 0x1 PUSH1 0x1 PUSH1 0xA0 SHL SUB SWAP1 SWAP2 AND DUP2 MSTORE PUSH1 0x20 ADD PUSH1 0x40 MLOAD DUP1 SWAP2 SUB SWAP1 LOG1 JUMP JUMPDEST PUSH1 0x2 PUSH1 0x1 SLOAD SUB PUSH3 0xF61 JUMPI PUSH1 0x40 MLOAD PUSH3 0x461BCD PUSH1 0xE5 SHL DUP2 MSTORE PUSH1 0x20 PUSH1 0x4 DUP3 ADD MSTORE PUSH1 0x1F PUSH1 0x24 DUP3 ADD MSTORE PUSH32 0x5265656E7472616E637947756172643A207265656E7472616E742063616C6C00 PUSH1 0x44 DUP3 ADD MSTORE PUSH1 0x64 ADD PUSH3 0x4CD JUMP JUMPDEST PUSH1 0x2 PUSH1 0x1 SSTORE JUMP JUMPDEST PUSH1 0x2 SLOAD PUSH1 0xFF AND ISZERO PUSH3 0xFB0 JUMPI PUSH1 0x40 MLOAD PUSH3 0x461BCD PUSH1 0xE5 SHL DUP2 MSTORE PUSH1 0x20 PUSH1 0x4 DUP3 ADD MSTORE PUSH1 0x10 PUSH1 0x24 DUP3 ADD MSTORE PUSH16 0x14185D5CD8589B194E881C185D5CD959 PUSH1 0x82 SHL PUSH1 0x44 DUP3 ADD MSTORE PUSH1 0x64 ADD PUSH3 0x4CD JUMP JUMPDEST JUMP JUMPDEST PUSH1 0x0 PUSH32 0x67C02DE736E9C6DC641C0BCEE496661B6FC4F976C46FAB69B489896B51083B8C DUP4 PUSH1 0x0 ADD MLOAD DUP5 PUSH1 0x20 ADD MLOAD DUP6 PUSH1 0x40 ADD MLOAD DUP7 PUSH1 0x60 ADD MLOAD DUP8 PUSH1 0x80 ADD MLOAD DUP8 DUP10 PUSH1 0xA0 ADD MLOAD PUSH1 0x40 MLOAD PUSH1 0x20 ADD PUSH3 0x104C SWAP9 SWAP8 SWAP7 SWAP6 SWAP5 SWAP4 SWAP3 SWAP2 SWAP1 SWAP8 DUP9 MSTORE PUSH1 0x20 DUP9 ADD SWAP7 SWAP1 SWAP7 MSTORE PUSH1 0x40 DUP8 ADD SWAP5 SWAP1 SWAP5 MSTORE PUSH1 0x1 PUSH1 0x1 PUSH1 0xA0 SHL SUB SWAP3 SWAP1 SWAP3 AND PUSH1 0x60 DUP7 ADD MSTORE PUSH2 0xFFFF AND PUSH1 0x80 DUP6 ADD MSTORE ISZERO ISZERO PUSH1 0xA0 DUP5 ADD MSTORE PUSH1 0xC0 DUP4 ADD MSTORE PUSH1 0xE0 DUP3 ADD MSTORE PUSH2 0x100 ADD SWAP1 JUMP JUMPDEST PUSH1 0x40 MLOAD PUSH1 0x20 DUP2 DUP4 SUB SUB DUP2 MSTORE SWAP1 PUSH1 0x40 MSTORE DUP1 MLOAD SWAP1 PUSH1 0x20 ADD KECCAK256 SWAP1 POP SWAP3 SWAP2 POP POP JUMP JUMPDEST PUSH1 0x0 PUSH3 0x424 PUSH3 0x107A PUSH3 0x12EB JUMP JUMPDEST DUP4 PUSH3 0x1414 JUMP JUMPDEST PUSH1 0x0 PUSH3 0x10B4 PUSH32 0x2561BF26F818282A3BE40719542054D2173EB0D38539E8A8D3CFF22F29FD2384 PUSH3 0x32D DUP6 DUP6 PUSH3 0x143C JUMP JUMPDEST SWAP4 SWAP3 POP POP POP JUMP JUMPDEST PUSH1 0x60 DUP3 SELFBALANCE LT ISZERO PUSH3 0x111E JUMPI PUSH1 0x40 MLOAD PUSH3 0x461BCD PUSH1 0xE5 SHL DUP2 MSTORE PUSH1 0x20 PUSH1 0x4 DUP3 ADD MSTORE PUSH1 0x26 PUSH1 0x24 DUP3 ADD MSTORE PUSH32 0x416464726573733A20696E73756666696369656E742062616C616E636520666F PUSH1 0x44 DUP3 ADD MSTORE PUSH6 0x1C8818D85B1B PUSH1 0xD2 SHL PUSH1 0x64 DUP3 ADD MSTORE PUSH1 0x84 ADD PUSH3 0x4CD JUMP JUMPDEST PUSH1 0x0 DUP1 DUP7 PUSH1 0x1 PUSH1 0x1 PUSH1 0xA0 SHL SUB AND DUP6 DUP8 PUSH1 0x40 MLOAD PUSH3 0x113C SWAP2 SWAP1 PUSH3 0x1E92 JUMP JUMPDEST PUSH1 0x0 PUSH1 0x40 MLOAD DUP1 DUP4 SUB DUP2 DUP6 DUP8 GAS CALL SWAP3 POP POP POP RETURNDATASIZE DUP1 PUSH1 0x0 DUP2 EQ PUSH3 0x117B JUMPI PUSH1 0x40 MLOAD SWAP2 POP PUSH1 0x1F NOT PUSH1 0x3F RETURNDATASIZE ADD AND DUP3 ADD PUSH1 0x40 MSTORE RETURNDATASIZE DUP3 MSTORE RETURNDATASIZE PUSH1 0x0 PUSH1 0x20 DUP5 ADD RETURNDATACOPY PUSH3 0x1180 JUMP JUMPDEST PUSH1 0x60 SWAP2 POP JUMPDEST POP SWAP2 POP SWAP2 POP PUSH3 0x1193 DUP8 DUP4 DUP4 DUP8 PUSH3 0x1464 JUMP JUMPDEST SWAP3 POP POP POP JUMPDEST SWAP5 SWAP4 POP POP POP POP JUMP JUMPDEST PUSH1 0x40 DUP1 MLOAD PUSH1 0x1 PUSH1 0x1 PUSH1 0xA0 SHL SUB DUP6 DUP2 AND PUSH1 0x24 DUP4 ADD MSTORE DUP5 AND PUSH1 0x44 DUP3 ADD MSTORE PUSH1 0x64 DUP1 DUP3 ADD DUP5 SWAP1 MSTORE DUP3 MLOAD DUP1 DUP4 SUB SWAP1 SWAP2 ADD DUP2 MSTORE PUSH1 0x84 SWAP1 SWAP2 ADD SWAP1 SWAP2 MSTORE PUSH1 0x20 DUP2 ADD DUP1 MLOAD PUSH1 0x1 PUSH1 0x1 PUSH1 0xE0 SHL SUB AND PUSH4 0x23B872DD PUSH1 0xE0 SHL OR SWAP1 MSTORE PUSH3 0xA31 SWAP1 DUP6 SWAP1 PUSH3 0x14E4 JUMP JUMPDEST PUSH3 0x1206 PUSH3 0xF68 JUMP JUMPDEST PUSH1 0x2 DUP1 SLOAD PUSH1 0xFF NOT AND PUSH1 0x1 OR SWAP1 SSTORE PUSH32 0x62E78CEA01BEE320CD4E420270B5EA74000D11B0C9F74754EBDBFC544B05A258 PUSH3 0xEF0 CALLER SWAP1 JUMP JUMPDEST PUSH3 0x1248 DUP3 DUP3 PUSH3 0xBC2 JUMP JUMPDEST PUSH3 0x5AA JUMPI PUSH3 0x1258 DUP2 PUSH3 0x15BD JUMP JUMPDEST PUSH3 0x1265 DUP4 PUSH1 0x20 PUSH3 0x15D0 JUMP JUMPDEST PUSH1 0x40 MLOAD PUSH1 0x20 ADD PUSH3 0x1278 SWAP3 SWAP2 SWAP1 PUSH3 0x1EB0 JUMP JUMPDEST PUSH1 0x40 DUP1 MLOAD PUSH1 0x1F NOT DUP2 DUP5 SUB ADD DUP2 MSTORE SWAP1 DUP3 SWAP1 MSTORE PUSH3 0x461BCD PUSH1 0xE5 SHL DUP3 MSTORE PUSH3 0x4CD SWAP2 PUSH1 0x4 ADD PUSH3 0x1F29 JUMP JUMPDEST PUSH1 0x2 SLOAD PUSH1 0xFF AND PUSH3 0xFB0 JUMPI PUSH1 0x40 MLOAD PUSH3 0x461BCD PUSH1 0xE5 SHL DUP2 MSTORE PUSH1 0x20 PUSH1 0x4 DUP3 ADD MSTORE PUSH1 0x14 PUSH1 0x24 DUP3 ADD MSTORE PUSH20 0x14185D5CD8589B194E881B9BDD081C185D5CD959 PUSH1 0x62 SHL PUSH1 0x44 DUP3 ADD MSTORE PUSH1 0x64 ADD PUSH3 0x4CD JUMP JUMPDEST PUSH1 0x0 ADDRESS PUSH1 0x1 PUSH1 0x1 PUSH1 0xA0 SHL SUB PUSH32 0x0 AND EQ DUP1 ISZERO PUSH3 0x1345 JUMPI POP PUSH32 0x0 CHAINID EQ JUMPDEST ISZERO PUSH3 0x1370 JUMPI POP PUSH32 0x0 SWAP1 JUMP JUMPDEST POP PUSH1 0x40 DUP1 MLOAD PUSH32 0x0 PUSH1 0x20 DUP1 DUP4 ADD SWAP2 SWAP1 SWAP2 MSTORE PUSH32 0x0 DUP3 DUP5 ADD MSTORE PUSH32 0x0 PUSH1 0x60 DUP4 ADD MSTORE CHAINID PUSH1 0x80 DUP4 ADD MSTORE ADDRESS PUSH1 0xA0 DUP1 DUP5 ADD SWAP2 SWAP1 SWAP2 MSTORE DUP4 MLOAD DUP1 DUP5 SUB SWAP1 SWAP2 ADD DUP2 MSTORE PUSH1 0xC0 SWAP1 SWAP3 ADD SWAP1 SWAP3 MSTORE DUP1 MLOAD SWAP2 ADD KECCAK256 SWAP1 JUMP JUMPDEST PUSH1 0x40 MLOAD PUSH2 0x1901 PUSH1 0xF0 SHL PUSH1 0x20 DUP3 ADD MSTORE PUSH1 0x22 DUP2 ADD DUP4 SWAP1 MSTORE PUSH1 0x42 DUP2 ADD DUP3 SWAP1 MSTORE PUSH1 0x0 SWAP1 PUSH1 0x62 ADD PUSH3 0x104C JUMP JUMPDEST PUSH1 0x0 DUP1 PUSH1 0x0 PUSH3 0x144D DUP6 DUP6 PUSH3 0x178A JUMP JUMPDEST SWAP2 POP SWAP2 POP PUSH3 0x145C DUP2 PUSH3 0x17D3 JUMP JUMPDEST POP SWAP4 SWAP3 POP POP POP JUMP JUMPDEST PUSH1 0x60 DUP4 ISZERO PUSH3 0x14D8 JUMPI DUP3 MLOAD PUSH1 0x0 SUB PUSH3 0x14D0 JUMPI PUSH1 0x1 PUSH1 0x1 PUSH1 0xA0 SHL SUB DUP6 AND EXTCODESIZE PUSH3 0x14D0 JUMPI PUSH1 0x40 MLOAD PUSH3 0x461BCD PUSH1 0xE5 SHL DUP2 MSTORE PUSH1 0x20 PUSH1 0x4 DUP3 ADD MSTORE PUSH1 0x1D PUSH1 0x24 DUP3 ADD MSTORE PUSH32 0x416464726573733A2063616C6C20746F206E6F6E2D636F6E7472616374000000 PUSH1 0x44 DUP3 ADD MSTORE PUSH1 0x64 ADD PUSH3 0x4CD JUMP JUMPDEST POP DUP2 PUSH3 0x1198 JUMP JUMPDEST PUSH3 0x1198 DUP4 DUP4 PUSH3 0x1930 JUMP JUMPDEST PUSH1 0x0 PUSH3 0x153B DUP3 PUSH1 0x40 MLOAD DUP1 PUSH1 0x40 ADD PUSH1 0x40 MSTORE DUP1 PUSH1 0x20 DUP2 MSTORE PUSH1 0x20 ADD PUSH32 0x5361666545524332303A206C6F772D6C6576656C2063616C6C206661696C6564 DUP2 MSTORE POP DUP6 PUSH1 0x1 PUSH1 0x1 PUSH1 0xA0 SHL SUB AND PUSH3 0x195D SWAP1 SWAP3 SWAP2 SWAP1 PUSH4 0xFFFFFFFF AND JUMP JUMPDEST DUP1 MLOAD SWAP1 SWAP2 POP ISZERO PUSH3 0x453 JUMPI DUP1 DUP1 PUSH1 0x20 ADD SWAP1 MLOAD DUP2 ADD SWAP1 PUSH3 0x155C SWAP2 SWAP1 PUSH3 0x1F3E JUMP JUMPDEST PUSH3 0x453 JUMPI PUSH1 0x40 MLOAD PUSH3 0x461BCD PUSH1 0xE5 SHL DUP2 MSTORE PUSH1 0x20 PUSH1 0x4 DUP3 ADD MSTORE PUSH1 0x2A PUSH1 0x24 DUP3 ADD MSTORE PUSH32 0x5361666545524332303A204552433230206F7065726174696F6E20646964206E PUSH1 0x44 DUP3 ADD MSTORE PUSH10 0x1BDD081CDD58D8D95959 PUSH1 0xB2 SHL PUSH1 0x64 DUP3 ADD MSTORE PUSH1 0x84 ADD PUSH3 0x4CD JUMP JUMPDEST PUSH1 0x60 PUSH3 0x424 PUSH1 0x1 PUSH1 0x1 PUSH1 0xA0 SHL SUB DUP4 AND PUSH1 0x14 JUMPDEST PUSH1 0x60 PUSH1 0x0 PUSH3 0x15E1 DUP4 PUSH1 0x2 PUSH3 0x1F5E JUMP JUMPDEST PUSH3 0x15EE SWAP1 PUSH1 0x2 PUSH3 0x1F78 JUMP JUMPDEST PUSH8 0xFFFFFFFFFFFFFFFF DUP2 GT ISZERO PUSH3 0x1609 JUMPI PUSH3 0x1609 PUSH3 0x1C9E JUMP JUMPDEST PUSH1 0x40 MLOAD SWAP1 DUP1 DUP3 MSTORE DUP1 PUSH1 0x1F ADD PUSH1 0x1F NOT AND PUSH1 0x20 ADD DUP3 ADD PUSH1 0x40 MSTORE DUP1 ISZERO PUSH3 0x1634 JUMPI PUSH1 0x20 DUP3 ADD DUP2 DUP1 CALLDATASIZE DUP4 CALLDATACOPY ADD SWAP1 POP JUMPDEST POP SWAP1 POP PUSH1 0x3 PUSH1 0xFC SHL DUP2 PUSH1 0x0 DUP2 MLOAD DUP2 LT PUSH3 0x1652 JUMPI PUSH3 0x1652 PUSH3 0x1F8E JUMP JUMPDEST PUSH1 0x20 ADD ADD SWAP1 PUSH1 0x1 PUSH1 0x1 PUSH1 0xF8 SHL SUB NOT AND SWAP1 DUP2 PUSH1 0x0 BYTE SWAP1 MSTORE8 POP PUSH1 0xF PUSH1 0xFB SHL DUP2 PUSH1 0x1 DUP2 MLOAD DUP2 LT PUSH3 0x1684 JUMPI PUSH3 0x1684 PUSH3 0x1F8E JUMP JUMPDEST PUSH1 0x20 ADD ADD SWAP1 PUSH1 0x1 PUSH1 0x1 PUSH1 0xF8 SHL SUB NOT AND SWAP1 DUP2 PUSH1 0x0 BYTE SWAP1 MSTORE8 POP PUSH1 0x0 PUSH3 0x16AA DUP5 PUSH1 0x2 PUSH3 0x1F5E JUMP JUMPDEST PUSH3 0x16B7 SWAP1 PUSH1 0x1 PUSH3 0x1F78 JUMP JUMPDEST SWAP1 POP JUMPDEST PUSH1 0x1 DUP2 GT ISZERO PUSH3 0x1739 JUMPI PUSH16 0x181899199A1A9B1B9C1CB0B131B232B3 PUSH1 0x81 SHL DUP6 PUSH1 0xF AND PUSH1 0x10 DUP2 LT PUSH3 0x16EF JUMPI PUSH3 0x16EF PUSH3 0x1F8E JUMP JUMPDEST BYTE PUSH1 0xF8 SHL DUP3 DUP3 DUP2 MLOAD DUP2 LT PUSH3 0x1708 JUMPI PUSH3 0x1708 PUSH3 0x1F8E JUMP JUMPDEST PUSH1 0x20 ADD ADD SWAP1 PUSH1 0x1 PUSH1 0x1 PUSH1 0xF8 SHL SUB NOT AND SWAP1 DUP2 PUSH1 0x0 BYTE SWAP1 MSTORE8 POP PUSH1 0x4 SWAP5 SWAP1 SWAP5 SHR SWAP4 PUSH3 0x1731 DUP2 PUSH3 0x1FA4 JUMP JUMPDEST SWAP1 POP PUSH3 0x16BA JUMP JUMPDEST POP DUP4 ISZERO PUSH3 0x10B4 JUMPI PUSH1 0x40 MLOAD PUSH3 0x461BCD PUSH1 0xE5 SHL DUP2 MSTORE PUSH1 0x20 PUSH1 0x4 DUP3 ADD DUP2 SWAP1 MSTORE PUSH1 0x24 DUP3 ADD MSTORE PUSH32 0x537472696E67733A20686578206C656E67746820696E73756666696369656E74 PUSH1 0x44 DUP3 ADD MSTORE PUSH1 0x64 ADD PUSH3 0x4CD JUMP JUMPDEST PUSH1 0x0 DUP1 DUP3 MLOAD PUSH1 0x41 SUB PUSH3 0x17C4 JUMPI PUSH1 0x20 DUP4 ADD MLOAD PUSH1 0x40 DUP5 ADD MLOAD PUSH1 0x60 DUP6 ADD MLOAD PUSH1 0x0 BYTE PUSH3 0x17B7 DUP8 DUP3 DUP6 DUP6 PUSH3 0x196E JUMP JUMPDEST SWAP5 POP SWAP5 POP POP POP POP PUSH3 0x17CC JUMP JUMPDEST POP PUSH1 0x0 SWAP1 POP PUSH1 0x2 JUMPDEST SWAP3 POP SWAP3 SWAP1 POP JUMP JUMPDEST PUSH1 0x0 DUP2 PUSH1 0x4 DUP2 GT ISZERO PUSH3 0x17EA JUMPI PUSH3 0x17EA PUSH3 0x1FBE JUMP JUMPDEST SUB PUSH3 0x17F3 JUMPI POP JUMP JUMPDEST PUSH1 0x1 DUP2 PUSH1 0x4 DUP2 GT ISZERO PUSH3 0x180A JUMPI PUSH3 0x180A PUSH3 0x1FBE JUMP JUMPDEST SUB PUSH3 0x1859 JUMPI PUSH1 0x40 MLOAD PUSH3 0x461BCD PUSH1 0xE5 SHL DUP2 MSTORE PUSH1 0x20 PUSH1 0x4 DUP3 ADD MSTORE PUSH1 0x18 PUSH1 0x24 DUP3 ADD MSTORE PUSH32 0x45434453413A20696E76616C6964207369676E61747572650000000000000000 PUSH1 0x44 DUP3 ADD MSTORE PUSH1 0x64 ADD PUSH3 0x4CD JUMP JUMPDEST PUSH1 0x2 DUP2 PUSH1 0x4 DUP2 GT ISZERO PUSH3 0x1870 JUMPI PUSH3 0x1870 PUSH3 0x1FBE JUMP JUMPDEST SUB PUSH3 0x18BF JUMPI PUSH1 0x40 MLOAD PUSH3 0x461BCD PUSH1 0xE5 SHL DUP2 MSTORE PUSH1 0x20 PUSH1 0x4 DUP3 ADD MSTORE PUSH1 0x1F PUSH1 0x24 DUP3 ADD MSTORE PUSH32 0x45434453413A20696E76616C6964207369676E6174757265206C656E67746800 PUSH1 0x44 DUP3 ADD MSTORE PUSH1 0x64 ADD PUSH3 0x4CD JUMP JUMPDEST PUSH1 0x3 DUP2 PUSH1 0x4 DUP2 GT ISZERO PUSH3 0x18D6 JUMPI PUSH3 0x18D6 PUSH3 0x1FBE JUMP JUMPDEST SUB PUSH3 0x5C5 JUMPI PUSH1 0x40 MLOAD PUSH3 0x461BCD PUSH1 0xE5 SHL DUP2 MSTORE PUSH1 0x20 PUSH1 0x4 DUP3 ADD MSTORE PUSH1 0x22 PUSH1 0x24 DUP3 ADD MSTORE PUSH32 0x45434453413A20696E76616C6964207369676E6174757265202773272076616C PUSH1 0x44 DUP3 ADD MSTORE PUSH2 0x7565 PUSH1 0xF0 SHL PUSH1 0x64 DUP3 ADD MSTORE PUSH1 0x84 ADD PUSH3 0x4CD JUMP JUMPDEST DUP2 MLOAD ISZERO PUSH3 0x1941 JUMPI DUP2 MLOAD DUP1 DUP4 PUSH1 0x20 ADD REVERT JUMPDEST DUP1 PUSH1 0x40 MLOAD PUSH3 0x461BCD PUSH1 0xE5 SHL DUP2 MSTORE PUSH1 0x4 ADD PUSH3 0x4CD SWAP2 SWAP1 PUSH3 0x1F29 JUMP JUMPDEST PUSH1 0x60 PUSH3 0x1198 DUP5 DUP5 PUSH1 0x0 DUP6 PUSH3 0x10BB JUMP JUMPDEST PUSH1 0x0 DUP1 PUSH32 0x7FFFFFFFFFFFFFFFFFFFFFFFFFFFFFFF5D576E7357A4501DDFE92F46681B20A0 DUP4 GT ISZERO PUSH3 0x19A7 JUMPI POP PUSH1 0x0 SWAP1 POP PUSH1 0x3 PUSH3 0x1A2E JUMP JUMPDEST PUSH1 0x40 DUP1 MLOAD PUSH1 0x0 DUP1 DUP3 MSTORE PUSH1 0x20 DUP3 ADD DUP1 DUP5 MSTORE DUP10 SWAP1 MSTORE PUSH1 0xFF DUP9 AND SWAP3 DUP3 ADD SWAP3 SWAP1 SWAP3 MSTORE PUSH1 0x60 DUP2 ADD DUP7 SWAP1 MSTORE PUSH1 0x80 DUP2 ADD DUP6 SWAP1 MSTORE PUSH1 0x1 SWAP1 PUSH1 0xA0 ADD PUSH1 0x20 PUSH1 0x40 MLOAD PUSH1 0x20 DUP2 SUB SWAP1 DUP1 DUP5 SUB SWAP1 DUP6 GAS STATICCALL ISZERO DUP1 ISZERO PUSH3 0x19FC JUMPI RETURNDATASIZE PUSH1 0x0 DUP1 RETURNDATACOPY RETURNDATASIZE PUSH1 0x0 REVERT JUMPDEST POP POP PUSH1 0x40 MLOAD PUSH1 0x1F NOT ADD MLOAD SWAP2 POP POP PUSH1 0x1 PUSH1 0x1 PUSH1 0xA0 SHL SUB DUP2 AND PUSH3 0x1A27 JUMPI PUSH1 0x0 PUSH1 0x1 SWAP3 POP SWAP3 POP POP PUSH3 0x1A2E JUMP JUMPDEST SWAP2 POP PUSH1 0x0 SWAP1 POP JUMPDEST SWAP5 POP SWAP5 SWAP3 POP POP POP JUMP JUMPDEST PUSH2 0x25E5 DUP1 PUSH3 0x1FD5 DUP4 CODECOPY ADD SWAP1 JUMP JUMPDEST PUSH1 0x0 PUSH1 0x20 DUP3 DUP5 SUB SLT ISZERO PUSH3 0x1A58 JUMPI PUSH1 0x0 DUP1 REVERT JUMPDEST DUP2 CALLDATALOAD PUSH1 0x1 PUSH1 0x1 PUSH1 0xE0 SHL SUB NOT DUP2 AND DUP2 EQ PUSH3 0x10B4 JUMPI PUSH1 0x0 DUP1 REVERT JUMPDEST PUSH1 0x0 PUSH1 0x20 DUP3 DUP5 SUB SLT ISZERO PUSH3 0x1A84 JUMPI PUSH1 0x0 DUP1 REVERT JUMPDEST POP CALLDATALOAD SWAP2 SWAP1 POP JUMP JUMPDEST DUP1 CALLDATALOAD PUSH1 0x1 PUSH1 0x1 PUSH1 0xA0 SHL SUB DUP2 AND DUP2 EQ PUSH3 0x1AA3 JUMPI PUSH1 0x0 DUP1 REVERT JUMPDEST SWAP2 SWAP1 POP JUMP JUMPDEST PUSH1 0x0 DUP1 PUSH1 0x40 DUP4 DUP6 SUB SLT ISZERO PUSH3 0x1ABC JUMPI PUSH1 0x0 DUP1 REVERT JUMPDEST DUP3 CALLDATALOAD SWAP2 POP PUSH3 0x1ACE PUSH1 0x20 DUP5 ADD PUSH3 0x1A8B JUMP JUMPDEST SWAP1 POP SWAP3 POP SWAP3 SWAP1 POP JUMP JUMPDEST PUSH1 0x0 PUSH1 0x20 DUP3 DUP5 SUB SLT ISZERO PUSH3 0x1AEA JUMPI PUSH1 0x0 DUP1 REVERT JUMPDEST PUSH3 0x10B4 DUP3 PUSH3 0x1A8B JUMP JUMPDEST PUSH1 0x0 DUP1 PUSH1 0x0 DUP1 DUP5 DUP7 SUB PUSH2 0x100 DUP2 SLT ISZERO PUSH3 0x1B0E JUMPI PUSH1 0x0 DUP1 REVERT JUMPDEST PUSH1 0xC0 DUP2 SLT ISZERO PUSH3 0x1B1D JUMPI PUSH1 0x0 DUP1 REVERT JUMPDEST POP DUP5 SWAP4 POP PUSH1 0xC0 DUP6 ADD CALLDATALOAD PUSH8 0xFFFFFFFFFFFFFFFF DUP1 DUP3 GT ISZERO PUSH3 0x1B3D JUMPI PUSH1 0x0 DUP1 REVERT JUMPDEST DUP2 DUP8 ADD SWAP2 POP DUP8 PUSH1 0x1F DUP4 ADD SLT PUSH3 0x1B52 JUMPI PUSH1 0x0 DUP1 REVERT JUMPDEST DUP2 CALLDATALOAD DUP2 DUP2 GT ISZERO PUSH3 0x1B62 JUMPI PUSH1 0x0 DUP1 REVERT JUMPDEST DUP9 PUSH1 0x20 DUP3 DUP6 ADD ADD GT ISZERO PUSH3 0x1B75 JUMPI PUSH1 0x0 DUP1 REVERT JUMPDEST SWAP6 SWAP9 PUSH1 0x20 SWAP3 SWAP1 SWAP3 ADD SWAP8 POP SWAP5 SWAP6 PUSH1 0xE0 ADD CALLDATALOAD SWAP5 POP SWAP3 POP POP POP JUMP JUMPDEST DUP1 CALLDATALOAD PUSH2 0xFFFF DUP2 AND DUP2 EQ PUSH3 0x1AA3 JUMPI PUSH1 0x0 DUP1 REVERT JUMPDEST PUSH1 0x0 DUP1 PUSH1 0x0 PUSH1 0x60 DUP5 DUP7 SUB SLT ISZERO PUSH3 0x1BB6 JUMPI PUSH1 0x0 DUP1 REVERT JUMPDEST PUSH3 0x1BC1 DUP5 PUSH3 0x1A8B JUMP JUMPDEST SWAP3 POP PUSH3 0x1BD1 PUSH1 0x20 DUP6 ADD PUSH3 0x1A8B JUMP JUMPDEST SWAP2 POP PUSH3 0x1BE1 PUSH1 0x40 DUP6 ADD PUSH3 0x1B8D JUMP JUMPDEST SWAP1 POP SWAP3 POP SWAP3 POP SWAP3 JUMP JUMPDEST PUSH1 0x0 DUP1 PUSH1 0x40 DUP4 DUP6 SUB SLT ISZERO PUSH3 0x1BFE JUMPI PUSH1 0x0 DUP1 REVERT JUMPDEST PUSH3 0x1C09 DUP4 PUSH3 0x1A8B JUMP JUMPDEST SWAP2 POP PUSH3 0x1ACE PUSH1 0x20 DUP5 ADD PUSH3 0x1B8D JUMP JUMPDEST PUSH1 0x0 PUSH1 0x20 DUP3 DUP5 SUB SLT ISZERO PUSH3 0x1C2C JUMPI PUSH1 0x0 DUP1 REVERT JUMPDEST DUP2 CALLDATALOAD PUSH1 0x1 PUSH1 0x1 PUSH1 0x60 SHL SUB DUP2 AND DUP2 EQ PUSH3 0x10B4 JUMPI PUSH1 0x0 DUP1 REVERT JUMPDEST DUP1 ISZERO ISZERO DUP2 EQ PUSH3 0x5C5 JUMPI PUSH1 0x0 DUP1 REVERT JUMPDEST DUP1 CALLDATALOAD PUSH3 0x1AA3 DUP2 PUSH3 0x1C44 JUMP JUMPDEST PUSH1 0x0 PUSH1 0x20 DUP3 DUP5 SUB SLT ISZERO PUSH3 0x1C73 JUMPI PUSH1 0x0 DUP1 REVERT JUMPDEST DUP2 CALLDATALOAD PUSH3 0x10B4 DUP2 PUSH3 0x1C44 JUMP JUMPDEST PUSH1 0x0 PUSH1 0x20 DUP3 DUP5 SUB SLT ISZERO PUSH3 0x1C93 JUMPI PUSH1 0x0 DUP1 REVERT JUMPDEST PUSH3 0x10B4 DUP3 PUSH3 0x1B8D JUMP JUMPDEST PUSH4 0x4E487B71 PUSH1 0xE0 SHL PUSH1 0x0 MSTORE PUSH1 0x41 PUSH1 0x4 MSTORE PUSH1 0x24 PUSH1 0x0 REVERT JUMPDEST PUSH1 0x0 PUSH1 0xC0 DUP3 DUP5 SUB SLT ISZERO PUSH3 0x1CC7 JUMPI PUSH1 0x0 DUP1 REVERT JUMPDEST PUSH1 0x40 MLOAD PUSH1 0xC0 DUP2 ADD DUP2 DUP2 LT PUSH8 0xFFFFFFFFFFFFFFFF DUP3 GT OR ISZERO PUSH3 0x1CF9 JUMPI PUSH4 0x4E487B71 PUSH1 0xE0 SHL PUSH1 0x0 MSTORE PUSH1 0x41 PUSH1 0x4 MSTORE PUSH1 0x24 PUSH1 0x0 REVERT JUMPDEST DUP1 PUSH1 0x40 MSTORE POP DUP3 CALLDATALOAD DUP2 MSTORE PUSH1 0x20 DUP4 ADD CALLDATALOAD PUSH1 0x20 DUP3 ADD MSTORE PUSH3 0x1D1A PUSH1 0x40 DUP5 ADD PUSH3 0x1A8B JUMP JUMPDEST PUSH1 0x40 DUP3 ADD MSTORE PUSH3 0x1D2D PUSH1 0x60 DUP5 ADD PUSH3 0x1B8D JUMP JUMPDEST PUSH1 0x60 DUP3 ADD MSTORE PUSH3 0x1D40 PUSH1 0x80 DUP5 ADD PUSH3 0x1C53 JUMP JUMPDEST PUSH1 0x80 DUP3 ADD MSTORE PUSH1 0xA0 DUP4 ADD CALLDATALOAD PUSH1 0xA0 DUP3 ADD MSTORE DUP1 SWAP2 POP POP SWAP3 SWAP2 POP POP JUMP JUMPDEST PUSH4 0x4E487B71 PUSH1 0xE0 SHL PUSH1 0x0 MSTORE PUSH1 0x11 PUSH1 0x4 MSTORE PUSH1 0x24 PUSH1 0x0 REVERT JUMPDEST DUP2 DUP2 SUB DUP2 DUP2 GT ISZERO PUSH3 0x424 JUMPI PUSH3 0x424 PUSH3 0x1D59 JUMP JUMPDEST PUSH1 0x0 JUMPDEST DUP4 DUP2 LT ISZERO PUSH3 0x1DA2 JUMPI DUP2 DUP2 ADD MLOAD DUP4 DUP3 ADD MSTORE PUSH1 0x20 ADD PUSH3 0x1D88 JUMP JUMPDEST POP POP PUSH1 0x0 SWAP2 ADD MSTORE JUMP JUMPDEST PUSH1 0x0 DUP2 MLOAD DUP1 DUP5 MSTORE PUSH3 0x1DC5 DUP2 PUSH1 0x20 DUP7 ADD PUSH1 0x20 DUP7 ADD PUSH3 0x1D85 JUMP JUMPDEST PUSH1 0x1F ADD PUSH1 0x1F NOT AND SWAP3 SWAP1 SWAP3 ADD PUSH1 0x20 ADD SWAP3 SWAP2 POP POP JUMP JUMPDEST PUSH1 0x40 DUP2 MSTORE PUSH1 0x0 PUSH3 0x1DEE PUSH1 0x40 DUP4 ADD DUP6 PUSH3 0x1DAB JUMP JUMPDEST SWAP1 POP PUSH1 0x1 DUP1 PUSH1 0xA0 SHL SUB DUP4 AND PUSH1 0x20 DUP4 ADD MSTORE SWAP4 SWAP3 POP POP POP JUMP JUMPDEST DUP2 CALLDATALOAD DUP2 MSTORE PUSH1 0x20 DUP1 DUP4 ADD CALLDATALOAD SWAP1 DUP3 ADD MSTORE PUSH1 0xC0 DUP2 ADD PUSH1 0x1 PUSH1 0x1 PUSH1 0xA0 SHL SUB PUSH3 0x1E2D PUSH1 0x40 DUP6 ADD PUSH3 0x1A8B JUMP JUMPDEST AND PUSH1 0x40 DUP4 ADD MSTORE PUSH2 0xFFFF PUSH3 0x1E44 PUSH1 0x60 DUP6 ADD PUSH3 0x1B8D JUMP JUMPDEST AND PUSH1 0x60 DUP4 ADD MSTORE PUSH1 0x80 DUP4 ADD CALLDATALOAD PUSH3 0x1E5A DUP2 PUSH3 0x1C44 JUMP JUMPDEST DUP1 ISZERO ISZERO PUSH1 0x80 DUP5 ADD MSTORE POP PUSH1 0xA0 DUP4 ADD CALLDATALOAD PUSH1 0xA0 DUP4 ADD MSTORE SWAP3 SWAP2 POP POP JUMP JUMPDEST PUSH2 0xFFFF DUP4 AND DUP2 MSTORE PUSH1 0x40 PUSH1 0x20 DUP3 ADD MSTORE PUSH1 0x0 PUSH3 0x1198 PUSH1 0x40 DUP4 ADD DUP5 PUSH3 0x1DAB JUMP JUMPDEST PUSH1 0x0 DUP3 MLOAD PUSH3 0x1EA6 DUP2 DUP5 PUSH1 0x20 DUP8 ADD PUSH3 0x1D85 JUMP JUMPDEST SWAP2 SWAP1 SWAP2 ADD SWAP3 SWAP2 POP POP JUMP JUMPDEST PUSH32 0x416363657373436F6E74726F6C3A206163636F756E7420000000000000000000 DUP2 MSTORE PUSH1 0x0 DUP4 MLOAD PUSH3 0x1EEA DUP2 PUSH1 0x17 DUP6 ADD PUSH1 0x20 DUP9 ADD PUSH3 0x1D85 JUMP JUMPDEST PUSH17 0x1034B99036B4B9B9B4B733903937B6329 PUSH1 0x7D SHL PUSH1 0x17 SWAP2 DUP5 ADD SWAP2 DUP3 ADD MSTORE DUP4 MLOAD PUSH3 0x1F1D DUP2 PUSH1 0x28 DUP5 ADD PUSH1 0x20 DUP9 ADD PUSH3 0x1D85 JUMP JUMPDEST ADD PUSH1 0x28 ADD SWAP5 SWAP4 POP POP POP POP JUMP JUMPDEST PUSH1 0x20 DUP2 MSTORE PUSH1 0x0 PUSH3 0x10B4 PUSH1 0x20 DUP4 ADD DUP5 PUSH3 0x1DAB JUMP JUMPDEST PUSH1 0x0 PUSH1 0x20 DUP3 DUP5 SUB SLT ISZERO PUSH3 0x1F51 JUMPI PUSH1 0x0 DUP1 REVERT JUMPDEST DUP2 MLOAD PUSH3 0x10B4 DUP2 PUSH3 0x1C44 JUMP JUMPDEST DUP1 DUP3 MUL DUP2 ISZERO DUP3 DUP3 DIV DUP5 EQ OR PUSH3 0x424 JUMPI PUSH3 0x424 PUSH3 0x1D59 JUMP JUMPDEST DUP1 DUP3 ADD DUP1 DUP3 GT ISZERO PUSH3 0x424 JUMPI PUSH3 0x424 PUSH3 0x1D59 JUMP JUMPDEST PUSH4 0x4E487B71 PUSH1 0xE0 SHL PUSH1 0x0 MSTORE PUSH1 0x32 PUSH1 0x4 MSTORE PUSH1 0x24 PUSH1 0x0 REVERT JUMPDEST PUSH1 0x0 DUP2 PUSH3 0x1FB6 JUMPI PUSH3 0x1FB6 PUSH3 0x1D59 JUMP JUMPDEST POP PUSH1 0x0 NOT ADD SWAP1 JUMP JUMPDEST PUSH4 0x4E487B71 PUSH1 0xE0 SHL PUSH1 0x0 MSTORE PUSH1 0x21 PUSH1 0x4 MSTORE PUSH1 0x24 PUSH1 0x0 REVERT INVALID PUSH1 0xC0 PUSH1 0x40 MSTORE CALLVALUE DUP1 ISZERO PUSH3 0x11 JUMPI PUSH1 0x0 DUP1 REVERT JUMPDEST POP PUSH1 0x40 MLOAD PUSH3 0x25E5 CODESIZE SUB DUP1 PUSH3 0x25E5 DUP4 CODECOPY DUP2 ADD PUSH1 0x40 DUP2 SWAP1 MSTORE PUSH3 0x34 SWAP2 PUSH3 0xB1 JUMP JUMPDEST DUP2 DUP1 PUSH3 0x41 CALLER PUSH3 0x61 JUMP JUMPDEST PUSH1 0x1 PUSH1 0x1 PUSH1 0xA0 SHL SUB AND PUSH1 0x80 MSTORE POP PUSH1 0x1 PUSH1 0x6 SSTORE PUSH2 0xFFFF AND PUSH1 0xA0 MSTORE POP PUSH3 0x101 JUMP JUMPDEST PUSH1 0x0 DUP1 SLOAD PUSH1 0x1 PUSH1 0x1 PUSH1 0xA0 SHL SUB DUP4 DUP2 AND PUSH1 0x1 PUSH1 0x1 PUSH1 0xA0 SHL SUB NOT DUP4 AND DUP2 OR DUP5 SSTORE PUSH1 0x40 MLOAD SWAP2 SWAP1 SWAP3 AND SWAP3 DUP4 SWAP2 PUSH32 0x8BE0079C531659141344CD1FD0A4F28419497F9722A3DAAFE3B4186F6B6457E0 SWAP2 SWAP1 LOG3 POP POP JUMP JUMPDEST PUSH1 0x0 DUP1 PUSH1 0x40 DUP4 DUP6 SUB SLT ISZERO PUSH3 0xC5 JUMPI PUSH1 0x0 DUP1 REVERT JUMPDEST DUP3 MLOAD PUSH1 0x1 PUSH1 0x1 PUSH1 0xA0 SHL SUB DUP2 AND DUP2 EQ PUSH3 0xDD JUMPI PUSH1 0x0 DUP1 REVERT JUMPDEST PUSH1 0x20 DUP5 ADD MLOAD SWAP1 SWAP3 POP PUSH2 0xFFFF DUP2 AND DUP2 EQ PUSH3 0xF6 JUMPI PUSH1 0x0 DUP1 REVERT JUMPDEST DUP1 SWAP2 POP POP SWAP3 POP SWAP3 SWAP1 POP JUMP JUMPDEST PUSH1 0x80 MLOAD PUSH1 0xA0 MLOAD PUSH2 0x247F PUSH3 0x166 PUSH1 0x0 CODECOPY PUSH1 0x0 DUP2 DUP2 PUSH2 0x24F ADD MSTORE PUSH2 0x932 ADD MSTORE PUSH1 0x0 DUP2 DUP2 PUSH2 0x4B4 ADD MSTORE DUP2 DUP2 PUSH2 0x5F7 ADD MSTORE DUP2 DUP2 PUSH2 0x846 ADD MSTORE DUP2 DUP2 PUSH2 0x8EE ADD MSTORE DUP2 DUP2 PUSH2 0xA99 ADD MSTORE DUP2 DUP2 PUSH2 0xEA4 ADD MSTORE DUP2 DUP2 PUSH2 0x116D ADD MSTORE DUP2 DUP2 PUSH2 0x13B8 ADD MSTORE PUSH2 0x168D ADD MSTORE PUSH2 0x247F PUSH1 0x0 RETURN INVALID PUSH1 0x80 PUSH1 0x40 MSTORE PUSH1 0x4 CALLDATASIZE LT PUSH2 0x1B6 JUMPI PUSH1 0x0 CALLDATALOAD PUSH1 0xE0 SHR DUP1 PUSH4 0x8DA5CB5B GT PUSH2 0xEC JUMPI DUP1 PUSH4 0xCBED8B9C GT PUSH2 0x8A JUMPI DUP1 PUSH4 0xDF2A5B3B GT PUSH2 0x64 JUMPI DUP1 PUSH4 0xDF2A5B3B EQ PUSH2 0x574 JUMPI DUP1 PUSH4 0xEB8D72B7 EQ PUSH2 0x594 JUMPI DUP1 PUSH4 0xF2FDE38B EQ PUSH2 0x5B4 JUMPI DUP1 PUSH4 0xF5ECBDBC EQ PUSH2 0x5D4 JUMPI PUSH1 0x0 DUP1 REVERT JUMPDEST DUP1 PUSH4 0xCBED8B9C EQ PUSH2 0x50C JUMPI DUP1 PUSH4 0xD1DEBA1F EQ PUSH2 0x52C JUMPI DUP1 PUSH4 0xD46FB188 EQ PUSH2 0x53F JUMPI PUSH1 0x0 DUP1 REVERT JUMPDEST DUP1 PUSH4 0xA6C3D165 GT PUSH2 0xC6 JUMPI DUP1 PUSH4 0xA6C3D165 EQ PUSH2 0x482 JUMPI DUP1 PUSH4 0xB353AAA7 EQ PUSH2 0x4A2 JUMPI DUP1 PUSH4 0xBAF3292D EQ PUSH2 0x4D6 JUMPI DUP1 PUSH4 0xC4461834 EQ PUSH2 0x4F6 JUMPI PUSH1 0x0 DUP1 REVERT JUMPDEST DUP1 PUSH4 0x8DA5CB5B EQ PUSH2 0x410 JUMPI DUP1 PUSH4 0x950C8A74 EQ PUSH2 0x442 JUMPI DUP1 PUSH4 0x9F38369A EQ PUSH2 0x462 JUMPI PUSH1 0x0 DUP1 REVERT JUMPDEST DUP1 PUSH4 0x3F1F4FA4 GT PUSH2 0x159 JUMPI DUP1 PUSH4 0x66AD5C8A GT PUSH2 0x133 JUMPI DUP1 PUSH4 0x66AD5C8A EQ PUSH2 0x376 JUMPI DUP1 PUSH4 0x715018A6 EQ PUSH2 0x396 JUMPI DUP1 PUSH4 0x7533D788 EQ PUSH2 0x3AB JUMPI DUP1 PUSH4 0x8CFD8F5C EQ PUSH2 0x3D8 JUMPI PUSH1 0x0 DUP1 REVERT JUMPDEST DUP1 PUSH4 0x3F1F4FA4 EQ PUSH2 0x2CC JUMPI DUP1 PUSH4 0x42D65A8D EQ PUSH2 0x307 JUMPI DUP1 PUSH4 0x5B8C41E6 EQ PUSH2 0x327 JUMPI PUSH1 0x0 DUP1 REVERT JUMPDEST DUP1 PUSH4 0x10DDB137 GT PUSH2 0x195 JUMPI DUP1 PUSH4 0x10DDB137 EQ PUSH2 0x21D JUMPI DUP1 PUSH4 0x30C593F7 EQ PUSH2 0x23D JUMPI DUP1 PUSH4 0x3D0D0B6E EQ PUSH2 0x289 JUMPI DUP1 PUSH4 0x3D8B38F6 EQ PUSH2 0x29C JUMPI PUSH1 0x0 DUP1 REVERT JUMPDEST DUP1 PUSH3 0x1D3567 EQ PUSH2 0x1BB JUMPI DUP1 PUSH4 0x7E0DB17 EQ PUSH2 0x1DD JUMPI DUP1 PUSH4 0xDF37483 EQ PUSH2 0x1FD JUMPI JUMPDEST PUSH1 0x0 DUP1 REVERT JUMPDEST CALLVALUE DUP1 ISZERO PUSH2 0x1C7 JUMPI PUSH1 0x0 DUP1 REVERT JUMPDEST POP PUSH2 0x1DB PUSH2 0x1D6 CALLDATASIZE PUSH1 0x4 PUSH2 0x1A7A JUMP JUMPDEST PUSH2 0x5F4 JUMP JUMPDEST STOP JUMPDEST CALLVALUE DUP1 ISZERO PUSH2 0x1E9 JUMPI PUSH1 0x0 DUP1 REVERT JUMPDEST POP PUSH2 0x1DB PUSH2 0x1F8 CALLDATASIZE PUSH1 0x4 PUSH2 0x1B0D JUMP JUMPDEST PUSH2 0x825 JUMP JUMPDEST CALLVALUE DUP1 ISZERO PUSH2 0x209 JUMPI PUSH1 0x0 DUP1 REVERT JUMPDEST POP PUSH2 0x1DB PUSH2 0x218 CALLDATASIZE PUSH1 0x4 PUSH2 0x1B28 JUMP JUMPDEST PUSH2 0x8AE JUMP JUMPDEST CALLVALUE DUP1 ISZERO PUSH2 0x229 JUMPI PUSH1 0x0 DUP1 REVERT JUMPDEST POP PUSH2 0x1DB PUSH2 0x238 CALLDATASIZE PUSH1 0x4 PUSH2 0x1B0D JUMP JUMPDEST PUSH2 0x8CD JUMP JUMPDEST CALLVALUE DUP1 ISZERO PUSH2 0x249 JUMPI PUSH1 0x0 DUP1 REVERT JUMPDEST POP PUSH2 0x271 PUSH32 0x0 DUP2 JUMP JUMPDEST PUSH1 0x40 MLOAD PUSH2 0xFFFF SWAP1 SWAP2 AND DUP2 MSTORE PUSH1 0x20 ADD JUMPDEST PUSH1 0x40 MLOAD DUP1 SWAP2 SUB SWAP1 RETURN JUMPDEST PUSH2 0x1DB PUSH2 0x297 CALLDATASIZE PUSH1 0x4 PUSH2 0x1B69 JUMP JUMPDEST PUSH2 0x925 JUMP JUMPDEST CALLVALUE DUP1 ISZERO PUSH2 0x2A8 JUMPI PUSH1 0x0 DUP1 REVERT JUMPDEST POP PUSH2 0x2BC PUSH2 0x2B7 CALLDATASIZE PUSH1 0x4 PUSH2 0x1BBC JUMP JUMPDEST PUSH2 0x9AE JUMP JUMPDEST PUSH1 0x40 MLOAD SWAP1 ISZERO ISZERO DUP2 MSTORE PUSH1 0x20 ADD PUSH2 0x280 JUMP JUMPDEST CALLVALUE DUP1 ISZERO PUSH2 0x2D8 JUMPI PUSH1 0x0 DUP1 REVERT JUMPDEST POP PUSH2 0x2F9 PUSH2 0x2E7 CALLDATASIZE PUSH1 0x4 PUSH2 0x1B0D JUMP JUMPDEST PUSH1 0x3 PUSH1 0x20 MSTORE PUSH1 0x0 SWAP1 DUP2 MSTORE PUSH1 0x40 SWAP1 KECCAK256 SLOAD DUP2 JUMP JUMPDEST PUSH1 0x40 MLOAD SWAP1 DUP2 MSTORE PUSH1 0x20 ADD PUSH2 0x280 JUMP JUMPDEST CALLVALUE DUP1 ISZERO PUSH2 0x313 JUMPI PUSH1 0x0 DUP1 REVERT JUMPDEST POP PUSH2 0x1DB PUSH2 0x322 CALLDATASIZE PUSH1 0x4 PUSH2 0x1BBC JUMP JUMPDEST PUSH2 0xA7A JUMP JUMPDEST CALLVALUE DUP1 ISZERO PUSH2 0x333 JUMPI PUSH1 0x0 DUP1 REVERT JUMPDEST POP PUSH2 0x2F9 PUSH2 0x342 CALLDATASIZE PUSH1 0x4 PUSH2 0x1C7B JUMP JUMPDEST PUSH1 0x5 PUSH1 0x20 SWAP1 DUP2 MSTORE PUSH1 0x0 SWAP4 DUP5 MSTORE PUSH1 0x40 DUP1 DUP6 KECCAK256 DUP5 MLOAD DUP1 DUP7 ADD DUP5 ADD DUP1 MLOAD SWAP3 DUP2 MSTORE SWAP1 DUP5 ADD SWAP6 DUP5 ADD SWAP6 SWAP1 SWAP6 KECCAK256 SWAP5 MSTORE SWAP3 SWAP1 MSTORE DUP3 MSTORE SWAP1 KECCAK256 SLOAD DUP2 JUMP JUMPDEST CALLVALUE DUP1 ISZERO PUSH2 0x382 JUMPI PUSH1 0x0 DUP1 REVERT JUMPDEST POP PUSH2 0x1DB PUSH2 0x391 CALLDATASIZE PUSH1 0x4 PUSH2 0x1A7A JUMP JUMPDEST PUSH2 0xB00 JUMP JUMPDEST CALLVALUE DUP1 ISZERO PUSH2 0x3A2 JUMPI PUSH1 0x0 DUP1 REVERT JUMPDEST POP PUSH2 0x1DB PUSH2 0xBDC JUMP JUMPDEST CALLVALUE DUP1 ISZERO PUSH2 0x3B7 JUMPI PUSH1 0x0 DUP1 REVERT JUMPDEST POP PUSH2 0x3CB PUSH2 0x3C6 CALLDATASIZE PUSH1 0x4 PUSH2 0x1B0D JUMP JUMPDEST PUSH2 0xBF0 JUMP JUMPDEST PUSH1 0x40 MLOAD PUSH2 0x280 SWAP2 SWAP1 PUSH2 0x1D62 JUMP JUMPDEST CALLVALUE DUP1 ISZERO PUSH2 0x3E4 JUMPI PUSH1 0x0 DUP1 REVERT JUMPDEST POP PUSH2 0x2F9 PUSH2 0x3F3 CALLDATASIZE PUSH1 0x4 PUSH2 0x1D75 JUMP JUMPDEST PUSH1 0x2 PUSH1 0x20 SWAP1 DUP2 MSTORE PUSH1 0x0 SWAP3 DUP4 MSTORE PUSH1 0x40 DUP1 DUP5 KECCAK256 SWAP1 SWAP2 MSTORE SWAP1 DUP3 MSTORE SWAP1 KECCAK256 SLOAD DUP2 JUMP JUMPDEST CALLVALUE DUP1 ISZERO PUSH2 0x41C JUMPI PUSH1 0x0 DUP1 REVERT JUMPDEST POP PUSH1 0x0 SLOAD PUSH1 0x1 PUSH1 0x1 PUSH1 0xA0 SHL SUB AND JUMPDEST PUSH1 0x40 MLOAD PUSH1 0x1 PUSH1 0x1 PUSH1 0xA0 SHL SUB SWAP1 SWAP2 AND DUP2 MSTORE PUSH1 0x20 ADD PUSH2 0x280 JUMP JUMPDEST CALLVALUE DUP1 ISZERO PUSH2 0x44E JUMPI PUSH1 0x0 DUP1 REVERT JUMPDEST POP PUSH1 0x4 SLOAD PUSH2 0x42A SWAP1 PUSH1 0x1 PUSH1 0x1 PUSH1 0xA0 SHL SUB AND DUP2 JUMP JUMPDEST CALLVALUE DUP1 ISZERO PUSH2 0x46E JUMPI PUSH1 0x0 DUP1 REVERT JUMPDEST POP PUSH2 0x3CB PUSH2 0x47D CALLDATASIZE PUSH1 0x4 PUSH2 0x1B0D JUMP JUMPDEST PUSH2 0xC8A JUMP JUMPDEST CALLVALUE DUP1 ISZERO PUSH2 0x48E JUMPI PUSH1 0x0 DUP1 REVERT JUMPDEST POP PUSH2 0x1DB PUSH2 0x49D CALLDATASIZE PUSH1 0x4 PUSH2 0x1BBC JUMP JUMPDEST PUSH2 0xDA0 JUMP JUMPDEST CALLVALUE DUP1 ISZERO PUSH2 0x4AE JUMPI PUSH1 0x0 DUP1 REVERT JUMPDEST POP PUSH2 0x42A PUSH32 0x0 DUP2 JUMP JUMPDEST CALLVALUE DUP1 ISZERO PUSH2 0x4E2 JUMPI PUSH1 0x0 DUP1 REVERT JUMPDEST POP PUSH2 0x1DB PUSH2 0x4F1 CALLDATASIZE PUSH1 0x4 PUSH2 0x1DA8 JUMP JUMPDEST PUSH2 0xE29 JUMP JUMPDEST CALLVALUE DUP1 ISZERO PUSH2 0x502 JUMPI PUSH1 0x0 DUP1 REVERT JUMPDEST POP PUSH2 0x2F9 PUSH2 0x2710 DUP2 JUMP JUMPDEST CALLVALUE DUP1 ISZERO PUSH2 0x518 JUMPI PUSH1 0x0 DUP1 REVERT JUMPDEST POP PUSH2 0x1DB PUSH2 0x527 CALLDATASIZE PUSH1 0x4 PUSH2 0x1DC3 JUMP JUMPDEST PUSH2 0xE85 JUMP JUMPDEST PUSH2 0x1DB PUSH2 0x53A CALLDATASIZE PUSH1 0x4 PUSH2 0x1A7A JUMP JUMPDEST PUSH2 0xF1A JUMP JUMPDEST CALLVALUE DUP1 ISZERO PUSH2 0x54B JUMPI PUSH1 0x0 DUP1 REVERT JUMPDEST POP PUSH2 0x55F PUSH2 0x55A CALLDATASIZE PUSH1 0x4 PUSH2 0x1E31 JUMP JUMPDEST PUSH2 0x1130 JUMP JUMPDEST PUSH1 0x40 DUP1 MLOAD SWAP3 DUP4 MSTORE PUSH1 0x20 DUP4 ADD SWAP2 SWAP1 SWAP2 MSTORE ADD PUSH2 0x280 JUMP JUMPDEST CALLVALUE DUP1 ISZERO PUSH2 0x580 JUMPI PUSH1 0x0 DUP1 REVERT JUMPDEST POP PUSH2 0x1DB PUSH2 0x58F CALLDATASIZE PUSH1 0x4 PUSH2 0x1E98 JUMP JUMPDEST PUSH2 0x1202 JUMP JUMPDEST CALLVALUE DUP1 ISZERO PUSH2 0x5A0 JUMPI PUSH1 0x0 DUP1 REVERT JUMPDEST POP PUSH2 0x1DB PUSH2 0x5AF CALLDATASIZE PUSH1 0x4 PUSH2 0x1BBC JUMP JUMPDEST PUSH2 0x12B4 JUMP JUMPDEST CALLVALUE DUP1 ISZERO PUSH2 0x5C0 JUMPI PUSH1 0x0 DUP1 REVERT JUMPDEST POP PUSH2 0x1DB PUSH2 0x5CF CALLDATASIZE PUSH1 0x4 PUSH2 0x1DA8 JUMP JUMPDEST PUSH2 0x130E JUMP JUMPDEST CALLVALUE DUP1 ISZERO PUSH2 0x5E0 JUMPI PUSH1 0x0 DUP1 REVERT JUMPDEST POP PUSH2 0x3CB PUSH2 0x5EF CALLDATASIZE PUSH1 0x4 PUSH2 0x1ED4 JUMP JUMPDEST PUSH2 0x1387 JUMP JUMPDEST CALLER PUSH32 0x0 PUSH1 0x1 PUSH1 0x1 PUSH1 0xA0 SHL SUB AND EQ PUSH2 0x671 JUMPI PUSH1 0x40 MLOAD PUSH3 0x461BCD PUSH1 0xE5 SHL DUP2 MSTORE PUSH1 0x20 PUSH1 0x4 DUP3 ADD MSTORE PUSH1 0x1E PUSH1 0x24 DUP3 ADD MSTORE PUSH32 0x4C7A4170703A20696E76616C696420656E64706F696E742063616C6C65720000 PUSH1 0x44 DUP3 ADD MSTORE PUSH1 0x64 ADD JUMPDEST PUSH1 0x40 MLOAD DUP1 SWAP2 SUB SWAP1 REVERT JUMPDEST PUSH2 0xFFFF DUP7 AND PUSH1 0x0 SWAP1 DUP2 MSTORE PUSH1 0x1 PUSH1 0x20 MSTORE PUSH1 0x40 DUP2 KECCAK256 DUP1 SLOAD PUSH2 0x68F SWAP1 PUSH2 0x1F1F JUMP JUMPDEST DUP1 PUSH1 0x1F ADD PUSH1 0x20 DUP1 SWAP2 DIV MUL PUSH1 0x20 ADD PUSH1 0x40 MLOAD SWAP1 DUP2 ADD PUSH1 0x40 MSTORE DUP1 SWAP3 SWAP2 SWAP1 DUP2 DUP2 MSTORE PUSH1 0x20 ADD DUP3 DUP1 SLOAD PUSH2 0x6BB SWAP1 PUSH2 0x1F1F JUMP JUMPDEST DUP1 ISZERO PUSH2 0x708 JUMPI DUP1 PUSH1 0x1F LT PUSH2 0x6DD JUMPI PUSH2 0x100 DUP1 DUP4 SLOAD DIV MUL DUP4 MSTORE SWAP2 PUSH1 0x20 ADD SWAP2 PUSH2 0x708 JUMP JUMPDEST DUP3 ADD SWAP2 SWAP1 PUSH1 0x0 MSTORE PUSH1 0x20 PUSH1 0x0 KECCAK256 SWAP1 JUMPDEST DUP2 SLOAD DUP2 MSTORE SWAP1 PUSH1 0x1 ADD SWAP1 PUSH1 0x20 ADD DUP1 DUP4 GT PUSH2 0x6EB JUMPI DUP3 SWAP1 SUB PUSH1 0x1F AND DUP3 ADD SWAP2 JUMPDEST POP POP POP POP POP SWAP1 POP DUP1 MLOAD DUP7 DUP7 SWAP1 POP EQ DUP1 ISZERO PUSH2 0x723 JUMPI POP PUSH1 0x0 DUP2 MLOAD GT JUMPDEST DUP1 ISZERO PUSH2 0x74B JUMPI POP DUP1 MLOAD PUSH1 0x20 DUP3 ADD KECCAK256 PUSH1 0x40 MLOAD PUSH2 0x741 SWAP1 DUP9 SWAP1 DUP9 SWAP1 PUSH2 0x1F59 JUMP JUMPDEST PUSH1 0x40 MLOAD DUP1 SWAP2 SUB SWAP1 KECCAK256 EQ JUMPDEST PUSH2 0x7A6 JUMPI PUSH1 0x40 MLOAD PUSH3 0x461BCD PUSH1 0xE5 SHL DUP2 MSTORE PUSH1 0x20 PUSH1 0x4 DUP3 ADD MSTORE PUSH1 0x26 PUSH1 0x24 DUP3 ADD MSTORE PUSH32 0x4C7A4170703A20696E76616C696420736F757263652073656E64696E6720636F PUSH1 0x44 DUP3 ADD MSTORE PUSH6 0x1B9D1C9858DD PUSH1 0xD2 SHL PUSH1 0x64 DUP3 ADD MSTORE PUSH1 0x84 ADD PUSH2 0x668 JUMP JUMPDEST PUSH2 0x81C DUP8 DUP8 DUP8 DUP1 DUP1 PUSH1 0x1F ADD PUSH1 0x20 DUP1 SWAP2 DIV MUL PUSH1 0x20 ADD PUSH1 0x40 MLOAD SWAP1 DUP2 ADD PUSH1 0x40 MSTORE DUP1 SWAP4 SWAP3 SWAP2 SWAP1 DUP2 DUP2 MSTORE PUSH1 0x20 ADD DUP4 DUP4 DUP1 DUP3 DUP5 CALLDATACOPY PUSH1 0x0 SWAP3 ADD SWAP2 SWAP1 SWAP2 MSTORE POP POP PUSH1 0x40 DUP1 MLOAD PUSH1 0x20 PUSH1 0x1F DUP11 ADD DUP2 SWAP1 DIV DUP2 MUL DUP3 ADD DUP2 ADD SWAP1 SWAP3 MSTORE DUP9 DUP2 MSTORE DUP11 SWAP4 POP SWAP2 POP DUP9 SWAP1 DUP9 SWAP1 DUP2 SWAP1 DUP5 ADD DUP4 DUP3 DUP1 DUP3 DUP5 CALLDATACOPY PUSH1 0x0 SWAP3 ADD SWAP2 SWAP1 SWAP2 MSTORE POP PUSH2 0x1438 SWAP3 POP POP POP JUMP JUMPDEST POP POP POP POP POP POP POP JUMP JUMPDEST PUSH2 0x82D PUSH2 0x14B1 JUMP JUMPDEST PUSH1 0x40 MLOAD PUSH4 0x7E0DB17 PUSH1 0xE0 SHL DUP2 MSTORE PUSH2 0xFFFF DUP3 AND PUSH1 0x4 DUP3 ADD MSTORE PUSH32 0x0 PUSH1 0x1 PUSH1 0x1 PUSH1 0xA0 SHL SUB AND SWAP1 PUSH4 0x7E0DB17 SWAP1 PUSH1 0x24 ADD JUMPDEST PUSH1 0x0 PUSH1 0x40 MLOAD DUP1 DUP4 SUB DUP2 PUSH1 0x0 DUP8 DUP1 EXTCODESIZE ISZERO DUP1 ISZERO PUSH2 0x893 JUMPI PUSH1 0x0 DUP1 REVERT JUMPDEST POP GAS CALL ISZERO DUP1 ISZERO PUSH2 0x8A7 JUMPI RETURNDATASIZE PUSH1 0x0 DUP1 RETURNDATACOPY RETURNDATASIZE PUSH1 0x0 REVERT JUMPDEST POP POP POP POP POP JUMP JUMPDEST PUSH2 0x8B6 PUSH2 0x14B1 JUMP JUMPDEST PUSH2 0xFFFF SWAP1 SWAP2 AND PUSH1 0x0 SWAP1 DUP2 MSTORE PUSH1 0x3 PUSH1 0x20 MSTORE PUSH1 0x40 SWAP1 KECCAK256 SSTORE JUMP JUMPDEST PUSH2 0x8D5 PUSH2 0x14B1 JUMP JUMPDEST PUSH1 0x40 MLOAD PUSH4 0x10DDB137 PUSH1 0xE0 SHL DUP2 MSTORE PUSH2 0xFFFF DUP3 AND PUSH1 0x4 DUP3 ADD MSTORE PUSH32 0x0 PUSH1 0x1 PUSH1 0x1 PUSH1 0xA0 SHL SUB AND SWAP1 PUSH4 0x10DDB137 SWAP1 PUSH1 0x24 ADD PUSH2 0x879 JUMP JUMPDEST PUSH2 0x92D PUSH2 0x150B JUMP JUMPDEST PUSH2 0x99F PUSH32 0x0 DUP5 DUP5 DUP1 DUP1 PUSH1 0x1F ADD PUSH1 0x20 DUP1 SWAP2 DIV MUL PUSH1 0x20 ADD PUSH1 0x40 MLOAD SWAP1 DUP2 ADD PUSH1 0x40 MSTORE DUP1 SWAP4 SWAP3 SWAP2 SWAP1 DUP2 DUP2 MSTORE PUSH1 0x20 ADD DUP4 DUP4 DUP1 DUP3 DUP5 CALLDATACOPY PUSH1 0x0 SWAP3 ADD DUP3 SWAP1 MSTORE POP PUSH1 0x40 DUP1 MLOAD PUSH1 0x20 DUP2 ADD SWAP1 SWAP2 MSTORE DUP2 DUP2 MSTORE DUP9 SWAP5 POP SWAP1 SWAP3 POP SWAP1 POP CALLVALUE PUSH2 0x1564 JUMP JUMPDEST PUSH2 0x9A9 PUSH1 0x1 PUSH1 0x6 SSTORE JUMP JUMPDEST POP POP POP JUMP JUMPDEST PUSH2 0xFFFF DUP4 AND PUSH1 0x0 SWAP1 DUP2 MSTORE PUSH1 0x1 PUSH1 0x20 MSTORE PUSH1 0x40 DUP2 KECCAK256 DUP1 SLOAD DUP3 SWAP2 SWAP1 PUSH2 0x9CF SWAP1 PUSH2 0x1F1F JUMP JUMPDEST DUP1 PUSH1 0x1F ADD PUSH1 0x20 DUP1 SWAP2 DIV MUL PUSH1 0x20 ADD PUSH1 0x40 MLOAD SWAP1 DUP2 ADD PUSH1 0x40 MSTORE DUP1 SWAP3 SWAP2 SWAP1 DUP2 DUP2 MSTORE PUSH1 0x20 ADD DUP3 DUP1 SLOAD PUSH2 0x9FB SWAP1 PUSH2 0x1F1F JUMP JUMPDEST DUP1 ISZERO PUSH2 0xA48 JUMPI DUP1 PUSH1 0x1F LT PUSH2 0xA1D JUMPI PUSH2 0x100 DUP1 DUP4 SLOAD DIV MUL DUP4 MSTORE SWAP2 PUSH1 0x20 ADD SWAP2 PUSH2 0xA48 JUMP JUMPDEST DUP3 ADD SWAP2 SWAP1 PUSH1 0x0 MSTORE PUSH1 0x20 PUSH1 0x0 KECCAK256 SWAP1 JUMPDEST DUP2 SLOAD DUP2 MSTORE SWAP1 PUSH1 0x1 ADD SWAP1 PUSH1 0x20 ADD DUP1 DUP4 GT PUSH2 0xA2B JUMPI DUP3 SWAP1 SUB PUSH1 0x1F AND DUP3 ADD SWAP2 JUMPDEST POP POP POP POP POP SWAP1 POP DUP4 DUP4 PUSH1 0x40 MLOAD PUSH2 0xA5F SWAP3 SWAP2 SWAP1 PUSH2 0x1F59 JUMP JUMPDEST PUSH1 0x40 MLOAD DUP1 SWAP2 SUB SWAP1 KECCAK256 DUP2 DUP1 MLOAD SWAP1 PUSH1 0x20 ADD KECCAK256 EQ SWAP2 POP POP SWAP4 SWAP3 POP POP POP JUMP JUMPDEST PUSH2 0xA82 PUSH2 0x14B1 JUMP JUMPDEST PUSH1 0x40 MLOAD PUSH4 0x42D65A8D PUSH1 0xE0 SHL DUP2 MSTORE PUSH1 0x1 PUSH1 0x1 PUSH1 0xA0 SHL SUB PUSH32 0x0 AND SWAP1 PUSH4 0x42D65A8D SWAP1 PUSH2 0xAD2 SWAP1 DUP7 SWAP1 DUP7 SWAP1 DUP7 SWAP1 PUSH1 0x4 ADD PUSH2 0x1F92 JUMP JUMPDEST PUSH1 0x0 PUSH1 0x40 MLOAD DUP1 DUP4 SUB DUP2 PUSH1 0x0 DUP8 DUP1 EXTCODESIZE ISZERO DUP1 ISZERO PUSH2 0xAEC JUMPI PUSH1 0x0 DUP1 REVERT JUMPDEST POP GAS CALL ISZERO DUP1 ISZERO PUSH2 0x81C JUMPI RETURNDATASIZE PUSH1 0x0 DUP1 RETURNDATACOPY RETURNDATASIZE PUSH1 0x0 REVERT JUMPDEST CALLER ADDRESS EQ PUSH2 0xB5E JUMPI PUSH1 0x40 MLOAD PUSH3 0x461BCD PUSH1 0xE5 SHL DUP2 MSTORE PUSH1 0x20 PUSH1 0x4 DUP3 ADD MSTORE PUSH1 0x26 PUSH1 0x24 DUP3 ADD MSTORE PUSH32 0x4E6F6E626C6F636B696E674C7A4170703A2063616C6C6572206D757374206265 PUSH1 0x44 DUP3 ADD MSTORE PUSH6 0x204C7A41707 PUSH1 0xD4 SHL PUSH1 0x64 DUP3 ADD MSTORE PUSH1 0x84 ADD PUSH2 0x668 JUMP JUMPDEST PUSH2 0xBD4 DUP7 DUP7 DUP7 DUP1 DUP1 PUSH1 0x1F ADD PUSH1 0x20 DUP1 SWAP2 DIV MUL PUSH1 0x20 ADD PUSH1 0x40 MLOAD SWAP1 DUP2 ADD PUSH1 0x40 MSTORE DUP1 SWAP4 SWAP3 SWAP2 SWAP1 DUP2 DUP2 MSTORE PUSH1 0x20 ADD DUP4 DUP4 DUP1 DUP3 DUP5 CALLDATACOPY PUSH1 0x0 SWAP3 ADD SWAP2 SWAP1 SWAP2 MSTORE POP POP PUSH1 0x40 DUP1 MLOAD PUSH1 0x20 PUSH1 0x1F DUP10 ADD DUP2 SWAP1 DIV DUP2 MUL DUP3 ADD DUP2 ADD SWAP1 SWAP3 MSTORE DUP8 DUP2 MSTORE DUP10 SWAP4 POP SWAP2 POP DUP8 SWAP1 DUP8 SWAP1 DUP2 SWAP1 DUP5 ADD DUP4 DUP3 DUP1 DUP3 DUP5 CALLDATACOPY PUSH1 0x0 SWAP3 ADD SWAP2 SWAP1 SWAP2 MSTORE POP PUSH2 0x1709 SWAP3 POP POP POP JUMP JUMPDEST POP POP POP POP POP POP JUMP JUMPDEST PUSH2 0xBE4 PUSH2 0x14B1 JUMP JUMPDEST PUSH2 0xBEE PUSH1 0x0 PUSH2 0x170F JUMP JUMPDEST JUMP JUMPDEST PUSH1 0x1 PUSH1 0x20 MSTORE PUSH1 0x0 SWAP1 DUP2 MSTORE PUSH1 0x40 SWAP1 KECCAK256 DUP1 SLOAD PUSH2 0xC09 SWAP1 PUSH2 0x1F1F JUMP JUMPDEST DUP1 PUSH1 0x1F ADD PUSH1 0x20 DUP1 SWAP2 DIV MUL PUSH1 0x20 ADD PUSH1 0x40 MLOAD SWAP1 DUP2 ADD PUSH1 0x40 MSTORE DUP1 SWAP3 SWAP2 SWAP1 DUP2 DUP2 MSTORE PUSH1 0x20 ADD DUP3 DUP1 SLOAD PUSH2 0xC35 SWAP1 PUSH2 0x1F1F JUMP JUMPDEST DUP1 ISZERO PUSH2 0xC82 JUMPI DUP1 PUSH1 0x1F LT PUSH2 0xC57 JUMPI PUSH2 0x100 DUP1 DUP4 SLOAD DIV MUL DUP4 MSTORE SWAP2 PUSH1 0x20 ADD SWAP2 PUSH2 0xC82 JUMP JUMPDEST DUP3 ADD SWAP2 SWAP1 PUSH1 0x0 MSTORE PUSH1 0x20 PUSH1 0x0 KECCAK256 SWAP1 JUMPDEST DUP2 SLOAD DUP2 MSTORE SWAP1 PUSH1 0x1 ADD SWAP1 PUSH1 0x20 ADD DUP1 DUP4 GT PUSH2 0xC65 JUMPI DUP3 SWAP1 SUB PUSH1 0x1F AND DUP3 ADD SWAP2 JUMPDEST POP POP POP POP POP DUP2 JUMP JUMPDEST PUSH2 0xFFFF DUP2 AND PUSH1 0x0 SWAP1 DUP2 MSTORE PUSH1 0x1 PUSH1 0x20 MSTORE PUSH1 0x40 DUP2 KECCAK256 DUP1 SLOAD PUSH1 0x60 SWAP3 SWAP2 SWAP1 PUSH2 0xCAD SWAP1 PUSH2 0x1F1F JUMP JUMPDEST DUP1 PUSH1 0x1F ADD PUSH1 0x20 DUP1 SWAP2 DIV MUL PUSH1 0x20 ADD PUSH1 0x40 MLOAD SWAP1 DUP2 ADD PUSH1 0x40 MSTORE DUP1 SWAP3 SWAP2 SWAP1 DUP2 DUP2 MSTORE PUSH1 0x20 ADD DUP3 DUP1 SLOAD PUSH2 0xCD9 SWAP1 PUSH2 0x1F1F JUMP JUMPDEST DUP1 ISZERO PUSH2 0xD26 JUMPI DUP1 PUSH1 0x1F LT PUSH2 0xCFB JUMPI PUSH2 0x100 DUP1 DUP4 SLOAD DIV MUL DUP4 MSTORE SWAP2 PUSH1 0x20 ADD SWAP2 PUSH2 0xD26 JUMP JUMPDEST DUP3 ADD SWAP2 SWAP1 PUSH1 0x0 MSTORE PUSH1 0x20 PUSH1 0x0 KECCAK256 SWAP1 JUMPDEST DUP2 SLOAD DUP2 MSTORE SWAP1 PUSH1 0x1 ADD SWAP1 PUSH1 0x20 ADD DUP1 DUP4 GT PUSH2 0xD09 JUMPI DUP3 SWAP1 SUB PUSH1 0x1F AND DUP3 ADD SWAP2 JUMPDEST POP POP POP POP POP SWAP1 POP DUP1 MLOAD PUSH1 0x0 SUB PUSH2 0xD7E JUMPI PUSH1 0x40 MLOAD PUSH3 0x461BCD PUSH1 0xE5 SHL DUP2 MSTORE PUSH1 0x20 PUSH1 0x4 DUP3 ADD MSTORE PUSH1 0x1D PUSH1 0x24 DUP3 ADD MSTORE PUSH32 0x4C7A4170703A206E6F20747275737465642070617468207265636F7264000000 PUSH1 0x44 DUP3 ADD MSTORE PUSH1 0x64 ADD PUSH2 0x668 JUMP JUMPDEST PUSH2 0xD99 PUSH1 0x0 PUSH1 0x14 DUP4 MLOAD PUSH2 0xD91 SWAP2 SWAP1 PUSH2 0x1FC6 JUMP JUMPDEST DUP4 SWAP2 SWAP1 PUSH2 0x175F JUMP JUMPDEST SWAP4 SWAP3 POP POP POP JUMP JUMPDEST PUSH2 0xDA8 PUSH2 0x14B1 JUMP JUMPDEST DUP2 DUP2 ADDRESS PUSH1 0x40 MLOAD PUSH1 0x20 ADD PUSH2 0xDBD SWAP4 SWAP3 SWAP2 SWAP1 PUSH2 0x1FDF JUMP JUMPDEST PUSH1 0x40 DUP1 MLOAD PUSH1 0x1F NOT DUP2 DUP5 SUB ADD DUP2 MSTORE SWAP2 DUP2 MSTORE PUSH2 0xFFFF DUP6 AND PUSH1 0x0 SWAP1 DUP2 MSTORE PUSH1 0x1 PUSH1 0x20 MSTORE KECCAK256 SWAP1 PUSH2 0xDE8 SWAP1 DUP3 PUSH2 0x204B JUMP JUMPDEST POP PUSH32 0x8C0400CFE2D1199B1A725C78960BCC2A344D869B80590D0F2BD005DB15A572CE DUP4 DUP4 DUP4 PUSH1 0x40 MLOAD PUSH2 0xE1C SWAP4 SWAP3 SWAP2 SWAP1 PUSH2 0x1F92 JUMP JUMPDEST PUSH1 0x40 MLOAD DUP1 SWAP2 SUB SWAP1 LOG1 POP POP POP JUMP JUMPDEST PUSH2 0xE31 PUSH2 0x14B1 JUMP JUMPDEST PUSH1 0x4 DUP1 SLOAD PUSH1 0x1 PUSH1 0x1 PUSH1 0xA0 SHL SUB NOT AND PUSH1 0x1 PUSH1 0x1 PUSH1 0xA0 SHL SUB DUP4 AND SWAP1 DUP2 OR SWAP1 SWAP2 SSTORE PUSH1 0x40 MLOAD SWAP1 DUP2 MSTORE PUSH32 0x5DB758E995A17EC1AD84BDEF7E8C3293A0BD6179BCCE400DFF5D4C3D87DB726B SWAP1 PUSH1 0x20 ADD PUSH1 0x40 MLOAD DUP1 SWAP2 SUB SWAP1 LOG1 POP JUMP JUMPDEST PUSH2 0xE8D PUSH2 0x14B1 JUMP JUMPDEST PUSH1 0x40 MLOAD PUSH4 0x32FB62E7 PUSH1 0xE2 SHL DUP2 MSTORE PUSH1 0x1 PUSH1 0x1 PUSH1 0xA0 SHL SUB PUSH32 0x0 AND SWAP1 PUSH4 0xCBED8B9C SWAP1 PUSH2 0xEE1 SWAP1 DUP9 SWAP1 DUP9 SWAP1 DUP9 SWAP1 DUP9 SWAP1 DUP9 SWAP1 PUSH1 0x4 ADD PUSH2 0x210A JUMP JUMPDEST PUSH1 0x0 PUSH1 0x40 MLOAD DUP1 DUP4 SUB DUP2 PUSH1 0x0 DUP8 DUP1 EXTCODESIZE ISZERO DUP1 ISZERO PUSH2 0xEFB JUMPI PUSH1 0x0 DUP1 REVERT JUMPDEST POP GAS CALL ISZERO DUP1 ISZERO PUSH2 0xF0F JUMPI RETURNDATASIZE PUSH1 0x0 DUP1 RETURNDATACOPY RETURNDATASIZE PUSH1 0x0 REVERT JUMPDEST POP POP POP POP POP POP POP POP POP JUMP JUMPDEST PUSH2 0xFFFF DUP7 AND PUSH1 0x0 SWAP1 DUP2 MSTORE PUSH1 0x5 PUSH1 0x20 MSTORE PUSH1 0x40 DUP1 DUP3 KECCAK256 SWAP1 MLOAD PUSH2 0xF3D SWAP1 DUP9 SWAP1 DUP9 SWAP1 PUSH2 0x1F59 JUMP JUMPDEST SWAP1 DUP2 MSTORE PUSH1 0x40 DUP1 MLOAD PUSH1 0x20 SWAP3 DUP2 SWAP1 SUB DUP4 ADD SWAP1 KECCAK256 PUSH1 0x1 PUSH1 0x1 PUSH1 0x40 SHL SUB DUP8 AND PUSH1 0x0 SWAP1 DUP2 MSTORE SWAP3 MSTORE SWAP1 KECCAK256 SLOAD SWAP1 POP DUP1 PUSH2 0xFBD JUMPI PUSH1 0x40 MLOAD PUSH3 0x461BCD PUSH1 0xE5 SHL DUP2 MSTORE PUSH1 0x20 PUSH1 0x4 DUP3 ADD MSTORE PUSH1 0x23 PUSH1 0x24 DUP3 ADD MSTORE PUSH32 0x4E6F6E626C6F636B696E674C7A4170703A206E6F2073746F726564206D657373 PUSH1 0x44 DUP3 ADD MSTORE PUSH3 0x616765 PUSH1 0xE8 SHL PUSH1 0x64 DUP3 ADD MSTORE PUSH1 0x84 ADD PUSH2 0x668 JUMP JUMPDEST DUP1 DUP4 DUP4 PUSH1 0x40 MLOAD PUSH2 0xFCE SWAP3 SWAP2 SWAP1 PUSH2 0x1F59 JUMP JUMPDEST PUSH1 0x40 MLOAD DUP1 SWAP2 SUB SWAP1 KECCAK256 EQ PUSH2 0x102D JUMPI PUSH1 0x40 MLOAD PUSH3 0x461BCD PUSH1 0xE5 SHL DUP2 MSTORE PUSH1 0x20 PUSH1 0x4 DUP3 ADD MSTORE PUSH1 0x21 PUSH1 0x24 DUP3 ADD MSTORE PUSH32 0x4E6F6E626C6F636B696E674C7A4170703A20696E76616C6964207061796C6F61 PUSH1 0x44 DUP3 ADD MSTORE PUSH1 0x19 PUSH1 0xFA SHL PUSH1 0x64 DUP3 ADD MSTORE PUSH1 0x84 ADD PUSH2 0x668 JUMP JUMPDEST PUSH2 0xFFFF DUP8 AND PUSH1 0x0 SWAP1 DUP2 MSTORE PUSH1 0x5 PUSH1 0x20 MSTORE PUSH1 0x40 DUP1 DUP3 KECCAK256 SWAP1 MLOAD PUSH2 0x1050 SWAP1 DUP10 SWAP1 DUP10 SWAP1 PUSH2 0x1F59 JUMP JUMPDEST SWAP1 DUP2 MSTORE PUSH1 0x40 DUP1 MLOAD PUSH1 0x20 SWAP3 DUP2 SWAP1 SUB DUP4 ADD DUP2 KECCAK256 PUSH1 0x1 PUSH1 0x1 PUSH1 0x40 SHL SUB DUP10 AND PUSH1 0x0 SWAP1 DUP2 MSTORE SWAP1 DUP5 MSTORE DUP3 SWAP1 KECCAK256 SWAP4 SWAP1 SWAP4 SSTORE PUSH1 0x1F DUP9 ADD DUP3 SWAP1 DIV DUP3 MUL DUP4 ADD DUP3 ADD SWAP1 MSTORE DUP7 DUP3 MSTORE PUSH2 0x10E8 SWAP2 DUP10 SWAP2 DUP10 SWAP1 DUP10 SWAP1 DUP2 SWAP1 DUP5 ADD DUP4 DUP3 DUP1 DUP3 DUP5 CALLDATACOPY PUSH1 0x0 SWAP3 ADD SWAP2 SWAP1 SWAP2 MSTORE POP POP PUSH1 0x40 DUP1 MLOAD PUSH1 0x20 PUSH1 0x1F DUP11 ADD DUP2 SWAP1 DIV DUP2 MUL DUP3 ADD DUP2 ADD SWAP1 SWAP3 MSTORE DUP9 DUP2 MSTORE DUP11 SWAP4 POP SWAP2 POP DUP9 SWAP1 DUP9 SWAP1 DUP2 SWAP1 DUP5 ADD DUP4 DUP3 DUP1 DUP3 DUP5 CALLDATACOPY PUSH1 0x0 SWAP3 ADD SWAP2 SWAP1 SWAP2 MSTORE POP PUSH2 0x1709 SWAP3 POP POP POP JUMP JUMPDEST PUSH32 0xC264D91F3ADC5588250E1551F547752CA0CFA8F6B530D243B9F9F4CAB10EA8E5 DUP8 DUP8 DUP8 DUP8 DUP6 PUSH1 0x40 MLOAD PUSH2 0x111F SWAP6 SWAP5 SWAP4 SWAP3 SWAP2 SWAP1 PUSH2 0x2143 JUMP JUMPDEST PUSH1 0x40 MLOAD DUP1 SWAP2 SUB SWAP1 LOG1 POP POP POP POP POP POP POP JUMP JUMPDEST PUSH1 0x40 DUP1 MLOAD PUSH1 0x0 PUSH1 0x20 DUP3 ADD DUP2 SWAP1 MSTORE PUSH1 0x34 DUP3 ADD DUP2 SWAP1 MSTORE PUSH1 0x54 DUP3 ADD DUP2 SWAP1 MSTORE DUP3 MLOAD PUSH1 0x48 DUP2 DUP5 SUB ADD DUP2 MSTORE PUSH1 0x68 DUP4 ADD SWAP4 DUP5 SWAP1 MSTORE PUSH4 0x40A7BB1 PUSH1 0xE4 SHL SWAP1 SWAP4 MSTORE SWAP2 DUP3 SWAP2 PUSH32 0x0 PUSH1 0x1 PUSH1 0x1 PUSH1 0xA0 SHL SUB AND SWAP1 PUSH4 0x40A7BB10 SWAP1 PUSH2 0x11B4 SWAP1 DUP11 SWAP1 ADDRESS SWAP1 DUP7 SWAP1 DUP13 SWAP1 DUP13 SWAP1 DUP13 SWAP1 PUSH1 0x6C ADD PUSH2 0x217E JUMP JUMPDEST PUSH1 0x40 DUP1 MLOAD DUP1 DUP4 SUB DUP2 DUP7 GAS STATICCALL ISZERO DUP1 ISZERO PUSH2 0x11D0 JUMPI RETURNDATASIZE PUSH1 0x0 DUP1 RETURNDATACOPY RETURNDATASIZE PUSH1 0x0 REVERT JUMPDEST POP POP POP POP PUSH1 0x40 MLOAD RETURNDATASIZE PUSH1 0x1F NOT PUSH1 0x1F DUP3 ADD AND DUP3 ADD DUP1 PUSH1 0x40 MSTORE POP DUP2 ADD SWAP1 PUSH2 0x11F4 SWAP2 SWAP1 PUSH2 0x21D4 JUMP JUMPDEST SWAP3 POP SWAP3 POP POP SWAP5 POP SWAP5 SWAP3 POP POP POP JUMP JUMPDEST PUSH2 0x120A PUSH2 0x14B1 JUMP JUMPDEST PUSH1 0x0 DUP2 GT PUSH2 0x1252 JUMPI PUSH1 0x40 MLOAD PUSH3 0x461BCD PUSH1 0xE5 SHL DUP2 MSTORE PUSH1 0x20 PUSH1 0x4 DUP3 ADD MSTORE PUSH1 0x15 PUSH1 0x24 DUP3 ADD MSTORE PUSH21 0x4C7A4170703A20696E76616C6964206D696E476173 PUSH1 0x58 SHL PUSH1 0x44 DUP3 ADD MSTORE PUSH1 0x64 ADD PUSH2 0x668 JUMP JUMPDEST PUSH2 0xFFFF DUP4 DUP2 AND PUSH1 0x0 DUP2 DUP2 MSTORE PUSH1 0x2 PUSH1 0x20 SWAP1 DUP2 MSTORE PUSH1 0x40 DUP1 DUP4 KECCAK256 SWAP5 DUP8 AND DUP1 DUP5 MSTORE SWAP5 DUP3 MSTORE SWAP2 DUP3 SWAP1 KECCAK256 DUP6 SWAP1 SSTORE DUP2 MLOAD SWAP3 DUP4 MSTORE DUP3 ADD SWAP3 SWAP1 SWAP3 MSTORE SWAP1 DUP2 ADD DUP3 SWAP1 MSTORE PUSH32 0x9D5C7C0B934DA8FEFA9C7760C98383778A12DFBFC0C3B3106518F43FB9508AC0 SWAP1 PUSH1 0x60 ADD PUSH2 0xE1C JUMP JUMPDEST PUSH2 0x12BC PUSH2 0x14B1 JUMP JUMPDEST PUSH2 0xFFFF DUP4 AND PUSH1 0x0 SWAP1 DUP2 MSTORE PUSH1 0x1 PUSH1 0x20 MSTORE PUSH1 0x40 SWAP1 KECCAK256 PUSH2 0x12DA DUP3 DUP5 DUP4 PUSH2 0x21F8 JUMP JUMPDEST POP PUSH32 0xFA41487AD5D6728F0B19276FA1EDDC16558578F5109FC39D2DC33C3230470DAB DUP4 DUP4 DUP4 PUSH1 0x40 MLOAD PUSH2 0xE1C SWAP4 SWAP3 SWAP2 SWAP1 PUSH2 0x1F92 JUMP JUMPDEST PUSH2 0x1316 PUSH2 0x14B1 JUMP JUMPDEST PUSH1 0x1 PUSH1 0x1 PUSH1 0xA0 SHL SUB DUP2 AND PUSH2 0x137B JUMPI PUSH1 0x40 MLOAD PUSH3 0x461BCD PUSH1 0xE5 SHL DUP2 MSTORE PUSH1 0x20 PUSH1 0x4 DUP3 ADD MSTORE PUSH1 0x26 PUSH1 0x24 DUP3 ADD MSTORE PUSH32 0x4F776E61626C653A206E6577206F776E657220697320746865207A65726F2061 PUSH1 0x44 DUP3 ADD MSTORE PUSH6 0x646472657373 PUSH1 0xD0 SHL PUSH1 0x64 DUP3 ADD MSTORE PUSH1 0x84 ADD PUSH2 0x668 JUMP JUMPDEST PUSH2 0x1384 DUP2 PUSH2 0x170F JUMP JUMPDEST POP JUMP JUMPDEST PUSH1 0x40 MLOAD PUSH4 0x3D7B2F6F PUSH1 0xE2 SHL DUP2 MSTORE PUSH2 0xFFFF DUP1 DUP7 AND PUSH1 0x4 DUP4 ADD MSTORE DUP5 AND PUSH1 0x24 DUP3 ADD MSTORE ADDRESS PUSH1 0x44 DUP3 ADD MSTORE PUSH1 0x64 DUP2 ADD DUP3 SWAP1 MSTORE PUSH1 0x60 SWAP1 PUSH32 0x0 PUSH1 0x1 PUSH1 0x1 PUSH1 0xA0 SHL SUB AND SWAP1 PUSH4 0xF5ECBDBC SWAP1 PUSH1 0x84 ADD PUSH1 0x0 PUSH1 0x40 MLOAD DUP1 DUP4 SUB DUP2 DUP7 GAS STATICCALL ISZERO DUP1 ISZERO PUSH2 0x1407 JUMPI RETURNDATASIZE PUSH1 0x0 DUP1 RETURNDATACOPY RETURNDATASIZE PUSH1 0x0 REVERT JUMPDEST POP POP POP POP PUSH1 0x40 MLOAD RETURNDATASIZE PUSH1 0x0 DUP3 RETURNDATACOPY PUSH1 0x1F RETURNDATASIZE SWAP1 DUP2 ADD PUSH1 0x1F NOT AND DUP3 ADD PUSH1 0x40 MSTORE PUSH2 0x142F SWAP2 SWAP1 DUP2 ADD SWAP1 PUSH2 0x22B7 JUMP JUMPDEST SWAP6 SWAP5 POP POP POP POP POP JUMP JUMPDEST PUSH1 0x0 DUP1 PUSH2 0x149B GAS PUSH1 0x96 PUSH4 0x66AD5C8A PUSH1 0xE0 SHL DUP10 DUP10 DUP10 DUP10 PUSH1 0x40 MLOAD PUSH1 0x24 ADD PUSH2 0x1460 SWAP5 SWAP4 SWAP3 SWAP2 SWAP1 PUSH2 0x2324 JUMP JUMPDEST PUSH1 0x40 DUP1 MLOAD PUSH1 0x1F NOT DUP2 DUP5 SUB ADD DUP2 MSTORE SWAP2 SWAP1 MSTORE PUSH1 0x20 DUP2 ADD DUP1 MLOAD PUSH1 0x1 PUSH1 0x1 PUSH1 0xE0 SHL SUB AND PUSH1 0x1 PUSH1 0x1 PUSH1 0xE0 SHL SUB NOT SWAP1 SWAP4 AND SWAP3 SWAP1 SWAP3 OR SWAP1 SWAP2 MSTORE ADDRESS SWAP3 SWAP2 SWAP1 PUSH2 0x186C JUMP JUMPDEST SWAP2 POP SWAP2 POP DUP2 PUSH2 0xBD4 JUMPI PUSH2 0xBD4 DUP7 DUP7 DUP7 DUP7 DUP6 PUSH2 0x18F6 JUMP JUMPDEST PUSH1 0x0 SLOAD PUSH1 0x1 PUSH1 0x1 PUSH1 0xA0 SHL SUB AND CALLER EQ PUSH2 0xBEE JUMPI PUSH1 0x40 MLOAD PUSH3 0x461BCD PUSH1 0xE5 SHL DUP2 MSTORE PUSH1 0x20 PUSH1 0x4 DUP3 ADD DUP2 SWAP1 MSTORE PUSH1 0x24 DUP3 ADD MSTORE PUSH32 0x4F776E61626C653A2063616C6C6572206973206E6F7420746865206F776E6572 PUSH1 0x44 DUP3 ADD MSTORE PUSH1 0x64 ADD PUSH2 0x668 JUMP JUMPDEST PUSH1 0x2 PUSH1 0x6 SLOAD SUB PUSH2 0x155D JUMPI PUSH1 0x40 MLOAD PUSH3 0x461BCD PUSH1 0xE5 SHL DUP2 MSTORE PUSH1 0x20 PUSH1 0x4 DUP3 ADD MSTORE PUSH1 0x1F PUSH1 0x24 DUP3 ADD MSTORE PUSH32 0x5265656E7472616E637947756172643A207265656E7472616E742063616C6C00 PUSH1 0x44 DUP3 ADD MSTORE PUSH1 0x64 ADD PUSH2 0x668 JUMP JUMPDEST PUSH1 0x2 PUSH1 0x6 SSTORE JUMP JUMPDEST PUSH2 0xFFFF DUP7 AND PUSH1 0x0 SWAP1 DUP2 MSTORE PUSH1 0x1 PUSH1 0x20 MSTORE PUSH1 0x40 DUP2 KECCAK256 DUP1 SLOAD PUSH2 0x1582 SWAP1 PUSH2 0x1F1F JUMP JUMPDEST DUP1 PUSH1 0x1F ADD PUSH1 0x20 DUP1 SWAP2 DIV MUL PUSH1 0x20 ADD PUSH1 0x40 MLOAD SWAP1 DUP2 ADD PUSH1 0x40 MSTORE DUP1 SWAP3 SWAP2 SWAP1 DUP2 DUP2 MSTORE PUSH1 0x20 ADD DUP3 DUP1 SLOAD PUSH2 0x15AE SWAP1 PUSH2 0x1F1F JUMP JUMPDEST DUP1 ISZERO PUSH2 0x15FB JUMPI DUP1 PUSH1 0x1F LT PUSH2 0x15D0 JUMPI PUSH2 0x100 DUP1 DUP4 SLOAD DIV MUL DUP4 MSTORE SWAP2 PUSH1 0x20 ADD SWAP2 PUSH2 0x15FB JUMP JUMPDEST DUP3 ADD SWAP2 SWAP1 PUSH1 0x0 MSTORE PUSH1 0x20 PUSH1 0x0 KECCAK256 SWAP1 JUMPDEST DUP2 SLOAD DUP2 MSTORE SWAP1 PUSH1 0x1 ADD SWAP1 PUSH1 0x20 ADD DUP1 DUP4 GT PUSH2 0x15DE JUMPI DUP3 SWAP1 SUB PUSH1 0x1F AND DUP3 ADD SWAP2 JUMPDEST POP POP POP POP POP SWAP1 POP DUP1 MLOAD PUSH1 0x0 SUB PUSH2 0x166C JUMPI PUSH1 0x40 MLOAD PUSH3 0x461BCD PUSH1 0xE5 SHL DUP2 MSTORE PUSH1 0x20 PUSH1 0x4 DUP3 ADD MSTORE PUSH1 0x30 PUSH1 0x24 DUP3 ADD MSTORE PUSH32 0x4C7A4170703A2064657374696E6174696F6E20636861696E206973206E6F7420 PUSH1 0x44 DUP3 ADD MSTORE PUSH16 0x61207472757374656420736F75726365 PUSH1 0x80 SHL PUSH1 0x64 DUP3 ADD MSTORE PUSH1 0x84 ADD PUSH2 0x668 JUMP JUMPDEST PUSH2 0x1677 DUP8 DUP8 MLOAD PUSH2 0x1993 JUMP JUMPDEST PUSH1 0x40 MLOAD PUSH3 0xC58031 PUSH1 0xE8 SHL DUP2 MSTORE PUSH1 0x1 PUSH1 0x1 PUSH1 0xA0 SHL SUB PUSH32 0x0 AND SWAP1 PUSH4 0xC5803100 SWAP1 DUP5 SWAP1 PUSH2 0x16CE SWAP1 DUP12 SWAP1 DUP7 SWAP1 DUP13 SWAP1 DUP13 SWAP1 DUP13 SWAP1 DUP13 SWAP1 PUSH1 0x4 ADD PUSH2 0x2362 JUMP JUMPDEST PUSH1 0x0 PUSH1 0x40 MLOAD DUP1 DUP4 SUB DUP2 DUP6 DUP9 DUP1 EXTCODESIZE ISZERO DUP1 ISZERO PUSH2 0x16E7 JUMPI PUSH1 0x0 DUP1 REVERT JUMPDEST POP GAS CALL ISZERO DUP1 ISZERO PUSH2 0x16FB JUMPI RETURNDATASIZE PUSH1 0x0 DUP1 RETURNDATACOPY RETURNDATASIZE PUSH1 0x0 REVERT JUMPDEST POP POP POP POP POP POP POP POP POP POP POP POP JUMP JUMPDEST POP POP POP POP JUMP JUMPDEST PUSH1 0x0 DUP1 SLOAD PUSH1 0x1 PUSH1 0x1 PUSH1 0xA0 SHL SUB DUP4 DUP2 AND PUSH1 0x1 PUSH1 0x1 PUSH1 0xA0 SHL SUB NOT DUP4 AND DUP2 OR DUP5 SSTORE PUSH1 0x40 MLOAD SWAP2 SWAP1 SWAP3 AND SWAP3 DUP4 SWAP2 PUSH32 0x8BE0079C531659141344CD1FD0A4F28419497F9722A3DAAFE3B4186F6B6457E0 SWAP2 SWAP1 LOG3 POP POP JUMP JUMPDEST PUSH1 0x60 DUP2 PUSH2 0x176D DUP2 PUSH1 0x1F PUSH2 0x23BC JUMP JUMPDEST LT ISZERO PUSH2 0x17AC JUMPI PUSH1 0x40 MLOAD PUSH3 0x461BCD PUSH1 0xE5 SHL DUP2 MSTORE PUSH1 0x20 PUSH1 0x4 DUP3 ADD MSTORE PUSH1 0xE PUSH1 0x24 DUP3 ADD MSTORE PUSH14 0x736C6963655F6F766572666C6F77 PUSH1 0x90 SHL PUSH1 0x44 DUP3 ADD MSTORE PUSH1 0x64 ADD PUSH2 0x668 JUMP JUMPDEST PUSH2 0x17B6 DUP3 DUP5 PUSH2 0x23BC JUMP JUMPDEST DUP5 MLOAD LT ISZERO PUSH2 0x17FA JUMPI PUSH1 0x40 MLOAD PUSH3 0x461BCD PUSH1 0xE5 SHL DUP2 MSTORE PUSH1 0x20 PUSH1 0x4 DUP3 ADD MSTORE PUSH1 0x11 PUSH1 0x24 DUP3 ADD MSTORE PUSH17 0x736C6963655F6F75744F66426F756E6473 PUSH1 0x78 SHL PUSH1 0x44 DUP3 ADD MSTORE PUSH1 0x64 ADD PUSH2 0x668 JUMP JUMPDEST PUSH1 0x60 DUP3 ISZERO DUP1 ISZERO PUSH2 0x1819 JUMPI PUSH1 0x40 MLOAD SWAP2 POP PUSH1 0x0 DUP3 MSTORE PUSH1 0x20 DUP3 ADD PUSH1 0x40 MSTORE PUSH2 0x1863 JUMP JUMPDEST PUSH1 0x40 MLOAD SWAP2 POP PUSH1 0x1F DUP5 AND DUP1 ISZERO PUSH1 0x20 MUL DUP2 DUP5 ADD ADD DUP6 DUP2 ADD DUP8 DUP4 ISZERO PUSH1 0x20 MUL DUP5 DUP12 ADD ADD ADD JUMPDEST DUP2 DUP4 LT ISZERO PUSH2 0x1852 JUMPI DUP1 MLOAD DUP4 MSTORE PUSH1 0x20 SWAP3 DUP4 ADD SWAP3 ADD PUSH2 0x183A JUMP JUMPDEST POP POP DUP6 DUP5 MSTORE PUSH1 0x1F ADD PUSH1 0x1F NOT AND PUSH1 0x40 MSTORE POP JUMPDEST POP SWAP5 SWAP4 POP POP POP POP JUMP JUMPDEST PUSH1 0x0 PUSH1 0x60 PUSH1 0x0 DUP1 PUSH1 0x0 DUP7 PUSH2 0xFFFF AND PUSH1 0x1 PUSH1 0x1 PUSH1 0x40 SHL SUB DUP2 GT ISZERO PUSH2 0x1891 JUMPI PUSH2 0x1891 PUSH2 0x1C0E JUMP JUMPDEST PUSH1 0x40 MLOAD SWAP1 DUP1 DUP3 MSTORE DUP1 PUSH1 0x1F ADD PUSH1 0x1F NOT AND PUSH1 0x20 ADD DUP3 ADD PUSH1 0x40 MSTORE DUP1 ISZERO PUSH2 0x18BB JUMPI PUSH1 0x20 DUP3 ADD DUP2 DUP1 CALLDATASIZE DUP4 CALLDATACOPY ADD SWAP1 POP JUMPDEST POP SWAP1 POP PUSH1 0x0 DUP1 DUP8 MLOAD PUSH1 0x20 DUP10 ADD PUSH1 0x0 DUP14 DUP14 CALL SWAP2 POP RETURNDATASIZE SWAP3 POP DUP7 DUP4 GT ISZERO PUSH2 0x18DD JUMPI DUP7 SWAP3 POP JUMPDEST DUP3 DUP2 MSTORE DUP3 PUSH1 0x0 PUSH1 0x20 DUP4 ADD RETURNDATACOPY SWAP1 SWAP9 SWAP1 SWAP8 POP SWAP6 POP POP POP POP POP POP JUMP JUMPDEST DUP2 DUP1 MLOAD SWAP1 PUSH1 0x20 ADD KECCAK256 PUSH1 0x5 PUSH1 0x0 DUP8 PUSH2 0xFFFF AND PUSH2 0xFFFF AND DUP2 MSTORE PUSH1 0x20 ADD SWAP1 DUP2 MSTORE PUSH1 0x20 ADD PUSH1 0x0 KECCAK256 DUP6 PUSH1 0x40 MLOAD PUSH2 0x1927 SWAP2 SWAP1 PUSH2 0x23CF JUMP JUMPDEST SWAP1 DUP2 MSTORE PUSH1 0x40 DUP1 MLOAD SWAP2 DUP3 SWAP1 SUB PUSH1 0x20 SWAP1 DUP2 ADD DUP4 KECCAK256 PUSH1 0x1 PUSH1 0x1 PUSH1 0x40 SHL SUB DUP9 AND PUSH1 0x0 SWAP1 DUP2 MSTORE SWAP2 MSTORE KECCAK256 SWAP2 SWAP1 SWAP2 SSTORE PUSH32 0xE183F33DE2837795525B4792CA4CD60535BD77C53B7E7030060BFCF5734D6B0C SWAP1 PUSH2 0x1984 SWAP1 DUP8 SWAP1 DUP8 SWAP1 DUP8 SWAP1 DUP8 SWAP1 DUP8 SWAP1 PUSH2 0x23EB JUMP JUMPDEST PUSH1 0x40 MLOAD DUP1 SWAP2 SUB SWAP1 LOG1 POP POP POP POP POP JUMP JUMPDEST PUSH2 0xFFFF DUP3 AND PUSH1 0x0 SWAP1 DUP2 MSTORE PUSH1 0x3 PUSH1 0x20 MSTORE PUSH1 0x40 DUP2 KECCAK256 SLOAD SWAP1 DUP2 SWAP1 SUB PUSH2 0x19B4 JUMPI POP PUSH2 0x2710 JUMPDEST DUP1 DUP3 GT ISZERO PUSH2 0x9A9 JUMPI PUSH1 0x40 MLOAD PUSH3 0x461BCD PUSH1 0xE5 SHL DUP2 MSTORE PUSH1 0x20 PUSH1 0x4 DUP3 ADD DUP2 SWAP1 MSTORE PUSH1 0x24 DUP3 ADD MSTORE PUSH32 0x4C7A4170703A207061796C6F61642073697A6520697320746F6F206C61726765 PUSH1 0x44 DUP3 ADD MSTORE PUSH1 0x64 ADD PUSH2 0x668 JUMP JUMPDEST DUP1 CALLDATALOAD PUSH2 0xFFFF DUP2 AND DUP2 EQ PUSH2 0x1A16 JUMPI PUSH1 0x0 DUP1 REVERT JUMPDEST SWAP2 SWAP1 POP JUMP JUMPDEST PUSH1 0x0 DUP1 DUP4 PUSH1 0x1F DUP5 ADD SLT PUSH2 0x1A2D JUMPI PUSH1 0x0 DUP1 REVERT JUMPDEST POP DUP2 CALLDATALOAD PUSH1 0x1 PUSH1 0x1 PUSH1 0x40 SHL SUB DUP2 GT ISZERO PUSH2 0x1A44 JUMPI PUSH1 0x0 DUP1 REVERT JUMPDEST PUSH1 0x20 DUP4 ADD SWAP2 POP DUP4 PUSH1 0x20 DUP3 DUP6 ADD ADD GT ISZERO PUSH2 0x1A5C JUMPI PUSH1 0x0 DUP1 REVERT JUMPDEST SWAP3 POP SWAP3 SWAP1 POP JUMP JUMPDEST DUP1 CALLDATALOAD PUSH1 0x1 PUSH1 0x1 PUSH1 0x40 SHL SUB DUP2 AND DUP2 EQ PUSH2 0x1A16 JUMPI PUSH1 0x0 DUP1 REVERT JUMPDEST PUSH1 0x0 DUP1 PUSH1 0x0 DUP1 PUSH1 0x0 DUP1 PUSH1 0x80 DUP8 DUP10 SUB SLT ISZERO PUSH2 0x1A93 JUMPI PUSH1 0x0 DUP1 REVERT JUMPDEST PUSH2 0x1A9C DUP8 PUSH2 0x1A04 JUMP JUMPDEST SWAP6 POP PUSH1 0x20 DUP8 ADD CALLDATALOAD PUSH1 0x1 PUSH1 0x1 PUSH1 0x40 SHL SUB DUP1 DUP3 GT ISZERO PUSH2 0x1AB8 JUMPI PUSH1 0x0 DUP1 REVERT JUMPDEST PUSH2 0x1AC4 DUP11 DUP4 DUP12 ADD PUSH2 0x1A1B JUMP JUMPDEST SWAP1 SWAP8 POP SWAP6 POP DUP6 SWAP2 POP PUSH2 0x1AD8 PUSH1 0x40 DUP11 ADD PUSH2 0x1A63 JUMP JUMPDEST SWAP5 POP PUSH1 0x60 DUP10 ADD CALLDATALOAD SWAP2 POP DUP1 DUP3 GT ISZERO PUSH2 0x1AEE JUMPI PUSH1 0x0 DUP1 REVERT JUMPDEST POP PUSH2 0x1AFB DUP10 DUP3 DUP11 ADD PUSH2 0x1A1B JUMP JUMPDEST SWAP8 SWAP11 SWAP7 SWAP10 POP SWAP5 SWAP8 POP SWAP3 SWAP6 SWAP4 SWAP5 SWAP3 POP POP POP JUMP JUMPDEST PUSH1 0x0 PUSH1 0x20 DUP3 DUP5 SUB SLT ISZERO PUSH2 0x1B1F JUMPI PUSH1 0x0 DUP1 REVERT JUMPDEST PUSH2 0xD99 DUP3 PUSH2 0x1A04 JUMP JUMPDEST PUSH1 0x0 DUP1 PUSH1 0x40 DUP4 DUP6 SUB SLT ISZERO PUSH2 0x1B3B JUMPI PUSH1 0x0 DUP1 REVERT JUMPDEST PUSH2 0x1B44 DUP4 PUSH2 0x1A04 JUMP JUMPDEST SWAP5 PUSH1 0x20 SWAP4 SWAP1 SWAP4 ADD CALLDATALOAD SWAP4 POP POP POP JUMP JUMPDEST DUP1 CALLDATALOAD PUSH1 0x1 PUSH1 0x1 PUSH1 0xA0 SHL SUB DUP2 AND DUP2 EQ PUSH2 0x1A16 JUMPI PUSH1 0x0 DUP1 REVERT JUMPDEST PUSH1 0x0 DUP1 PUSH1 0x0 PUSH1 0x40 DUP5 DUP7 SUB SLT ISZERO PUSH2 0x1B7E JUMPI PUSH1 0x0 DUP1 REVERT JUMPDEST DUP4 CALLDATALOAD PUSH1 0x1 PUSH1 0x1 PUSH1 0x40 SHL SUB DUP2 GT ISZERO PUSH2 0x1B94 JUMPI PUSH1 0x0 DUP1 REVERT JUMPDEST PUSH2 0x1BA0 DUP7 DUP3 DUP8 ADD PUSH2 0x1A1B JUMP JUMPDEST SWAP1 SWAP5 POP SWAP3 POP PUSH2 0x1BB3 SWAP1 POP PUSH1 0x20 DUP6 ADD PUSH2 0x1B52 JUMP JUMPDEST SWAP1 POP SWAP3 POP SWAP3 POP SWAP3 JUMP JUMPDEST PUSH1 0x0 DUP1 PUSH1 0x0 PUSH1 0x40 DUP5 DUP7 SUB SLT ISZERO PUSH2 0x1BD1 JUMPI PUSH1 0x0 DUP1 REVERT JUMPDEST PUSH2 0x1BDA DUP5 PUSH2 0x1A04 JUMP JUMPDEST SWAP3 POP PUSH1 0x20 DUP5 ADD CALLDATALOAD PUSH1 0x1 PUSH1 0x1 PUSH1 0x40 SHL SUB DUP2 GT ISZERO PUSH2 0x1BF5 JUMPI PUSH1 0x0 DUP1 REVERT JUMPDEST PUSH2 0x1C01 DUP7 DUP3 DUP8 ADD PUSH2 0x1A1B JUMP JUMPDEST SWAP5 SWAP8 SWAP1 SWAP7 POP SWAP4 SWAP5 POP POP POP POP JUMP JUMPDEST PUSH4 0x4E487B71 PUSH1 0xE0 SHL PUSH1 0x0 MSTORE PUSH1 0x41 PUSH1 0x4 MSTORE PUSH1 0x24 PUSH1 0x0 REVERT JUMPDEST PUSH1 0x40 MLOAD PUSH1 0x1F DUP3 ADD PUSH1 0x1F NOT AND DUP2 ADD PUSH1 0x1 PUSH1 0x1 PUSH1 0x40 SHL SUB DUP2 GT DUP3 DUP3 LT OR ISZERO PUSH2 0x1C4C JUMPI PUSH2 0x1C4C PUSH2 0x1C0E JUMP JUMPDEST PUSH1 0x40 MSTORE SWAP2 SWAP1 POP JUMP JUMPDEST PUSH1 0x0 PUSH1 0x1 PUSH1 0x1 PUSH1 0x40 SHL SUB DUP3 GT ISZERO PUSH2 0x1C6D JUMPI PUSH2 0x1C6D PUSH2 0x1C0E JUMP JUMPDEST POP PUSH1 0x1F ADD PUSH1 0x1F NOT AND PUSH1 0x20 ADD SWAP1 JUMP JUMPDEST PUSH1 0x0 DUP1 PUSH1 0x0 PUSH1 0x60 DUP5 DUP7 SUB SLT ISZERO PUSH2 0x1C90 JUMPI PUSH1 0x0 DUP1 REVERT JUMPDEST PUSH2 0x1C99 DUP5 PUSH2 0x1A04 JUMP JUMPDEST SWAP3 POP PUSH1 0x20 DUP5 ADD CALLDATALOAD PUSH1 0x1 PUSH1 0x1 PUSH1 0x40 SHL SUB DUP2 GT ISZERO PUSH2 0x1CB4 JUMPI PUSH1 0x0 DUP1 REVERT JUMPDEST DUP5 ADD PUSH1 0x1F DUP2 ADD DUP7 SGT PUSH2 0x1CC5 JUMPI PUSH1 0x0 DUP1 REVERT JUMPDEST DUP1 CALLDATALOAD PUSH2 0x1CD8 PUSH2 0x1CD3 DUP3 PUSH2 0x1C54 JUMP JUMPDEST PUSH2 0x1C24 JUMP JUMPDEST DUP2 DUP2 MSTORE DUP8 PUSH1 0x20 DUP4 DUP6 ADD ADD GT ISZERO PUSH2 0x1CED JUMPI PUSH1 0x0 DUP1 REVERT JUMPDEST DUP2 PUSH1 0x20 DUP5 ADD PUSH1 0x20 DUP4 ADD CALLDATACOPY PUSH1 0x0 PUSH1 0x20 DUP4 DUP4 ADD ADD MSTORE DUP1 SWAP5 POP POP POP POP PUSH2 0x1BB3 PUSH1 0x40 DUP6 ADD PUSH2 0x1A63 JUMP JUMPDEST PUSH1 0x0 JUMPDEST DUP4 DUP2 LT ISZERO PUSH2 0x1D2D JUMPI DUP2 DUP2 ADD MLOAD DUP4 DUP3 ADD MSTORE PUSH1 0x20 ADD PUSH2 0x1D15 JUMP JUMPDEST POP POP PUSH1 0x0 SWAP2 ADD MSTORE JUMP JUMPDEST PUSH1 0x0 DUP2 MLOAD DUP1 DUP5 MSTORE PUSH2 0x1D4E DUP2 PUSH1 0x20 DUP7 ADD PUSH1 0x20 DUP7 ADD PUSH2 0x1D12 JUMP JUMPDEST PUSH1 0x1F ADD PUSH1 0x1F NOT AND SWAP3 SWAP1 SWAP3 ADD PUSH1 0x20 ADD SWAP3 SWAP2 POP POP JUMP JUMPDEST PUSH1 0x20 DUP2 MSTORE PUSH1 0x0 PUSH2 0xD99 PUSH1 0x20 DUP4 ADD DUP5 PUSH2 0x1D36 JUMP JUMPDEST PUSH1 0x0 DUP1 PUSH1 0x40 DUP4 DUP6 SUB SLT ISZERO PUSH2 0x1D88 JUMPI PUSH1 0x0 DUP1 REVERT JUMPDEST PUSH2 0x1D91 DUP4 PUSH2 0x1A04 JUMP JUMPDEST SWAP2 POP PUSH2 0x1D9F PUSH1 0x20 DUP5 ADD PUSH2 0x1A04 JUMP JUMPDEST SWAP1 POP SWAP3 POP SWAP3 SWAP1 POP JUMP JUMPDEST PUSH1 0x0 PUSH1 0x20 DUP3 DUP5 SUB SLT ISZERO PUSH2 0x1DBA JUMPI PUSH1 0x0 DUP1 REVERT JUMPDEST PUSH2 0xD99 DUP3 PUSH2 0x1B52 JUMP JUMPDEST PUSH1 0x0 DUP1 PUSH1 0x0 DUP1 PUSH1 0x0 PUSH1 0x80 DUP7 DUP9 SUB SLT ISZERO PUSH2 0x1DDB JUMPI PUSH1 0x0 DUP1 REVERT JUMPDEST PUSH2 0x1DE4 DUP7 PUSH2 0x1A04 JUMP JUMPDEST SWAP5 POP PUSH2 0x1DF2 PUSH1 0x20 DUP8 ADD PUSH2 0x1A04 JUMP JUMPDEST SWAP4 POP PUSH1 0x40 DUP7 ADD CALLDATALOAD SWAP3 POP PUSH1 0x60 DUP7 ADD CALLDATALOAD PUSH1 0x1 PUSH1 0x1 PUSH1 0x40 SHL SUB DUP2 GT ISZERO PUSH2 0x1E14 JUMPI PUSH1 0x0 DUP1 REVERT JUMPDEST PUSH2 0x1E20 DUP9 DUP3 DUP10 ADD PUSH2 0x1A1B JUMP JUMPDEST SWAP7 SWAP10 SWAP6 SWAP9 POP SWAP4 SWAP7 POP SWAP3 SWAP5 SWAP4 SWAP3 POP POP POP JUMP JUMPDEST PUSH1 0x0 DUP1 PUSH1 0x0 DUP1 PUSH1 0x60 DUP6 DUP8 SUB SLT ISZERO PUSH2 0x1E47 JUMPI PUSH1 0x0 DUP1 REVERT JUMPDEST PUSH2 0x1E50 DUP6 PUSH2 0x1A04 JUMP JUMPDEST SWAP4 POP PUSH1 0x20 DUP6 ADD CALLDATALOAD DUP1 ISZERO ISZERO DUP2 EQ PUSH2 0x1E65 JUMPI PUSH1 0x0 DUP1 REVERT JUMPDEST SWAP3 POP PUSH1 0x40 DUP6 ADD CALLDATALOAD PUSH1 0x1 PUSH1 0x1 PUSH1 0x40 SHL SUB DUP2 GT ISZERO PUSH2 0x1E80 JUMPI PUSH1 0x0 DUP1 REVERT JUMPDEST PUSH2 0x1E8C DUP8 DUP3 DUP9 ADD PUSH2 0x1A1B JUMP JUMPDEST SWAP6 SWAP9 SWAP5 SWAP8 POP SWAP6 POP POP POP POP JUMP JUMPDEST PUSH1 0x0 DUP1 PUSH1 0x0 PUSH1 0x60 DUP5 DUP7 SUB SLT ISZERO PUSH2 0x1EAD JUMPI PUSH1 0x0 DUP1 REVERT JUMPDEST PUSH2 0x1EB6 DUP5 PUSH2 0x1A04 JUMP JUMPDEST SWAP3 POP PUSH2 0x1EC4 PUSH1 0x20 DUP6 ADD PUSH2 0x1A04 JUMP JUMPDEST SWAP2 POP PUSH1 0x40 DUP5 ADD CALLDATALOAD SWAP1 POP SWAP3 POP SWAP3 POP SWAP3 JUMP JUMPDEST PUSH1 0x0 DUP1 PUSH1 0x0 DUP1 PUSH1 0x80 DUP6 DUP8 SUB SLT ISZERO PUSH2 0x1EEA JUMPI PUSH1 0x0 DUP1 REVERT JUMPDEST PUSH2 0x1EF3 DUP6 PUSH2 0x1A04 JUMP JUMPDEST SWAP4 POP PUSH2 0x1F01 PUSH1 0x20 DUP7 ADD PUSH2 0x1A04 JUMP JUMPDEST SWAP3 POP PUSH2 0x1F0F PUSH1 0x40 DUP7 ADD PUSH2 0x1B52 JUMP JUMPDEST SWAP4 SWAP7 SWAP3 SWAP6 POP SWAP3 SWAP4 PUSH1 0x60 ADD CALLDATALOAD SWAP3 POP POP JUMP JUMPDEST PUSH1 0x1 DUP2 DUP2 SHR SWAP1 DUP3 AND DUP1 PUSH2 0x1F33 JUMPI PUSH1 0x7F DUP3 AND SWAP2 POP JUMPDEST PUSH1 0x20 DUP3 LT DUP2 SUB PUSH2 0x1F53 JUMPI PUSH4 0x4E487B71 PUSH1 0xE0 SHL PUSH1 0x0 MSTORE PUSH1 0x22 PUSH1 0x4 MSTORE PUSH1 0x24 PUSH1 0x0 REVERT JUMPDEST POP SWAP2 SWAP1 POP JUMP JUMPDEST DUP2 DUP4 DUP3 CALLDATACOPY PUSH1 0x0 SWAP2 ADD SWAP1 DUP2 MSTORE SWAP2 SWAP1 POP JUMP JUMPDEST DUP2 DUP4 MSTORE DUP2 DUP2 PUSH1 0x20 DUP6 ADD CALLDATACOPY POP PUSH1 0x0 DUP3 DUP3 ADD PUSH1 0x20 SWAP1 DUP2 ADD SWAP2 SWAP1 SWAP2 MSTORE PUSH1 0x1F SWAP1 SWAP2 ADD PUSH1 0x1F NOT AND SWAP1 SWAP2 ADD ADD SWAP1 JUMP JUMPDEST PUSH2 0xFFFF DUP5 AND DUP2 MSTORE PUSH1 0x40 PUSH1 0x20 DUP3 ADD MSTORE PUSH1 0x0 PUSH2 0x142F PUSH1 0x40 DUP4 ADD DUP5 DUP7 PUSH2 0x1F69 JUMP JUMPDEST PUSH4 0x4E487B71 PUSH1 0xE0 SHL PUSH1 0x0 MSTORE PUSH1 0x11 PUSH1 0x4 MSTORE PUSH1 0x24 PUSH1 0x0 REVERT JUMPDEST DUP2 DUP2 SUB DUP2 DUP2 GT ISZERO PUSH2 0x1FD9 JUMPI PUSH2 0x1FD9 PUSH2 0x1FB0 JUMP JUMPDEST SWAP3 SWAP2 POP POP JUMP JUMPDEST DUP3 DUP5 DUP3 CALLDATACOPY PUSH1 0x60 SWAP2 SWAP1 SWAP2 SHL PUSH12 0xFFFFFFFFFFFFFFFFFFFFFFFF NOT AND SWAP2 ADD SWAP1 DUP2 MSTORE PUSH1 0x14 ADD SWAP2 SWAP1 POP JUMP JUMPDEST PUSH1 0x1F DUP3 GT ISZERO PUSH2 0x9A9 JUMPI PUSH1 0x0 DUP2 DUP2 MSTORE PUSH1 0x20 DUP2 KECCAK256 PUSH1 0x1F DUP6 ADD PUSH1 0x5 SHR DUP2 ADD PUSH1 0x20 DUP7 LT ISZERO PUSH2 0x202C JUMPI POP DUP1 JUMPDEST PUSH1 0x1F DUP6 ADD PUSH1 0x5 SHR DUP3 ADD SWAP2 POP JUMPDEST DUP2 DUP2 LT ISZERO PUSH2 0xBD4 JUMPI DUP3 DUP2 SSTORE PUSH1 0x1 ADD PUSH2 0x2038 JUMP JUMPDEST DUP2 MLOAD PUSH1 0x1 PUSH1 0x1 PUSH1 0x40 SHL SUB DUP2 GT ISZERO PUSH2 0x2064 JUMPI PUSH2 0x2064 PUSH2 0x1C0E JUMP JUMPDEST PUSH2 0x2078 DUP2 PUSH2 0x2072 DUP5 SLOAD PUSH2 0x1F1F JUMP JUMPDEST DUP5 PUSH2 0x2005 JUMP JUMPDEST PUSH1 0x20 DUP1 PUSH1 0x1F DUP4 GT PUSH1 0x1 DUP2 EQ PUSH2 0x20AD JUMPI PUSH1 0x0 DUP5 ISZERO PUSH2 0x2095 JUMPI POP DUP6 DUP4 ADD MLOAD JUMPDEST PUSH1 0x0 NOT PUSH1 0x3 DUP7 SWAP1 SHL SHR NOT AND PUSH1 0x1 DUP6 SWAP1 SHL OR DUP6 SSTORE PUSH2 0xBD4 JUMP JUMPDEST PUSH1 0x0 DUP6 DUP2 MSTORE PUSH1 0x20 DUP2 KECCAK256 PUSH1 0x1F NOT DUP7 AND SWAP2 JUMPDEST DUP3 DUP2 LT ISZERO PUSH2 0x20DC JUMPI DUP9 DUP7 ADD MLOAD DUP3 SSTORE SWAP5 DUP5 ADD SWAP5 PUSH1 0x1 SWAP1 SWAP2 ADD SWAP1 DUP5 ADD PUSH2 0x20BD JUMP JUMPDEST POP DUP6 DUP3 LT ISZERO PUSH2 0x20FA JUMPI DUP8 DUP6 ADD MLOAD PUSH1 0x0 NOT PUSH1 0x3 DUP9 SWAP1 SHL PUSH1 0xF8 AND SHR NOT AND DUP2 SSTORE JUMPDEST POP POP POP POP POP PUSH1 0x1 SWAP1 DUP2 SHL ADD SWAP1 SSTORE POP JUMP JUMPDEST PUSH1 0x0 PUSH2 0xFFFF DUP1 DUP9 AND DUP4 MSTORE DUP1 DUP8 AND PUSH1 0x20 DUP5 ADD MSTORE POP DUP5 PUSH1 0x40 DUP4 ADD MSTORE PUSH1 0x80 PUSH1 0x60 DUP4 ADD MSTORE PUSH2 0x2138 PUSH1 0x80 DUP4 ADD DUP5 DUP7 PUSH2 0x1F69 JUMP JUMPDEST SWAP8 SWAP7 POP POP POP POP POP POP POP JUMP JUMPDEST PUSH2 0xFFFF DUP7 AND DUP2 MSTORE PUSH1 0x80 PUSH1 0x20 DUP3 ADD MSTORE PUSH1 0x0 PUSH2 0x2161 PUSH1 0x80 DUP4 ADD DUP7 DUP9 PUSH2 0x1F69 JUMP JUMPDEST PUSH1 0x1 PUSH1 0x1 PUSH1 0x40 SHL SUB SWAP5 SWAP1 SWAP5 AND PUSH1 0x40 DUP4 ADD MSTORE POP PUSH1 0x60 ADD MSTORE SWAP4 SWAP3 POP POP POP JUMP JUMPDEST PUSH2 0xFFFF DUP8 AND DUP2 MSTORE PUSH1 0x1 PUSH1 0x1 PUSH1 0xA0 SHL SUB DUP7 AND PUSH1 0x20 DUP3 ADD MSTORE PUSH1 0xA0 PUSH1 0x40 DUP3 ADD DUP2 SWAP1 MSTORE PUSH1 0x0 SWAP1 PUSH2 0x21AC SWAP1 DUP4 ADD DUP8 PUSH2 0x1D36 JUMP JUMPDEST DUP6 ISZERO ISZERO PUSH1 0x60 DUP5 ADD MSTORE DUP3 DUP2 SUB PUSH1 0x80 DUP5 ADD MSTORE PUSH2 0x21C7 DUP2 DUP6 DUP8 PUSH2 0x1F69 JUMP JUMPDEST SWAP10 SWAP9 POP POP POP POP POP POP POP POP POP JUMP JUMPDEST PUSH1 0x0 DUP1 PUSH1 0x40 DUP4 DUP6 SUB SLT ISZERO PUSH2 0x21E7 JUMPI PUSH1 0x0 DUP1 REVERT JUMPDEST POP POP DUP1 MLOAD PUSH1 0x20 SWAP1 SWAP2 ADD MLOAD SWAP1 SWAP3 SWAP1 SWAP2 POP JUMP JUMPDEST PUSH1 0x1 PUSH1 0x1 PUSH1 0x40 SHL SUB DUP4 GT ISZERO PUSH2 0x220F JUMPI PUSH2 0x220F PUSH2 0x1C0E JUMP JUMPDEST PUSH2 0x2223 DUP4 PUSH2 0x221D DUP4 SLOAD PUSH2 0x1F1F JUMP JUMPDEST DUP4 PUSH2 0x2005 JUMP JUMPDEST PUSH1 0x0 PUSH1 0x1F DUP5 GT PUSH1 0x1 DUP2 EQ PUSH2 0x2257 JUMPI PUSH1 0x0 DUP6 ISZERO PUSH2 0x223F JUMPI POP DUP4 DUP3 ADD CALLDATALOAD JUMPDEST PUSH1 0x0 NOT PUSH1 0x3 DUP8 SWAP1 SHL SHR NOT AND PUSH1 0x1 DUP7 SWAP1 SHL OR DUP4 SSTORE PUSH2 0x8A7 JUMP JUMPDEST PUSH1 0x0 DUP4 DUP2 MSTORE PUSH1 0x20 SWAP1 KECCAK256 PUSH1 0x1F NOT DUP7 AND SWAP1 DUP4 JUMPDEST DUP3 DUP2 LT ISZERO PUSH2 0x2288 JUMPI DUP7 DUP6 ADD CALLDATALOAD DUP3 SSTORE PUSH1 0x20 SWAP5 DUP6 ADD SWAP5 PUSH1 0x1 SWAP1 SWAP3 ADD SWAP2 ADD PUSH2 0x2268 JUMP JUMPDEST POP DUP7 DUP3 LT ISZERO PUSH2 0x22A5 JUMPI PUSH1 0x0 NOT PUSH1 0xF8 DUP9 PUSH1 0x3 SHL AND SHR NOT DUP5 DUP8 ADD CALLDATALOAD AND DUP2 SSTORE JUMPDEST POP POP PUSH1 0x1 DUP6 PUSH1 0x1 SHL ADD DUP4 SSTORE POP POP POP POP POP JUMP JUMPDEST PUSH1 0x0 PUSH1 0x20 DUP3 DUP5 SUB SLT ISZERO PUSH2 0x22C9 JUMPI PUSH1 0x0 DUP1 REVERT JUMPDEST DUP2 MLOAD PUSH1 0x1 PUSH1 0x1 PUSH1 0x40 SHL SUB DUP2 GT ISZERO PUSH2 0x22DF JUMPI PUSH1 0x0 DUP1 REVERT JUMPDEST DUP3 ADD PUSH1 0x1F DUP2 ADD DUP5 SGT PUSH2 0x22F0 JUMPI PUSH1 0x0 DUP1 REVERT JUMPDEST DUP1 MLOAD PUSH2 0x22FE PUSH2 0x1CD3 DUP3 PUSH2 0x1C54 JUMP JUMPDEST DUP2 DUP2 MSTORE DUP6 PUSH1 0x20 DUP4 DUP6 ADD ADD GT ISZERO PUSH2 0x2313 JUMPI PUSH1 0x0 DUP1 REVERT JUMPDEST PUSH2 0x142F DUP3 PUSH1 0x20 DUP4 ADD PUSH1 0x20 DUP7 ADD PUSH2 0x1D12 JUMP JUMPDEST PUSH2 0xFFFF DUP6 AND DUP2 MSTORE PUSH1 0x80 PUSH1 0x20 DUP3 ADD MSTORE PUSH1 0x0 PUSH2 0x2341 PUSH1 0x80 DUP4 ADD DUP7 PUSH2 0x1D36 JUMP JUMPDEST PUSH1 0x1 PUSH1 0x1 PUSH1 0x40 SHL SUB DUP6 AND PUSH1 0x40 DUP5 ADD MSTORE DUP3 DUP2 SUB PUSH1 0x60 DUP5 ADD MSTORE PUSH2 0x2138 DUP2 DUP6 PUSH2 0x1D36 JUMP JUMPDEST PUSH2 0xFFFF DUP8 AND DUP2 MSTORE PUSH1 0xC0 PUSH1 0x20 DUP3 ADD MSTORE PUSH1 0x0 PUSH2 0x237F PUSH1 0xC0 DUP4 ADD DUP9 PUSH2 0x1D36 JUMP JUMPDEST DUP3 DUP2 SUB PUSH1 0x40 DUP5 ADD MSTORE PUSH2 0x2391 DUP2 DUP9 PUSH2 0x1D36 JUMP JUMPDEST PUSH1 0x1 PUSH1 0x1 PUSH1 0xA0 SHL SUB DUP8 DUP2 AND PUSH1 0x60 DUP7 ADD MSTORE DUP7 AND PUSH1 0x80 DUP6 ADD MSTORE DUP4 DUP2 SUB PUSH1 0xA0 DUP6 ADD MSTORE SWAP1 POP PUSH2 0x21C7 DUP2 DUP6 PUSH2 0x1D36 JUMP JUMPDEST DUP1 DUP3 ADD DUP1 DUP3 GT ISZERO PUSH2 0x1FD9 JUMPI PUSH2 0x1FD9 PUSH2 0x1FB0 JUMP JUMPDEST PUSH1 0x0 DUP3 MLOAD PUSH2 0x23E1 DUP2 DUP5 PUSH1 0x20 DUP8 ADD PUSH2 0x1D12 JUMP JUMPDEST SWAP2 SWAP1 SWAP2 ADD SWAP3 SWAP2 POP POP JUMP JUMPDEST PUSH2 0xFFFF DUP7 AND DUP2 MSTORE PUSH1 0xA0 PUSH1 0x20 DUP3 ADD MSTORE PUSH1 0x0 PUSH2 0x2408 PUSH1 0xA0 DUP4 ADD DUP8 PUSH2 0x1D36 JUMP JUMPDEST PUSH1 0x1 PUSH1 0x1 PUSH1 0x40 SHL SUB DUP7 AND PUSH1 0x40 DUP5 ADD MSTORE DUP3 DUP2 SUB PUSH1 0x60 DUP5 ADD MSTORE PUSH2 0x2429 DUP2 DUP7 PUSH2 0x1D36 JUMP JUMPDEST SWAP1 POP DUP3 DUP2 SUB PUSH1 0x80 DUP5 ADD MSTORE PUSH2 0x243D DUP2 DUP6 PUSH2 0x1D36 JUMP JUMPDEST SWAP9 SWAP8 POP POP POP POP POP POP POP POP JUMP INVALID LOG2 PUSH5 0x6970667358 0x22 SLT KECCAK256 PUSH2 0x4A0F 0xD9 0xAB 0xD4 0xB0 PUSH11 0xDF9C788A4AAE8BDDDA67BC PUSH4 0xA8698423 DUP1 0x5D 0xE5 RETURN COINBASE 0xAF EXTCODEHASH 0xBF PUSH5 0x736F6C6343 STOP ADDMOD GT STOP CALLER LOG2 PUSH5 0x6970667358 0x22 SLT KECCAK256 PUSH1 0xFF PUSH15 0xAE26D7A62FED0C9CF5A4C9B888A791 LOG2 0xB6 0xD1 DUP15 0x5D 0xBC MSTORE8 0xF6 RETURNDATASIZE 0xCE SHR EXP GT 0xE3 PUSH5 0x736F6C6343 STOP ADDMOD GT STOP CALLER "},"methodIdentifiers":{"DEFAULT_ADMIN_ROLE()":"a217fddf","DEPOSIT_ROLE()":"353efdcf","createLZsenderContractBySeller(address,address,uint16)":"54b317d1","depositTokenByClient((uint256,uint256,address,uint16,bool,uint256),bytes,uint256)":"4d748d92","getRoleAdmin(bytes32)":"248a9ca3","grantRole(bytes32,address)":"2f2ff15d","hasRole(bytes32,address)":"91d14854","lzSenderContracts(address,uint16)":"a94d13f7","pause()":"8456cb59","paused()":"5c975abb","platformFee()":"26232a2e","renounceRole(bytes32,address)":"36568abe","revokeRole(bytes32,address)":"d547741f","setAdminWallet(address)":"35082933","setPlatformFee(uint96)":"f99e5dbb","setupDepositRole(address)":"eea16b84","supportsInterface(bytes4)":"01ffc9a7","unpause()":"3f4ba83a"}},"storageLayout":{"storage":[{"astId":1434,"contract":"contracts/parents/DepositFactoryContract.sol:DepositFactoryContract","label":"_roles","offset":0,"slot":"0","type":"t_mapping(t_bytes32,t_struct(RoleData)1429_storage)"},{"astId":2030,"contract":"contracts/parents/DepositFactoryContract.sol:DepositFactoryContract","label":"_status","offset":0,"slot":"1","type":"t_uint256"},{"astId":1929,"contract":"contracts/parents/DepositFactoryContract.sol:DepositFactoryContract","label":"_paused","offset":0,"slot":"2","type":"t_bool"},{"astId":4667,"contract":"contracts/parents/DepositFactoryContract.sol:DepositFactoryContract","label":"platformFee","offset":1,"slot":"2","type":"t_uint96"},{"astId":4669,"contract":"contracts/parents/DepositFactoryContract.sol:DepositFactoryContract","label":"_adminWallet","offset":0,"slot":"3","type":"t_address"},{"astId":4675,"contract":"contracts/parents/DepositFactoryContract.sol:DepositFactoryContract","label":"_accountNonces","offset":0,"slot":"4","type":"t_mapping(t_address,t_uint256)"},{"astId":4681,"contract":"contracts/parents/DepositFactoryContract.sol:DepositFactoryContract","label":"lzSenderContracts","offset":0,"slot":"5","type":"t_mapping(t_address,t_mapping(t_uint16,t_address))"}],"types":{"t_address":{"encoding":"inplace","label":"address","numberOfBytes":"20"},"t_bool":{"encoding":"inplace","label":"bool","numberOfBytes":"1"},"t_bytes32":{"encoding":"inplace","label":"bytes32","numberOfBytes":"32"},"t_mapping(t_address,t_bool)":{"encoding":"mapping","key":"t_address","label":"mapping(address => bool)","numberOfBytes":"32","value":"t_bool"},"t_mapping(t_address,t_mapping(t_uint16,t_address))":{"encoding":"mapping","key":"t_address","label":"mapping(address => mapping(uint16 => address))","numberOfBytes":"32","value":"t_mapping(t_uint16,t_address)"},"t_mapping(t_address,t_uint256)":{"encoding":"mapping","key":"t_address","label":"mapping(address => uint256)","numberOfBytes":"32","value":"t_uint256"},"t_mapping(t_bytes32,t_struct(RoleData)1429_storage)":{"encoding":"mapping","key":"t_bytes32","label":"mapping(bytes32 => struct AccessControl.RoleData)","numberOfBytes":"32","value":"t_struct(RoleData)1429_storage"},"t_mapping(t_uint16,t_address)":{"encoding":"mapping","key":"t_uint16","label":"mapping(uint16 => address)","numberOfBytes":"32","value":"t_address"},"t_struct(RoleData)1429_storage":{"encoding":"inplace","label":"struct AccessControl.RoleData","members":[{"astId":1426,"contract":"contracts/parents/DepositFactoryContract.sol:DepositFactoryContract","label":"members","offset":0,"slot":"0","type":"t_mapping(t_address,t_bool)"},{"astId":1428,"contract":"contracts/parents/DepositFactoryContract.sol:DepositFactoryContract","label":"adminRole","offset":0,"slot":"1","type":"t_bytes32"}],"numberOfBytes":"64"},"t_uint16":{"encoding":"inplace","label":"uint16","numberOfBytes":"2"},"t_uint256":{"encoding":"inplace","label":"uint256","numberOfBytes":"32"},"t_uint96":{"encoding":"inplace","label":"uint96","numberOfBytes":"12"}}}}}}