{"contracts/library/Domain.sol":{"Domain":{"abi":[{"inputs":[],"name":"DEPOSIT_ITEM_TYPEHASH","outputs":[{"internalType":"bytes32","name":"","type":"bytes32"}],"stateMutability":"view","type":"function"}],"evm":{"bytecode":{"linkReferences":{},"object":"60a6610038600b82828239805160001a607314602b57634e487b7160e01b600052600060045260246000fd5b30600052607381538281f3fe730000000000000000000000000000000000000000301460806040526004361060335760003560e01c8063539ae16d146038575b600080fd5b605e7f67c02de736e9c6dc641c0bcee496661b6fc4f976c46fab69b489896b51083b8c81565b60405190815260200160405180910390f3fea2646970667358221220b176ffef7eb47b08e157d888fab9ab672690ff252f3b495aa0f2d60cc98ad89e64736f6c63430008110033","opcodes":"PUSH1 0xA6 PUSH2 0x38 PUSH1 0xB DUP3 DUP3 DUP3 CODECOPY DUP1 MLOAD PUSH1 0x0 BYTE PUSH1 0x73 EQ PUSH1 0x2B JUMPI PUSH4 0x4E487B71 PUSH1 0xE0 SHL PUSH1 0x0 MSTORE PUSH1 0x0 PUSH1 0x4 MSTORE PUSH1 0x24 PUSH1 0x0 REVERT JUMPDEST ADDRESS PUSH1 0x0 MSTORE PUSH1 0x73 DUP2 MSTORE8 DUP3 DUP2 RETURN INVALID PUSH20 0x0 ADDRESS EQ PUSH1 0x80 PUSH1 0x40 MSTORE PUSH1 0x4 CALLDATASIZE LT PUSH1 0x33 JUMPI PUSH1 0x0 CALLDATALOAD PUSH1 0xE0 SHR DUP1 PUSH4 0x539AE16D EQ PUSH1 0x38 JUMPI JUMPDEST PUSH1 0x0 DUP1 REVERT JUMPDEST PUSH1 0x5E PUSH32 0x67C02DE736E9C6DC641C0BCEE496661B6FC4F976C46FAB69B489896B51083B8C DUP2 JUMP JUMPDEST PUSH1 0x40 MLOAD SWAP1 DUP2 MSTORE PUSH1 0x20 ADD PUSH1 0x40 MLOAD DUP1 SWAP2 SUB SWAP1 RETURN INVALID LOG2 PUSH5 0x6970667358 0x22 SLT KECCAK256 0xB1 PUSH23 0xFFEF7EB47B08E157D888FAB9AB672690FF252F3B495AA0 CALLCODE 0xD6 0xC 0xC9 DUP11 0xD8 SWAP15 PUSH5 0x736F6C6343 STOP ADDMOD GT STOP CALLER "},"methodIdentifiers":{"DEPOSIT_ITEM_TYPEHASH()":"539ae16d"}},"storageLayout":{"storage":[],"types":null}}}}