{
  "_format": "hh-sol-artifact-1",
  "contractName": "Domain",
  "sourceName": "contracts/library/Domain.sol",
  "abi": [
    {
      "inputs": [],
      "name": "DEPOSIT_ITEM_TYPEHASH",
      "outputs": [
        {
          "internalType": "bytes32",
          "name": "",
          "type": "bytes32"
        }
      ],
      "stateMutability": "view",
      "type": "function"
    }
  ],
  "bytecode": "0x60a6610038600b82828239805160001a607314602b57634e487b7160e01b600052600060045260246000fd5b30600052607381538281f3fe730000000000000000000000000000000000000000301460806040526004361060335760003560e01c8063539ae16d146038575b600080fd5b605e7f67c02de736e9c6dc641c0bcee496661b6fc4f976c46fab69b489896b51083b8c81565b60405190815260200160405180910390f3fea2646970667358221220b176ffef7eb47b08e157d888fab9ab672690ff252f3b495aa0f2d60cc98ad89e64736f6c63430008110033",
  "linkReferences": {},
  "deployedLinkReferences": {}
}