{
  "_format": "hh-sol-artifact-1",
  "contractName": "ReceiveFactoryContract",
  "sourceName": "contracts/parents/ReceiveFactoryContract.sol",
  "abi": [
    {
      "inputs": [
        {
          "internalType": "address",
          "name": "_layerZeroEndpoint",
          "type": "address"
        }
      ],
      "stateMutability": "nonpayable",
      "type": "constructor"
    },
    {
      "anonymous": false,
      "inputs": [
        {
          "indexed": false,
          "internalType": "string",
          "name": "name",
          "type": "string"
        },
        {
          "indexed": false,
          "internalType": "string",
          "name": "symbol",
          "type": "string"
        },
        {
          "indexed": false,
          "internalType": "string",
          "name": "tokenUri",
          "type": "string"
        },
        {
          "indexed": false,
          "internalType": "uint256",
          "name": "totalSupply",
          "type": "uint256"
        },
        {
          "indexed": false,
          "internalType": "address",
          "name": "seller",
          "type": "address"
        },
        {
          "indexed": false,
          "internalType": "address",
          "name": "nftContractAddress",
          "type": "address"
        }
      ],
      "name": "CreatedNftContract",
      "type": "event"
    },
    {
      "anonymous": false,
      "inputs": [
        {
          "indexed": false,
          "internalType": "uint16",
          "name": "_srcChainId",
          "type": "uint16"
        },
        {
          "indexed": false,
          "internalType": "bytes",
          "name": "_srcAddress",
          "type": "bytes"
        },
        {
          "indexed": false,
          "internalType": "uint64",
          "name": "_nonce",
          "type": "uint64"
        },
        {
          "indexed": false,
          "internalType": "bytes",
          "name": "_payload",
          "type": "bytes"
        },
        {
          "indexed": false,
          "internalType": "bytes",
          "name": "_reason",
          "type": "bytes"
        }
      ],
      "name": "MessageFailed",
      "type": "event"
    },
    {
      "anonymous": false,
      "inputs": [
        {
          "indexed": false,
          "internalType": "address",
          "name": "nftContractAddress",
          "type": "address"
        },
        {
          "indexed": false,
          "internalType": "address",
          "name": "clientAddress",
          "type": "address"
        },
        {
          "indexed": false,
          "internalType": "address",
          "name": "sellerAddress",
          "type": "address"
        },
        {
          "indexed": false,
          "internalType": "uint256",
          "name": "mintQuantity",
          "type": "uint256"
        }
      ],
      "name": "MintedNfts",
      "type": "event"
    },
    {
      "anonymous": false,
      "inputs": [
        {
          "indexed": true,
          "internalType": "address",
          "name": "previousOwner",
          "type": "address"
        },
        {
          "indexed": true,
          "internalType": "address",
          "name": "newOwner",
          "type": "address"
        }
      ],
      "name": "OwnershipTransferred",
      "type": "event"
    },
    {
      "anonymous": false,
      "inputs": [
        {
          "indexed": false,
          "internalType": "uint16",
          "name": "_srcChainId",
          "type": "uint16"
        },
        {
          "indexed": false,
          "internalType": "bytes",
          "name": "_srcAddress",
          "type": "bytes"
        },
        {
          "indexed": false,
          "internalType": "uint64",
          "name": "_nonce",
          "type": "uint64"
        },
        {
          "indexed": false,
          "internalType": "bytes32",
          "name": "_payloadHash",
          "type": "bytes32"
        }
      ],
      "name": "RetryMessageSuccess",
      "type": "event"
    },
    {
      "anonymous": false,
      "inputs": [
        {
          "indexed": false,
          "internalType": "uint16",
          "name": "_dstChainId",
          "type": "uint16"
        },
        {
          "indexed": false,
          "internalType": "uint16",
          "name": "_type",
          "type": "uint16"
        },
        {
          "indexed": false,
          "internalType": "uint256",
          "name": "_minDstGas",
          "type": "uint256"
        }
      ],
      "name": "SetMinDstGas",
      "type": "event"
    },
    {
      "anonymous": false,
      "inputs": [
        {
          "indexed": false,
          "internalType": "address",
          "name": "precrime",
          "type": "address"
        }
      ],
      "name": "SetPrecrime",
      "type": "event"
    },
    {
      "anonymous": false,
      "inputs": [
        {
          "indexed": false,
          "internalType": "uint16",
          "name": "_remoteChainId",
          "type": "uint16"
        },
        {
          "indexed": false,
          "internalType": "bytes",
          "name": "_path",
          "type": "bytes"
        }
      ],
      "name": "SetTrustedRemote",
      "type": "event"
    },
    {
      "anonymous": false,
      "inputs": [
        {
          "indexed": false,
          "internalType": "uint16",
          "name": "_remoteChainId",
          "type": "uint16"
        },
        {
          "indexed": false,
          "internalType": "bytes",
          "name": "_remoteAddress",
          "type": "bytes"
        }
      ],
      "name": "SetTrustedRemoteAddress",
      "type": "event"
    },
    {
      "inputs": [],
      "name": "DEFAULT_PAYLOAD_SIZE_LIMIT",
      "outputs": [
        {
          "internalType": "uint256",
          "name": "",
          "type": "uint256"
        }
      ],
      "stateMutability": "view",
      "type": "function"
    },
    {
      "inputs": [
        {
          "internalType": "string",
          "name": "name",
          "type": "string"
        },
        {
          "internalType": "string",
          "name": "symbol",
          "type": "string"
        },
        {
          "internalType": "string",
          "name": "tokenUri",
          "type": "string"
        },
        {
          "internalType": "uint256",
          "name": "totalSupply",
          "type": "uint256"
        }
      ],
      "name": "createNftContractBySeller",
      "outputs": [],
      "stateMutability": "nonpayable",
      "type": "function"
    },
    {
      "inputs": [
        {
          "internalType": "uint16",
          "name": "",
          "type": "uint16"
        },
        {
          "internalType": "bytes",
          "name": "",
          "type": "bytes"
        },
        {
          "internalType": "uint64",
          "name": "",
          "type": "uint64"
        }
      ],
      "name": "failedMessages",
      "outputs": [
        {
          "internalType": "bytes32",
          "name": "",
          "type": "bytes32"
        }
      ],
      "stateMutability": "view",
      "type": "function"
    },
    {
      "inputs": [
        {
          "internalType": "uint16",
          "name": "_srcChainId",
          "type": "uint16"
        },
        {
          "internalType": "bytes",
          "name": "_srcAddress",
          "type": "bytes"
        }
      ],
      "name": "forceResumeReceive",
      "outputs": [],
      "stateMutability": "nonpayable",
      "type": "function"
    },
    {
      "inputs": [
        {
          "internalType": "uint16",
          "name": "_version",
          "type": "uint16"
        },
        {
          "internalType": "uint16",
          "name": "_chainId",
          "type": "uint16"
        },
        {
          "internalType": "address",
          "name": "",
          "type": "address"
        },
        {
          "internalType": "uint256",
          "name": "_configType",
          "type": "uint256"
        }
      ],
      "name": "getConfig",
      "outputs": [
        {
          "internalType": "bytes",
          "name": "",
          "type": "bytes"
        }
      ],
      "stateMutability": "view",
      "type": "function"
    },
    {
      "inputs": [
        {
          "internalType": "uint16",
          "name": "_remoteChainId",
          "type": "uint16"
        }
      ],
      "name": "getTrustedRemoteAddress",
      "outputs": [
        {
          "internalType": "bytes",
          "name": "",
          "type": "bytes"
        }
      ],
      "stateMutability": "view",
      "type": "function"
    },
    {
      "inputs": [
        {
          "internalType": "uint16",
          "name": "_srcChainId",
          "type": "uint16"
        },
        {
          "internalType": "bytes",
          "name": "_srcAddress",
          "type": "bytes"
        }
      ],
      "name": "isTrustedRemote",
      "outputs": [
        {
          "internalType": "bool",
          "name": "",
          "type": "bool"
        }
      ],
      "stateMutability": "view",
      "type": "function"
    },
    {
      "inputs": [],
      "name": "lzEndpoint",
      "outputs": [
        {
          "internalType": "contract ILayerZeroEndpoint",
          "name": "",
          "type": "address"
        }
      ],
      "stateMutability": "view",
      "type": "function"
    },
    {
      "inputs": [
        {
          "internalType": "uint16",
          "name": "_srcChainId",
          "type": "uint16"
        },
        {
          "internalType": "bytes",
          "name": "_srcAddress",
          "type": "bytes"
        },
        {
          "internalType": "uint64",
          "name": "_nonce",
          "type": "uint64"
        },
        {
          "internalType": "bytes",
          "name": "_payload",
          "type": "bytes"
        }
      ],
      "name": "lzReceive",
      "outputs": [],
      "stateMutability": "nonpayable",
      "type": "function"
    },
    {
      "inputs": [
        {
          "internalType": "uint16",
          "name": "",
          "type": "uint16"
        },
        {
          "internalType": "uint16",
          "name": "",
          "type": "uint16"
        }
      ],
      "name": "minDstGasLookup",
      "outputs": [
        {
          "internalType": "uint256",
          "name": "",
          "type": "uint256"
        }
      ],
      "stateMutability": "view",
      "type": "function"
    },
    {
      "inputs": [
        {
          "internalType": "address",
          "name": "",
          "type": "address"
        }
      ],
      "name": "nftContracts",
      "outputs": [
        {
          "internalType": "address",
          "name": "",
          "type": "address"
        }
      ],
      "stateMutability": "view",
      "type": "function"
    },
    {
      "inputs": [
        {
          "internalType": "uint16",
          "name": "_srcChainId",
          "type": "uint16"
        },
        {
          "internalType": "bytes",
          "name": "_srcAddress",
          "type": "bytes"
        },
        {
          "internalType": "uint64",
          "name": "_nonce",
          "type": "uint64"
        },
        {
          "internalType": "bytes",
          "name": "_payload",
          "type": "bytes"
        }
      ],
      "name": "nonblockingLzReceive",
      "outputs": [],
      "stateMutability": "nonpayable",
      "type": "function"
    },
    {
      "inputs": [],
      "name": "owner",
      "outputs": [
        {
          "internalType": "address",
          "name": "",
          "type": "address"
        }
      ],
      "stateMutability": "view",
      "type": "function"
    },
    {
      "inputs": [
        {
          "internalType": "uint16",
          "name": "",
          "type": "uint16"
        }
      ],
      "name": "payloadSizeLimitLookup",
      "outputs": [
        {
          "internalType": "uint256",
          "name": "",
          "type": "uint256"
        }
      ],
      "stateMutability": "view",
      "type": "function"
    },
    {
      "inputs": [],
      "name": "precrime",
      "outputs": [
        {
          "internalType": "address",
          "name": "",
          "type": "address"
        }
      ],
      "stateMutability": "view",
      "type": "function"
    },
    {
      "inputs": [],
      "name": "renounceOwnership",
      "outputs": [],
      "stateMutability": "nonpayable",
      "type": "function"
    },
    {
      "inputs": [
        {
          "internalType": "uint16",
          "name": "_srcChainId",
          "type": "uint16"
        },
        {
          "internalType": "bytes",
          "name": "_srcAddress",
          "type": "bytes"
        },
        {
          "internalType": "uint64",
          "name": "_nonce",
          "type": "uint64"
        },
        {
          "internalType": "bytes",
          "name": "_payload",
          "type": "bytes"
        }
      ],
      "name": "retryMessage",
      "outputs": [],
      "stateMutability": "payable",
      "type": "function"
    },
    {
      "inputs": [
        {
          "internalType": "uint16",
          "name": "_version",
          "type": "uint16"
        },
        {
          "internalType": "uint16",
          "name": "_chainId",
          "type": "uint16"
        },
        {
          "internalType": "uint256",
          "name": "_configType",
          "type": "uint256"
        },
        {
          "internalType": "bytes",
          "name": "_config",
          "type": "bytes"
        }
      ],
      "name": "setConfig",
      "outputs": [],
      "stateMutability": "nonpayable",
      "type": "function"
    },
    {
      "inputs": [
        {
          "internalType": "uint16",
          "name": "_dstChainId",
          "type": "uint16"
        },
        {
          "internalType": "uint16",
          "name": "_packetType",
          "type": "uint16"
        },
        {
          "internalType": "uint256",
          "name": "_minGas",
          "type": "uint256"
        }
      ],
      "name": "setMinDstGas",
      "outputs": [],
      "stateMutability": "nonpayable",
      "type": "function"
    },
    {
      "inputs": [
        {
          "internalType": "uint16",
          "name": "_dstChainId",
          "type": "uint16"
        },
        {
          "internalType": "uint256",
          "name": "_size",
          "type": "uint256"
        }
      ],
      "name": "setPayloadSizeLimit",
      "outputs": [],
      "stateMutability": "nonpayable",
      "type": "function"
    },
    {
      "inputs": [
        {
          "internalType": "address",
          "name": "_precrime",
          "type": "address"
        }
      ],
      "name": "setPrecrime",
      "outputs": [],
      "stateMutability": "nonpayable",
      "type": "function"
    },
    {
      "inputs": [
        {
          "internalType": "uint16",
          "name": "_version",
          "type": "uint16"
        }
      ],
      "name": "setReceiveVersion",
      "outputs": [],
      "stateMutability": "nonpayable",
      "type": "function"
    },
    {
      "inputs": [
        {
          "internalType": "uint16",
          "name": "_version",
          "type": "uint16"
        }
      ],
      "name": "setSendVersion",
      "outputs": [],
      "stateMutability": "nonpayable",
      "type": "function"
    },
    {
      "inputs": [
        {
          "internalType": "uint16",
          "name": "_srcChainId",
          "type": "uint16"
        },
        {
          "internalType": "bytes",
          "name": "_path",
          "type": "bytes"
        }
      ],
      "name": "setTrustedRemote",
      "outputs": [],
      "stateMutability": "nonpayable",
      "type": "function"
    },
    {
      "inputs": [
        {
          "internalType": "uint16",
          "name": "_remoteChainId",
          "type": "uint16"
        },
        {
          "internalType": "bytes",
          "name": "_remoteAddress",
          "type": "bytes"
        }
      ],
      "name": "setTrustedRemoteAddress",
      "outputs": [],
      "stateMutability": "nonpayable",
      "type": "function"
    },
    {
      "inputs": [
        {
          "internalType": "address",
          "name": "newOwner",
          "type": "address"
        }
      ],
      "name": "transferOwnership",
      "outputs": [],
      "stateMutability": "nonpayable",
      "type": "function"
    },
    {
      "inputs": [
        {
          "internalType": "uint16",
          "name": "",
          "type": "uint16"
        }
      ],
      "name": "trustedRemoteLookup",
      "outputs": [
        {
          "internalType": "bytes",
          "name": "",
          "type": "bytes"
        }
      ],
      "stateMutability": "view",
      "type": "function"
    }
  ],
  "bytecode": "0x60a06040523480156200001157600080fd5b5060405162004369380380620043698339810160408190526200003491620000a6565b8080620000413362000056565b6001600160a01b031660805250620000d89050565b600080546001600160a01b038381166001600160a01b0319831681178455604051919092169283917f8be0079c531659141344cd1fd0a4f28419497f9722a3daafe3b4186f6b6457e09190a35050565b600060208284031215620000b957600080fd5b81516001600160a01b0381168114620000d157600080fd5b9392505050565b60805161424b6200011e600039600081816104e50152818161063c0152818161089e0152818161094c01528181610a7b0152818161103e01526114a3015261424b6000f3fe608060405260043610620001bd5760003560e01c8063950c8a7411620000ff578063c44618341162000095578063df2a5b3b116200006c578063df2a5b3b14620005a5578063eb8d72b714620005ca578063f2fde38b14620005ef578063f5ecbdbc146200061457600080fd5b8063c44618341462000551578063cbed8b9c1462000569578063d1deba1f146200058e57600080fd5b8063ada0f98f11620000d6578063ada0f98f1462000497578063b353aaa714620004d1578063b70c09b01462000507578063baf3292d146200052c57600080fd5b8063950c8a74146200042b5780639f38369a146200044d578063a6c3d165146200047257600080fd5b806342d65a8d1162000175578063715018a6116200014c578063715018a6146200036f5780637533d78814620003875780638cfd8f5c14620003bb5780638da5cb5b14620003f757600080fd5b806342d65a8d14620002d25780635b8c41e614620002f757806366ad5c8a146200034a57600080fd5b80621d356714620001c257806307e0db1714620001e95780630df37483146200020e57806310ddb13714620002335780633d8b38f614620002585780633f1f4fa41462000292575b600080fd5b348015620001cf57600080fd5b50620001e7620001e136600462001a72565b62000639565b005b348015620001f657600080fd5b50620001e76200020836600462001b10565b6200087b565b3480156200021b57600080fd5b50620001e76200022d36600462001b2e565b62000908565b3480156200024057600080fd5b50620001e76200025236600462001b10565b62000929565b3480156200026557600080fd5b506200027d6200027736600462001b5b565b62000984565b60405190151581526020015b60405180910390f35b3480156200029f57600080fd5b50620002c3620002b136600462001b10565b60036020526000908152604090205481565b60405190815260200162000289565b348015620002df57600080fd5b50620001e7620002f136600462001b5b565b62000a5a565b3480156200030457600080fd5b50620002c36200031636600462001c26565b6005602090815260009384526040808520845180860184018051928152908401958401959095209452929052825290205481565b3480156200035757600080fd5b50620001e76200036936600462001a72565b62000ae6565b3480156200037c57600080fd5b50620001e762000bc6565b3480156200039457600080fd5b50620003ac620003a636600462001b10565b62000bde565b60405162000289919062001d26565b348015620003c857600080fd5b50620002c3620003da36600462001d3b565b600260209081526000928352604080842090915290825290205481565b3480156200040457600080fd5b506000546001600160a01b03165b6040516001600160a01b03909116815260200162000289565b3480156200043857600080fd5b5060045462000412906001600160a01b031681565b3480156200045a57600080fd5b50620003ac6200046c36600462001b10565b62000c80565b3480156200047f57600080fd5b50620001e76200049136600462001b5b565b62000da4565b348015620004a457600080fd5b5062000412620004b636600462001d89565b6006602052600090815260409020546001600160a01b031681565b348015620004de57600080fd5b50620004127f000000000000000000000000000000000000000000000000000000000000000081565b3480156200051457600080fd5b50620001e76200052636600462001da9565b62000e35565b3480156200053957600080fd5b50620001e76200054b36600462001d89565b62000fbf565b3480156200055e57600080fd5b50620002c361271081565b3480156200057657600080fd5b50620001e76200058836600462001e55565b6200101d565b620001e76200059f36600462001a72565b620010b8565b348015620005b257600080fd5b50620001e7620005c436600462001ecb565b620012dc565b348015620005d757600080fd5b50620001e7620005e936600462001b5b565b62001393565b348015620005fc57600080fd5b50620001e76200060e36600462001d89565b620013f3565b3480156200062157600080fd5b50620003ac6200063336600462001f0c565b62001472565b337f00000000000000000000000000000000000000000000000000000000000000006001600160a01b031614620006b75760405162461bcd60e51b815260206004820152601e60248201527f4c7a4170703a20696e76616c696420656e64706f696e742063616c6c6572000060448201526064015b60405180910390fd5b61ffff861660009081526001602052604081208054620006d79062001f60565b80601f0160208091040260200160405190810160405280929190818152602001828054620007059062001f60565b8015620007565780601f106200072a5761010080835404028352916020019162000756565b820191906000526020600020905b8154815290600101906020018083116200073857829003601f168201915b5050505050905080518686905014801562000772575060008151115b80156200079d57508051602082012060405162000793908890889062001f9c565b6040518091039020145b620007fa5760405162461bcd60e51b815260206004820152602660248201527f4c7a4170703a20696e76616c696420736f757263652073656e64696e6720636f6044820152651b9d1c9858dd60d21b6064820152608401620006ae565b620008728787878080601f01602080910402602001604051908101604052809392919081815260200183838082843760009201919091525050604080516020601f8a018190048102820181019092528881528a9350915088908890819084018382808284376000920191909152506200152692505050565b50505050505050565b62000885620015a6565b6040516307e0db1760e01b815261ffff821660048201527f00000000000000000000000000000000000000000000000000000000000000006001600160a01b0316906307e0db17906024015b600060405180830381600087803b158015620008ec57600080fd5b505af115801562000901573d6000803e3d6000fd5b5050505050565b62000912620015a6565b61ffff909116600090815260036020526040902055565b62000933620015a6565b6040516310ddb13760e01b815261ffff821660048201527f00000000000000000000000000000000000000000000000000000000000000006001600160a01b0316906310ddb13790602401620008d1565b61ffff831660009081526001602052604081208054829190620009a79062001f60565b80601f0160208091040260200160405190810160405280929190818152602001828054620009d59062001f60565b801562000a265780601f10620009fa5761010080835404028352916020019162000a26565b820191906000526020600020905b81548152906001019060200180831162000a0857829003601f168201915b50505050509050838360405162000a3f92919062001f9c565b60405180910390208180519060200120149150509392505050565b62000a64620015a6565b6040516342d65a8d60e01b81526001600160a01b037f000000000000000000000000000000000000000000000000000000000000000016906342d65a8d9062000ab69086908690869060040162001fd5565b600060405180830381600087803b15801562000ad157600080fd5b505af115801562000872573d6000803e3d6000fd5b33301462000b465760405162461bcd60e51b815260206004820152602660248201527f4e6f6e626c6f636b696e674c7a4170703a2063616c6c6572206d7573742062656044820152650204c7a4170760d41b6064820152608401620006ae565b62000bbe8686868080601f01602080910402602001604051908101604052809392919081815260200183838082843760009201919091525050604080516020601f8901819004810282018101909252878152899350915087908790819084018382808284376000920191909152506200160292505050565b505050505050565b62000bd0620015a6565b62000bdc600062001750565b565b6001602052600090815260409020805462000bf99062001f60565b80601f016020809104026020016040519081016040528092919081815260200182805462000c279062001f60565b801562000c785780601f1062000c4c5761010080835404028352916020019162000c78565b820191906000526020600020905b81548152906001019060200180831162000c5a57829003601f168201915b505050505081565b61ffff811660009081526001602052604081208054606092919062000ca59062001f60565b80601f016020809104026020016040519081016040528092919081815260200182805462000cd39062001f60565b801562000d245780601f1062000cf85761010080835404028352916020019162000d24565b820191906000526020600020905b81548152906001019060200180831162000d0657829003601f168201915b50505050509050805160000362000d7e5760405162461bcd60e51b815260206004820152601d60248201527f4c7a4170703a206e6f20747275737465642070617468207265636f72640000006044820152606401620006ae565b62000d9d60006014835162000d9491906200200b565b839190620017a0565b9392505050565b62000dae620015a6565b81813060405160200162000dc59392919062002027565b60408051601f1981840301815291815261ffff851660009081526001602052209062000df290826200209c565b507f8c0400cfe2d1199b1a725c78960bcc2a344d869b80590d0f2bd005db15a572ce83838360405162000e289392919062001fd5565b60405180910390a1505050565b336000908152600660205260409020546001600160a01b031662000e9c5760405162461bcd60e51b815260206004820152601b60248201527f686173207468652073616d65206f776e657220616464726573732e00000000006044820152606401620006ae565b60008787878787878760405162000eb390620019e9565b62000ec5979695949392919062002168565b604051809103906000f08015801562000ee2573d6000803e3d6000fd5b5060405163071bc88960e31b815230600482015290915081906001600160a01b038216906338de444890602401600060405180830381600087803b15801562000f2a57600080fd5b505af115801562000f3f573d6000803e3d6000fd5b5050336000818152600660205260409081902080546001600160a01b0319166001600160a01b038716179055517fd8e11594723db7d72597d997546ef9cc81537b94acb345a4ee5b16843e2526e9935062000fac92508c918c918c918c918c918c918c91908b90620021bf565b60405180910390a1505050505050505050565b62000fc9620015a6565b600480546001600160a01b0319166001600160a01b0383169081179091556040519081527f5db758e995a17ec1ad84bdef7e8c3293a0bd6179bcce400dff5d4c3d87db726b9060200160405180910390a150565b62001027620015a6565b6040516332fb62e760e21b81526001600160a01b037f0000000000000000000000000000000000000000000000000000000000000000169063cbed8b9c906200107d90889088908890889088906004016200222d565b600060405180830381600087803b1580156200109857600080fd5b505af1158015620010ad573d6000803e3d6000fd5b505050505050505050565b61ffff86166000908152600560205260408082209051620010dd908890889062001f9c565b90815260408051602092819003830190206001600160401b038716600090815292529020549050806200115f5760405162461bcd60e51b815260206004820152602360248201527f4e6f6e626c6f636b696e674c7a4170703a206e6f2073746f726564206d65737360448201526261676560e81b6064820152608401620006ae565b8083836040516200117292919062001f9c565b604051809103902014620011d35760405162461bcd60e51b815260206004820152602160248201527f4e6f6e626c6f636b696e674c7a4170703a20696e76616c6964207061796c6f616044820152601960fa1b6064820152608401620006ae565b61ffff87166000908152600560205260408082209051620011f8908990899062001f9c565b90815260408051602092819003830181206001600160401b038916600090815290845282902093909355601f8801829004820283018201905286825262001292918991899089908190840183828082843760009201919091525050604080516020601f8a018190048102820181019092528881528a9350915088908890819084018382808284376000920191909152506200160292505050565b7fc264d91f3adc5588250e1551f547752ca0cfa8f6b530d243b9f9f4cab10ea8e58787878785604051620012cb95949392919062002268565b60405180910390a150505050505050565b620012e6620015a6565b60008111620013305760405162461bcd60e51b81526020600482015260156024820152744c7a4170703a20696e76616c6964206d696e47617360581b6044820152606401620006ae565b61ffff83811660008181526002602090815260408083209487168084529482529182902085905581519283528201929092529081018290527f9d5c7c0b934da8fefa9c7760c98383778a12dfbfc0c3b3106518f43fb9508ac09060600162000e28565b6200139d620015a6565b61ffff83166000908152600160205260409020620013bd828483620022a5565b507ffa41487ad5d6728f0b19276fa1eddc16558578f5109fc39d2dc33c3230470dab83838360405162000e289392919062001fd5565b620013fd620015a6565b6001600160a01b038116620014645760405162461bcd60e51b815260206004820152602660248201527f4f776e61626c653a206e6577206f776e657220697320746865207a65726f206160448201526564647265737360d01b6064820152608401620006ae565b6200146f8162001750565b50565b604051633d7b2f6f60e21b815261ffff808616600483015284166024820152306044820152606481018290526060907f00000000000000000000000000000000000000000000000000000000000000006001600160a01b03169063f5ecbdbc90608401600060405180830381865afa158015620014f3573d6000803e3d6000fd5b505050506040513d6000823e601f3d908101601f191682016040526200151d919081019062002371565b95945050505050565b6000806200158d5a60966366ad5c8a60e01b89898989604051602401620015519493929190620023e7565b60408051601f198184030181529190526020810180516001600160e01b03166001600160e01b03199093169290921790915230929190620018b9565b915091508162000bbe5762000bbe868686868562001948565b6000546001600160a01b0316331462000bdc5760405162461bcd60e51b815260206004820181905260248201527f4f776e61626c653a2063616c6c6572206973206e6f7420746865206f776e65726044820152606401620006ae565b6000806000838060200190518101906200161d919062002429565b6001600160a01b03808216600090815260066020526040902054939650919450925016806200168f5760405162461bcd60e51b815260206004820152601a60248201527f4e6674436f6e7472616374206973206e6f7420637265617465640000000000006044820152606401620006ae565b604051630f38ca0d60e31b81526001600160a01b038581166004830152602482018590528216906379c6506890604401600060405180830381600087803b158015620016da57600080fd5b505af1158015620016ef573d6000803e3d6000fd5b5050604080516001600160a01b03858116825288811660208301528616818301526060810187905290517f0ad870234a528641ac2414b9897edeb65378d02e42f8211ccea002be0b8bb3c99350908190036080019150a15050505050505050565b600080546001600160a01b038381166001600160a01b0319831681178455604051919092169283917f8be0079c531659141344cd1fd0a4f28419497f9722a3daafe3b4186f6b6457e09190a35050565b606081620017b081601f62002471565b1015620017f15760405162461bcd60e51b815260206004820152600e60248201526d736c6963655f6f766572666c6f7760901b6044820152606401620006ae565b620017fd828462002471565b84511015620018435760405162461bcd60e51b8152602060048201526011602482015270736c6963655f6f75744f66426f756e647360781b6044820152606401620006ae565b606082158015620018645760405191506000825260208201604052620018b0565b6040519150601f8416801560200281840101858101878315602002848b0101015b818310156200189f57805183526020928301920162001885565b5050858452601f01601f1916604052505b50949350505050565b6000606060008060008661ffff166001600160401b03811115620018e157620018e162001bb3565b6040519080825280601f01601f1916602001820160405280156200190c576020820181803683370190505b50905060008087516020890160008d8df191503d9250868311156200192f578692505b828152826000602083013e909890975095505050505050565b8180519060200120600560008761ffff1661ffff168152602001908152602001600020856040516200197b919062002487565b9081526040805191829003602090810183206001600160401b0388166000908152915220919091557fe183f33de2837795525b4792ca4cd60535bd77c53b7e7030060bfcf5734d6b0c90620019da9087908790879087908790620024a5565b60405180910390a15050505050565b611d0c806200250a83390190565b803561ffff8116811462001a0a57600080fd5b919050565b60008083601f84011262001a2257600080fd5b5081356001600160401b0381111562001a3a57600080fd5b60208301915083602082850101111562001a5357600080fd5b9250929050565b80356001600160401b038116811462001a0a57600080fd5b6000806000806000806080878903121562001a8c57600080fd5b62001a9787620019f7565b955060208701356001600160401b038082111562001ab457600080fd5b62001ac28a838b0162001a0f565b909750955085915062001ad860408a0162001a5a565b9450606089013591508082111562001aef57600080fd5b5062001afe89828a0162001a0f565b979a9699509497509295939492505050565b60006020828403121562001b2357600080fd5b62000d9d82620019f7565b6000806040838503121562001b4257600080fd5b62001b4d83620019f7565b946020939093013593505050565b60008060006040848603121562001b7157600080fd5b62001b7c84620019f7565b925060208401356001600160401b0381111562001b9857600080fd5b62001ba68682870162001a0f565b9497909650939450505050565b634e487b7160e01b600052604160045260246000fd5b604051601f8201601f191681016001600160401b038111828210171562001bf45762001bf462001bb3565b604052919050565b60006001600160401b0382111562001c185762001c1862001bb3565b50601f01601f191660200190565b60008060006060848603121562001c3c57600080fd5b62001c4784620019f7565b925060208401356001600160401b0381111562001c6357600080fd5b8401601f8101861362001c7557600080fd5b803562001c8c62001c868262001bfc565b62001bc9565b81815287602083850101111562001ca257600080fd5b8160208401602083013760006020838301015280945050505062001cc96040850162001a5a565b90509250925092565b60005b8381101562001cef57818101518382015260200162001cd5565b50506000910152565b6000815180845262001d1281602086016020860162001cd2565b601f01601f19169290920160200192915050565b60208152600062000d9d602083018462001cf8565b6000806040838503121562001d4f57600080fd5b62001d5a83620019f7565b915062001d6a60208401620019f7565b90509250929050565b6001600160a01b03811681146200146f57600080fd5b60006020828403121562001d9c57600080fd5b813562000d9d8162001d73565b60008060008060008060006080888a03121562001dc557600080fd5b87356001600160401b038082111562001ddd57600080fd5b62001deb8b838c0162001a0f565b909950975060208a013591508082111562001e0557600080fd5b62001e138b838c0162001a0f565b909750955060408a013591508082111562001e2d57600080fd5b5062001e3c8a828b0162001a0f565b989b979a50959894979596606090950135949350505050565b60008060008060006080868803121562001e6e57600080fd5b62001e7986620019f7565b945062001e8960208701620019f7565b93506040860135925060608601356001600160401b0381111562001eac57600080fd5b62001eba8882890162001a0f565b969995985093965092949392505050565b60008060006060848603121562001ee157600080fd5b62001eec84620019f7565b925062001efc60208501620019f7565b9150604084013590509250925092565b6000806000806080858703121562001f2357600080fd5b62001f2e85620019f7565b935062001f3e60208601620019f7565b9250604085013562001f508162001d73565b9396929550929360600135925050565b600181811c9082168062001f7557607f821691505b60208210810362001f9657634e487b7160e01b600052602260045260246000fd5b50919050565b8183823760009101908152919050565b81835281816020850137506000828201602090810191909152601f909101601f19169091010190565b61ffff841681526040602082015260006200151d60408301848662001fac565b634e487b7160e01b600052601160045260246000fd5b8181038181111562002021576200202162001ff5565b92915050565b8284823760609190911b6bffffffffffffffffffffffff19169101908152601401919050565b601f8211156200209757600081815260208120601f850160051c81016020861015620020765750805b601f850160051c820191505b8181101562000bbe5782815560010162002082565b505050565b81516001600160401b03811115620020b857620020b862001bb3565b620020d081620020c9845462001f60565b846200204d565b602080601f831160018114620021085760008415620020ef5750858301515b600019600386901b1c1916600185901b17855562000bbe565b600085815260208120601f198616915b82811015620021395788860151825594840194600190910190840162002118565b5085821015620021585787850151600019600388901b60f8161c191681555b5050505050600190811b01905550565b6080815260006200217e60808301898b62001fac565b82810360208401526200219381888a62001fac565b90508281036040840152620021aa81868862001fac565b91505082606083015298975050505050505050565b60c081526000620021d560c083018b8d62001fac565b8281036020840152620021ea818a8c62001fac565b905082810360408401526200220181888a62001fac565b606084019690965250506001600160a01b039283166080820152911660a0909101529695505050505050565b600061ffff8088168352808716602084015250846040830152608060608301526200225d60808301848662001fac565b979650505050505050565b61ffff861681526080602082015260006200228860808301868862001fac565b6001600160401b0394909416604083015250606001529392505050565b6001600160401b03831115620022bf57620022bf62001bb3565b620022d783620022d0835462001f60565b836200204d565b6000601f8411600181146200230e5760008515620022f55750838201355b600019600387901b1c1916600186901b17835562000901565b600083815260209020601f19861690835b828110156200234157868501358255602094850194600190920191016200231f565b50868210156200235f5760001960f88860031b161c19848701351681555b505060018560011b0183555050505050565b6000602082840312156200238457600080fd5b81516001600160401b038111156200239b57600080fd5b8201601f81018413620023ad57600080fd5b8051620023be62001c868262001bfc565b818152856020838501011115620023d457600080fd5b6200151d82602083016020860162001cd2565b61ffff8516815260806020820152600062002406608083018662001cf8565b6001600160401b038516604084015282810360608401526200225d818562001cf8565b6000806000606084860312156200243f57600080fd5b83516200244c8162001d73565b602085015160408601519194509250620024668162001d73565b809150509250925092565b8082018082111562002021576200202162001ff5565b600082516200249b81846020870162001cd2565b9190910192915050565b61ffff8616815260a060208201526000620024c460a083018762001cf8565b6001600160401b03861660408401528281036060840152620024e7818662001cf8565b90508281036080840152620024fd818562001cf8565b9897505050505050505056fe60a06040523480156200001157600080fd5b5060405162001d0c38038062001d0c833981016040819052620000349162000140565b8383600262000044838262000268565b50600362000053828262000268565b506000805550506001600955600a6200006d838262000268565b506080525062000334915050565b634e487b7160e01b600052604160045260246000fd5b600082601f830112620000a357600080fd5b81516001600160401b0380821115620000c057620000c06200007b565b604051601f8301601f19908116603f01168101908282118183101715620000eb57620000eb6200007b565b816040528381526020925086838588010111156200010857600080fd5b600091505b838210156200012c57858201830151818301840152908201906200010d565b600093810190920192909252949350505050565b600080600080608085870312156200015757600080fd5b84516001600160401b03808211156200016f57600080fd5b6200017d8883890162000091565b955060208701519150808211156200019457600080fd5b620001a28883890162000091565b94506040870151915080821115620001b957600080fd5b50620001c88782880162000091565b606096909601519497939650505050565b600181811c90821680620001ee57607f821691505b6020821081036200020f57634e487b7160e01b600052602260045260246000fd5b50919050565b601f8211156200026357600081815260208120601f850160051c810160208610156200023e5750805b601f850160051c820191505b818110156200025f578281556001016200024a565b5050505b505050565b81516001600160401b038111156200028457620002846200007b565b6200029c81620002958454620001d9565b8462000215565b602080601f831160018114620002d45760008415620002bb5750858301515b600019600386901b1c1916600185901b1785556200025f565b600085815260208120601f198616915b828110156200030557888601518255948401946001909101908401620002e4565b5085821015620003245787850151600019600388901b60f8161c191681555b5050505050600190811b01905550565b6080516119b562000357600039600081816102e80152610ace01526119b56000f3fe6080604052600436106101815760003560e01c806355f804b3116100d157806395d89b411161008a578063b88d4fde11610064578063b88d4fde1461045c578063c87b56dd1461046f578063d547741f1461048f578063e985e9c5146104af57600080fd5b806395d89b4114610412578063a217fddf14610427578063a22cb4651461043c57600080fd5b806355f804b31461035d5780636352211e1461037d57806370a082311461039d578063714c5398146103bd57806379c65068146103d257806391d14854146103f257600080fd5b806323b872dd1161013e57806332cb6b0c1161011857806332cb6b0c146102d657806336568abe1461030a57806338de44481461032a57806342842e0e1461034a57600080fd5b806323b872dd14610273578063248a9ca3146102865780632f2ff15d146102b657600080fd5b806301ffc9a71461018657806306fdde03146101bb578063081812fc146101dd5780630907c57d14610215578063095ea7b31461024557806318160ddd1461025a575b600080fd5b34801561019257600080fd5b506101a66101a1366004611358565b6104f8565b60405190151581526020015b60405180910390f35b3480156101c757600080fd5b506101d0610509565b6040516101b291906113c5565b3480156101e957600080fd5b506101fd6101f83660046113d8565b61059b565b6040516001600160a01b0390911681526020016101b2565b34801561022157600080fd5b5061023760008051602061196083398151915281565b6040519081526020016101b2565b61025861025336600461140d565b6105df565b005b34801561026657600080fd5b5060015460005403610237565b610258610281366004611437565b61067f565b34801561029257600080fd5b506102376102a13660046113d8565b60009081526008602052604090206001015490565b3480156102c257600080fd5b506102586102d1366004611473565b610818565b3480156102e257600080fd5b506102377f000000000000000000000000000000000000000000000000000000000000000081565b34801561031657600080fd5b50610258610325366004611473565b610842565b34801561033657600080fd5b5061025861034536600461149f565b6108c5565b610258610358366004611437565b61095d565b34801561036957600080fd5b506102586103783660046114ba565b610978565b34801561038957600080fd5b506101fd6103983660046113d8565b6109dc565b3480156103a957600080fd5b506102376103b836600461149f565b6109e7565b3480156103c957600080fd5b506101d0610a36565b3480156103de57600080fd5b506102586103ed36600461140d565b610a45565b3480156103fe57600080fd5b506101a661040d366004611473565b610b5f565b34801561041e57600080fd5b506101d0610b8a565b34801561043357600080fd5b50610237600081565b34801561044857600080fd5b5061025861045736600461152c565b610b99565b61025861046a36600461157e565b610c05565b34801561047b57600080fd5b506101d061048a3660046113d8565b610c4f565b34801561049b57600080fd5b506102586104aa366004611473565b610cd3565b3480156104bb57600080fd5b506101a66104ca36600461165a565b6001600160a01b03918216600090815260076020908152604080832093909416825291909152205460ff1690565b600061050382610cf8565b92915050565b60606002805461051890611684565b80601f016020809104026020016040519081016040528092919081815260200182805461054490611684565b80156105915780601f1061056657610100808354040283529160200191610591565b820191906000526020600020905b81548152906001019060200180831161057457829003601f168201915b5050505050905090565b60006105a682610d2d565b6105c3576040516333d1c03960e21b815260040160405180910390fd5b506000908152600660205260409020546001600160a01b031690565b60006105ea826109dc565b9050336001600160a01b038216146106235761060681336104ca565b610623576040516367d9dca160e11b815260040160405180910390fd5b60008281526006602052604080822080546001600160a01b0319166001600160a01b0387811691821790925591518593918516917f8c5be1e5ebec7d5bd14f71427d1e84f3dd0314c0f7b2291e5b200ac8c7c3b92591a4505050565b600061068a82610d54565b9050836001600160a01b0316816001600160a01b0316146106bd5760405162a1148160e81b815260040160405180910390fd5b60008281526006602052604090208054338082146001600160a01b0388169091141761070a576106ed86336104ca565b61070a57604051632ce44b5f60e11b815260040160405180910390fd5b6001600160a01b03851661073157604051633a954ecd60e21b815260040160405180910390fd5b801561073c57600082555b6001600160a01b038681166000908152600560205260408082208054600019019055918716808252919020805460010190554260a01b17600160e11b17600085815260046020526040812091909155600160e11b841690036107ce576001840160008181526004602052604081205490036107cc5760005481146107cc5760008181526004602052604090208490555b505b83856001600160a01b0316876001600160a01b03167fddf252ad1be2c89b69c2b068fc378daa952ba7f163c4a11628f55a4df523b3ef60405160405180910390a45b505050505050565b60008281526008602052604090206001015461083381610dbb565b61083d8383610dc8565b505050565b6001600160a01b03811633146108b75760405162461bcd60e51b815260206004820152602f60248201527f416363657373436f6e74726f6c3a2063616e206f6e6c792072656e6f756e636560448201526e103937b632b9903337b91039b2b63360891b60648201526084015b60405180910390fd5b6108c18282610e4e565b5050565b6000805160206119608339815191526108dd81610dbb565b6001600160a01b0382166109455760405162461bcd60e51b815260206004820152602960248201527f636f6e74726163742061646472657373206d757374206e6f74206265207a65726044820152686f206164647265737360b81b60648201526084016108ae565b6108c160008051602061196083398151915283610dc8565b61083d83838360405180602001604052806000815250610c05565b60008051602061196083398151915261099081610dbb565b600a61099d838583611704565b507f23c8c9488efebfd474e85a7956de6f39b17c7ab88502d42a623db2d8e382bbaa83836040516109cf9291906117c5565b60405180910390a1505050565b600061050382610d54565b60006001600160a01b038216610a10576040516323d3ad8160e21b815260040160405180910390fd5b506001600160a01b031660009081526005602052604090205467ffffffffffffffff1690565b6060600a805461051890611684565b600080516020611960833981519152610a5d81610dbb565b610a65610eb5565b6001600160a01b038316610abb5760405162461bcd60e51b815260206004820181905260248201527f41646472657373206d757374206e6f74206265207a65726f206164647265737360448201526064016108ae565b6000610aca6001546000540390565b90507f0000000000000000000000000000000000000000000000000000000000000000811115610b4a5760405162461bcd60e51b815260206004820152602560248201527f43616e6e6f74206d696e74206d6f7265207468616e204d41585f535550504c59604482015264204e46547360d81b60648201526084016108ae565b610b548484610f0e565b5061083d6001600955565b60009182526008602090815260408084206001600160a01b0393909316845291905290205460ff1690565b60606003805461051890611684565b3360008181526007602090815260408083206001600160a01b03871680855290835292819020805460ff191686151590811790915590519081529192917f17307eab39ab6107e8899845ad3d59bd9653f200f220920489ca2b5937696c31910160405180910390a35050565b610c1084848461067f565b6001600160a01b0383163b15610c4957610c2c8484848461100c565b610c49576040516368d2bf6b60e11b815260040160405180910390fd5b50505050565b6060610c5a82610d2d565b610c7757604051630a14c4b560e41b815260040160405180910390fd5b6000610c81610a36565b90508051600003610ca15760405180602001604052806000815250610ccc565b80610cab846110f7565b604051602001610cbc9291906117f4565b6040516020818303038152906040525b9392505050565b600082815260086020526040902060010154610cee81610dbb565b61083d8383610e4e565b60006001600160e01b03198216637965db0b60e01b148061050357506301ffc9a760e01b6001600160e01b0319831614610503565b6000805482108015610503575050600090815260046020526040902054600160e01b161590565b600081600054811015610da25760008181526004602052604081205490600160e01b82169003610da0575b80600003610ccc575060001901600081815260046020526040902054610d7f565b505b604051636f96cda160e11b815260040160405180910390fd5b610dc5813361113b565b50565b610dd28282610b5f565b6108c15760008281526008602090815260408083206001600160a01b03851684529091529020805460ff19166001179055610e0a3390565b6001600160a01b0316816001600160a01b0316837f2f8788117e7eff1d82e926ec794901d17c78024a50270940304540a733656f0d60405160405180910390a45050565b610e588282610b5f565b156108c15760008281526008602090815260408083206001600160a01b0385168085529252808320805460ff1916905551339285917ff6391f5c32d9c69d2a47ea670b442974b53935d1edc7fd64eb21e047a839171b9190a45050565b600260095403610f075760405162461bcd60e51b815260206004820152601f60248201527f5265656e7472616e637947756172643a207265656e7472616e742063616c6c0060448201526064016108ae565b6002600955565b6000805490829003610f335760405163b562e8dd60e01b815260040160405180910390fd5b6001600160a01b03831660008181526005602090815260408083208054680100000000000000018802019055848352600490915281206001851460e11b4260a01b178317905582840190839083907fddf252ad1be2c89b69c2b068fc378daa952ba7f163c4a11628f55a4df523b3ef8180a4600183015b818114610fe257808360007fddf252ad1be2c89b69c2b068fc378daa952ba7f163c4a11628f55a4df523b3ef600080a4600101610faa565b508160000361100357604051622e076360e81b815260040160405180910390fd5b60005550505050565b604051630a85bd0160e11b81526000906001600160a01b0385169063150b7a0290611041903390899088908890600401611823565b6020604051808303816000875af192505050801561107c575060408051601f3d908101601f1916820190925261107991810190611860565b60015b6110da573d8080156110aa576040519150601f19603f3d011682016040523d82523d6000602084013e6110af565b606091505b5080516000036110d2576040516368d2bf6b60e11b815260040160405180910390fd5b805181602001fd5b6001600160e01b031916630a85bd0160e11b149050949350505050565b606060a06040510180604052602081039150506000815280825b600183039250600a81066030018353600a9004806111115750819003601f19909101908152919050565b6111458282610b5f565b6108c15761115281611194565b61115d8360206111a6565b60405160200161116e92919061187d565b60408051601f198184030181529082905262461bcd60e51b82526108ae916004016113c5565b60606105036001600160a01b03831660145b606060006111b5836002611908565b6111c090600261191f565b67ffffffffffffffff8111156111d8576111d8611568565b6040519080825280601f01601f191660200182016040528015611202576020820181803683370190505b509050600360fc1b8160008151811061121d5761121d611932565b60200101906001600160f81b031916908160001a905350600f60fb1b8160018151811061124c5761124c611932565b60200101906001600160f81b031916908160001a9053506000611270846002611908565b61127b90600161191f565b90505b60018111156112f3576f181899199a1a9b1b9c1cb0b131b232b360811b85600f16601081106112af576112af611932565b1a60f81b8282815181106112c5576112c5611932565b60200101906001600160f81b031916908160001a90535060049490941c936112ec81611948565b905061127e565b508315610ccc5760405162461bcd60e51b815260206004820181905260248201527f537472696e67733a20686578206c656e67746820696e73756666696369656e7460448201526064016108ae565b6001600160e01b031981168114610dc557600080fd5b60006020828403121561136a57600080fd5b8135610ccc81611342565b60005b83811015611390578181015183820152602001611378565b50506000910152565b600081518084526113b1816020860160208601611375565b601f01601f19169290920160200192915050565b602081526000610ccc6020830184611399565b6000602082840312156113ea57600080fd5b5035919050565b80356001600160a01b038116811461140857600080fd5b919050565b6000806040838503121561142057600080fd5b611429836113f1565b946020939093013593505050565b60008060006060848603121561144c57600080fd5b611455846113f1565b9250611463602085016113f1565b9150604084013590509250925092565b6000806040838503121561148657600080fd5b82359150611496602084016113f1565b90509250929050565b6000602082840312156114b157600080fd5b610ccc826113f1565b600080602083850312156114cd57600080fd5b823567ffffffffffffffff808211156114e557600080fd5b818501915085601f8301126114f957600080fd5b81358181111561150857600080fd5b86602082850101111561151a57600080fd5b60209290920196919550909350505050565b6000806040838503121561153f57600080fd5b611548836113f1565b91506020830135801515811461155d57600080fd5b809150509250929050565b634e487b7160e01b600052604160045260246000fd5b6000806000806080858703121561159457600080fd5b61159d856113f1565b93506115ab602086016113f1565b925060408501359150606085013567ffffffffffffffff808211156115cf57600080fd5b818701915087601f8301126115e357600080fd5b8135818111156115f5576115f5611568565b604051601f8201601f19908116603f0116810190838211818310171561161d5761161d611568565b816040528281528a602084870101111561163657600080fd5b82602086016020830137600060208483010152809550505050505092959194509250565b6000806040838503121561166d57600080fd5b611676836113f1565b9150611496602084016113f1565b600181811c9082168061169857607f821691505b6020821081036116b857634e487b7160e01b600052602260045260246000fd5b50919050565b601f82111561083d57600081815260208120601f850160051c810160208610156116e55750805b601f850160051c820191505b81811015610810578281556001016116f1565b67ffffffffffffffff83111561171c5761171c611568565b6117308361172a8354611684565b836116be565b6000601f841160018114611764576000851561174c5750838201355b600019600387901b1c1916600186901b1783556117be565b600083815260209020601f19861690835b828110156117955786850135825560209485019460019092019101611775565b50868210156117b25760001960f88860031b161c19848701351681555b505060018560011b0183555b5050505050565b60208152816020820152818360408301376000818301604090810191909152601f909201601f19160101919050565b60008351611806818460208801611375565b83519083019061181a818360208801611375565b01949350505050565b6001600160a01b038581168252841660208201526040810183905260806060820181905260009061185690830184611399565b9695505050505050565b60006020828403121561187257600080fd5b8151610ccc81611342565b7f416363657373436f6e74726f6c3a206163636f756e74200000000000000000008152600083516118b5816017850160208801611375565b7001034b99036b4b9b9b4b733903937b6329607d1b60179184019182015283516118e6816028840160208801611375565b01602801949350505050565b634e487b7160e01b600052601160045260246000fd5b8082028115828204841417610503576105036118f2565b80820180821115610503576105036118f2565b634e487b7160e01b600052603260045260246000fd5b600081611957576119576118f2565b50600019019056fe1caaad001d37332aad0e8c4e614e2be87e2ff78ad235d12c76cd566510d919f3a26469706673582212203e7c44e0bc3bb739f1772fc6aaabfd0b9e7a56d1efcf66e6f4c603bad85f84ca64736f6c63430008110033a2646970667358221220ce0c6959eacb11a234071458406e443f4af06a4945c80832c60bc6168667047964736f6c63430008110033",
  "linkReferences": {},
  "deployedLinkReferences": {}
}