{
  "_format": "hh-sol-artifact-1",
  "contractName": "PolarysNftContract",
  "sourceName": "contracts/childs/PolarysNftContract.sol",
  "abi": [
    {
      "inputs": [
        {
          "internalType": "string",
          "name": "name",
          "type": "string"
        },
        {
          "internalType": "string",
          "name": "symbol",
          "type": "string"
        },
        {
          "internalType": "string",
          "name": "tokenUri",
          "type": "string"
        },
        {
          "internalType": "uint256",
          "name": "maxSupply",
          "type": "uint256"
        },
        {
          "internalType": "address",
          "name": "factoryContractAddress",
          "type": "address"
        }
      ],
      "stateMutability": "nonpayable",
      "type": "constructor"
    },
    {
      "inputs": [],
      "name": "ApprovalCallerNotOwnerNorApproved",
      "type": "error"
    },
    {
      "inputs": [],
      "name": "ApprovalQueryForNonexistentToken",
      "type": "error"
    },
    {
      "inputs": [],
      "name": "BalanceQueryForZeroAddress",
      "type": "error"
    },
    {
      "inputs": [],
      "name": "MintERC2309QuantityExceedsLimit",
      "type": "error"
    },
    {
      "inputs": [],
      "name": "MintToZeroAddress",
      "type": "error"
    },
    {
      "inputs": [],
      "name": "MintZeroQuantity",
      "type": "error"
    },
    {
      "inputs": [],
      "name": "OwnerQueryForNonexistentToken",
      "type": "error"
    },
    {
      "inputs": [],
      "name": "OwnershipNotInitializedForExtraData",
      "type": "error"
    },
    {
      "inputs": [],
      "name": "TransferCallerNotOwnerNorApproved",
      "type": "error"
    },
    {
      "inputs": [],
      "name": "TransferFromIncorrectOwner",
      "type": "error"
    },
    {
      "inputs": [],
      "name": "TransferToNonERC721ReceiverImplementer",
      "type": "error"
    },
    {
      "inputs": [],
      "name": "TransferToZeroAddress",
      "type": "error"
    },
    {
      "inputs": [],
      "name": "URIQueryForNonexistentToken",
      "type": "error"
    },
    {
      "anonymous": false,
      "inputs": [
        {
          "indexed": true,
          "internalType": "address",
          "name": "owner",
          "type": "address"
        },
        {
          "indexed": true,
          "internalType": "address",
          "name": "approved",
          "type": "address"
        },
        {
          "indexed": true,
          "internalType": "uint256",
          "name": "tokenId",
          "type": "uint256"
        }
      ],
      "name": "Approval",
      "type": "event"
    },
    {
      "anonymous": false,
      "inputs": [
        {
          "indexed": true,
          "internalType": "address",
          "name": "owner",
          "type": "address"
        },
        {
          "indexed": true,
          "internalType": "address",
          "name": "operator",
          "type": "address"
        },
        {
          "indexed": false,
          "internalType": "bool",
          "name": "approved",
          "type": "bool"
        }
      ],
      "name": "ApprovalForAll",
      "type": "event"
    },
    {
      "anonymous": false,
      "inputs": [
        {
          "indexed": true,
          "internalType": "uint256",
          "name": "fromTokenId",
          "type": "uint256"
        },
        {
          "indexed": false,
          "internalType": "uint256",
          "name": "toTokenId",
          "type": "uint256"
        },
        {
          "indexed": true,
          "internalType": "address",
          "name": "from",
          "type": "address"
        },
        {
          "indexed": true,
          "internalType": "address",
          "name": "to",
          "type": "address"
        }
      ],
      "name": "ConsecutiveTransfer",
      "type": "event"
    },
    {
      "anonymous": false,
      "inputs": [
        {
          "indexed": true,
          "internalType": "bytes32",
          "name": "role",
          "type": "bytes32"
        },
        {
          "indexed": true,
          "internalType": "bytes32",
          "name": "previousAdminRole",
          "type": "bytes32"
        },
        {
          "indexed": true,
          "internalType": "bytes32",
          "name": "newAdminRole",
          "type": "bytes32"
        }
      ],
      "name": "RoleAdminChanged",
      "type": "event"
    },
    {
      "anonymous": false,
      "inputs": [
        {
          "indexed": true,
          "internalType": "bytes32",
          "name": "role",
          "type": "bytes32"
        },
        {
          "indexed": true,
          "internalType": "address",
          "name": "account",
          "type": "address"
        },
        {
          "indexed": true,
          "internalType": "address",
          "name": "sender",
          "type": "address"
        }
      ],
      "name": "RoleGranted",
      "type": "event"
    },
    {
      "anonymous": false,
      "inputs": [
        {
          "indexed": true,
          "internalType": "bytes32",
          "name": "role",
          "type": "bytes32"
        },
        {
          "indexed": true,
          "internalType": "address",
          "name": "account",
          "type": "address"
        },
        {
          "indexed": true,
          "internalType": "address",
          "name": "sender",
          "type": "address"
        }
      ],
      "name": "RoleRevoked",
      "type": "event"
    },
    {
      "anonymous": false,
      "inputs": [
        {
          "indexed": false,
          "internalType": "string",
          "name": "uri",
          "type": "string"
        }
      ],
      "name": "SetBaseURI",
      "type": "event"
    },
    {
      "anonymous": false,
      "inputs": [
        {
          "indexed": true,
          "internalType": "address",
          "name": "from",
          "type": "address"
        },
        {
          "indexed": true,
          "internalType": "address",
          "name": "to",
          "type": "address"
        },
        {
          "indexed": true,
          "internalType": "uint256",
          "name": "tokenId",
          "type": "uint256"
        }
      ],
      "name": "Transfer",
      "type": "event"
    },
    {
      "inputs": [],
      "name": "DEFAULT_ADMIN_ROLE",
      "outputs": [
        {
          "internalType": "bytes32",
          "name": "",
          "type": "bytes32"
        }
      ],
      "stateMutability": "view",
      "type": "function"
    },
    {
      "inputs": [],
      "name": "FACTORY_CONTRACT_ROLE",
      "outputs": [
        {
          "internalType": "bytes32",
          "name": "",
          "type": "bytes32"
        }
      ],
      "stateMutability": "view",
      "type": "function"
    },
    {
      "inputs": [],
      "name": "MAX_SUPPLY",
      "outputs": [
        {
          "internalType": "uint256",
          "name": "",
          "type": "uint256"
        }
      ],
      "stateMutability": "view",
      "type": "function"
    },
    {
      "inputs": [
        {
          "internalType": "address",
          "name": "to",
          "type": "address"
        },
        {
          "internalType": "uint256",
          "name": "tokenId",
          "type": "uint256"
        }
      ],
      "name": "approve",
      "outputs": [],
      "stateMutability": "payable",
      "type": "function"
    },
    {
      "inputs": [
        {
          "internalType": "address",
          "name": "owner",
          "type": "address"
        }
      ],
      "name": "balanceOf",
      "outputs": [
        {
          "internalType": "uint256",
          "name": "",
          "type": "uint256"
        }
      ],
      "stateMutability": "view",
      "type": "function"
    },
    {
      "inputs": [
        {
          "internalType": "uint256",
          "name": "tokenId",
          "type": "uint256"
        }
      ],
      "name": "getApproved",
      "outputs": [
        {
          "internalType": "address",
          "name": "",
          "type": "address"
        }
      ],
      "stateMutability": "view",
      "type": "function"
    },
    {
      "inputs": [],
      "name": "getBaseURI",
      "outputs": [
        {
          "internalType": "string",
          "name": "",
          "type": "string"
        }
      ],
      "stateMutability": "view",
      "type": "function"
    },
    {
      "inputs": [
        {
          "internalType": "bytes32",
          "name": "role",
          "type": "bytes32"
        }
      ],
      "name": "getRoleAdmin",
      "outputs": [
        {
          "internalType": "bytes32",
          "name": "",
          "type": "bytes32"
        }
      ],
      "stateMutability": "view",
      "type": "function"
    },
    {
      "inputs": [
        {
          "internalType": "bytes32",
          "name": "role",
          "type": "bytes32"
        },
        {
          "internalType": "address",
          "name": "account",
          "type": "address"
        }
      ],
      "name": "grantRole",
      "outputs": [],
      "stateMutability": "nonpayable",
      "type": "function"
    },
    {
      "inputs": [
        {
          "internalType": "bytes32",
          "name": "role",
          "type": "bytes32"
        },
        {
          "internalType": "address",
          "name": "account",
          "type": "address"
        }
      ],
      "name": "hasRole",
      "outputs": [
        {
          "internalType": "bool",
          "name": "",
          "type": "bool"
        }
      ],
      "stateMutability": "view",
      "type": "function"
    },
    {
      "inputs": [
        {
          "internalType": "address",
          "name": "owner",
          "type": "address"
        },
        {
          "internalType": "address",
          "name": "operator",
          "type": "address"
        }
      ],
      "name": "isApprovedForAll",
      "outputs": [
        {
          "internalType": "bool",
          "name": "",
          "type": "bool"
        }
      ],
      "stateMutability": "view",
      "type": "function"
    },
    {
      "inputs": [
        {
          "internalType": "address",
          "name": "to",
          "type": "address"
        },
        {
          "internalType": "uint256",
          "name": "quantity",
          "type": "uint256"
        }
      ],
      "name": "mintToken",
      "outputs": [],
      "stateMutability": "nonpayable",
      "type": "function"
    },
    {
      "inputs": [],
      "name": "name",
      "outputs": [
        {
          "internalType": "string",
          "name": "",
          "type": "string"
        }
      ],
      "stateMutability": "view",
      "type": "function"
    },
    {
      "inputs": [
        {
          "internalType": "uint256",
          "name": "tokenId",
          "type": "uint256"
        }
      ],
      "name": "ownerOf",
      "outputs": [
        {
          "internalType": "address",
          "name": "",
          "type": "address"
        }
      ],
      "stateMutability": "view",
      "type": "function"
    },
    {
      "inputs": [
        {
          "internalType": "bytes32",
          "name": "role",
          "type": "bytes32"
        },
        {
          "internalType": "address",
          "name": "account",
          "type": "address"
        }
      ],
      "name": "renounceRole",
      "outputs": [],
      "stateMutability": "nonpayable",
      "type": "function"
    },
    {
      "inputs": [
        {
          "internalType": "bytes32",
          "name": "role",
          "type": "bytes32"
        },
        {
          "internalType": "address",
          "name": "account",
          "type": "address"
        }
      ],
      "name": "revokeRole",
      "outputs": [],
      "stateMutability": "nonpayable",
      "type": "function"
    },
    {
      "inputs": [
        {
          "internalType": "address",
          "name": "from",
          "type": "address"
        },
        {
          "internalType": "address",
          "name": "to",
          "type": "address"
        },
        {
          "internalType": "uint256",
          "name": "tokenId",
          "type": "uint256"
        }
      ],
      "name": "safeTransferFrom",
      "outputs": [],
      "stateMutability": "payable",
      "type": "function"
    },
    {
      "inputs": [
        {
          "internalType": "address",
          "name": "from",
          "type": "address"
        },
        {
          "internalType": "address",
          "name": "to",
          "type": "address"
        },
        {
          "internalType": "uint256",
          "name": "tokenId",
          "type": "uint256"
        },
        {
          "internalType": "bytes",
          "name": "_data",
          "type": "bytes"
        }
      ],
      "name": "safeTransferFrom",
      "outputs": [],
      "stateMutability": "payable",
      "type": "function"
    },
    {
      "inputs": [
        {
          "internalType": "address",
          "name": "operator",
          "type": "address"
        },
        {
          "internalType": "bool",
          "name": "approved",
          "type": "bool"
        }
      ],
      "name": "setApprovalForAll",
      "outputs": [],
      "stateMutability": "nonpayable",
      "type": "function"
    },
    {
      "inputs": [
        {
          "internalType": "string",
          "name": "uri",
          "type": "string"
        }
      ],
      "name": "setBaseURI",
      "outputs": [],
      "stateMutability": "nonpayable",
      "type": "function"
    },
    {
      "inputs": [
        {
          "internalType": "address",
          "name": "factoryContractAddress",
          "type": "address"
        }
      ],
      "name": "setFactoryContractAddress",
      "outputs": [],
      "stateMutability": "nonpayable",
      "type": "function"
    },
    {
      "inputs": [
        {
          "internalType": "bytes4",
          "name": "interfaceId",
          "type": "bytes4"
        }
      ],
      "name": "supportsInterface",
      "outputs": [
        {
          "internalType": "bool",
          "name": "",
          "type": "bool"
        }
      ],
      "stateMutability": "view",
      "type": "function"
    },
    {
      "inputs": [],
      "name": "symbol",
      "outputs": [
        {
          "internalType": "string",
          "name": "",
          "type": "string"
        }
      ],
      "stateMutability": "view",
      "type": "function"
    },
    {
      "inputs": [
        {
          "internalType": "uint256",
          "name": "tokenId",
          "type": "uint256"
        }
      ],
      "name": "tokenURI",
      "outputs": [
        {
          "internalType": "string",
          "name": "",
          "type": "string"
        }
      ],
      "stateMutability": "view",
      "type": "function"
    },
    {
      "inputs": [],
      "name": "totalSupply",
      "outputs": [
        {
          "internalType": "uint256",
          "name": "",
          "type": "uint256"
        }
      ],
      "stateMutability": "view",
      "type": "function"
    },
    {
      "inputs": [
        {
          "internalType": "address",
          "name": "from",
          "type": "address"
        },
        {
          "internalType": "address",
          "name": "to",
          "type": "address"
        },
        {
          "internalType": "uint256",
          "name": "tokenId",
          "type": "uint256"
        }
      ],
      "name": "transferFrom",
      "outputs": [],
      "stateMutability": "payable",
      "type": "function"
    }
  ],
  "bytecode": "0x60a06040523480156200001157600080fd5b5060405162001e0638038062001e06833981016040819052620000349162000214565b8484600262000044838262000362565b50600362000053828262000362565b506000805550506001600955600a6200006d848262000362565b5060808290526200009f7f1caaad001d37332aad0e8c4e614e2be87e2ff78ad235d12c76cd566510d919f382620000aa565b50505050506200042e565b60008281526008602090815260408083206001600160a01b038516845290915290205460ff166200014b5760008281526008602090815260408083206001600160a01b03851684529091529020805460ff191660011790556200010a3390565b6001600160a01b0316816001600160a01b0316837f2f8788117e7eff1d82e926ec794901d17c78024a50270940304540a733656f0d60405160405180910390a45b5050565b634e487b7160e01b600052604160045260246000fd5b600082601f8301126200017757600080fd5b81516001600160401b03808211156200019457620001946200014f565b604051601f8301601f19908116603f01168101908282118183101715620001bf57620001bf6200014f565b81604052838152602092508683858801011115620001dc57600080fd5b600091505b83821015620002005785820183015181830184015290820190620001e1565b600093810190920192909252949350505050565b600080600080600060a086880312156200022d57600080fd5b85516001600160401b03808211156200024557600080fd5b6200025389838a0162000165565b965060208801519150808211156200026a57600080fd5b6200027889838a0162000165565b955060408801519150808211156200028f57600080fd5b506200029e8882890162000165565b60608801516080890151919550935090506001600160a01b0381168114620002c557600080fd5b809150509295509295909350565b600181811c90821680620002e857607f821691505b6020821081036200030957634e487b7160e01b600052602260045260246000fd5b50919050565b601f8211156200035d57600081815260208120601f850160051c81016020861015620003385750805b601f850160051c820191505b81811015620003595782815560010162000344565b5050505b505050565b81516001600160401b038111156200037e576200037e6200014f565b62000396816200038f8454620002d3565b846200030f565b602080601f831160018114620003ce5760008415620003b55750858301515b600019600386901b1c1916600185901b17855562000359565b600085815260208120601f198616915b82811015620003ff57888601518255948401946001909101908401620003de565b50858210156200041e5787850151600019600388901b60f8161c191681555b5050505050600190811b01905550565b6080516119b562000451600039600081816102e80152610ace01526119b56000f3fe6080604052600436106101815760003560e01c806355f804b3116100d157806395d89b411161008a578063b88d4fde11610064578063b88d4fde1461045c578063c87b56dd1461046f578063d547741f1461048f578063e985e9c5146104af57600080fd5b806395d89b4114610412578063a217fddf14610427578063a22cb4651461043c57600080fd5b806355f804b31461035d5780636352211e1461037d57806370a082311461039d578063714c5398146103bd57806379c65068146103d257806391d14854146103f257600080fd5b806323b872dd1161013e57806332cb6b0c1161011857806332cb6b0c146102d657806336568abe1461030a57806338de44481461032a57806342842e0e1461034a57600080fd5b806323b872dd14610273578063248a9ca3146102865780632f2ff15d146102b657600080fd5b806301ffc9a71461018657806306fdde03146101bb578063081812fc146101dd5780630907c57d14610215578063095ea7b31461024557806318160ddd1461025a575b600080fd5b34801561019257600080fd5b506101a66101a1366004611358565b6104f8565b60405190151581526020015b60405180910390f35b3480156101c757600080fd5b506101d0610509565b6040516101b291906113c5565b3480156101e957600080fd5b506101fd6101f83660046113d8565b61059b565b6040516001600160a01b0390911681526020016101b2565b34801561022157600080fd5b5061023760008051602061196083398151915281565b6040519081526020016101b2565b61025861025336600461140d565b6105df565b005b34801561026657600080fd5b5060015460005403610237565b610258610281366004611437565b61067f565b34801561029257600080fd5b506102376102a13660046113d8565b60009081526008602052604090206001015490565b3480156102c257600080fd5b506102586102d1366004611473565b610818565b3480156102e257600080fd5b506102377f000000000000000000000000000000000000000000000000000000000000000081565b34801561031657600080fd5b50610258610325366004611473565b610842565b34801561033657600080fd5b5061025861034536600461149f565b6108c5565b610258610358366004611437565b61095d565b34801561036957600080fd5b506102586103783660046114ba565b610978565b34801561038957600080fd5b506101fd6103983660046113d8565b6109dc565b3480156103a957600080fd5b506102376103b836600461149f565b6109e7565b3480156103c957600080fd5b506101d0610a36565b3480156103de57600080fd5b506102586103ed36600461140d565b610a45565b3480156103fe57600080fd5b506101a661040d366004611473565b610b5f565b34801561041e57600080fd5b506101d0610b8a565b34801561043357600080fd5b50610237600081565b34801561044857600080fd5b5061025861045736600461152c565b610b99565b61025861046a36600461157e565b610c05565b34801561047b57600080fd5b506101d061048a3660046113d8565b610c4f565b34801561049b57600080fd5b506102586104aa366004611473565b610cd3565b3480156104bb57600080fd5b506101a66104ca36600461165a565b6001600160a01b03918216600090815260076020908152604080832093909416825291909152205460ff1690565b600061050382610cf8565b92915050565b60606002805461051890611684565b80601f016020809104026020016040519081016040528092919081815260200182805461054490611684565b80156105915780601f1061056657610100808354040283529160200191610591565b820191906000526020600020905b81548152906001019060200180831161057457829003601f168201915b5050505050905090565b60006105a682610d2d565b6105c3576040516333d1c03960e21b815260040160405180910390fd5b506000908152600660205260409020546001600160a01b031690565b60006105ea826109dc565b9050336001600160a01b038216146106235761060681336104ca565b610623576040516367d9dca160e11b815260040160405180910390fd5b60008281526006602052604080822080546001600160a01b0319166001600160a01b0387811691821790925591518593918516917f8c5be1e5ebec7d5bd14f71427d1e84f3dd0314c0f7b2291e5b200ac8c7c3b92591a4505050565b600061068a82610d54565b9050836001600160a01b0316816001600160a01b0316146106bd5760405162a1148160e81b815260040160405180910390fd5b60008281526006602052604090208054338082146001600160a01b0388169091141761070a576106ed86336104ca565b61070a57604051632ce44b5f60e11b815260040160405180910390fd5b6001600160a01b03851661073157604051633a954ecd60e21b815260040160405180910390fd5b801561073c57600082555b6001600160a01b038681166000908152600560205260408082208054600019019055918716808252919020805460010190554260a01b17600160e11b17600085815260046020526040812091909155600160e11b841690036107ce576001840160008181526004602052604081205490036107cc5760005481146107cc5760008181526004602052604090208490555b505b83856001600160a01b0316876001600160a01b03167fddf252ad1be2c89b69c2b068fc378daa952ba7f163c4a11628f55a4df523b3ef60405160405180910390a45b505050505050565b60008281526008602052604090206001015461083381610dbb565b61083d8383610dc8565b505050565b6001600160a01b03811633146108b75760405162461bcd60e51b815260206004820152602f60248201527f416363657373436f6e74726f6c3a2063616e206f6e6c792072656e6f756e636560448201526e103937b632b9903337b91039b2b63360891b60648201526084015b60405180910390fd5b6108c18282610e4e565b5050565b6000805160206119608339815191526108dd81610dbb565b6001600160a01b0382166109455760405162461bcd60e51b815260206004820152602960248201527f636f6e74726163742061646472657373206d757374206e6f74206265207a65726044820152686f206164647265737360b81b60648201526084016108ae565b6108c160008051602061196083398151915283610dc8565b61083d83838360405180602001604052806000815250610c05565b60008051602061196083398151915261099081610dbb565b600a61099d838583611704565b507f23c8c9488efebfd474e85a7956de6f39b17c7ab88502d42a623db2d8e382bbaa83836040516109cf9291906117c5565b60405180910390a1505050565b600061050382610d54565b60006001600160a01b038216610a10576040516323d3ad8160e21b815260040160405180910390fd5b506001600160a01b031660009081526005602052604090205467ffffffffffffffff1690565b6060600a805461051890611684565b600080516020611960833981519152610a5d81610dbb565b610a65610eb5565b6001600160a01b038316610abb5760405162461bcd60e51b815260206004820181905260248201527f41646472657373206d757374206e6f74206265207a65726f206164647265737360448201526064016108ae565b6000610aca6001546000540390565b90507f0000000000000000000000000000000000000000000000000000000000000000811115610b4a5760405162461bcd60e51b815260206004820152602560248201527f43616e6e6f74206d696e74206d6f7265207468616e204d41585f535550504c59604482015264204e46547360d81b60648201526084016108ae565b610b548484610f0e565b5061083d6001600955565b60009182526008602090815260408084206001600160a01b0393909316845291905290205460ff1690565b60606003805461051890611684565b3360008181526007602090815260408083206001600160a01b03871680855290835292819020805460ff191686151590811790915590519081529192917f17307eab39ab6107e8899845ad3d59bd9653f200f220920489ca2b5937696c31910160405180910390a35050565b610c1084848461067f565b6001600160a01b0383163b15610c4957610c2c8484848461100c565b610c49576040516368d2bf6b60e11b815260040160405180910390fd5b50505050565b6060610c5a82610d2d565b610c7757604051630a14c4b560e41b815260040160405180910390fd5b6000610c81610a36565b90508051600003610ca15760405180602001604052806000815250610ccc565b80610cab846110f7565b604051602001610cbc9291906117f4565b6040516020818303038152906040525b9392505050565b600082815260086020526040902060010154610cee81610dbb565b61083d8383610e4e565b60006001600160e01b03198216637965db0b60e01b148061050357506301ffc9a760e01b6001600160e01b0319831614610503565b6000805482108015610503575050600090815260046020526040902054600160e01b161590565b600081600054811015610da25760008181526004602052604081205490600160e01b82169003610da0575b80600003610ccc575060001901600081815260046020526040902054610d7f565b505b604051636f96cda160e11b815260040160405180910390fd5b610dc5813361113b565b50565b610dd28282610b5f565b6108c15760008281526008602090815260408083206001600160a01b03851684529091529020805460ff19166001179055610e0a3390565b6001600160a01b0316816001600160a01b0316837f2f8788117e7eff1d82e926ec794901d17c78024a50270940304540a733656f0d60405160405180910390a45050565b610e588282610b5f565b156108c15760008281526008602090815260408083206001600160a01b0385168085529252808320805460ff1916905551339285917ff6391f5c32d9c69d2a47ea670b442974b53935d1edc7fd64eb21e047a839171b9190a45050565b600260095403610f075760405162461bcd60e51b815260206004820152601f60248201527f5265656e7472616e637947756172643a207265656e7472616e742063616c6c0060448201526064016108ae565b6002600955565b6000805490829003610f335760405163b562e8dd60e01b815260040160405180910390fd5b6001600160a01b03831660008181526005602090815260408083208054680100000000000000018802019055848352600490915281206001851460e11b4260a01b178317905582840190839083907fddf252ad1be2c89b69c2b068fc378daa952ba7f163c4a11628f55a4df523b3ef8180a4600183015b818114610fe257808360007fddf252ad1be2c89b69c2b068fc378daa952ba7f163c4a11628f55a4df523b3ef600080a4600101610faa565b508160000361100357604051622e076360e81b815260040160405180910390fd5b60005550505050565b604051630a85bd0160e11b81526000906001600160a01b0385169063150b7a0290611041903390899088908890600401611823565b6020604051808303816000875af192505050801561107c575060408051601f3d908101601f1916820190925261107991810190611860565b60015b6110da573d8080156110aa576040519150601f19603f3d011682016040523d82523d6000602084013e6110af565b606091505b5080516000036110d2576040516368d2bf6b60e11b815260040160405180910390fd5b805181602001fd5b6001600160e01b031916630a85bd0160e11b149050949350505050565b606060a06040510180604052602081039150506000815280825b600183039250600a81066030018353600a9004806111115750819003601f19909101908152919050565b6111458282610b5f565b6108c15761115281611194565b61115d8360206111a6565b60405160200161116e92919061187d565b60408051601f198184030181529082905262461bcd60e51b82526108ae916004016113c5565b60606105036001600160a01b03831660145b606060006111b5836002611908565b6111c090600261191f565b67ffffffffffffffff8111156111d8576111d8611568565b6040519080825280601f01601f191660200182016040528015611202576020820181803683370190505b509050600360fc1b8160008151811061121d5761121d611932565b60200101906001600160f81b031916908160001a905350600f60fb1b8160018151811061124c5761124c611932565b60200101906001600160f81b031916908160001a9053506000611270846002611908565b61127b90600161191f565b90505b60018111156112f3576f181899199a1a9b1b9c1cb0b131b232b360811b85600f16601081106112af576112af611932565b1a60f81b8282815181106112c5576112c5611932565b60200101906001600160f81b031916908160001a90535060049490941c936112ec81611948565b905061127e565b508315610ccc5760405162461bcd60e51b815260206004820181905260248201527f537472696e67733a20686578206c656e67746820696e73756666696369656e7460448201526064016108ae565b6001600160e01b031981168114610dc557600080fd5b60006020828403121561136a57600080fd5b8135610ccc81611342565b60005b83811015611390578181015183820152602001611378565b50506000910152565b600081518084526113b1816020860160208601611375565b601f01601f19169290920160200192915050565b602081526000610ccc6020830184611399565b6000602082840312156113ea57600080fd5b5035919050565b80356001600160a01b038116811461140857600080fd5b919050565b6000806040838503121561142057600080fd5b611429836113f1565b946020939093013593505050565b60008060006060848603121561144c57600080fd5b611455846113f1565b9250611463602085016113f1565b9150604084013590509250925092565b6000806040838503121561148657600080fd5b82359150611496602084016113f1565b90509250929050565b6000602082840312156114b157600080fd5b610ccc826113f1565b600080602083850312156114cd57600080fd5b823567ffffffffffffffff808211156114e557600080fd5b818501915085601f8301126114f957600080fd5b81358181111561150857600080fd5b86602082850101111561151a57600080fd5b60209290920196919550909350505050565b6000806040838503121561153f57600080fd5b611548836113f1565b91506020830135801515811461155d57600080fd5b809150509250929050565b634e487b7160e01b600052604160045260246000fd5b6000806000806080858703121561159457600080fd5b61159d856113f1565b93506115ab602086016113f1565b925060408501359150606085013567ffffffffffffffff808211156115cf57600080fd5b818701915087601f8301126115e357600080fd5b8135818111156115f5576115f5611568565b604051601f8201601f19908116603f0116810190838211818310171561161d5761161d611568565b816040528281528a602084870101111561163657600080fd5b82602086016020830137600060208483010152809550505050505092959194509250565b6000806040838503121561166d57600080fd5b611676836113f1565b9150611496602084016113f1565b600181811c9082168061169857607f821691505b6020821081036116b857634e487b7160e01b600052602260045260246000fd5b50919050565b601f82111561083d57600081815260208120601f850160051c810160208610156116e55750805b601f850160051c820191505b81811015610810578281556001016116f1565b67ffffffffffffffff83111561171c5761171c611568565b6117308361172a8354611684565b836116be565b6000601f841160018114611764576000851561174c5750838201355b600019600387901b1c1916600186901b1783556117be565b600083815260209020601f19861690835b828110156117955786850135825560209485019460019092019101611775565b50868210156117b25760001960f88860031b161c19848701351681555b505060018560011b0183555b5050505050565b60208152816020820152818360408301376000818301604090810191909152601f909201601f19160101919050565b60008351611806818460208801611375565b83519083019061181a818360208801611375565b01949350505050565b6001600160a01b038581168252841660208201526040810183905260806060820181905260009061185690830184611399565b9695505050505050565b60006020828403121561187257600080fd5b8151610ccc81611342565b7f416363657373436f6e74726f6c3a206163636f756e74200000000000000000008152600083516118b5816017850160208801611375565b7001034b99036b4b9b9b4b733903937b6329607d1b60179184019182015283516118e6816028840160208801611375565b01602801949350505050565b634e487b7160e01b600052601160045260246000fd5b8082028115828204841417610503576105036118f2565b80820180821115610503576105036118f2565b634e487b7160e01b600052603260045260246000fd5b600081611957576119576118f2565b50600019019056fe1caaad001d37332aad0e8c4e614e2be87e2ff78ad235d12c76cd566510d919f3a264697066735822122039cde4d163a2906b8a603e1ab3f7ffcdafbac5d85ef0c3f418d560a5f2de9d2c64736f6c63430008110033",
  "linkReferences": {},
  "deployedLinkReferences": {}
}