{
  "_format": "hh-sol-artifact-1",
  "contractName": "DepositFactoryContract",
  "sourceName": "contracts/parents/DepositFactoryContract.sol",
  "abi": [
    {
      "inputs": [
        {
          "internalType": "address",
          "name": "acceptToken",
          "type": "address"
        },
        {
          "internalType": "address",
          "name": "owner",
          "type": "address"
        },
        {
          "internalType": "address",
          "name": "adminWallet",
          "type": "address"
        },
        {
          "internalType": "address",
          "name": "depositRoleAccount",
          "type": "address"
        }
      ],
      "stateMutability": "nonpayable",
      "type": "constructor"
    },
    {
      "anonymous": false,
      "inputs": [
        {
          "indexed": false,
          "internalType": "address",
          "name": "seller",
          "type": "address"
        },
        {
          "indexed": false,
          "internalType": "address",
          "name": "receiveFactoryContract",
          "type": "address"
        },
        {
          "indexed": false,
          "internalType": "uint16",
          "name": "dstChainId",
          "type": "uint16"
        }
      ],
      "name": "CreatedLZSenderContract",
      "type": "event"
    },
    {
      "anonymous": false,
      "inputs": [
        {
          "components": [
            {
              "internalType": "uint256",
              "name": "mintPrice",
              "type": "uint256"
            },
            {
              "internalType": "uint256",
              "name": "mintQuantity",
              "type": "uint256"
            },
            {
              "internalType": "address",
              "name": "sellerAddress",
              "type": "address"
            },
            {
              "internalType": "uint16",
              "name": "dstChainId",
              "type": "uint16"
            },
            {
              "internalType": "bool",
              "name": "isMintAvailable",
              "type": "bool"
            },
            {
              "internalType": "uint256",
              "name": "deadline",
              "type": "uint256"
            }
          ],
          "indexed": false,
          "internalType": "struct DepositItem",
          "name": "depositItem",
          "type": "tuple"
        }
      ],
      "name": "DepositedToken",
      "type": "event"
    },
    {
      "anonymous": false,
      "inputs": [
        {
          "indexed": false,
          "internalType": "address",
          "name": "account",
          "type": "address"
        }
      ],
      "name": "Paused",
      "type": "event"
    },
    {
      "anonymous": false,
      "inputs": [
        {
          "indexed": true,
          "internalType": "bytes32",
          "name": "role",
          "type": "bytes32"
        },
        {
          "indexed": true,
          "internalType": "bytes32",
          "name": "previousAdminRole",
          "type": "bytes32"
        },
        {
          "indexed": true,
          "internalType": "bytes32",
          "name": "newAdminRole",
          "type": "bytes32"
        }
      ],
      "name": "RoleAdminChanged",
      "type": "event"
    },
    {
      "anonymous": false,
      "inputs": [
        {
          "indexed": true,
          "internalType": "bytes32",
          "name": "role",
          "type": "bytes32"
        },
        {
          "indexed": true,
          "internalType": "address",
          "name": "account",
          "type": "address"
        },
        {
          "indexed": true,
          "internalType": "address",
          "name": "sender",
          "type": "address"
        }
      ],
      "name": "RoleGranted",
      "type": "event"
    },
    {
      "anonymous": false,
      "inputs": [
        {
          "indexed": true,
          "internalType": "bytes32",
          "name": "role",
          "type": "bytes32"
        },
        {
          "indexed": true,
          "internalType": "address",
          "name": "account",
          "type": "address"
        },
        {
          "indexed": true,
          "internalType": "address",
          "name": "sender",
          "type": "address"
        }
      ],
      "name": "RoleRevoked",
      "type": "event"
    },
    {
      "anonymous": false,
      "inputs": [
        {
          "indexed": false,
          "internalType": "address",
          "name": "adminWallet",
          "type": "address"
        }
      ],
      "name": "SetAdminWallet",
      "type": "event"
    },
    {
      "anonymous": false,
      "inputs": [
        {
          "indexed": false,
          "internalType": "uint96",
          "name": "platformFee",
          "type": "uint96"
        }
      ],
      "name": "SetPlatformFee",
      "type": "event"
    },
    {
      "anonymous": false,
      "inputs": [
        {
          "indexed": false,
          "internalType": "address",
          "name": "account",
          "type": "address"
        }
      ],
      "name": "Unpaused",
      "type": "event"
    },
    {
      "inputs": [],
      "name": "DEFAULT_ADMIN_ROLE",
      "outputs": [
        {
          "internalType": "bytes32",
          "name": "",
          "type": "bytes32"
        }
      ],
      "stateMutability": "view",
      "type": "function"
    },
    {
      "inputs": [],
      "name": "DEPOSIT_ROLE",
      "outputs": [
        {
          "internalType": "bytes32",
          "name": "",
          "type": "bytes32"
        }
      ],
      "stateMutability": "view",
      "type": "function"
    },
    {
      "inputs": [
        {
          "internalType": "address",
          "name": "layerZeroEndpoint",
          "type": "address"
        },
        {
          "internalType": "address",
          "name": "receiveFactoryContract",
          "type": "address"
        },
        {
          "internalType": "uint16",
          "name": "dstChainId",
          "type": "uint16"
        }
      ],
      "name": "createLZsenderContractBySeller",
      "outputs": [],
      "stateMutability": "nonpayable",
      "type": "function"
    },
    {
      "inputs": [
        {
          "components": [
            {
              "internalType": "uint256",
              "name": "mintPrice",
              "type": "uint256"
            },
            {
              "internalType": "uint256",
              "name": "mintQuantity",
              "type": "uint256"
            },
            {
              "internalType": "address",
              "name": "sellerAddress",
              "type": "address"
            },
            {
              "internalType": "uint16",
              "name": "dstChainId",
              "type": "uint16"
            },
            {
              "internalType": "bool",
              "name": "isMintAvailable",
              "type": "bool"
            },
            {
              "internalType": "uint256",
              "name": "deadline",
              "type": "uint256"
            }
          ],
          "internalType": "struct DepositItem",
          "name": "depositItem",
          "type": "tuple"
        },
        {
          "internalType": "bytes",
          "name": "signature",
          "type": "bytes"
        },
        {
          "internalType": "uint256",
          "name": "lzGasFee",
          "type": "uint256"
        }
      ],
      "name": "depositTokenByClient",
      "outputs": [],
      "stateMutability": "payable",
      "type": "function"
    },
    {
      "inputs": [
        {
          "internalType": "bytes32",
          "name": "role",
          "type": "bytes32"
        }
      ],
      "name": "getRoleAdmin",
      "outputs": [
        {
          "internalType": "bytes32",
          "name": "",
          "type": "bytes32"
        }
      ],
      "stateMutability": "view",
      "type": "function"
    },
    {
      "inputs": [
        {
          "internalType": "bytes32",
          "name": "role",
          "type": "bytes32"
        },
        {
          "internalType": "address",
          "name": "account",
          "type": "address"
        }
      ],
      "name": "grantRole",
      "outputs": [],
      "stateMutability": "nonpayable",
      "type": "function"
    },
    {
      "inputs": [
        {
          "internalType": "bytes32",
          "name": "role",
          "type": "bytes32"
        },
        {
          "internalType": "address",
          "name": "account",
          "type": "address"
        }
      ],
      "name": "hasRole",
      "outputs": [
        {
          "internalType": "bool",
          "name": "",
          "type": "bool"
        }
      ],
      "stateMutability": "view",
      "type": "function"
    },
    {
      "inputs": [
        {
          "internalType": "address",
          "name": "",
          "type": "address"
        },
        {
          "internalType": "uint16",
          "name": "",
          "type": "uint16"
        }
      ],
      "name": "lzSenderContracts",
      "outputs": [
        {
          "internalType": "address",
          "name": "",
          "type": "address"
        }
      ],
      "stateMutability": "view",
      "type": "function"
    },
    {
      "inputs": [],
      "name": "pause",
      "outputs": [],
      "stateMutability": "nonpayable",
      "type": "function"
    },
    {
      "inputs": [],
      "name": "paused",
      "outputs": [
        {
          "internalType": "bool",
          "name": "",
          "type": "bool"
        }
      ],
      "stateMutability": "view",
      "type": "function"
    },
    {
      "inputs": [],
      "name": "platformFee",
      "outputs": [
        {
          "internalType": "uint96",
          "name": "",
          "type": "uint96"
        }
      ],
      "stateMutability": "view",
      "type": "function"
    },
    {
      "inputs": [
        {
          "internalType": "bytes32",
          "name": "role",
          "type": "bytes32"
        },
        {
          "internalType": "address",
          "name": "account",
          "type": "address"
        }
      ],
      "name": "renounceRole",
      "outputs": [],
      "stateMutability": "nonpayable",
      "type": "function"
    },
    {
      "inputs": [
        {
          "internalType": "bytes32",
          "name": "role",
          "type": "bytes32"
        },
        {
          "internalType": "address",
          "name": "account",
          "type": "address"
        }
      ],
      "name": "revokeRole",
      "outputs": [],
      "stateMutability": "nonpayable",
      "type": "function"
    },
    {
      "inputs": [
        {
          "internalType": "address",
          "name": "adminWallet_",
          "type": "address"
        }
      ],
      "name": "setAdminWallet",
      "outputs": [],
      "stateMutability": "nonpayable",
      "type": "function"
    },
    {
      "inputs": [
        {
          "internalType": "uint96",
          "name": "platformFee_",
          "type": "uint96"
        }
      ],
      "name": "setPlatformFee",
      "outputs": [],
      "stateMutability": "nonpayable",
      "type": "function"
    },
    {
      "inputs": [
        {
          "internalType": "address",
          "name": "account",
          "type": "address"
        }
      ],
      "name": "setupDepositRole",
      "outputs": [],
      "stateMutability": "nonpayable",
      "type": "function"
    },
    {
      "inputs": [
        {
          "internalType": "bytes4",
          "name": "interfaceId",
          "type": "bytes4"
        }
      ],
      "name": "supportsInterface",
      "outputs": [
        {
          "internalType": "bool",
          "name": "",
          "type": "bool"
        }
      ],
      "stateMutability": "view",
      "type": "function"
    },
    {
      "inputs": [],
      "name": "unpause",
      "outputs": [],
      "stateMutability": "nonpayable",
      "type": "function"
    }
  ],
  "bytecode": "0x61016060405260028054610100600160681b03191661fa001790553480156200002757600080fd5b50604051620049a8380380620049a88339810160408190526200004a91620002fa565b604080518082018252601781527f4d756c7469636861696e4d696e74696e67456e67696e650000000000000000006020808301918252835180850190945260058452640312e302e360dc1b908401528151902060e08190527f06c015bd22b4c69690933c1058878ebdfef31f9aaae40bbe86d8a09fe1b2972c6101008190524660a0529192917f8b73c3c69bb8fe3d512ecc4cf759cc79239f7b179b0ffacaa9a75d522b39400f620001418184846040805160208101859052908101839052606081018290524660808201523060a082015260009060c0016040516020818303038152906040528051906020012090509392505050565b6080523060c0526101205250506001805550506002805460ff191690556001600160a01b038416620001c45760405162461bcd60e51b815260206004820152602260248201527f416363657074546f6b656e2063616e6e6f74206265207a65726f206164647265604482015261737360f01b606482015260840160405180910390fd5b6001600160a01b0384811661014052600380546001600160a01b031916918416919091179055620001f76000846200022d565b620002237f2561bf26f818282a3be40719542054d2173eb0d38539e8a8d3cff22f29fd2384826200022d565b5050505062000357565b6200023982826200023d565b5050565b6000828152602081815260408083206001600160a01b038516845290915290205460ff1662000239576000828152602081815260408083206001600160a01b03851684529091529020805460ff19166001179055620002993390565b6001600160a01b0316816001600160a01b0316837f2f8788117e7eff1d82e926ec794901d17c78024a50270940304540a733656f0d60405160405180910390a45050565b80516001600160a01b0381168114620002f557600080fd5b919050565b600080600080608085870312156200031157600080fd5b6200031c85620002dd565b93506200032c60208601620002dd565b92506200033c60408601620002dd565b91506200034c60608601620002dd565b905092959194509250565b60805160a05160c05160e0516101005161012051610140516145ef620003b96000396000818161097401526109c101526000611377015260006113c6015260006113a1015260006112f8015260006113230152600061134e01526145ef6000f3fe6080604052600436106200011f5760003560e01c806354b317d111620000a1578063a217fddf116200006c578063a217fddf1462000333578063a94d13f7146200034a578063d547741f14620003a8578063eea16b8414620003cd578063f99e5dbb14620003f257600080fd5b806354b317d114620002b75780635c975abb14620002dc5780638456cb5914620002f657806391d14854146200030e57600080fd5b80633508293311620000ee578063350829331462000208578063353efdcf146200022d57806336568abe14620002635780633f4ba83a14620002885780634d748d9214620002a057600080fd5b806301ffc9a71462000124578063248a9ca3146200015e57806326232a2e14620001a15780632f2ff15d14620001e1575b600080fd5b3480156200013157600080fd5b50620001496200014336600462001a45565b62000417565b60405190151581526020015b60405180910390f35b3480156200016b57600080fd5b50620001926200017d36600462001a71565b60009081526020819052604090206001015490565b60405190815260200162000155565b348015620001ae57600080fd5b50600254620001c89061010090046001600160601b031681565b6040516001600160601b03909116815260200162000155565b348015620001ee57600080fd5b50620002066200020036600462001aa8565b6200042a565b005b3480156200021557600080fd5b50620002066200022736600462001ad7565b62000458565b3480156200023a57600080fd5b50620001927f2561bf26f818282a3be40719542054d2173eb0d38539e8a8d3cff22f29fd238481565b3480156200027057600080fd5b50620002066200028236600462001aa8565b6200052c565b3480156200029557600080fd5b5062000206620005ae565b62000206620002b136600462001af5565b620005c8565b348015620002c457600080fd5b5062000206620002d636600462001ba0565b62000a37565b348015620002e957600080fd5b5060025460ff1662000149565b3480156200030357600080fd5b506200020662000bab565b3480156200031b57600080fd5b50620001496200032d36600462001aa8565b62000bc2565b3480156200034057600080fd5b5062000192600081565b3480156200035757600080fd5b506200038f6200036936600462001bea565b60056020908152600092835260408084209091529082529020546001600160a01b031681565b6040516001600160a01b03909116815260200162000155565b348015620003b557600080fd5b5062000206620003c736600462001aa8565b62000beb565b348015620003da57600080fd5b5062000206620003ec36600462001ad7565b62000c14565b348015620003ff57600080fd5b50620002066200041136600462001c19565b62000c4d565b6000620004248262000d86565b92915050565b600082815260208190526040902060010154620004478162000dbd565b62000453838362000dc9565b505050565b6000620004658162000dbd565b6001600160a01b038216620004d65760405162461bcd60e51b815260206004820152602c60248201527f61646d696e57616c6c65742061646472657373206d757374206e6f742062652060448201526b7a65726f206164647265737360a01b60648201526084015b60405180910390fd5b600380546001600160a01b0319166001600160a01b0384169081179091556040519081527f1b651cfd0a3f185590087e7e632381434dfada46f037b9081264f9f5bdbfcd9b906020015b60405180910390a15050565b6001600160a01b03811633146200059e5760405162461bcd60e51b815260206004820152602f60248201527f416363657373436f6e74726f6c3a2063616e206f6e6c792072656e6f756e636560448201526e103937b632b9903337b91039b2b63360891b6064820152608401620004cd565b620005aa828262000e51565b5050565b6000620005bb8162000dbd565b620005c562000eb9565b50565b620005d262000f0d565b620005dc62000f68565b3332146200062d5760405162461bcd60e51b815260206004820152601f60248201527f436f6e74726163742061646472657373206973206e6f7420616c6c6f776564006044820152606401620004cd565b8360a00135421115620006835760405162461bcd60e51b815260206004820152601d60248201527f496e76616c69642065787069726174696f6e20696e206465706f7369740000006044820152606401620004cd565b6200069560a085016080860162001c60565b620006db5760405162461bcd60e51b81526020600482015260156024820152744d696e74206973206e6f7420617661696c61626c6560581b6044820152606401620004cd565b6000600581620006f2606088016040890162001ad7565b6001600160a01b03168152602081019190915260400160009081209062000720608088016060890162001c80565b61ffff1681526020810191909152604001600020546001600160a01b03169050806200078f5760405162461bcd60e51b815260206004820181905260248201527f4c5a53656e64657220636f6e7472616374206973206e6f7420637265617465646044820152606401620004cd565b62000805620007c8620007c2620007ac3689900389018962001cb4565b3360009081526004602052604090205462000fb2565b6200106a565b85858080601f0160208091040260200160405190810160405280939291908181526020018383808284376000920191909152506200108192505050565b620008475760405162461bcd60e51b8152602060048201526011602482015270496e76616c6964207369676e617475726560781b6044820152606401620004cd565b3360009081526004602052604081208054600101905560025461271087356101009092046001600160601b031682020491906200088690839062001d6f565b90506000336020890135620008a260608b0160408c0162001ad7565b6040516bffffffffffffffffffffffff19606094851b811660208301526034820193909352921b166054820152606801604051602081830303815290604052905062000961848233604051602401620008fd92919062001dd9565b60408051601f19818403018152918152602080830180516001600160e01b0316630b0374eb60e21b1790528151808301909252601982527f4661696c656420746f2073656e64204c5a206d65737361676500000000000000908201528890620010bb565b50600354620009a0906001600160a01b037f000000000000000000000000000000000000000000000000000000000000000081169133911686620011a0565b620009ea33620009b760608b0160408c0162001ad7565b6001600160a01b037f000000000000000000000000000000000000000000000000000000000000000016919085620011a0565b7f2f54e8025778f8c9994df64d5a3cccc164943effdce0ad2aeaf891dbb6968dae8860405162000a1b919062001e05565b60405180910390a15050505062000a3160018055565b50505050565b6000838260405162000a499062001a37565b6001600160a01b03909216825261ffff166020820152604001604051809103906000f08015801562000a7f573d6000803e3d6000fd5b506040516bffffffffffffffffffffffff19606086811b8216602084015283901b166034820152909150819060009060480160408051601f198184030181529082905263eb8d72b760e01b825291506001600160a01b0384169063eb8d72b79062000af1908790859060040162001e73565b600060405180830381600087803b15801562000b0c57600080fd5b505af115801562000b21573d6000803e3d6000fd5b505033600081815260056020908152604080832061ffff8b168085529083529281902080546001600160a01b0319166001600160a01b038a81169190911790915581519485528b16918401919091528201527f0ed3118257f65b09800eb55a189dadb80679f57cadd83e3b8f112ecf7974cfad9250606001905060405180910390a1505050505050565b600062000bb88162000dbd565b620005c5620011fc565b6000918252602082815260408084206001600160a01b0393909316845291905290205460ff1690565b60008281526020819052604090206001015462000c088162000dbd565b62000453838362000e51565b600062000c218162000dbd565b620005aa7f2561bf26f818282a3be40719542054d2173eb0d38539e8a8d3cff22f29fd23848362000dc9565b600062000c5a8162000dbd565b6000826001600160601b03161162000cc35760405162461bcd60e51b815260206004820152602560248201527f706c6174666f726d466565206d7573742062652067726561746572207468616e604482015264207a65726f60d81b6064820152608401620004cd565b612710826001600160601b03161062000d2a5760405162461bcd60e51b815260206004820152602260248201527f706c6174666f726d466565206d757374206265206c657373207468616e203130604482015261302560f01b6064820152608401620004cd565b600280546cffffffffffffffffffffffff0019166101006001600160601b038516908102919091179091556040519081527fbe3599c33046219ddc3706f4b99caca706dc0f53775580d18a367dc2188c96e59060200162000520565b60006001600160e01b03198216637965db0b60e01b14806200042457506301ffc9a760e01b6001600160e01b031983161462000424565b620005c581336200123c565b62000dd5828262000bc2565b620005aa576000828152602081815260408083206001600160a01b03851684529091529020805460ff1916600117905562000e0d3390565b6001600160a01b0316816001600160a01b0316837f2f8788117e7eff1d82e926ec794901d17c78024a50270940304540a733656f0d60405160405180910390a45050565b62000e5d828262000bc2565b15620005aa576000828152602081815260408083206001600160a01b0385168085529252808320805460ff1916905551339285917ff6391f5c32d9c69d2a47ea670b442974b53935d1edc7fd64eb21e047a839171b9190a45050565b62000ec3620012a0565b6002805460ff191690557f5db9ee0a495bf2e6ff9c91a7834c1ba4fdd244a5e8aa4e537bd38aeae4b073aa335b6040516001600160a01b03909116815260200160405180910390a1565b60026001540362000f615760405162461bcd60e51b815260206004820152601f60248201527f5265656e7472616e637947756172643a207265656e7472616e742063616c6c006044820152606401620004cd565b6002600155565b60025460ff161562000fb05760405162461bcd60e51b815260206004820152601060248201526f14185d5cd8589b194e881c185d5cd95960821b6044820152606401620004cd565b565b60007f67c02de736e9c6dc641c0bcee496661b6fc4f976c46fab69b489896b51083b8c83600001518460200151856040015186606001518760800151878960a001516040516020016200104c989796959493929190978852602088019690965260408701949094526001600160a01b0392909216606086015261ffff166080850152151560a084015260c083015260e08201526101000190565b60405160208183030381529060405280519060200120905092915050565b6000620004246200107a620012eb565b8362001414565b6000620010b47f2561bf26f818282a3be40719542054d2173eb0d38539e8a8d3cff22f29fd23846200032d85856200143c565b9392505050565b6060824710156200111e5760405162461bcd60e51b815260206004820152602660248201527f416464726573733a20696e73756666696369656e742062616c616e636520666f6044820152651c8818d85b1b60d21b6064820152608401620004cd565b600080866001600160a01b031685876040516200113c919062001e92565b60006040518083038185875af1925050503d80600081146200117b576040519150601f19603f3d011682016040523d82523d6000602084013e62001180565b606091505b5091509150620011938783838762001464565b925050505b949350505050565b604080516001600160a01b0385811660248301528416604482015260648082018490528251808303909101815260849091019091526020810180516001600160e01b03166323b872dd60e01b17905262000a31908590620014e4565b6200120662000f68565b6002805460ff191660011790557f62e78cea01bee320cd4e420270b5ea74000d11b0c9f74754ebdbfc544b05a25862000ef03390565b62001248828262000bc2565b620005aa576200125881620015bd565b62001265836020620015d0565b6040516020016200127892919062001eb0565b60408051601f198184030181529082905262461bcd60e51b8252620004cd9160040162001f29565b60025460ff1662000fb05760405162461bcd60e51b815260206004820152601460248201527314185d5cd8589b194e881b9bdd081c185d5cd95960621b6044820152606401620004cd565b6000306001600160a01b037f0000000000000000000000000000000000000000000000000000000000000000161480156200134557507f000000000000000000000000000000000000000000000000000000000000000046145b156200137057507f000000000000000000000000000000000000000000000000000000000000000090565b50604080517f00000000000000000000000000000000000000000000000000000000000000006020808301919091527f0000000000000000000000000000000000000000000000000000000000000000828401527f000000000000000000000000000000000000000000000000000000000000000060608301524660808301523060a0808401919091528351808403909101815260c0909201909252805191012090565b60405161190160f01b602082015260228101839052604281018290526000906062016200104c565b60008060006200144d85856200178a565b915091506200145c81620017d3565b509392505050565b60608315620014d8578251600003620014d0576001600160a01b0385163b620014d05760405162461bcd60e51b815260206004820152601d60248201527f416464726573733a2063616c6c20746f206e6f6e2d636f6e74726163740000006044820152606401620004cd565b508162001198565b62001198838362001930565b60006200153b826040518060400160405280602081526020017f5361666545524332303a206c6f772d6c6576656c2063616c6c206661696c6564815250856001600160a01b03166200195d9092919063ffffffff16565b8051909150156200045357808060200190518101906200155c919062001f3e565b620004535760405162461bcd60e51b815260206004820152602a60248201527f5361666545524332303a204552433230206f7065726174696f6e20646964206e6044820152691bdd081cdd58d8d9595960b21b6064820152608401620004cd565b6060620004246001600160a01b03831660145b60606000620015e183600262001f5e565b620015ee90600262001f78565b67ffffffffffffffff81111562001609576200160962001c9e565b6040519080825280601f01601f19166020018201604052801562001634576020820181803683370190505b509050600360fc1b8160008151811062001652576200165262001f8e565b60200101906001600160f81b031916908160001a905350600f60fb1b8160018151811062001684576200168462001f8e565b60200101906001600160f81b031916908160001a9053506000620016aa84600262001f5e565b620016b790600162001f78565b90505b600181111562001739576f181899199a1a9b1b9c1cb0b131b232b360811b85600f1660108110620016ef57620016ef62001f8e565b1a60f81b82828151811062001708576200170862001f8e565b60200101906001600160f81b031916908160001a90535060049490941c93620017318162001fa4565b9050620016ba565b508315620010b45760405162461bcd60e51b815260206004820181905260248201527f537472696e67733a20686578206c656e67746820696e73756666696369656e746044820152606401620004cd565b6000808251604103620017c45760208301516040840151606085015160001a620017b7878285856200196e565b94509450505050620017cc565b506000905060025b9250929050565b6000816004811115620017ea57620017ea62001fbe565b03620017f35750565b60018160048111156200180a576200180a62001fbe565b03620018595760405162461bcd60e51b815260206004820152601860248201527f45434453413a20696e76616c6964207369676e617475726500000000000000006044820152606401620004cd565b600281600481111562001870576200187062001fbe565b03620018bf5760405162461bcd60e51b815260206004820152601f60248201527f45434453413a20696e76616c6964207369676e6174757265206c656e677468006044820152606401620004cd565b6003816004811115620018d657620018d662001fbe565b03620005c55760405162461bcd60e51b815260206004820152602260248201527f45434453413a20696e76616c6964207369676e6174757265202773272076616c604482015261756560f01b6064820152608401620004cd565b815115620019415781518083602001fd5b8060405162461bcd60e51b8152600401620004cd919062001f29565b6060620011988484600085620010bb565b6000807f7fffffffffffffffffffffffffffffff5d576e7357a4501ddfe92f46681b20a0831115620019a7575060009050600362001a2e565b6040805160008082526020820180845289905260ff881692820192909252606081018690526080810185905260019060a0016020604051602081039080840390855afa158015620019fc573d6000803e3d6000fd5b5050604051601f1901519150506001600160a01b03811662001a275760006001925092505062001a2e565b9150600090505b94509492505050565b6125e58062001fd583390190565b60006020828403121562001a5857600080fd5b81356001600160e01b031981168114620010b457600080fd5b60006020828403121562001a8457600080fd5b5035919050565b80356001600160a01b038116811462001aa357600080fd5b919050565b6000806040838503121562001abc57600080fd5b8235915062001ace6020840162001a8b565b90509250929050565b60006020828403121562001aea57600080fd5b620010b48262001a8b565b60008060008084860361010081121562001b0e57600080fd5b60c081121562001b1d57600080fd5b5084935060c085013567ffffffffffffffff8082111562001b3d57600080fd5b818701915087601f83011262001b5257600080fd5b81358181111562001b6257600080fd5b88602082850101111562001b7557600080fd5b95986020929092019750949560e00135945092505050565b803561ffff8116811462001aa357600080fd5b60008060006060848603121562001bb657600080fd5b62001bc18462001a8b565b925062001bd16020850162001a8b565b915062001be16040850162001b8d565b90509250925092565b6000806040838503121562001bfe57600080fd5b62001c098362001a8b565b915062001ace6020840162001b8d565b60006020828403121562001c2c57600080fd5b81356001600160601b0381168114620010b457600080fd5b8015158114620005c557600080fd5b803562001aa38162001c44565b60006020828403121562001c7357600080fd5b8135620010b48162001c44565b60006020828403121562001c9357600080fd5b620010b48262001b8d565b634e487b7160e01b600052604160045260246000fd5b600060c0828403121562001cc757600080fd5b60405160c0810181811067ffffffffffffffff8211171562001cf957634e487b7160e01b600052604160045260246000fd5b8060405250823581526020830135602082015262001d1a6040840162001a8b565b604082015262001d2d6060840162001b8d565b606082015262001d406080840162001c53565b608082015260a083013560a08201528091505092915050565b634e487b7160e01b600052601160045260246000fd5b8181038181111562000424576200042462001d59565b60005b8381101562001da257818101518382015260200162001d88565b50506000910152565b6000815180845262001dc581602086016020860162001d85565b601f01601f19169290920160200192915050565b60408152600062001dee604083018562001dab565b905060018060a01b03831660208301529392505050565b813581526020808301359082015260c081016001600160a01b0362001e2d6040850162001a8b565b16604083015261ffff62001e446060850162001b8d565b166060830152608083013562001e5a8162001c44565b80151560808401525060a083013560a083015292915050565b61ffff8316815260406020820152600062001198604083018462001dab565b6000825162001ea681846020870162001d85565b9190910192915050565b7f416363657373436f6e74726f6c3a206163636f756e742000000000000000000081526000835162001eea81601785016020880162001d85565b7001034b99036b4b9b9b4b733903937b6329607d1b601791840191820152835162001f1d81602884016020880162001d85565b01602801949350505050565b602081526000620010b4602083018462001dab565b60006020828403121562001f5157600080fd5b8151620010b48162001c44565b808202811582820484141762000424576200042462001d59565b8082018082111562000424576200042462001d59565b634e487b7160e01b600052603260045260246000fd5b60008162001fb65762001fb662001d59565b506000190190565b634e487b7160e01b600052602160045260246000fdfe60c06040523480156200001157600080fd5b50604051620025e5380380620025e58339810160408190526200003491620000b1565b8180620000413362000061565b6001600160a01b031660805250600160065561ffff1660a0525062000101565b600080546001600160a01b038381166001600160a01b0319831681178455604051919092169283917f8be0079c531659141344cd1fd0a4f28419497f9722a3daafe3b4186f6b6457e09190a35050565b60008060408385031215620000c557600080fd5b82516001600160a01b0381168114620000dd57600080fd5b602084015190925061ffff81168114620000f657600080fd5b809150509250929050565b60805160a05161247f620001666000396000818161024f01526109320152600081816104b4015281816105f701528181610846015281816108ee01528181610a9901528181610ea40152818161116d015281816113b8015261168d015261247f6000f3fe6080604052600436106101b65760003560e01c80638da5cb5b116100ec578063cbed8b9c1161008a578063df2a5b3b11610064578063df2a5b3b14610574578063eb8d72b714610594578063f2fde38b146105b4578063f5ecbdbc146105d457600080fd5b8063cbed8b9c1461050c578063d1deba1f1461052c578063d46fb1881461053f57600080fd5b8063a6c3d165116100c6578063a6c3d16514610482578063b353aaa7146104a2578063baf3292d146104d6578063c4461834146104f657600080fd5b80638da5cb5b14610410578063950c8a74146104425780639f38369a1461046257600080fd5b80633f1f4fa41161015957806366ad5c8a1161013357806366ad5c8a14610376578063715018a6146103965780637533d788146103ab5780638cfd8f5c146103d857600080fd5b80633f1f4fa4146102cc57806342d65a8d146103075780635b8c41e61461032757600080fd5b806310ddb1371161019557806310ddb1371461021d57806330c593f71461023d5780633d0d0b6e146102895780633d8b38f61461029c57600080fd5b80621d3567146101bb57806307e0db17146101dd5780630df37483146101fd575b600080fd5b3480156101c757600080fd5b506101db6101d6366004611a7a565b6105f4565b005b3480156101e957600080fd5b506101db6101f8366004611b0d565b610825565b34801561020957600080fd5b506101db610218366004611b28565b6108ae565b34801561022957600080fd5b506101db610238366004611b0d565b6108cd565b34801561024957600080fd5b506102717f000000000000000000000000000000000000000000000000000000000000000081565b60405161ffff90911681526020015b60405180910390f35b6101db610297366004611b69565b610925565b3480156102a857600080fd5b506102bc6102b7366004611bbc565b6109ae565b6040519015158152602001610280565b3480156102d857600080fd5b506102f96102e7366004611b0d565b60036020526000908152604090205481565b604051908152602001610280565b34801561031357600080fd5b506101db610322366004611bbc565b610a7a565b34801561033357600080fd5b506102f9610342366004611c7b565b6005602090815260009384526040808520845180860184018051928152908401958401959095209452929052825290205481565b34801561038257600080fd5b506101db610391366004611a7a565b610b00565b3480156103a257600080fd5b506101db610bdc565b3480156103b757600080fd5b506103cb6103c6366004611b0d565b610bf0565b6040516102809190611d62565b3480156103e457600080fd5b506102f96103f3366004611d75565b600260209081526000928352604080842090915290825290205481565b34801561041c57600080fd5b506000546001600160a01b03165b6040516001600160a01b039091168152602001610280565b34801561044e57600080fd5b5060045461042a906001600160a01b031681565b34801561046e57600080fd5b506103cb61047d366004611b0d565b610c8a565b34801561048e57600080fd5b506101db61049d366004611bbc565b610da0565b3480156104ae57600080fd5b5061042a7f000000000000000000000000000000000000000000000000000000000000000081565b3480156104e257600080fd5b506101db6104f1366004611da8565b610e29565b34801561050257600080fd5b506102f961271081565b34801561051857600080fd5b506101db610527366004611dc3565b610e85565b6101db61053a366004611a7a565b610f1a565b34801561054b57600080fd5b5061055f61055a366004611e31565b611130565b60408051928352602083019190915201610280565b34801561058057600080fd5b506101db61058f366004611e98565b611202565b3480156105a057600080fd5b506101db6105af366004611bbc565b6112b4565b3480156105c057600080fd5b506101db6105cf366004611da8565b61130e565b3480156105e057600080fd5b506103cb6105ef366004611ed4565b611387565b337f00000000000000000000000000000000000000000000000000000000000000006001600160a01b0316146106715760405162461bcd60e51b815260206004820152601e60248201527f4c7a4170703a20696e76616c696420656e64706f696e742063616c6c6572000060448201526064015b60405180910390fd5b61ffff86166000908152600160205260408120805461068f90611f1f565b80601f01602080910402602001604051908101604052809291908181526020018280546106bb90611f1f565b80156107085780601f106106dd57610100808354040283529160200191610708565b820191906000526020600020905b8154815290600101906020018083116106eb57829003601f168201915b50505050509050805186869050148015610723575060008151115b801561074b5750805160208201206040516107419088908890611f59565b6040518091039020145b6107a65760405162461bcd60e51b815260206004820152602660248201527f4c7a4170703a20696e76616c696420736f757263652073656e64696e6720636f6044820152651b9d1c9858dd60d21b6064820152608401610668565b61081c8787878080601f01602080910402602001604051908101604052809392919081815260200183838082843760009201919091525050604080516020601f8a018190048102820181019092528881528a93509150889088908190840183828082843760009201919091525061143892505050565b50505050505050565b61082d6114b1565b6040516307e0db1760e01b815261ffff821660048201527f00000000000000000000000000000000000000000000000000000000000000006001600160a01b0316906307e0db17906024015b600060405180830381600087803b15801561089357600080fd5b505af11580156108a7573d6000803e3d6000fd5b5050505050565b6108b66114b1565b61ffff909116600090815260036020526040902055565b6108d56114b1565b6040516310ddb13760e01b815261ffff821660048201527f00000000000000000000000000000000000000000000000000000000000000006001600160a01b0316906310ddb13790602401610879565b61092d61150b565b61099f7f000000000000000000000000000000000000000000000000000000000000000084848080601f01602080910402602001604051908101604052809392919081815260200183838082843760009201829052506040805160208101909152818152889450909250905034611564565b6109a96001600655565b505050565b61ffff8316600090815260016020526040812080548291906109cf90611f1f565b80601f01602080910402602001604051908101604052809291908181526020018280546109fb90611f1f565b8015610a485780601f10610a1d57610100808354040283529160200191610a48565b820191906000526020600020905b815481529060010190602001808311610a2b57829003601f168201915b505050505090508383604051610a5f929190611f59565b60405180910390208180519060200120149150509392505050565b610a826114b1565b6040516342d65a8d60e01b81526001600160a01b037f000000000000000000000000000000000000000000000000000000000000000016906342d65a8d90610ad290869086908690600401611f92565b600060405180830381600087803b158015610aec57600080fd5b505af115801561081c573d6000803e3d6000fd5b333014610b5e5760405162461bcd60e51b815260206004820152602660248201527f4e6f6e626c6f636b696e674c7a4170703a2063616c6c6572206d7573742062656044820152650204c7a4170760d41b6064820152608401610668565b610bd48686868080601f01602080910402602001604051908101604052809392919081815260200183838082843760009201919091525050604080516020601f89018190048102820181019092528781528993509150879087908190840183828082843760009201919091525061170992505050565b505050505050565b610be46114b1565b610bee600061170f565b565b60016020526000908152604090208054610c0990611f1f565b80601f0160208091040260200160405190810160405280929190818152602001828054610c3590611f1f565b8015610c825780601f10610c5757610100808354040283529160200191610c82565b820191906000526020600020905b815481529060010190602001808311610c6557829003601f168201915b505050505081565b61ffff8116600090815260016020526040812080546060929190610cad90611f1f565b80601f0160208091040260200160405190810160405280929190818152602001828054610cd990611f1f565b8015610d265780601f10610cfb57610100808354040283529160200191610d26565b820191906000526020600020905b815481529060010190602001808311610d0957829003601f168201915b505050505090508051600003610d7e5760405162461bcd60e51b815260206004820152601d60248201527f4c7a4170703a206e6f20747275737465642070617468207265636f72640000006044820152606401610668565b610d99600060148351610d919190611fc6565b83919061175f565b9392505050565b610da86114b1565b818130604051602001610dbd93929190611fdf565b60408051601f1981840301815291815261ffff8516600090815260016020522090610de8908261204b565b507f8c0400cfe2d1199b1a725c78960bcc2a344d869b80590d0f2bd005db15a572ce838383604051610e1c93929190611f92565b60405180910390a1505050565b610e316114b1565b600480546001600160a01b0319166001600160a01b0383169081179091556040519081527f5db758e995a17ec1ad84bdef7e8c3293a0bd6179bcce400dff5d4c3d87db726b9060200160405180910390a150565b610e8d6114b1565b6040516332fb62e760e21b81526001600160a01b037f0000000000000000000000000000000000000000000000000000000000000000169063cbed8b9c90610ee1908890889088908890889060040161210a565b600060405180830381600087803b158015610efb57600080fd5b505af1158015610f0f573d6000803e3d6000fd5b505050505050505050565b61ffff86166000908152600560205260408082209051610f3d9088908890611f59565b90815260408051602092819003830190206001600160401b03871660009081529252902054905080610fbd5760405162461bcd60e51b815260206004820152602360248201527f4e6f6e626c6f636b696e674c7a4170703a206e6f2073746f726564206d65737360448201526261676560e81b6064820152608401610668565b808383604051610fce929190611f59565b60405180910390201461102d5760405162461bcd60e51b815260206004820152602160248201527f4e6f6e626c6f636b696e674c7a4170703a20696e76616c6964207061796c6f616044820152601960fa1b6064820152608401610668565b61ffff871660009081526005602052604080822090516110509089908990611f59565b90815260408051602092819003830181206001600160401b038916600090815290845282902093909355601f880182900482028301820190528682526110e8918991899089908190840183828082843760009201919091525050604080516020601f8a018190048102820181019092528881528a93509150889088908190840183828082843760009201919091525061170992505050565b7fc264d91f3adc5588250e1551f547752ca0cfa8f6b530d243b9f9f4cab10ea8e5878787878560405161111f959493929190612143565b60405180910390a150505050505050565b60408051600060208201819052603482018190526054820181905282516048818403018152606883019384905263040a7bb160e41b9093529182917f00000000000000000000000000000000000000000000000000000000000000006001600160a01b0316906340a7bb10906111b4908a90309086908c908c908c90606c0161217e565b6040805180830381865afa1580156111d0573d6000803e3d6000fd5b505050506040513d601f19601f820116820180604052508101906111f491906121d4565b925092505094509492505050565b61120a6114b1565b600081116112525760405162461bcd60e51b81526020600482015260156024820152744c7a4170703a20696e76616c6964206d696e47617360581b6044820152606401610668565b61ffff83811660008181526002602090815260408083209487168084529482529182902085905581519283528201929092529081018290527f9d5c7c0b934da8fefa9c7760c98383778a12dfbfc0c3b3106518f43fb9508ac090606001610e1c565b6112bc6114b1565b61ffff831660009081526001602052604090206112da8284836121f8565b507ffa41487ad5d6728f0b19276fa1eddc16558578f5109fc39d2dc33c3230470dab838383604051610e1c93929190611f92565b6113166114b1565b6001600160a01b03811661137b5760405162461bcd60e51b815260206004820152602660248201527f4f776e61626c653a206e6577206f776e657220697320746865207a65726f206160448201526564647265737360d01b6064820152608401610668565b6113848161170f565b50565b604051633d7b2f6f60e21b815261ffff808616600483015284166024820152306044820152606481018290526060907f00000000000000000000000000000000000000000000000000000000000000006001600160a01b03169063f5ecbdbc90608401600060405180830381865afa158015611407573d6000803e3d6000fd5b505050506040513d6000823e601f3d908101601f1916820160405261142f91908101906122b7565b95945050505050565b60008061149b5a60966366ad5c8a60e01b898989896040516024016114609493929190612324565b60408051601f198184030181529190526020810180516001600160e01b03166001600160e01b0319909316929092179091523092919061186c565b9150915081610bd457610bd486868686856118f6565b6000546001600160a01b03163314610bee5760405162461bcd60e51b815260206004820181905260248201527f4f776e61626c653a2063616c6c6572206973206e6f7420746865206f776e65726044820152606401610668565b60026006540361155d5760405162461bcd60e51b815260206004820152601f60248201527f5265656e7472616e637947756172643a207265656e7472616e742063616c6c006044820152606401610668565b6002600655565b61ffff86166000908152600160205260408120805461158290611f1f565b80601f01602080910402602001604051908101604052809291908181526020018280546115ae90611f1f565b80156115fb5780601f106115d0576101008083540402835291602001916115fb565b820191906000526020600020905b8154815290600101906020018083116115de57829003601f168201915b50505050509050805160000361166c5760405162461bcd60e51b815260206004820152603060248201527f4c7a4170703a2064657374696e6174696f6e20636861696e206973206e6f742060448201526f61207472757374656420736f7572636560801b6064820152608401610668565b611677878751611993565b60405162c5803160e81b81526001600160a01b037f0000000000000000000000000000000000000000000000000000000000000000169063c58031009084906116ce908b9086908c908c908c908c90600401612362565b6000604051808303818588803b1580156116e757600080fd5b505af11580156116fb573d6000803e3d6000fd5b505050505050505050505050565b50505050565b600080546001600160a01b038381166001600160a01b0319831681178455604051919092169283917f8be0079c531659141344cd1fd0a4f28419497f9722a3daafe3b4186f6b6457e09190a35050565b60608161176d81601f6123bc565b10156117ac5760405162461bcd60e51b815260206004820152600e60248201526d736c6963655f6f766572666c6f7760901b6044820152606401610668565b6117b682846123bc565b845110156117fa5760405162461bcd60e51b8152602060048201526011602482015270736c6963655f6f75744f66426f756e647360781b6044820152606401610668565b6060821580156118195760405191506000825260208201604052611863565b6040519150601f8416801560200281840101858101878315602002848b0101015b8183101561185257805183526020928301920161183a565b5050858452601f01601f1916604052505b50949350505050565b6000606060008060008661ffff166001600160401b0381111561189157611891611c0e565b6040519080825280601f01601f1916602001820160405280156118bb576020820181803683370190505b50905060008087516020890160008d8df191503d9250868311156118dd578692505b828152826000602083013e909890975095505050505050565b8180519060200120600560008761ffff1661ffff1681526020019081526020016000208560405161192791906123cf565b9081526040805191829003602090810183206001600160401b0388166000908152915220919091557fe183f33de2837795525b4792ca4cd60535bd77c53b7e7030060bfcf5734d6b0c9061198490879087908790879087906123eb565b60405180910390a15050505050565b61ffff8216600090815260036020526040812054908190036119b457506127105b808211156109a95760405162461bcd60e51b815260206004820181905260248201527f4c7a4170703a207061796c6f61642073697a6520697320746f6f206c617267656044820152606401610668565b803561ffff81168114611a1657600080fd5b919050565b60008083601f840112611a2d57600080fd5b5081356001600160401b03811115611a4457600080fd5b602083019150836020828501011115611a5c57600080fd5b9250929050565b80356001600160401b0381168114611a1657600080fd5b60008060008060008060808789031215611a9357600080fd5b611a9c87611a04565b955060208701356001600160401b0380821115611ab857600080fd5b611ac48a838b01611a1b565b9097509550859150611ad860408a01611a63565b94506060890135915080821115611aee57600080fd5b50611afb89828a01611a1b565b979a9699509497509295939492505050565b600060208284031215611b1f57600080fd5b610d9982611a04565b60008060408385031215611b3b57600080fd5b611b4483611a04565b946020939093013593505050565b80356001600160a01b0381168114611a1657600080fd5b600080600060408486031215611b7e57600080fd5b83356001600160401b03811115611b9457600080fd5b611ba086828701611a1b565b9094509250611bb3905060208501611b52565b90509250925092565b600080600060408486031215611bd157600080fd5b611bda84611a04565b925060208401356001600160401b03811115611bf557600080fd5b611c0186828701611a1b565b9497909650939450505050565b634e487b7160e01b600052604160045260246000fd5b604051601f8201601f191681016001600160401b0381118282101715611c4c57611c4c611c0e565b604052919050565b60006001600160401b03821115611c6d57611c6d611c0e565b50601f01601f191660200190565b600080600060608486031215611c9057600080fd5b611c9984611a04565b925060208401356001600160401b03811115611cb457600080fd5b8401601f81018613611cc557600080fd5b8035611cd8611cd382611c54565b611c24565b818152876020838501011115611ced57600080fd5b81602084016020830137600060208383010152809450505050611bb360408501611a63565b60005b83811015611d2d578181015183820152602001611d15565b50506000910152565b60008151808452611d4e816020860160208601611d12565b601f01601f19169290920160200192915050565b602081526000610d996020830184611d36565b60008060408385031215611d8857600080fd5b611d9183611a04565b9150611d9f60208401611a04565b90509250929050565b600060208284031215611dba57600080fd5b610d9982611b52565b600080600080600060808688031215611ddb57600080fd5b611de486611a04565b9450611df260208701611a04565b93506040860135925060608601356001600160401b03811115611e1457600080fd5b611e2088828901611a1b565b969995985093965092949392505050565b60008060008060608587031215611e4757600080fd5b611e5085611a04565b935060208501358015158114611e6557600080fd5b925060408501356001600160401b03811115611e8057600080fd5b611e8c87828801611a1b565b95989497509550505050565b600080600060608486031215611ead57600080fd5b611eb684611a04565b9250611ec460208501611a04565b9150604084013590509250925092565b60008060008060808587031215611eea57600080fd5b611ef385611a04565b9350611f0160208601611a04565b9250611f0f60408601611b52565b9396929550929360600135925050565b600181811c90821680611f3357607f821691505b602082108103611f5357634e487b7160e01b600052602260045260246000fd5b50919050565b8183823760009101908152919050565b81835281816020850137506000828201602090810191909152601f909101601f19169091010190565b61ffff8416815260406020820152600061142f604083018486611f69565b634e487b7160e01b600052601160045260246000fd5b81810381811115611fd957611fd9611fb0565b92915050565b8284823760609190911b6bffffffffffffffffffffffff19169101908152601401919050565b601f8211156109a957600081815260208120601f850160051c8101602086101561202c5750805b601f850160051c820191505b81811015610bd457828155600101612038565b81516001600160401b0381111561206457612064611c0e565b612078816120728454611f1f565b84612005565b602080601f8311600181146120ad57600084156120955750858301515b600019600386901b1c1916600185901b178555610bd4565b600085815260208120601f198616915b828110156120dc578886015182559484019460019091019084016120bd565b50858210156120fa5787850151600019600388901b60f8161c191681555b5050505050600190811b01905550565b600061ffff808816835280871660208401525084604083015260806060830152612138608083018486611f69565b979650505050505050565b61ffff86168152608060208201526000612161608083018688611f69565b6001600160401b0394909416604083015250606001529392505050565b61ffff871681526001600160a01b038616602082015260a0604082018190526000906121ac90830187611d36565b851515606084015282810360808401526121c7818587611f69565b9998505050505050505050565b600080604083850312156121e757600080fd5b505080516020909101519092909150565b6001600160401b0383111561220f5761220f611c0e565b6122238361221d8354611f1f565b83612005565b6000601f841160018114612257576000851561223f5750838201355b600019600387901b1c1916600186901b1783556108a7565b600083815260209020601f19861690835b828110156122885786850135825560209485019460019092019101612268565b50868210156122a55760001960f88860031b161c19848701351681555b505060018560011b0183555050505050565b6000602082840312156122c957600080fd5b81516001600160401b038111156122df57600080fd5b8201601f810184136122f057600080fd5b80516122fe611cd382611c54565b81815285602083850101111561231357600080fd5b61142f826020830160208601611d12565b61ffff851681526080602082015260006123416080830186611d36565b6001600160401b038516604084015282810360608401526121388185611d36565b61ffff8716815260c06020820152600061237f60c0830188611d36565b82810360408401526123918188611d36565b6001600160a01b0387811660608601528616608085015283810360a085015290506121c78185611d36565b80820180821115611fd957611fd9611fb0565b600082516123e1818460208701611d12565b9190910192915050565b61ffff8616815260a06020820152600061240860a0830187611d36565b6001600160401b038616604084015282810360608401526124298186611d36565b9050828103608084015261243d8185611d36565b9897505050505050505056fea2646970667358221220614a0fd9abd4b06adf9c788a4aae8bddda67bc63a8698423805de5f341af3fbf64736f6c63430008110033a264697066735822122060ff6eae26d7a62fed0c9cf5a4c9b888a791a2b6d18e5dbc53f63dce1c0a11e364736f6c63430008110033",
  "linkReferences": {},
  "deployedLinkReferences": {}
}