{
  "_format": "hh-sol-artifact-1",
  "contractName": "DepositFactoryContract",
  "sourceName": "contracts/parents/DepositFactoryContract.sol",
  "abi": [
    {
      "inputs": [
        {
          "internalType": "address",
          "name": "_layerZeroEndpoint",
          "type": "address"
        },
        {
          "internalType": "address",
          "name": "acceptToken",
          "type": "address"
        },
        {
          "internalType": "address",
          "name": "owner",
          "type": "address"
        },
        {
          "internalType": "address",
          "name": "adminWallet",
          "type": "address"
        },
        {
          "internalType": "address",
          "name": "depositRoleAccount",
          "type": "address"
        }
      ],
      "stateMutability": "nonpayable",
      "type": "constructor"
    },
    {
      "anonymous": false,
      "inputs": [
        {
          "components": [
            {
              "internalType": "uint256",
              "name": "mintPrice",
              "type": "uint256"
            },
            {
              "internalType": "uint256",
              "name": "mintQuantity",
              "type": "uint256"
            },
            {
              "internalType": "address",
              "name": "sellerAddress",
              "type": "address"
            },
            {
              "internalType": "uint16",
              "name": "dstChainId",
              "type": "uint16"
            },
            {
              "internalType": "bool",
              "name": "isMintAvailable",
              "type": "bool"
            },
            {
              "internalType": "uint256",
              "name": "deadline",
              "type": "uint256"
            }
          ],
          "indexed": false,
          "internalType": "struct DepositItem",
          "name": "depositItem",
          "type": "tuple"
        },
        {
          "indexed": false,
          "internalType": "uint256",
          "name": "lzGasFee",
          "type": "uint256"
        },
        {
          "indexed": false,
          "internalType": "bool",
          "name": "isNativeToken",
          "type": "bool"
        }
      ],
      "name": "DepositedToken",
      "type": "event"
    },
    {
      "anonymous": false,
      "inputs": [
        {
          "indexed": false,
          "internalType": "uint16",
          "name": "_srcChainId",
          "type": "uint16"
        },
        {
          "indexed": false,
          "internalType": "bytes",
          "name": "_srcAddress",
          "type": "bytes"
        },
        {
          "indexed": false,
          "internalType": "uint64",
          "name": "_nonce",
          "type": "uint64"
        },
        {
          "indexed": false,
          "internalType": "bytes",
          "name": "_payload",
          "type": "bytes"
        },
        {
          "indexed": false,
          "internalType": "bytes",
          "name": "_reason",
          "type": "bytes"
        }
      ],
      "name": "MessageFailed",
      "type": "event"
    },
    {
      "anonymous": false,
      "inputs": [
        {
          "indexed": true,
          "internalType": "address",
          "name": "previousOwner",
          "type": "address"
        },
        {
          "indexed": true,
          "internalType": "address",
          "name": "newOwner",
          "type": "address"
        }
      ],
      "name": "OwnershipTransferred",
      "type": "event"
    },
    {
      "anonymous": false,
      "inputs": [
        {
          "indexed": false,
          "internalType": "address",
          "name": "account",
          "type": "address"
        }
      ],
      "name": "Paused",
      "type": "event"
    },
    {
      "anonymous": false,
      "inputs": [
        {
          "indexed": false,
          "internalType": "uint16",
          "name": "_srcChainId",
          "type": "uint16"
        },
        {
          "indexed": false,
          "internalType": "bytes",
          "name": "_srcAddress",
          "type": "bytes"
        },
        {
          "indexed": false,
          "internalType": "uint64",
          "name": "_nonce",
          "type": "uint64"
        },
        {
          "indexed": false,
          "internalType": "bytes32",
          "name": "_payloadHash",
          "type": "bytes32"
        }
      ],
      "name": "RetryMessageSuccess",
      "type": "event"
    },
    {
      "anonymous": false,
      "inputs": [
        {
          "indexed": true,
          "internalType": "bytes32",
          "name": "role",
          "type": "bytes32"
        },
        {
          "indexed": true,
          "internalType": "bytes32",
          "name": "previousAdminRole",
          "type": "bytes32"
        },
        {
          "indexed": true,
          "internalType": "bytes32",
          "name": "newAdminRole",
          "type": "bytes32"
        }
      ],
      "name": "RoleAdminChanged",
      "type": "event"
    },
    {
      "anonymous": false,
      "inputs": [
        {
          "indexed": true,
          "internalType": "bytes32",
          "name": "role",
          "type": "bytes32"
        },
        {
          "indexed": true,
          "internalType": "address",
          "name": "account",
          "type": "address"
        },
        {
          "indexed": true,
          "internalType": "address",
          "name": "sender",
          "type": "address"
        }
      ],
      "name": "RoleGranted",
      "type": "event"
    },
    {
      "anonymous": false,
      "inputs": [
        {
          "indexed": true,
          "internalType": "bytes32",
          "name": "role",
          "type": "bytes32"
        },
        {
          "indexed": true,
          "internalType": "address",
          "name": "account",
          "type": "address"
        },
        {
          "indexed": true,
          "internalType": "address",
          "name": "sender",
          "type": "address"
        }
      ],
      "name": "RoleRevoked",
      "type": "event"
    },
    {
      "anonymous": false,
      "inputs": [
        {
          "indexed": false,
          "internalType": "address",
          "name": "adminWallet",
          "type": "address"
        }
      ],
      "name": "SetAdminWallet",
      "type": "event"
    },
    {
      "anonymous": false,
      "inputs": [
        {
          "indexed": false,
          "internalType": "uint16",
          "name": "_dstChainId",
          "type": "uint16"
        },
        {
          "indexed": false,
          "internalType": "uint16",
          "name": "_type",
          "type": "uint16"
        },
        {
          "indexed": false,
          "internalType": "uint256",
          "name": "_minDstGas",
          "type": "uint256"
        }
      ],
      "name": "SetMinDstGas",
      "type": "event"
    },
    {
      "anonymous": false,
      "inputs": [
        {
          "indexed": false,
          "internalType": "uint96",
          "name": "platformFee",
          "type": "uint96"
        }
      ],
      "name": "SetPlatformFee",
      "type": "event"
    },
    {
      "anonymous": false,
      "inputs": [
        {
          "indexed": false,
          "internalType": "address",
          "name": "precrime",
          "type": "address"
        }
      ],
      "name": "SetPrecrime",
      "type": "event"
    },
    {
      "anonymous": false,
      "inputs": [
        {
          "indexed": false,
          "internalType": "uint16",
          "name": "_remoteChainId",
          "type": "uint16"
        },
        {
          "indexed": false,
          "internalType": "bytes",
          "name": "_path",
          "type": "bytes"
        }
      ],
      "name": "SetTrustedRemote",
      "type": "event"
    },
    {
      "anonymous": false,
      "inputs": [
        {
          "indexed": false,
          "internalType": "uint16",
          "name": "_remoteChainId",
          "type": "uint16"
        },
        {
          "indexed": false,
          "internalType": "bytes",
          "name": "_remoteAddress",
          "type": "bytes"
        }
      ],
      "name": "SetTrustedRemoteAddress",
      "type": "event"
    },
    {
      "anonymous": false,
      "inputs": [
        {
          "indexed": false,
          "internalType": "address",
          "name": "account",
          "type": "address"
        }
      ],
      "name": "Unpaused",
      "type": "event"
    },
    {
      "inputs": [],
      "name": "DEFAULT_ADMIN_ROLE",
      "outputs": [
        {
          "internalType": "bytes32",
          "name": "",
          "type": "bytes32"
        }
      ],
      "stateMutability": "view",
      "type": "function"
    },
    {
      "inputs": [],
      "name": "DEFAULT_PAYLOAD_SIZE_LIMIT",
      "outputs": [
        {
          "internalType": "uint256",
          "name": "",
          "type": "uint256"
        }
      ],
      "stateMutability": "view",
      "type": "function"
    },
    {
      "inputs": [],
      "name": "DEPOSIT_ROLE",
      "outputs": [
        {
          "internalType": "bytes32",
          "name": "",
          "type": "bytes32"
        }
      ],
      "stateMutability": "view",
      "type": "function"
    },
    {
      "inputs": [
        {
          "components": [
            {
              "internalType": "uint256",
              "name": "mintPrice",
              "type": "uint256"
            },
            {
              "internalType": "uint256",
              "name": "mintQuantity",
              "type": "uint256"
            },
            {
              "internalType": "address",
              "name": "sellerAddress",
              "type": "address"
            },
            {
              "internalType": "uint16",
              "name": "dstChainId",
              "type": "uint16"
            },
            {
              "internalType": "bool",
              "name": "isMintAvailable",
              "type": "bool"
            },
            {
              "internalType": "uint256",
              "name": "deadline",
              "type": "uint256"
            }
          ],
          "internalType": "struct DepositItem",
          "name": "depositItem",
          "type": "tuple"
        },
        {
          "internalType": "bytes",
          "name": "signature",
          "type": "bytes"
        },
        {
          "internalType": "uint256",
          "name": "lzGasFee",
          "type": "uint256"
        },
        {
          "internalType": "bool",
          "name": "isNativeToken",
          "type": "bool"
        }
      ],
      "name": "depositTokenByClient",
      "outputs": [],
      "stateMutability": "payable",
      "type": "function"
    },
    {
      "inputs": [
        {
          "internalType": "uint16",
          "name": "dstChainId_",
          "type": "uint16"
        },
        {
          "internalType": "bool",
          "name": "_useZro",
          "type": "bool"
        },
        {
          "internalType": "bytes",
          "name": "_adapterParams",
          "type": "bytes"
        }
      ],
      "name": "estimateFee",
      "outputs": [
        {
          "internalType": "uint256",
          "name": "nativeFee",
          "type": "uint256"
        },
        {
          "internalType": "uint256",
          "name": "zroFee",
          "type": "uint256"
        }
      ],
      "stateMutability": "view",
      "type": "function"
    },
    {
      "inputs": [
        {
          "internalType": "uint16",
          "name": "",
          "type": "uint16"
        },
        {
          "internalType": "bytes",
          "name": "",
          "type": "bytes"
        },
        {
          "internalType": "uint64",
          "name": "",
          "type": "uint64"
        }
      ],
      "name": "failedMessages",
      "outputs": [
        {
          "internalType": "bytes32",
          "name": "",
          "type": "bytes32"
        }
      ],
      "stateMutability": "view",
      "type": "function"
    },
    {
      "inputs": [
        {
          "internalType": "uint16",
          "name": "_srcChainId",
          "type": "uint16"
        },
        {
          "internalType": "bytes",
          "name": "_srcAddress",
          "type": "bytes"
        }
      ],
      "name": "forceResumeReceive",
      "outputs": [],
      "stateMutability": "nonpayable",
      "type": "function"
    },
    {
      "inputs": [
        {
          "internalType": "uint16",
          "name": "_version",
          "type": "uint16"
        },
        {
          "internalType": "uint16",
          "name": "_chainId",
          "type": "uint16"
        },
        {
          "internalType": "address",
          "name": "",
          "type": "address"
        },
        {
          "internalType": "uint256",
          "name": "_configType",
          "type": "uint256"
        }
      ],
      "name": "getConfig",
      "outputs": [
        {
          "internalType": "bytes",
          "name": "",
          "type": "bytes"
        }
      ],
      "stateMutability": "view",
      "type": "function"
    },
    {
      "inputs": [
        {
          "internalType": "bytes32",
          "name": "role",
          "type": "bytes32"
        }
      ],
      "name": "getRoleAdmin",
      "outputs": [
        {
          "internalType": "bytes32",
          "name": "",
          "type": "bytes32"
        }
      ],
      "stateMutability": "view",
      "type": "function"
    },
    {
      "inputs": [
        {
          "internalType": "uint16",
          "name": "_remoteChainId",
          "type": "uint16"
        }
      ],
      "name": "getTrustedRemoteAddress",
      "outputs": [
        {
          "internalType": "bytes",
          "name": "",
          "type": "bytes"
        }
      ],
      "stateMutability": "view",
      "type": "function"
    },
    {
      "inputs": [
        {
          "internalType": "bytes32",
          "name": "role",
          "type": "bytes32"
        },
        {
          "internalType": "address",
          "name": "account",
          "type": "address"
        }
      ],
      "name": "grantRole",
      "outputs": [],
      "stateMutability": "nonpayable",
      "type": "function"
    },
    {
      "inputs": [
        {
          "internalType": "bytes32",
          "name": "role",
          "type": "bytes32"
        },
        {
          "internalType": "address",
          "name": "account",
          "type": "address"
        }
      ],
      "name": "hasRole",
      "outputs": [
        {
          "internalType": "bool",
          "name": "",
          "type": "bool"
        }
      ],
      "stateMutability": "view",
      "type": "function"
    },
    {
      "inputs": [
        {
          "internalType": "uint16",
          "name": "_srcChainId",
          "type": "uint16"
        },
        {
          "internalType": "bytes",
          "name": "_srcAddress",
          "type": "bytes"
        }
      ],
      "name": "isTrustedRemote",
      "outputs": [
        {
          "internalType": "bool",
          "name": "",
          "type": "bool"
        }
      ],
      "stateMutability": "view",
      "type": "function"
    },
    {
      "inputs": [],
      "name": "lzEndpoint",
      "outputs": [
        {
          "internalType": "contract ILayerZeroEndpoint",
          "name": "",
          "type": "address"
        }
      ],
      "stateMutability": "view",
      "type": "function"
    },
    {
      "inputs": [
        {
          "internalType": "uint16",
          "name": "_srcChainId",
          "type": "uint16"
        },
        {
          "internalType": "bytes",
          "name": "_srcAddress",
          "type": "bytes"
        },
        {
          "internalType": "uint64",
          "name": "_nonce",
          "type": "uint64"
        },
        {
          "internalType": "bytes",
          "name": "_payload",
          "type": "bytes"
        }
      ],
      "name": "lzReceive",
      "outputs": [],
      "stateMutability": "nonpayable",
      "type": "function"
    },
    {
      "inputs": [
        {
          "internalType": "uint16",
          "name": "",
          "type": "uint16"
        },
        {
          "internalType": "uint16",
          "name": "",
          "type": "uint16"
        }
      ],
      "name": "minDstGasLookup",
      "outputs": [
        {
          "internalType": "uint256",
          "name": "",
          "type": "uint256"
        }
      ],
      "stateMutability": "view",
      "type": "function"
    },
    {
      "inputs": [
        {
          "internalType": "uint16",
          "name": "_srcChainId",
          "type": "uint16"
        },
        {
          "internalType": "bytes",
          "name": "_srcAddress",
          "type": "bytes"
        },
        {
          "internalType": "uint64",
          "name": "_nonce",
          "type": "uint64"
        },
        {
          "internalType": "bytes",
          "name": "_payload",
          "type": "bytes"
        }
      ],
      "name": "nonblockingLzReceive",
      "outputs": [],
      "stateMutability": "nonpayable",
      "type": "function"
    },
    {
      "inputs": [],
      "name": "owner",
      "outputs": [
        {
          "internalType": "address",
          "name": "",
          "type": "address"
        }
      ],
      "stateMutability": "view",
      "type": "function"
    },
    {
      "inputs": [],
      "name": "pause",
      "outputs": [],
      "stateMutability": "nonpayable",
      "type": "function"
    },
    {
      "inputs": [],
      "name": "paused",
      "outputs": [
        {
          "internalType": "bool",
          "name": "",
          "type": "bool"
        }
      ],
      "stateMutability": "view",
      "type": "function"
    },
    {
      "inputs": [
        {
          "internalType": "uint16",
          "name": "",
          "type": "uint16"
        }
      ],
      "name": "payloadSizeLimitLookup",
      "outputs": [
        {
          "internalType": "uint256",
          "name": "",
          "type": "uint256"
        }
      ],
      "stateMutability": "view",
      "type": "function"
    },
    {
      "inputs": [],
      "name": "platformFee",
      "outputs": [
        {
          "internalType": "uint96",
          "name": "",
          "type": "uint96"
        }
      ],
      "stateMutability": "view",
      "type": "function"
    },
    {
      "inputs": [],
      "name": "precrime",
      "outputs": [
        {
          "internalType": "address",
          "name": "",
          "type": "address"
        }
      ],
      "stateMutability": "view",
      "type": "function"
    },
    {
      "inputs": [],
      "name": "renounceOwnership",
      "outputs": [],
      "stateMutability": "nonpayable",
      "type": "function"
    },
    {
      "inputs": [
        {
          "internalType": "bytes32",
          "name": "role",
          "type": "bytes32"
        },
        {
          "internalType": "address",
          "name": "account",
          "type": "address"
        }
      ],
      "name": "renounceRole",
      "outputs": [],
      "stateMutability": "nonpayable",
      "type": "function"
    },
    {
      "inputs": [
        {
          "internalType": "uint16",
          "name": "_srcChainId",
          "type": "uint16"
        },
        {
          "internalType": "bytes",
          "name": "_srcAddress",
          "type": "bytes"
        },
        {
          "internalType": "uint64",
          "name": "_nonce",
          "type": "uint64"
        },
        {
          "internalType": "bytes",
          "name": "_payload",
          "type": "bytes"
        }
      ],
      "name": "retryMessage",
      "outputs": [],
      "stateMutability": "payable",
      "type": "function"
    },
    {
      "inputs": [
        {
          "internalType": "bytes32",
          "name": "role",
          "type": "bytes32"
        },
        {
          "internalType": "address",
          "name": "account",
          "type": "address"
        }
      ],
      "name": "revokeRole",
      "outputs": [],
      "stateMutability": "nonpayable",
      "type": "function"
    },
    {
      "inputs": [
        {
          "internalType": "address",
          "name": "adminWallet_",
          "type": "address"
        }
      ],
      "name": "setAdminWallet",
      "outputs": [],
      "stateMutability": "nonpayable",
      "type": "function"
    },
    {
      "inputs": [
        {
          "internalType": "uint16",
          "name": "_version",
          "type": "uint16"
        },
        {
          "internalType": "uint16",
          "name": "_chainId",
          "type": "uint16"
        },
        {
          "internalType": "uint256",
          "name": "_configType",
          "type": "uint256"
        },
        {
          "internalType": "bytes",
          "name": "_config",
          "type": "bytes"
        }
      ],
      "name": "setConfig",
      "outputs": [],
      "stateMutability": "nonpayable",
      "type": "function"
    },
    {
      "inputs": [
        {
          "internalType": "uint16",
          "name": "_dstChainId",
          "type": "uint16"
        },
        {
          "internalType": "uint16",
          "name": "_packetType",
          "type": "uint16"
        },
        {
          "internalType": "uint256",
          "name": "_minGas",
          "type": "uint256"
        }
      ],
      "name": "setMinDstGas",
      "outputs": [],
      "stateMutability": "nonpayable",
      "type": "function"
    },
    {
      "inputs": [
        {
          "internalType": "uint16",
          "name": "_dstChainId",
          "type": "uint16"
        },
        {
          "internalType": "uint256",
          "name": "_size",
          "type": "uint256"
        }
      ],
      "name": "setPayloadSizeLimit",
      "outputs": [],
      "stateMutability": "nonpayable",
      "type": "function"
    },
    {
      "inputs": [
        {
          "internalType": "uint96",
          "name": "platformFee_",
          "type": "uint96"
        }
      ],
      "name": "setPlatformFee",
      "outputs": [],
      "stateMutability": "nonpayable",
      "type": "function"
    },
    {
      "inputs": [
        {
          "internalType": "address",
          "name": "_precrime",
          "type": "address"
        }
      ],
      "name": "setPrecrime",
      "outputs": [],
      "stateMutability": "nonpayable",
      "type": "function"
    },
    {
      "inputs": [
        {
          "internalType": "uint16",
          "name": "_version",
          "type": "uint16"
        }
      ],
      "name": "setReceiveVersion",
      "outputs": [],
      "stateMutability": "nonpayable",
      "type": "function"
    },
    {
      "inputs": [
        {
          "internalType": "uint16",
          "name": "_version",
          "type": "uint16"
        }
      ],
      "name": "setSendVersion",
      "outputs": [],
      "stateMutability": "nonpayable",
      "type": "function"
    },
    {
      "inputs": [
        {
          "internalType": "uint16",
          "name": "_srcChainId",
          "type": "uint16"
        },
        {
          "internalType": "bytes",
          "name": "_path",
          "type": "bytes"
        }
      ],
      "name": "setTrustedRemote",
      "outputs": [],
      "stateMutability": "nonpayable",
      "type": "function"
    },
    {
      "inputs": [
        {
          "internalType": "uint16",
          "name": "_remoteChainId",
          "type": "uint16"
        },
        {
          "internalType": "bytes",
          "name": "_remoteAddress",
          "type": "bytes"
        }
      ],
      "name": "setTrustedRemoteAddress",
      "outputs": [],
      "stateMutability": "nonpayable",
      "type": "function"
    },
    {
      "inputs": [
        {
          "internalType": "address",
          "name": "account",
          "type": "address"
        }
      ],
      "name": "setupDepositRole",
      "outputs": [],
      "stateMutability": "nonpayable",
      "type": "function"
    },
    {
      "inputs": [
        {
          "internalType": "bytes4",
          "name": "interfaceId",
          "type": "bytes4"
        }
      ],
      "name": "supportsInterface",
      "outputs": [
        {
          "internalType": "bool",
          "name": "",
          "type": "bool"
        }
      ],
      "stateMutability": "view",
      "type": "function"
    },
    {
      "inputs": [
        {
          "internalType": "address",
          "name": "newOwner",
          "type": "address"
        }
      ],
      "name": "transferOwnership",
      "outputs": [],
      "stateMutability": "nonpayable",
      "type": "function"
    },
    {
      "inputs": [
        {
          "internalType": "uint16",
          "name": "",
          "type": "uint16"
        }
      ],
      "name": "trustedRemoteLookup",
      "outputs": [
        {
          "internalType": "bytes",
          "name": "",
          "type": "bytes"
        }
      ],
      "stateMutability": "view",
      "type": "function"
    },
    {
      "inputs": [],
      "name": "unpause",
      "outputs": [],
      "stateMutability": "nonpayable",
      "type": "function"
    }
  ],
  "bytecode": "0x61018060405260088054610100600160681b03191661fa001790553480156200002757600080fd5b50604051620041d5380380620041d58339810160408190526200004a916200036d565b6040518060400160405280601681526020017f4465706f736974466163746f7279436f6e747261637400000000000000000000815250604051806040016040528060058152602001640312e302e360dc1b8152508680620000ba620000b46200024a60201b60201c565b6200024e565b6001600160a01b03166080525081516020808401919091208251918301919091206101008290526101208190524660c0527f8b73c3c69bb8fe3d512ecc4cf759cc79239f7b179b0ffacaa9a75d522b39400f6200015c8184846040805160208101859052908101839052606081018290524660808201523060a082015260009060c0016040516020818303038152906040528051906020012090509392505050565b60a0523060e052610140525050600160075550506008805460ff191690556001600160a01b038416620001e05760405162461bcd60e51b815260206004820152602260248201527f416363657074546f6b656e2063616e6e6f74206265207a65726f206164647265604482015261737360f01b606482015260840160405180910390fd5b6001600160a01b0384811661016052600980546001600160a01b03191691841691909117905562000213600084620002a0565b6200023f7f2561bf26f818282a3be40719542054d2173eb0d38539e8a8d3cff22f29fd238482620002a0565b5050505050620003dd565b3390565b600180546001600160a01b038381166001600160a01b0319831681179093556040519116919082907f8be0079c531659141344cd1fd0a4f28419497f9722a3daafe3b4186f6b6457e090600090a35050565b620002ac8282620002b0565b5050565b6000828152602081815260408083206001600160a01b038516845290915290205460ff16620002ac576000828152602081815260408083206001600160a01b03851684529091529020805460ff191660011790556200030c3390565b6001600160a01b0316816001600160a01b0316837f2f8788117e7eff1d82e926ec794901d17c78024a50270940304540a733656f0d60405160405180910390a45050565b80516001600160a01b03811681146200036857600080fd5b919050565b600080600080600060a086880312156200038657600080fd5b620003918662000350565b9450620003a16020870162000350565b9350620003b16040870162000350565b9250620003c16060870162000350565b9150620003d16080870162000350565b90509295509295909350565b60805160a05160c05160e05161010051610120516101405161016051613d53620004826000396000818161130b01526113540152600061281d0152600061286c01526000612847015260006127a0015260006127ca015260006127f401526000818161069f0152818161084201528181610aa201528181610b4a01528181610df601528181611607015281816118db01528181611b7601526122ce0152613d536000f3fe6080604052600436106102505760003560e01c80638cfd8f5c11610139578063c4461834116100b6578063df2a5b3b1161007a578063df2a5b3b1461077f578063eb8d72b71461079f578063eea16b84146107bf578063f2fde38b146107df578063f5ecbdbc146107ff578063f99e5dbb1461081f57600080fd5b8063c4461834146106e1578063cbed8b9c146106f7578063d1deba1f14610717578063d46fb1881461072a578063d547741f1461075f57600080fd5b80639f38369a116100fd5780639f38369a14610638578063a217fddf14610658578063a6c3d1651461066d578063b353aaa71461068d578063baf3292d146106c157600080fd5b80638cfd8f5c1461057b5780638da5cb5b146105b35780638dd405cd146105e557806391d14854146105f8578063950c8a741461061857600080fd5b806336568abe116101d25780635b8c41e6116101965780635b8c41e61461049d5780635c975abb146104ec57806366ad5c8a14610504578063715018a6146105245780637533d788146105395780638456cb591461056657600080fd5b806336568abe146103fb5780633d8b38f61461041b5780633f1f4fa41461043b5780633f4ba83a1461046857806342d65a8d1461047d57600080fd5b8063248a9ca311610219578063248a9ca31461030c57806326232a2e1461034a5780632f2ff15d1461038757806335082933146103a7578063353efdcf146103c757600080fd5b80621d35671461025557806301ffc9a71461027757806307e0db17146102ac5780630df37483146102cc57806310ddb137146102ec575b600080fd5b34801561026157600080fd5b5061027561027036600461303c565b61083f565b005b34801561028357600080fd5b506102976102923660046130cf565b610a70565b60405190151581526020015b60405180910390f35b3480156102b857600080fd5b506102756102c73660046130f9565b610a81565b3480156102d857600080fd5b506102756102e7366004613114565b610b0a565b3480156102f857600080fd5b506102756103073660046130f9565b610b29565b34801561031857600080fd5b5061033c61032736600461313e565b60009081526020819052604090206001015490565b6040519081526020016102a3565b34801561035657600080fd5b5060085461036f9061010090046001600160601b031681565b6040516001600160601b0390911681526020016102a3565b34801561039357600080fd5b506102756103a236600461316e565b610b81565b3480156103b357600080fd5b506102756103c236600461319a565b610bab565b3480156103d357600080fd5b5061033c7f2561bf26f818282a3be40719542054d2173eb0d38539e8a8d3cff22f29fd238481565b34801561040757600080fd5b5061027561041636600461316e565b610c77565b34801561042757600080fd5b506102976104363660046131b5565b610cf5565b34801561044757600080fd5b5061033c6104563660046130f9565b60046020526000908152604090205481565b34801561047457600080fd5b50610275610dc1565b34801561048957600080fd5b506102756104983660046131b5565b610dd7565b3480156104a957600080fd5b5061033c6104b8366004613274565b6006602090815260009384526040808520845180860184018051928152908401958401959095209452929052825290205481565b3480156104f857600080fd5b5060085460ff16610297565b34801561051057600080fd5b5061027561051f36600461303c565b610e5d565b34801561053057600080fd5b50610275610f39565b34801561054557600080fd5b506105596105543660046130f9565b610f4d565b6040516102a39190613364565b34801561057257600080fd5b50610275610fe7565b34801561058757600080fd5b5061033c610596366004613377565b600360209081526000928352604080842090915290825290205481565b3480156105bf57600080fd5b506001546001600160a01b03165b6040516001600160a01b0390911681526020016102a3565b6102756105f33660046133af565b610ffa565b34801561060457600080fd5b5061029761061336600461316e565b6113c4565b34801561062457600080fd5b506005546105cd906001600160a01b031681565b34801561064457600080fd5b506105596106533660046130f9565b6113ed565b34801561066457600080fd5b5061033c600081565b34801561067957600080fd5b506102756106883660046131b5565b611503565b34801561069957600080fd5b506105cd7f000000000000000000000000000000000000000000000000000000000000000081565b3480156106cd57600080fd5b506102756106dc36600461319a565b61158c565b3480156106ed57600080fd5b5061033c61271081565b34801561070357600080fd5b5061027561071236600461342a565b6115e8565b61027561072536600461303c565b61167d565b34801561073657600080fd5b5061074a610745366004613498565b611893565b604080519283526020830191909152016102a3565b34801561076b57600080fd5b5061027561077a36600461316e565b611969565b34801561078b57600080fd5b5061027561079a3660046134fa565b61198e565b3480156107ab57600080fd5b506102756107ba3660046131b5565b611a40565b3480156107cb57600080fd5b506102756107da36600461319a565b611a9a565b3480156107eb57600080fd5b506102756107fa36600461319a565b611acf565b34801561080b57600080fd5b5061055961081a366004613536565b611b45565b34801561082b57600080fd5b5061027561083a366004613581565b611bf8565b337f00000000000000000000000000000000000000000000000000000000000000006001600160a01b0316146108bc5760405162461bcd60e51b815260206004820152601e60248201527f4c7a4170703a20696e76616c696420656e64706f696e742063616c6c6572000060448201526064015b60405180910390fd5b61ffff8616600090815260026020526040812080546108da906135aa565b80601f0160208091040260200160405190810160405280929190818152602001828054610906906135aa565b80156109535780601f1061092857610100808354040283529160200191610953565b820191906000526020600020905b81548152906001019060200180831161093657829003601f168201915b5050505050905080518686905014801561096e575060008151115b801561099657508051602082012060405161098c90889088906135e4565b6040518091039020145b6109f15760405162461bcd60e51b815260206004820152602660248201527f4c7a4170703a20696e76616c696420736f757263652073656e64696e6720636f6044820152651b9d1c9858dd60d21b60648201526084016108b3565b610a678787878080601f01602080910402602001604051908101604052809392919081815260200183838082843760009201919091525050604080516020601f8a018190048102820181019092528881528a935091508890889081908401838280828437600092019190915250611d2a92505050565b50505050505050565b6000610a7b82611da3565b92915050565b610a89611dd8565b6040516307e0db1760e01b815261ffff821660048201527f00000000000000000000000000000000000000000000000000000000000000006001600160a01b0316906307e0db17906024015b600060405180830381600087803b158015610aef57600080fd5b505af1158015610b03573d6000803e3d6000fd5b5050505050565b610b12611dd8565b61ffff909116600090815260046020526040902055565b610b31611dd8565b6040516310ddb13760e01b815261ffff821660048201527f00000000000000000000000000000000000000000000000000000000000000006001600160a01b0316906310ddb13790602401610ad5565b600082815260208190526040902060010154610b9c81611e32565b610ba68383611e3c565b505050565b6000610bb681611e32565b6001600160a01b038216610c215760405162461bcd60e51b815260206004820152602c60248201527f61646d696e57616c6c65742061646472657373206d757374206e6f742062652060448201526b7a65726f206164647265737360a01b60648201526084016108b3565b600980546001600160a01b0319166001600160a01b0384169081179091556040519081527f1b651cfd0a3f185590087e7e632381434dfada46f037b9081264f9f5bdbfcd9b906020015b60405180910390a15050565b6001600160a01b0381163314610ce75760405162461bcd60e51b815260206004820152602f60248201527f416363657373436f6e74726f6c3a2063616e206f6e6c792072656e6f756e636560448201526e103937b632b9903337b91039b2b63360891b60648201526084016108b3565b610cf18282611ec0565b5050565b61ffff831660009081526002602052604081208054829190610d16906135aa565b80601f0160208091040260200160405190810160405280929190818152602001828054610d42906135aa565b8015610d8f5780601f10610d6457610100808354040283529160200191610d8f565b820191906000526020600020905b815481529060010190602001808311610d7257829003601f168201915b505050505090508383604051610da69291906135e4565b60405180910390208180519060200120149150509392505050565b6000610dcc81611e32565b610dd4611f25565b50565b610ddf611dd8565b6040516342d65a8d60e01b81526001600160a01b037f000000000000000000000000000000000000000000000000000000000000000016906342d65a8d90610e2f9086908690869060040161361d565b600060405180830381600087803b158015610e4957600080fd5b505af1158015610a67573d6000803e3d6000fd5b333014610ebb5760405162461bcd60e51b815260206004820152602660248201527f4e6f6e626c6f636b696e674c7a4170703a2063616c6c6572206d7573742062656044820152650204c7a4170760d41b60648201526084016108b3565b610f318686868080601f01602080910402602001604051908101604052809392919081815260200183838082843760009201919091525050604080516020601f890181900481028201810190925287815289935091508790879081908401838280828437600092019190915250611f7792505050565b505050505050565b610f41611dd8565b610f4b6000611f7d565b565b60026020526000908152604090208054610f66906135aa565b80601f0160208091040260200160405190810160405280929190818152602001828054610f92906135aa565b8015610fdf5780601f10610fb457610100808354040283529160200191610fdf565b820191906000526020600020905b815481529060010190602001808311610fc257829003601f168201915b505050505081565b6000610ff281611e32565b610dd4611fcf565b61100261200c565b61100a612065565b3332146110595760405162461bcd60e51b815260206004820152601f60248201527f436f6e74726163742061646472657373206973206e6f7420616c6c6f7765640060448201526064016108b3565b8460a001354211156110ad5760405162461bcd60e51b815260206004820152601d60248201527f496e76616c69642065787069726174696f6e20696e206465706f73697400000060448201526064016108b3565b6110bd60a086016080870161363b565b6111015760405162461bcd60e51b81526020600482015260156024820152744d696e74206973206e6f7420617661696c61626c6560581b60448201526064016108b3565b80156111365761111285358361366e565b3410156111315760405162461bcd60e51b81526004016108b390613681565b611156565b813410156111565760405162461bcd60e51b81526004016108b390613681565b6111c461118861118361116e368990038901896136c3565b336000908152600a60205260409020546120ab565b612162565b85858080601f01602080910402602001604051908101604052809392919081815260200183838082843760009201919091525061217592505050565b6112045760405162461bcd60e51b8152602060048201526011602482015270496e76616c6964207369676e617475726560781b60448201526064016108b3565b336000908152600a602052604081208054600101905560085461271087356101009092046001600160601b03168202049190611241908390613752565b9050600033602089013561125b60608b0160408c0161319a565b604080516001600160a01b03948516602082015290810192909252909116606082015260800160408051601f1981840301815291905290506112c06112a660808a0160608b016130f9565b82336000604051806020016040528060008152508a6121a5565b83156112fa576009546112dc906001600160a01b03168461234a565b6112f56112ef60608a0160408b0161319a565b8361234a565b61137c565b600954611336906001600160a01b037f000000000000000000000000000000000000000000000000000000000000000081169133911686612463565b61137c3361134a60608b0160408c0161319a565b6001600160a01b037f000000000000000000000000000000000000000000000000000000000000000016919085612463565b7fbbe2352bd03b7cd7c31944f576c3385664413776701d9f7a048f0e8489d71a9d8886866040516113af93929190613765565b60405180910390a1505050610b036001600755565b6000918252602082815260408084206001600160a01b0393909316845291905290205460ff1690565b61ffff8116600090815260026020526040812080546060929190611410906135aa565b80601f016020809104026020016040519081016040528092919081815260200182805461143c906135aa565b80156114895780601f1061145e57610100808354040283529160200191611489565b820191906000526020600020905b81548152906001019060200180831161146c57829003601f168201915b5050505050905080516000036114e15760405162461bcd60e51b815260206004820152601d60248201527f4c7a4170703a206e6f20747275737465642070617468207265636f726400000060448201526064016108b3565b6114fc6000601483516114f49190613752565b8391906124bd565b9392505050565b61150b611dd8565b818130604051602001611520939291906137dc565b60408051601f1981840301815291815261ffff851660009081526002602052209061154b9082613848565b507f8c0400cfe2d1199b1a725c78960bcc2a344d869b80590d0f2bd005db15a572ce83838360405161157f9392919061361d565b60405180910390a1505050565b611594611dd8565b600580546001600160a01b0319166001600160a01b0383169081179091556040519081527f5db758e995a17ec1ad84bdef7e8c3293a0bd6179bcce400dff5d4c3d87db726b9060200160405180910390a150565b6115f0611dd8565b6040516332fb62e760e21b81526001600160a01b037f0000000000000000000000000000000000000000000000000000000000000000169063cbed8b9c906116449088908890889088908890600401613907565b600060405180830381600087803b15801561165e57600080fd5b505af1158015611672573d6000803e3d6000fd5b505050505050505050565b61ffff861660009081526006602052604080822090516116a090889088906135e4565b90815260408051602092819003830190206001600160401b038716600090815292529020549050806117205760405162461bcd60e51b815260206004820152602360248201527f4e6f6e626c6f636b696e674c7a4170703a206e6f2073746f726564206d65737360448201526261676560e81b60648201526084016108b3565b8083836040516117319291906135e4565b6040518091039020146117905760405162461bcd60e51b815260206004820152602160248201527f4e6f6e626c6f636b696e674c7a4170703a20696e76616c6964207061796c6f616044820152601960fa1b60648201526084016108b3565b61ffff871660009081526006602052604080822090516117b390899089906135e4565b90815260408051602092819003830181206001600160401b038916600090815290845282902093909355601f8801829004820283018201905286825261184b918991899089908190840183828082843760009201919091525050604080516020601f8a018190048102820181019092528881528a935091508890889081908401838280828437600092019190915250611f7792505050565b7fc264d91f3adc5588250e1551f547752ca0cfa8f6b530d243b9f9f4cab10ea8e58787878785604051611882959493929190613935565b60405180910390a150505050505050565b60408051600060208201819052918101829052606081018290528190819060800160408051601f198184030181529082905263040a7bb160e41b825291506001600160a01b037f000000000000000000000000000000000000000000000000000000000000000016906340a7bb109061191a908a90309086908c908c908c90600401613970565b6040805180830381865afa158015611936573d6000803e3d6000fd5b505050506040513d601f19601f8201168201806040525081019061195a91906139c6565b92509250505b94509492505050565b60008281526020819052604090206001015461198481611e32565b610ba68383611ec0565b611996611dd8565b600081116119de5760405162461bcd60e51b81526020600482015260156024820152744c7a4170703a20696e76616c6964206d696e47617360581b60448201526064016108b3565b61ffff83811660008181526003602090815260408083209487168084529482529182902085905581519283528201929092529081018290527f9d5c7c0b934da8fefa9c7760c98383778a12dfbfc0c3b3106518f43fb9508ac09060600161157f565b611a48611dd8565b61ffff83166000908152600260205260409020611a668284836139ea565b507ffa41487ad5d6728f0b19276fa1eddc16558578f5109fc39d2dc33c3230470dab83838360405161157f9392919061361d565b6000611aa581611e32565b610cf17f2561bf26f818282a3be40719542054d2173eb0d38539e8a8d3cff22f29fd238483611e3c565b611ad7611dd8565b6001600160a01b038116611b3c5760405162461bcd60e51b815260206004820152602660248201527f4f776e61626c653a206e6577206f776e657220697320746865207a65726f206160448201526564647265737360d01b60648201526084016108b3565b610dd481611f7d565b604051633d7b2f6f60e21b815261ffff808616600483015284166024820152306044820152606481018290526060907f00000000000000000000000000000000000000000000000000000000000000006001600160a01b03169063f5ecbdbc90608401600060405180830381865afa158015611bc5573d6000803e3d6000fd5b505050506040513d6000823e601f3d908101601f19168201604052611bed9190810190613aa9565b90505b949350505050565b6000611c0381611e32565b6000826001600160601b031611611c6a5760405162461bcd60e51b815260206004820152602560248201527f706c6174666f726d466565206d7573742062652067726561746572207468616e604482015264207a65726f60d81b60648201526084016108b3565b612710826001600160601b031610611ccf5760405162461bcd60e51b815260206004820152602260248201527f706c6174666f726d466565206d757374206265206c657373207468616e203130604482015261302560f01b60648201526084016108b3565b600880546cffffffffffffffffffffffff0019166101006001600160601b038516908102919091179091556040519081527fbe3599c33046219ddc3706f4b99caca706dc0f53775580d18a367dc2188c96e590602001610c6b565b600080611d8d5a60966366ad5c8a60e01b89898989604051602401611d529493929190613b1f565b60408051601f198184030181529190526020810180516001600160e01b03166001600160e01b031990931692909217909152309291906125ca565b9150915081610f3157610f318686868685612654565b60006001600160e01b03198216637965db0b60e01b1480610a7b57506301ffc9a760e01b6001600160e01b0319831614610a7b565b6001546001600160a01b03163314610f4b5760405162461bcd60e51b815260206004820181905260248201527f4f776e61626c653a2063616c6c6572206973206e6f7420746865206f776e657260448201526064016108b3565b610dd481336126f1565b611e4682826113c4565b610cf1576000828152602081815260408083206001600160a01b03851684529091529020805460ff19166001179055611e7c3390565b6001600160a01b0316816001600160a01b0316837f2f8788117e7eff1d82e926ec794901d17c78024a50270940304540a733656f0d60405160405180910390a45050565b611eca82826113c4565b15610cf1576000828152602081815260408083206001600160a01b0385168085529252808320805460ff1916905551339285917ff6391f5c32d9c69d2a47ea670b442974b53935d1edc7fd64eb21e047a839171b9190a45050565b611f2d61274a565b6008805460ff191690557f5db9ee0a495bf2e6ff9c91a7834c1ba4fdd244a5e8aa4e537bd38aeae4b073aa335b6040516001600160a01b03909116815260200160405180910390a1565b50505050565b600180546001600160a01b038381166001600160a01b0319831681179093556040519116919082907f8be0079c531659141344cd1fd0a4f28419497f9722a3daafe3b4186f6b6457e090600090a35050565b611fd7612065565b6008805460ff191660011790557f62e78cea01bee320cd4e420270b5ea74000d11b0c9f74754ebdbfc544b05a258611f5a3390565b60026007540361205e5760405162461bcd60e51b815260206004820152601f60248201527f5265656e7472616e637947756172643a207265656e7472616e742063616c6c0060448201526064016108b3565b6002600755565b60085460ff1615610f4b5760405162461bcd60e51b815260206004820152601060248201526f14185d5cd8589b194e881c185d5cd95960821b60448201526064016108b3565b60007f67c02de736e9c6dc641c0bcee496661b6fc4f976c46fab69b489896b51083b8c83600001518460200151856040015186606001518760800151878960a00151604051602001612144989796959493929190978852602088019690965260408701949094526001600160a01b0392909216606086015261ffff166080850152151560a084015260c083015260e08201526101000190565b60405160208183030381529060405280519060200120905092915050565b6000610a7b61216f612793565b836128ba565b60006114fc7f2561bf26f818282a3be40719542054d2173eb0d38539e8a8d3cff22f29fd238461061385856128e1565b61ffff8616600090815260026020526040812080546121c3906135aa565b80601f01602080910402602001604051908101604052809291908181526020018280546121ef906135aa565b801561223c5780601f106122115761010080835404028352916020019161223c565b820191906000526020600020905b81548152906001019060200180831161221f57829003601f168201915b5050505050905080516000036122ad5760405162461bcd60e51b815260206004820152603060248201527f4c7a4170703a2064657374696e6174696f6e20636861696e206973206e6f742060448201526f61207472757374656420736f7572636560801b60648201526084016108b3565b6122b8878751612905565b60405162c5803160e81b81526001600160a01b037f0000000000000000000000000000000000000000000000000000000000000000169063c580310090849061230f908b9086908c908c908c908c90600401613b5d565b6000604051808303818588803b15801561232857600080fd5b505af115801561233c573d6000803e3d6000fd5b505050505050505050505050565b8047101561239a5760405162461bcd60e51b815260206004820152601d60248201527f416464726573733a20696e73756666696369656e742062616c616e636500000060448201526064016108b3565b6000826001600160a01b03168260405160006040518083038185875af1925050503d80600081146123e7576040519150601f19603f3d011682016040523d82523d6000602084013e6123ec565b606091505b5050905080610ba65760405162461bcd60e51b815260206004820152603a60248201527f416464726573733a20756e61626c6520746f2073656e642076616c75652c207260448201527f6563697069656e74206d6179206861766520726576657274656400000000000060648201526084016108b3565b604080516001600160a01b0385811660248301528416604482015260648082018490528251808303909101815260849091019091526020810180516001600160e01b03166323b872dd60e01b179052611f77908590612976565b6060816124cb81601f61366e565b101561250a5760405162461bcd60e51b815260206004820152600e60248201526d736c6963655f6f766572666c6f7760901b60448201526064016108b3565b612514828461366e565b845110156125585760405162461bcd60e51b8152602060048201526011602482015270736c6963655f6f75744f66426f756e647360781b60448201526064016108b3565b60608215801561257757604051915060008252602082016040526125c1565b6040519150601f8416801560200281840101858101878315602002848b0101015b818310156125b0578051835260209283019201612598565b5050858452601f01601f1916604052505b50949350505050565b6000606060008060008661ffff166001600160401b038111156125ef576125ef613207565b6040519080825280601f01601f191660200182016040528015612619576020820181803683370190505b50905060008087516020890160008d8df191503d92508683111561263b578692505b828152826000602083013e909890975095505050505050565b8180519060200120600660008761ffff1661ffff168152602001908152602001600020856040516126859190613bb7565b9081526040805191829003602090810183206001600160401b0388166000908152915220919091557fe183f33de2837795525b4792ca4cd60535bd77c53b7e7030060bfcf5734d6b0c906126e29087908790879087908790613bd3565b60405180910390a15050505050565b6126fb82826113c4565b610cf15761270881612a48565b612713836020612a5a565b604051602001612724929190613c31565b60408051601f198184030181529082905262461bcd60e51b82526108b391600401613364565b60085460ff16610f4b5760405162461bcd60e51b815260206004820152601460248201527314185d5cd8589b194e881b9bdd081c185d5cd95960621b60448201526064016108b3565b6000306001600160a01b037f0000000000000000000000000000000000000000000000000000000000000000161480156127ec57507f000000000000000000000000000000000000000000000000000000000000000046145b1561281657507f000000000000000000000000000000000000000000000000000000000000000090565b50604080517f00000000000000000000000000000000000000000000000000000000000000006020808301919091527f0000000000000000000000000000000000000000000000000000000000000000828401527f000000000000000000000000000000000000000000000000000000000000000060608301524660808301523060a0808401919091528351808403909101815260c0909201909252805191012090565b60405161190160f01b60208201526022810183905260428101829052600090606201612144565b60008060006128f08585612bf5565b915091506128fd81612c3a565b509392505050565b61ffff82166000908152600460205260408120549081900361292657506127105b80821115610ba65760405162461bcd60e51b815260206004820181905260248201527f4c7a4170703a207061796c6f61642073697a6520697320746f6f206c6172676560448201526064016108b3565b60006129cb826040518060400160405280602081526020017f5361666545524332303a206c6f772d6c6576656c2063616c6c206661696c6564815250856001600160a01b0316612d849092919063ffffffff16565b805190915015610ba657808060200190518101906129e99190613ca6565b610ba65760405162461bcd60e51b815260206004820152602a60248201527f5361666545524332303a204552433230206f7065726174696f6e20646964206e6044820152691bdd081cdd58d8d9595960b21b60648201526084016108b3565b6060610a7b6001600160a01b03831660145b60606000612a69836002613cc3565b612a7490600261366e565b6001600160401b03811115612a8b57612a8b613207565b6040519080825280601f01601f191660200182016040528015612ab5576020820181803683370190505b509050600360fc1b81600081518110612ad057612ad0613cda565b60200101906001600160f81b031916908160001a905350600f60fb1b81600181518110612aff57612aff613cda565b60200101906001600160f81b031916908160001a9053506000612b23846002613cc3565b612b2e90600161366e565b90505b6001811115612ba6576f181899199a1a9b1b9c1cb0b131b232b360811b85600f1660108110612b6257612b62613cda565b1a60f81b828281518110612b7857612b78613cda565b60200101906001600160f81b031916908160001a90535060049490941c93612b9f81613cf0565b9050612b31565b5083156114fc5760405162461bcd60e51b815260206004820181905260248201527f537472696e67733a20686578206c656e67746820696e73756666696369656e7460448201526064016108b3565b6000808251604103612c2b5760208301516040840151606085015160001a612c1f87828585612d93565b94509450505050612c33565b506000905060025b9250929050565b6000816004811115612c4e57612c4e613d07565b03612c565750565b6001816004811115612c6a57612c6a613d07565b03612cb75760405162461bcd60e51b815260206004820152601860248201527f45434453413a20696e76616c6964207369676e6174757265000000000000000060448201526064016108b3565b6002816004811115612ccb57612ccb613d07565b03612d185760405162461bcd60e51b815260206004820152601f60248201527f45434453413a20696e76616c6964207369676e6174757265206c656e6774680060448201526064016108b3565b6003816004811115612d2c57612d2c613d07565b03610dd45760405162461bcd60e51b815260206004820152602260248201527f45434453413a20696e76616c6964207369676e6174757265202773272076616c604482015261756560f01b60648201526084016108b3565b6060611bf08484600085612e54565b6000807f7fffffffffffffffffffffffffffffff5d576e7357a4501ddfe92f46681b20a0831115612dca5750600090506003611960565b6040805160008082526020820180845289905260ff881692820192909252606081018690526080810185905260019060a0016020604051602081039080840390855afa158015612e1e573d6000803e3d6000fd5b5050604051601f1901519150506001600160a01b038116612e4757600060019250925050611960565b9660009650945050505050565b606082471015612eb55760405162461bcd60e51b815260206004820152602660248201527f416464726573733a20696e73756666696369656e742062616c616e636520666f6044820152651c8818d85b1b60d21b60648201526084016108b3565b600080866001600160a01b03168587604051612ed19190613bb7565b60006040518083038185875af1925050503d8060008114612f0e576040519150601f19603f3d011682016040523d82523d6000602084013e612f13565b606091505b5091509150612f2487838387612f2f565b979650505050505050565b60608315612f9e578251600003612f97576001600160a01b0385163b612f975760405162461bcd60e51b815260206004820152601d60248201527f416464726573733a2063616c6c20746f206e6f6e2d636f6e747261637400000060448201526064016108b3565b5081611bf0565b611bf08383815115612fb35781518083602001fd5b8060405162461bcd60e51b81526004016108b39190613364565b803561ffff81168114612fdf57600080fd5b919050565b60008083601f840112612ff657600080fd5b5081356001600160401b0381111561300d57600080fd5b602083019150836020828501011115612c3357600080fd5b80356001600160401b0381168114612fdf57600080fd5b6000806000806000806080878903121561305557600080fd5b61305e87612fcd565b955060208701356001600160401b038082111561307a57600080fd5b6130868a838b01612fe4565b909750955085915061309a60408a01613025565b945060608901359150808211156130b057600080fd5b506130bd89828a01612fe4565b979a9699509497509295939492505050565b6000602082840312156130e157600080fd5b81356001600160e01b0319811681146114fc57600080fd5b60006020828403121561310b57600080fd5b6114fc82612fcd565b6000806040838503121561312757600080fd5b61313083612fcd565b946020939093013593505050565b60006020828403121561315057600080fd5b5035919050565b80356001600160a01b0381168114612fdf57600080fd5b6000806040838503121561318157600080fd5b8235915061319160208401613157565b90509250929050565b6000602082840312156131ac57600080fd5b6114fc82613157565b6000806000604084860312156131ca57600080fd5b6131d384612fcd565b925060208401356001600160401b038111156131ee57600080fd5b6131fa86828701612fe4565b9497909650939450505050565b634e487b7160e01b600052604160045260246000fd5b604051601f8201601f191681016001600160401b038111828210171561324557613245613207565b604052919050565b60006001600160401b0382111561326657613266613207565b50601f01601f191660200190565b60008060006060848603121561328957600080fd5b61329284612fcd565b925060208401356001600160401b038111156132ad57600080fd5b8401601f810186136132be57600080fd5b80356132d16132cc8261324d565b61321d565b8181528760208385010111156132e657600080fd5b8160208401602083013760006020838301015280945050505061330b60408501613025565b90509250925092565b60005b8381101561332f578181015183820152602001613317565b50506000910152565b60008151808452613350816020860160208601613314565b601f01601f19169290920160200192915050565b6020815260006114fc6020830184613338565b6000806040838503121561338a57600080fd5b61339383612fcd565b915061319160208401612fcd565b8015158114610dd457600080fd5b60008060008060008587036101208112156133c957600080fd5b60c08112156133d757600080fd5b5085945060c08601356001600160401b038111156133f457600080fd5b61340088828901612fe4565b90955093505060e0860135915061010086013561341c816133a1565b809150509295509295909350565b60008060008060006080868803121561344257600080fd5b61344b86612fcd565b945061345960208701612fcd565b93506040860135925060608601356001600160401b0381111561347b57600080fd5b61348788828901612fe4565b969995985093965092949392505050565b600080600080606085870312156134ae57600080fd5b6134b785612fcd565b935060208501356134c7816133a1565b925060408501356001600160401b038111156134e257600080fd5b6134ee87828801612fe4565b95989497509550505050565b60008060006060848603121561350f57600080fd5b61351884612fcd565b925061352660208501612fcd565b9150604084013590509250925092565b6000806000806080858703121561354c57600080fd5b61355585612fcd565b935061356360208601612fcd565b925061357160408601613157565b9396929550929360600135925050565b60006020828403121561359357600080fd5b81356001600160601b03811681146114fc57600080fd5b600181811c908216806135be57607f821691505b6020821081036135de57634e487b7160e01b600052602260045260246000fd5b50919050565b8183823760009101908152919050565b81835281816020850137506000828201602090810191909152601f909101601f19169091010190565b61ffff84168152604060208201526000611bed6040830184866135f4565b60006020828403121561364d57600080fd5b81356114fc816133a1565b634e487b7160e01b600052601160045260246000fd5b80820180821115610a7b57610a7b613658565b60208082526022908201527f496e73756666696369656e74206e617469766520746f6b656e2062616c616e63604082015261657360f01b606082015260800190565b600060c082840312156136d557600080fd5b60405160c081018181106001600160401b03821117156136f7576136f7613207565b8060405250823581526020830135602082015261371660408401613157565b604082015261372760608401612fcd565b6060820152608083013561373a816133a1565b608082015260a0928301359281019290925250919050565b81810381811115610a7b57610a7b613658565b833581526020808501359082015261010081016001600160a01b0361378c60408701613157565b16604083015261ffff6137a160608701612fcd565b16606083015260808501356137b5816133a1565b1515608083015260a0948501359482019490945260c0810192909252151560e09091015290565b8284823760609190911b6bffffffffffffffffffffffff19169101908152601401919050565b601f821115610ba657600081815260208120601f850160051c810160208610156138295750805b601f850160051c820191505b81811015610f3157828155600101613835565b81516001600160401b0381111561386157613861613207565b6138758161386f84546135aa565b84613802565b602080601f8311600181146138aa57600084156138925750858301515b600019600386901b1c1916600185901b178555610f31565b600085815260208120601f198616915b828110156138d9578886015182559484019460019091019084016138ba565b50858210156138f75787850151600019600388901b60f8161c191681555b5050505050600190811b01905550565b600061ffff808816835280871660208401525084604083015260806060830152612f246080830184866135f4565b61ffff861681526080602082015260006139536080830186886135f4565b6001600160401b0394909416604083015250606001529392505050565b61ffff871681526001600160a01b038616602082015260a06040820181905260009061399e90830187613338565b851515606084015282810360808401526139b98185876135f4565b9998505050505050505050565b600080604083850312156139d957600080fd5b505080516020909101519092909150565b6001600160401b03831115613a0157613a01613207565b613a1583613a0f83546135aa565b83613802565b6000601f841160018114613a495760008515613a315750838201355b600019600387901b1c1916600186901b178355610b03565b600083815260209020601f19861690835b82811015613a7a5786850135825560209485019460019092019101613a5a565b5086821015613a975760001960f88860031b161c19848701351681555b505060018560011b0183555050505050565b600060208284031215613abb57600080fd5b81516001600160401b03811115613ad157600080fd5b8201601f81018413613ae257600080fd5b8051613af06132cc8261324d565b818152856020838501011115613b0557600080fd5b613b16826020830160208601613314565b95945050505050565b61ffff85168152608060208201526000613b3c6080830186613338565b6001600160401b03851660408401528281036060840152612f248185613338565b61ffff8716815260c060208201526000613b7a60c0830188613338565b8281036040840152613b8c8188613338565b6001600160a01b0387811660608601528616608085015283810360a085015290506139b98185613338565b60008251613bc9818460208701613314565b9190910192915050565b61ffff8616815260a060208201526000613bf060a0830187613338565b6001600160401b03861660408401528281036060840152613c118186613338565b90508281036080840152613c258185613338565b98975050505050505050565b7f416363657373436f6e74726f6c3a206163636f756e7420000000000000000000815260008351613c69816017850160208801613314565b7001034b99036b4b9b9b4b733903937b6329607d1b6017918401918201528351613c9a816028840160208801613314565b01602801949350505050565b600060208284031215613cb857600080fd5b81516114fc816133a1565b8082028115828204841417610a7b57610a7b613658565b634e487b7160e01b600052603260045260246000fd5b600081613cff57613cff613658565b506000190190565b634e487b7160e01b600052602160045260246000fdfea2646970667358221220aeee47d5b26d4b13716f7a8cf21a8c827f64a519a1c761e5faa10d04509b370264736f6c63430008110033",
  "linkReferences": {},
  "deployedLinkReferences": {}
}