{
  "_format": "hh-sol-artifact-1",
  "contractName": "DepositFactoryContract",
  "sourceName": "contracts/parents/DepositFactoryContract.sol",
  "abi": [
    {
      "inputs": [
        {
          "internalType": "address",
          "name": "acceptToken",
          "type": "address"
        },
        {
          "internalType": "address",
          "name": "owner",
          "type": "address"
        },
        {
          "internalType": "address",
          "name": "adminWallet",
          "type": "address"
        },
        {
          "internalType": "address",
          "name": "depositRoleAccount",
          "type": "address"
        }
      ],
      "stateMutability": "nonpayable",
      "type": "constructor"
    },
    {
      "anonymous": false,
      "inputs": [
        {
          "indexed": false,
          "internalType": "address",
          "name": "seller",
          "type": "address"
        },
        {
          "indexed": false,
          "internalType": "address",
          "name": "newLzSenderContract",
          "type": "address"
        },
        {
          "indexed": false,
          "internalType": "address",
          "name": "receiveFactoryContract",
          "type": "address"
        },
        {
          "indexed": false,
          "internalType": "uint16",
          "name": "dstChainId",
          "type": "uint16"
        }
      ],
      "name": "CreatedLZSenderContract",
      "type": "event"
    },
    {
      "anonymous": false,
      "inputs": [
        {
          "components": [
            {
              "internalType": "uint256",
              "name": "mintPrice",
              "type": "uint256"
            },
            {
              "internalType": "uint256",
              "name": "mintQuantity",
              "type": "uint256"
            },
            {
              "internalType": "address",
              "name": "sellerAddress",
              "type": "address"
            },
            {
              "internalType": "uint16",
              "name": "dstChainId",
              "type": "uint16"
            },
            {
              "internalType": "bool",
              "name": "isMintAvailable",
              "type": "bool"
            },
            {
              "internalType": "uint256",
              "name": "deadline",
              "type": "uint256"
            }
          ],
          "indexed": false,
          "internalType": "struct DepositItem",
          "name": "depositItem",
          "type": "tuple"
        },
        {
          "indexed": false,
          "internalType": "uint256",
          "name": "lzGasFee",
          "type": "uint256"
        },
        {
          "indexed": false,
          "internalType": "bool",
          "name": "isNativeToken",
          "type": "bool"
        }
      ],
      "name": "DepositedToken",
      "type": "event"
    },
    {
      "anonymous": false,
      "inputs": [
        {
          "indexed": false,
          "internalType": "address",
          "name": "account",
          "type": "address"
        }
      ],
      "name": "Paused",
      "type": "event"
    },
    {
      "anonymous": false,
      "inputs": [
        {
          "indexed": true,
          "internalType": "bytes32",
          "name": "role",
          "type": "bytes32"
        },
        {
          "indexed": true,
          "internalType": "bytes32",
          "name": "previousAdminRole",
          "type": "bytes32"
        },
        {
          "indexed": true,
          "internalType": "bytes32",
          "name": "newAdminRole",
          "type": "bytes32"
        }
      ],
      "name": "RoleAdminChanged",
      "type": "event"
    },
    {
      "anonymous": false,
      "inputs": [
        {
          "indexed": true,
          "internalType": "bytes32",
          "name": "role",
          "type": "bytes32"
        },
        {
          "indexed": true,
          "internalType": "address",
          "name": "account",
          "type": "address"
        },
        {
          "indexed": true,
          "internalType": "address",
          "name": "sender",
          "type": "address"
        }
      ],
      "name": "RoleGranted",
      "type": "event"
    },
    {
      "anonymous": false,
      "inputs": [
        {
          "indexed": true,
          "internalType": "bytes32",
          "name": "role",
          "type": "bytes32"
        },
        {
          "indexed": true,
          "internalType": "address",
          "name": "account",
          "type": "address"
        },
        {
          "indexed": true,
          "internalType": "address",
          "name": "sender",
          "type": "address"
        }
      ],
      "name": "RoleRevoked",
      "type": "event"
    },
    {
      "anonymous": false,
      "inputs": [
        {
          "indexed": false,
          "internalType": "address",
          "name": "adminWallet",
          "type": "address"
        }
      ],
      "name": "SetAdminWallet",
      "type": "event"
    },
    {
      "anonymous": false,
      "inputs": [
        {
          "indexed": false,
          "internalType": "uint96",
          "name": "platformFee",
          "type": "uint96"
        }
      ],
      "name": "SetPlatformFee",
      "type": "event"
    },
    {
      "anonymous": false,
      "inputs": [
        {
          "indexed": false,
          "internalType": "address",
          "name": "account",
          "type": "address"
        }
      ],
      "name": "Unpaused",
      "type": "event"
    },
    {
      "inputs": [],
      "name": "DEFAULT_ADMIN_ROLE",
      "outputs": [
        {
          "internalType": "bytes32",
          "name": "",
          "type": "bytes32"
        }
      ],
      "stateMutability": "view",
      "type": "function"
    },
    {
      "inputs": [],
      "name": "DEPOSIT_ROLE",
      "outputs": [
        {
          "internalType": "bytes32",
          "name": "",
          "type": "bytes32"
        }
      ],
      "stateMutability": "view",
      "type": "function"
    },
    {
      "inputs": [
        {
          "internalType": "address",
          "name": "layerZeroEndpoint",
          "type": "address"
        },
        {
          "internalType": "address",
          "name": "receiveFactoryContract",
          "type": "address"
        },
        {
          "internalType": "uint16",
          "name": "dstChainId",
          "type": "uint16"
        }
      ],
      "name": "createLZsenderContractBySeller",
      "outputs": [
        {
          "internalType": "address",
          "name": "lzSenderContractAddress",
          "type": "address"
        }
      ],
      "stateMutability": "nonpayable",
      "type": "function"
    },
    {
      "inputs": [
        {
          "components": [
            {
              "internalType": "uint256",
              "name": "mintPrice",
              "type": "uint256"
            },
            {
              "internalType": "uint256",
              "name": "mintQuantity",
              "type": "uint256"
            },
            {
              "internalType": "address",
              "name": "sellerAddress",
              "type": "address"
            },
            {
              "internalType": "uint16",
              "name": "dstChainId",
              "type": "uint16"
            },
            {
              "internalType": "bool",
              "name": "isMintAvailable",
              "type": "bool"
            },
            {
              "internalType": "uint256",
              "name": "deadline",
              "type": "uint256"
            }
          ],
          "internalType": "struct DepositItem",
          "name": "depositItem",
          "type": "tuple"
        },
        {
          "internalType": "bytes",
          "name": "signature",
          "type": "bytes"
        },
        {
          "internalType": "uint256",
          "name": "lzGasFee",
          "type": "uint256"
        },
        {
          "internalType": "bool",
          "name": "isNativeToken",
          "type": "bool"
        }
      ],
      "name": "depositTokenByClient",
      "outputs": [],
      "stateMutability": "payable",
      "type": "function"
    },
    {
      "inputs": [
        {
          "internalType": "bytes32",
          "name": "role",
          "type": "bytes32"
        }
      ],
      "name": "getRoleAdmin",
      "outputs": [
        {
          "internalType": "bytes32",
          "name": "",
          "type": "bytes32"
        }
      ],
      "stateMutability": "view",
      "type": "function"
    },
    {
      "inputs": [
        {
          "internalType": "bytes32",
          "name": "role",
          "type": "bytes32"
        },
        {
          "internalType": "address",
          "name": "account",
          "type": "address"
        }
      ],
      "name": "grantRole",
      "outputs": [],
      "stateMutability": "nonpayable",
      "type": "function"
    },
    {
      "inputs": [
        {
          "internalType": "bytes32",
          "name": "role",
          "type": "bytes32"
        },
        {
          "internalType": "address",
          "name": "account",
          "type": "address"
        }
      ],
      "name": "hasRole",
      "outputs": [
        {
          "internalType": "bool",
          "name": "",
          "type": "bool"
        }
      ],
      "stateMutability": "view",
      "type": "function"
    },
    {
      "inputs": [
        {
          "internalType": "address",
          "name": "",
          "type": "address"
        },
        {
          "internalType": "uint16",
          "name": "",
          "type": "uint16"
        }
      ],
      "name": "lzSenderContracts",
      "outputs": [
        {
          "internalType": "address",
          "name": "",
          "type": "address"
        }
      ],
      "stateMutability": "view",
      "type": "function"
    },
    {
      "inputs": [],
      "name": "pause",
      "outputs": [],
      "stateMutability": "nonpayable",
      "type": "function"
    },
    {
      "inputs": [],
      "name": "paused",
      "outputs": [
        {
          "internalType": "bool",
          "name": "",
          "type": "bool"
        }
      ],
      "stateMutability": "view",
      "type": "function"
    },
    {
      "inputs": [],
      "name": "platformFee",
      "outputs": [
        {
          "internalType": "uint96",
          "name": "",
          "type": "uint96"
        }
      ],
      "stateMutability": "view",
      "type": "function"
    },
    {
      "inputs": [
        {
          "internalType": "bytes32",
          "name": "role",
          "type": "bytes32"
        },
        {
          "internalType": "address",
          "name": "account",
          "type": "address"
        }
      ],
      "name": "renounceRole",
      "outputs": [],
      "stateMutability": "nonpayable",
      "type": "function"
    },
    {
      "inputs": [
        {
          "internalType": "bytes32",
          "name": "role",
          "type": "bytes32"
        },
        {
          "internalType": "address",
          "name": "account",
          "type": "address"
        }
      ],
      "name": "revokeRole",
      "outputs": [],
      "stateMutability": "nonpayable",
      "type": "function"
    },
    {
      "inputs": [
        {
          "internalType": "address",
          "name": "adminWallet_",
          "type": "address"
        }
      ],
      "name": "setAdminWallet",
      "outputs": [],
      "stateMutability": "nonpayable",
      "type": "function"
    },
    {
      "inputs": [
        {
          "internalType": "uint96",
          "name": "platformFee_",
          "type": "uint96"
        }
      ],
      "name": "setPlatformFee",
      "outputs": [],
      "stateMutability": "nonpayable",
      "type": "function"
    },
    {
      "inputs": [
        {
          "internalType": "address",
          "name": "account",
          "type": "address"
        }
      ],
      "name": "setupDepositRole",
      "outputs": [],
      "stateMutability": "nonpayable",
      "type": "function"
    },
    {
      "inputs": [
        {
          "internalType": "bytes4",
          "name": "interfaceId",
          "type": "bytes4"
        }
      ],
      "name": "supportsInterface",
      "outputs": [
        {
          "internalType": "bool",
          "name": "",
          "type": "bool"
        }
      ],
      "stateMutability": "view",
      "type": "function"
    },
    {
      "inputs": [],
      "name": "unpause",
      "outputs": [],
      "stateMutability": "nonpayable",
      "type": "function"
    }
  ],
  "bytecode": "0x61016060405260028054610100600160681b03191661fa001790553480156200002757600080fd5b5060405162004b4f38038062004b4f8339810160408190526200004a91620002fa565b604080518082018252601781527f4d756c7469636861696e4d696e74696e67456e67696e650000000000000000006020808301918252835180850190945260058452640312e302e360dc1b908401528151902060e08190527f06c015bd22b4c69690933c1058878ebdfef31f9aaae40bbe86d8a09fe1b2972c6101008190524660a0529192917f8b73c3c69bb8fe3d512ecc4cf759cc79239f7b179b0ffacaa9a75d522b39400f620001418184846040805160208101859052908101839052606081018290524660808201523060a082015260009060c0016040516020818303038152906040528051906020012090509392505050565b6080523060c0526101205250506001805550506002805460ff191690556001600160a01b038416620001c45760405162461bcd60e51b815260206004820152602260248201527f416363657074546f6b656e2063616e6e6f74206265207a65726f206164647265604482015261737360f01b606482015260840160405180910390fd5b6001600160a01b0384811661014052600380546001600160a01b031916918416919091179055620001f76000846200022d565b620002237f2561bf26f818282a3be40719542054d2173eb0d38539e8a8d3cff22f29fd2384826200022d565b5050505062000357565b6200023982826200023d565b5050565b6000828152602081815260408083206001600160a01b038516845290915290205460ff1662000239576000828152602081815260408083206001600160a01b03851684529091529020805460ff19166001179055620002993390565b6001600160a01b0316816001600160a01b0316837f2f8788117e7eff1d82e926ec794901d17c78024a50270940304540a733656f0d60405160405180910390a45050565b80516001600160a01b0381168114620002f557600080fd5b919050565b600080600080608085870312156200031157600080fd5b6200031c85620002dd565b93506200032c60208601620002dd565b92506200033c60408601620002dd565b91506200034c60608601620002dd565b905092959194509250565b60805160a05160c05160e051610100516101205161014051614796620003b960003960008181610bba0152610c070152600061155c015260006115ab01526000611586015260006114dd015260006115080152600061153301526147966000f3fe6080604052600436106200011f5760003560e01c80635c975abb11620000a1578063a217fddf116200006c578063a217fddf146200034c578063a94d13f71462000363578063d547741f14620003a8578063eea16b8414620003cd578063f99e5dbb14620003f257600080fd5b80635c975abb14620002de5780638456cb5914620002f85780638dd405cd146200031057806391d14854146200032757600080fd5b80633508293311620000ee578063350829331462000208578063353efdcf146200022d57806336568abe14620002635780633f4ba83a146200028857806354b317d114620002a057600080fd5b806301ffc9a71462000124578063248a9ca3146200015e57806326232a2e14620001a15780632f2ff15d14620001e1575b600080fd5b3480156200013157600080fd5b50620001496200014336600462001c2a565b62000417565b60405190151581526020015b60405180910390f35b3480156200016b57600080fd5b50620001926200017d36600462001c56565b60009081526020819052604090206001015490565b60405190815260200162000155565b348015620001ae57600080fd5b50600254620001c89061010090046001600160601b031681565b6040516001600160601b03909116815260200162000155565b348015620001ee57600080fd5b50620002066200020036600462001c8d565b6200042a565b005b3480156200021557600080fd5b50620002066200022736600462001cbc565b62000458565b3480156200023a57600080fd5b50620001927f2561bf26f818282a3be40719542054d2173eb0d38539e8a8d3cff22f29fd238481565b3480156200027057600080fd5b50620002066200028236600462001c8d565b6200052c565b3480156200029557600080fd5b5062000206620005ae565b348015620002ad57600080fd5b50620002c5620002bf36600462001ced565b620005c8565b6040516001600160a01b03909116815260200162000155565b348015620002eb57600080fd5b5060025460ff1662000149565b3480156200030557600080fd5b506200020662000745565b620002066200032136600462001d53565b6200075c565b3480156200033457600080fd5b50620001496200034636600462001c8d565b62000c82565b3480156200035957600080fd5b5062000192600081565b3480156200037057600080fd5b50620002c56200038236600462001e07565b60056020908152600092835260408084209091529082529020546001600160a01b031681565b348015620003b557600080fd5b5062000206620003c736600462001c8d565b62000cab565b348015620003da57600080fd5b5062000206620003ec36600462001cbc565b62000cd4565b348015620003ff57600080fd5b50620002066200041136600462001e36565b62000d0d565b6000620004248262000e46565b92915050565b600082815260208190526040902060010154620004478162000e7d565b62000453838362000e89565b505050565b6000620004658162000e7d565b6001600160a01b038216620004d65760405162461bcd60e51b815260206004820152602c60248201527f61646d696e57616c6c65742061646472657373206d757374206e6f742062652060448201526b7a65726f206164647265737360a01b60648201526084015b60405180910390fd5b600380546001600160a01b0319166001600160a01b0384169081179091556040519081527f1b651cfd0a3f185590087e7e632381434dfada46f037b9081264f9f5bdbfcd9b906020015b60405180910390a15050565b6001600160a01b03811633146200059e5760405162461bcd60e51b815260206004820152602f60248201527f416363657373436f6e74726f6c3a2063616e206f6e6c792072656e6f756e636560448201526e103937b632b9903337b91039b2b63360891b6064820152608401620004cd565b620005aa828262000f11565b5050565b6000620005bb8162000e7d565b620005c562000f79565b50565b6000808483604051620005db9062001c1c565b6001600160a01b03909216825261ffff166020820152604001604051809103906000f08015801562000611573d6000803e3d6000fd5b506040516bffffffffffffffffffffffff19606087811b8216602084015283901b16603482015290925082915060009060480160408051601f198184030181529082905263eb8d72b760e01b825291506001600160a01b0383169063eb8d72b79062000684908790859060040162001eb5565b600060405180830381600087803b1580156200069f57600080fd5b505af1158015620006b4573d6000803e3d6000fd5b505033600081815260056020908152604080832061ffff8b168085529083529281902080546001600160a01b0319166001600160a01b038b8116918217909255825195865292850192909252908a169083015260608201527f57a3e7b52ae8e847c5daf1415947e09d11b26e21b7cb1a57066612b266eadb379250608001905060405180910390a150509392505050565b6000620007528162000e7d565b620005c562000fcd565b620007666200100d565b6200077062001068565b333214620007c15760405162461bcd60e51b815260206004820152601f60248201527f436f6e74726163742061646472657373206973206e6f7420616c6c6f776564006044820152606401620004cd565b8460a00135421115620008175760405162461bcd60e51b815260206004820152601d60248201527f496e76616c69642065787069726174696f6e20696e206465706f7369740000006044820152606401620004cd565b6200082960a086016080870162001ed4565b6200086f5760405162461bcd60e51b81526020600482015260156024820152744d696e74206973206e6f7420617661696c61626c6560581b6044820152606401620004cd565b6000600581620008866060890160408a0162001cbc565b6001600160a01b031681526020810191909152604001600090812090620008b46080890160608a0162001ef4565b61ffff1681526020810191909152604001600020546001600160a01b0316905080620009235760405162461bcd60e51b815260206004820181905260248201527f4c5a53656e64657220636f6e7472616374206973206e6f7420637265617465646044820152606401620004cd565b811562000993576200093786358462001f28565b341015620009935760405162461bcd60e51b815260206004820152602260248201527f496e73756666696369656e74206e617469766520746f6b656e2062616c616e63604482015261657360f01b6064820152608401620004cd565b62000a09620009cc620009c6620009b0368a90038a018a62001f54565b33600090815260046020526040902054620010b2565b6200116a565b86868080601f0160208091040260200160405190810160405280939291908181526020018383808284376000920191909152506200118192505050565b62000a4b5760405162461bcd60e51b8152602060048201526011602482015270496e76616c6964207369676e617475726560781b6044820152606401620004cd565b3360009081526004602052604081208054600101905560025461271088356101009092046001600160601b0316820204919062000a8a90839062001ff9565b905060003360208a013562000aa660608c0160408d0162001cbc565b6040516bffffffffffffffffffffffff19606094851b811660208301526034820193909352921b166054820152606801604051602081830303815290604052905062000b6584823360405160240162000b019291906200200f565b60408051601f19818403018152918152602080830180516001600160e01b031663378f419760e11b1790528151808301909252601982527f4661696c656420746f2073656e64204c5a206d65737361676500000000000000908201528990620011bb565b50841562000ba85760035462000b85906001600160a01b031684620012a0565b62000ba262000b9b60608b0160408c0162001cbc565b83620012a0565b62000c30565b60035462000be6906001600160a01b037f000000000000000000000000000000000000000000000000000000000000000081169133911686620013bf565b62000c303362000bfd60608c0160408d0162001cbc565b6001600160a01b037f000000000000000000000000000000000000000000000000000000000000000016919085620013bf565b7fbbe2352bd03b7cd7c31944f576c3385664413776701d9f7a048f0e8489d71a9d89878760405162000c65939291906200203b565b60405180910390a15050505062000c7b60018055565b5050505050565b6000918252602082815260408084206001600160a01b0393909316845291905290205460ff1690565b60008281526020819052604090206001015462000cc88162000e7d565b62000453838362000f11565b600062000ce18162000e7d565b620005aa7f2561bf26f818282a3be40719542054d2173eb0d38539e8a8d3cff22f29fd23848362000e89565b600062000d1a8162000e7d565b6000826001600160601b03161162000d835760405162461bcd60e51b815260206004820152602560248201527f706c6174666f726d466565206d7573742062652067726561746572207468616e604482015264207a65726f60d81b6064820152608401620004cd565b612710826001600160601b03161062000dea5760405162461bcd60e51b815260206004820152602260248201527f706c6174666f726d466565206d757374206265206c657373207468616e203130604482015261302560f01b6064820152608401620004cd565b600280546cffffffffffffffffffffffff0019166101006001600160601b038516908102919091179091556040519081527fbe3599c33046219ddc3706f4b99caca706dc0f53775580d18a367dc2188c96e59060200162000520565b60006001600160e01b03198216637965db0b60e01b14806200042457506301ffc9a760e01b6001600160e01b031983161462000424565b620005c5813362001421565b62000e95828262000c82565b620005aa576000828152602081815260408083206001600160a01b03851684529091529020805460ff1916600117905562000ecd3390565b6001600160a01b0316816001600160a01b0316837f2f8788117e7eff1d82e926ec794901d17c78024a50270940304540a733656f0d60405160405180910390a45050565b62000f1d828262000c82565b15620005aa576000828152602081815260408083206001600160a01b0385168085529252808320805460ff1916905551339285917ff6391f5c32d9c69d2a47ea670b442974b53935d1edc7fd64eb21e047a839171b9190a45050565b62000f8362001485565b6002805460ff191690557f5db9ee0a495bf2e6ff9c91a7834c1ba4fdd244a5e8aa4e537bd38aeae4b073aa335b6040516001600160a01b03909116815260200160405180910390a1565b62000fd762001068565b6002805460ff191660011790557f62e78cea01bee320cd4e420270b5ea74000d11b0c9f74754ebdbfc544b05a25862000fb03390565b600260015403620010615760405162461bcd60e51b815260206004820152601f60248201527f5265656e7472616e637947756172643a207265656e7472616e742063616c6c006044820152606401620004cd565b6002600155565b60025460ff1615620010b05760405162461bcd60e51b815260206004820152601060248201526f14185d5cd8589b194e881c185d5cd95960821b6044820152606401620004cd565b565b60007f67c02de736e9c6dc641c0bcee496661b6fc4f976c46fab69b489896b51083b8c83600001518460200151856040015186606001518760800151878960a001516040516020016200114c989796959493929190978852602088019690965260408701949094526001600160a01b0392909216606086015261ffff166080850152151560a084015260c083015260e08201526101000190565b60405160208183030381529060405280519060200120905092915050565b6000620004246200117a620014d0565b83620015f9565b6000620011b47f2561bf26f818282a3be40719542054d2173eb0d38539e8a8d3cff22f29fd238462000346858562001621565b9392505050565b6060824710156200121e5760405162461bcd60e51b815260206004820152602660248201527f416464726573733a20696e73756666696369656e742062616c616e636520666f6044820152651c8818d85b1b60d21b6064820152608401620004cd565b600080866001600160a01b031685876040516200123c9190620020b8565b60006040518083038185875af1925050503d80600081146200127b576040519150601f19603f3d011682016040523d82523d6000602084013e62001280565b606091505b5091509150620012938783838762001649565b925050505b949350505050565b80471015620012f25760405162461bcd60e51b815260206004820152601d60248201527f416464726573733a20696e73756666696369656e742062616c616e63650000006044820152606401620004cd565b6000826001600160a01b03168260405160006040518083038185875af1925050503d806000811462001341576040519150601f19603f3d011682016040523d82523d6000602084013e62001346565b606091505b5050905080620004535760405162461bcd60e51b815260206004820152603a60248201527f416464726573733a20756e61626c6520746f2073656e642076616c75652c207260448201527f6563697069656e74206d617920686176652072657665727465640000000000006064820152608401620004cd565b604080516001600160a01b0385811660248301528416604482015260648082018490528251808303909101815260849091019091526020810180516001600160e01b03166323b872dd60e01b1790526200141b908590620016c9565b50505050565b6200142d828262000c82565b620005aa576200143d81620017a2565b6200144a836020620017b5565b6040516020016200145d929190620020d6565b60408051601f198184030181529082905262461bcd60e51b8252620004cd916004016200214f565b60025460ff16620010b05760405162461bcd60e51b815260206004820152601460248201527314185d5cd8589b194e881b9bdd081c185d5cd95960621b6044820152606401620004cd565b6000306001600160a01b037f0000000000000000000000000000000000000000000000000000000000000000161480156200152a57507f000000000000000000000000000000000000000000000000000000000000000046145b156200155557507f000000000000000000000000000000000000000000000000000000000000000090565b50604080517f00000000000000000000000000000000000000000000000000000000000000006020808301919091527f0000000000000000000000000000000000000000000000000000000000000000828401527f000000000000000000000000000000000000000000000000000000000000000060608301524660808301523060a0808401919091528351808403909101815260c0909201909252805191012090565b60405161190160f01b602082015260228101839052604281018290526000906062016200114c565b60008060006200163285856200196f565b915091506200164181620019b8565b509392505050565b60608315620016bd578251600003620016b5576001600160a01b0385163b620016b55760405162461bcd60e51b815260206004820152601d60248201527f416464726573733a2063616c6c20746f206e6f6e2d636f6e74726163740000006044820152606401620004cd565b508162001298565b62001298838362001b15565b600062001720826040518060400160405280602081526020017f5361666545524332303a206c6f772d6c6576656c2063616c6c206661696c6564815250856001600160a01b031662001b429092919063ffffffff16565b80519091501562000453578080602001905181019062001741919062002164565b620004535760405162461bcd60e51b815260206004820152602a60248201527f5361666545524332303a204552433230206f7065726174696f6e20646964206e6044820152691bdd081cdd58d8d9595960b21b6064820152608401620004cd565b6060620004246001600160a01b03831660145b60606000620017c683600262002184565b620017d390600262001f28565b67ffffffffffffffff811115620017ee57620017ee62001f3e565b6040519080825280601f01601f19166020018201604052801562001819576020820181803683370190505b509050600360fc1b816000815181106200183757620018376200219e565b60200101906001600160f81b031916908160001a905350600f60fb1b816001815181106200186957620018696200219e565b60200101906001600160f81b031916908160001a90535060006200188f84600262002184565b6200189c90600162001f28565b90505b60018111156200191e576f181899199a1a9b1b9c1cb0b131b232b360811b85600f1660108110620018d457620018d46200219e565b1a60f81b828281518110620018ed57620018ed6200219e565b60200101906001600160f81b031916908160001a90535060049490941c936200191681620021b4565b90506200189f565b508315620011b45760405162461bcd60e51b815260206004820181905260248201527f537472696e67733a20686578206c656e67746820696e73756666696369656e746044820152606401620004cd565b6000808251604103620019a95760208301516040840151606085015160001a6200199c8782858562001b53565b94509450505050620019b1565b506000905060025b9250929050565b6000816004811115620019cf57620019cf620021ce565b03620019d85750565b6001816004811115620019ef57620019ef620021ce565b0362001a3e5760405162461bcd60e51b815260206004820152601860248201527f45434453413a20696e76616c6964207369676e617475726500000000000000006044820152606401620004cd565b600281600481111562001a555762001a55620021ce565b0362001aa45760405162461bcd60e51b815260206004820152601f60248201527f45434453413a20696e76616c6964207369676e6174757265206c656e677468006044820152606401620004cd565b600381600481111562001abb5762001abb620021ce565b03620005c55760405162461bcd60e51b815260206004820152602260248201527f45434453413a20696e76616c6964207369676e6174757265202773272076616c604482015261756560f01b6064820152608401620004cd565b81511562001b265781518083602001fd5b8060405162461bcd60e51b8152600401620004cd91906200214f565b6060620012988484600085620011bb565b6000807f7fffffffffffffffffffffffffffffff5d576e7357a4501ddfe92f46681b20a083111562001b8c575060009050600362001c13565b6040805160008082526020820180845289905260ff881692820192909252606081018690526080810185905260019060a0016020604051602081039080840390855afa15801562001be1573d6000803e3d6000fd5b5050604051601f1901519150506001600160a01b03811662001c0c5760006001925092505062001c13565b9150600090505b94509492505050565b61257c80620021e583390190565b60006020828403121562001c3d57600080fd5b81356001600160e01b031981168114620011b457600080fd5b60006020828403121562001c6957600080fd5b5035919050565b80356001600160a01b038116811462001c8857600080fd5b919050565b6000806040838503121562001ca157600080fd5b8235915062001cb36020840162001c70565b90509250929050565b60006020828403121562001ccf57600080fd5b620011b48262001c70565b803561ffff8116811462001c8857600080fd5b60008060006060848603121562001d0357600080fd5b62001d0e8462001c70565b925062001d1e6020850162001c70565b915062001d2e6040850162001cda565b90509250925092565b8015158114620005c557600080fd5b803562001c888162001d37565b600080600080600085870361012081121562001d6e57600080fd5b60c081121562001d7d57600080fd5b5085945060c086013567ffffffffffffffff8082111562001d9d57600080fd5b818801915088601f83011262001db257600080fd5b81358181111562001dc257600080fd5b89602082850101111562001dd557600080fd5b60208301965080955050505060e0860135915061010086013562001df98162001d37565b809150509295509295909350565b6000806040838503121562001e1b57600080fd5b62001e268362001c70565b915062001cb36020840162001cda565b60006020828403121562001e4957600080fd5b81356001600160601b0381168114620011b457600080fd5b60005b8381101562001e7e57818101518382015260200162001e64565b50506000910152565b6000815180845262001ea181602086016020860162001e61565b601f01601f19169290920160200192915050565b61ffff8316815260406020820152600062001298604083018462001e87565b60006020828403121562001ee757600080fd5b8135620011b48162001d37565b60006020828403121562001f0757600080fd5b620011b48262001cda565b634e487b7160e01b600052601160045260246000fd5b8082018082111562000424576200042462001f12565b634e487b7160e01b600052604160045260246000fd5b600060c0828403121562001f6757600080fd5b60405160c0810181811067ffffffffffffffff8211171562001f9957634e487b7160e01b600052604160045260246000fd5b8060405250823581526020830135602082015262001fba6040840162001c70565b604082015262001fcd6060840162001cda565b606082015262001fe06080840162001d46565b608082015260a083013560a08201528091505092915050565b8181038181111562000424576200042462001f12565b60408152600062002024604083018562001e87565b905060018060a01b03831660208301529392505050565b833581526020808501359082015261010081016001600160a01b03620020646040870162001c70565b16604083015261ffff6200207b6060870162001cda565b1660608301526080850135620020918162001d37565b1515608083015260a0948501359482019490945260c0810192909252151560e09091015290565b60008251620020cc81846020870162001e61565b9190910192915050565b7f416363657373436f6e74726f6c3a206163636f756e74200000000000000000008152600083516200211081601785016020880162001e61565b7001034b99036b4b9b9b4b733903937b6329607d1b60179184019182015283516200214381602884016020880162001e61565b01602801949350505050565b602081526000620011b4602083018462001e87565b6000602082840312156200217757600080fd5b8151620011b48162001d37565b808202811582820484141762000424576200042462001f12565b634e487b7160e01b600052603260045260246000fd5b600081620021c657620021c662001f12565b506000190190565b634e487b7160e01b600052602160045260246000fdfe60c06040523480156200001157600080fd5b506040516200257c3803806200257c8339810160408190526200003491620000b1565b8180620000413362000061565b6001600160a01b031660805250600160065561ffff1660a0525062000101565b600080546001600160a01b038381166001600160a01b0319831681178455604051919092169283917f8be0079c531659141344cd1fd0a4f28419497f9722a3daafe3b4186f6b6457e09190a35050565b60008060408385031215620000c557600080fd5b82516001600160a01b0381168114620000dd57600080fd5b602084015190925061ffff81168114620000f657600080fd5b809150509250929050565b60805160a05161241d6200015f600039600061112401526000818161043f01528181610595015281816107e40152818161088c015281816109ae01528181610db90152818161108201528181611356015261178e015261241d6000f3fe60806040526004361061019b5760003560e01c8063950c8a74116100ec578063d1deba1f1161008a578063df2a5b3b11610064578063df2a5b3b14610512578063eb8d72b714610532578063f2fde38b14610552578063f5ecbdbc1461057257600080fd5b8063d1deba1f146104b7578063d46fb188146104ca578063d653adec146104ff57600080fd5b8063b353aaa7116100c6578063b353aaa71461042d578063baf3292d14610461578063c446183414610481578063cbed8b9c1461049757600080fd5b8063950c8a74146103cd5780639f38369a146103ed578063a6c3d1651461040d57600080fd5b806342d65a8d11610159578063715018a611610133578063715018a6146103215780637533d788146103365780638cfd8f5c146103635780638da5cb5b1461039b57600080fd5b806342d65a8d146102925780635b8c41e6146102b257806366ad5c8a1461030157600080fd5b80621d3567146101a057806307e0db17146101c25780630df37483146101e257806310ddb137146102025780633d8b38f6146102225780633f1f4fa414610257575b600080fd5b3480156101ac57600080fd5b506101c06101bb366004611a18565b610592565b005b3480156101ce57600080fd5b506101c06101dd366004611aab565b6107c3565b3480156101ee57600080fd5b506101c06101fd366004611ac6565b61084c565b34801561020e57600080fd5b506101c061021d366004611aab565b61086b565b34801561022e57600080fd5b5061024261023d366004611af0565b6108c3565b60405190151581526020015b60405180910390f35b34801561026357600080fd5b50610284610272366004611aab565b60036020526000908152604090205481565b60405190815260200161024e565b34801561029e57600080fd5b506101c06102ad366004611af0565b61098f565b3480156102be57600080fd5b506102846102cd366004611baf565b6005602090815260009384526040808520845180860184018051928152908401958401959095209452929052825290205481565b34801561030d57600080fd5b506101c061031c366004611a18565b610a15565b34801561032d57600080fd5b506101c0610af1565b34801561034257600080fd5b50610356610351366004611aab565b610b05565b60405161024e9190611c9f565b34801561036f57600080fd5b5061028461037e366004611cb2565b600260209081526000928352604080842090915290825290205481565b3480156103a757600080fd5b506000546001600160a01b03165b6040516001600160a01b03909116815260200161024e565b3480156103d957600080fd5b506004546103b5906001600160a01b031681565b3480156103f957600080fd5b50610356610408366004611aab565b610b9f565b34801561041957600080fd5b506101c0610428366004611af0565b610cb5565b34801561043957600080fd5b506103b57f000000000000000000000000000000000000000000000000000000000000000081565b34801561046d57600080fd5b506101c061047c366004611cfc565b610d3e565b34801561048d57600080fd5b5061028461271081565b3480156104a357600080fd5b506101c06104b2366004611d17565b610d9a565b6101c06104c5366004611a18565b610e2f565b3480156104d657600080fd5b506104ea6104e5366004611d85565b611045565b6040805192835260208301919091520161024e565b6101c061050d366004611dec565b611117565b34801561051e57600080fd5b506101c061052d366004611e36565b6111a0565b34801561053e57600080fd5b506101c061054d366004611af0565b611252565b34801561055e57600080fd5b506101c061056d366004611cfc565b6112ac565b34801561057e57600080fd5b5061035661058d366004611e72565b611325565b337f00000000000000000000000000000000000000000000000000000000000000006001600160a01b03161461060f5760405162461bcd60e51b815260206004820152601e60248201527f4c7a4170703a20696e76616c696420656e64706f696e742063616c6c6572000060448201526064015b60405180910390fd5b61ffff86166000908152600160205260408120805461062d90611ebd565b80601f016020809104026020016040519081016040528092919081815260200182805461065990611ebd565b80156106a65780601f1061067b576101008083540402835291602001916106a6565b820191906000526020600020905b81548152906001019060200180831161068957829003601f168201915b505050505090508051868690501480156106c1575060008151115b80156106e95750805160208201206040516106df9088908890611ef7565b6040518091039020145b6107445760405162461bcd60e51b815260206004820152602660248201527f4c7a4170703a20696e76616c696420736f757263652073656e64696e6720636f6044820152651b9d1c9858dd60d21b6064820152608401610606565b6107ba8787878080601f01602080910402602001604051908101604052809392919081815260200183838082843760009201919091525050604080516020601f8a018190048102820181019092528881528a9350915088908890819084018382808284376000920191909152506113d692505050565b50505050505050565b6107cb61144f565b6040516307e0db1760e01b815261ffff821660048201527f00000000000000000000000000000000000000000000000000000000000000006001600160a01b0316906307e0db17906024015b600060405180830381600087803b15801561083157600080fd5b505af1158015610845573d6000803e3d6000fd5b5050505050565b61085461144f565b61ffff909116600090815260036020526040902055565b61087361144f565b6040516310ddb13760e01b815261ffff821660048201527f00000000000000000000000000000000000000000000000000000000000000006001600160a01b0316906310ddb13790602401610817565b61ffff8316600090815260016020526040812080548291906108e490611ebd565b80601f016020809104026020016040519081016040528092919081815260200182805461091090611ebd565b801561095d5780601f106109325761010080835404028352916020019161095d565b820191906000526020600020905b81548152906001019060200180831161094057829003601f168201915b505050505090508383604051610974929190611ef7565b60405180910390208180519060200120149150509392505050565b61099761144f565b6040516342d65a8d60e01b81526001600160a01b037f000000000000000000000000000000000000000000000000000000000000000016906342d65a8d906109e790869086908690600401611f30565b600060405180830381600087803b158015610a0157600080fd5b505af11580156107ba573d6000803e3d6000fd5b333014610a735760405162461bcd60e51b815260206004820152602660248201527f4e6f6e626c6f636b696e674c7a4170703a2063616c6c6572206d7573742062656044820152650204c7a4170760d41b6064820152608401610606565b610ae98686868080601f01602080910402602001604051908101604052809392919081815260200183838082843760009201919091525050604080516020601f8901819004810282018101909252878152899350915087908790819084018382808284376000920191909152506114a992505050565b505050505050565b610af961144f565b610b0360006114af565b565b60016020526000908152604090208054610b1e90611ebd565b80601f0160208091040260200160405190810160405280929190818152602001828054610b4a90611ebd565b8015610b975780601f10610b6c57610100808354040283529160200191610b97565b820191906000526020600020905b815481529060010190602001808311610b7a57829003601f168201915b505050505081565b61ffff8116600090815260016020526040812080546060929190610bc290611ebd565b80601f0160208091040260200160405190810160405280929190818152602001828054610bee90611ebd565b8015610c3b5780601f10610c1057610100808354040283529160200191610c3b565b820191906000526020600020905b815481529060010190602001808311610c1e57829003601f168201915b505050505090508051600003610c935760405162461bcd60e51b815260206004820152601d60248201527f4c7a4170703a206e6f20747275737465642070617468207265636f72640000006044820152606401610606565b610cae600060148351610ca69190611f64565b8391906114ff565b9392505050565b610cbd61144f565b818130604051602001610cd293929190611f7d565b60408051601f1981840301815291815261ffff8516600090815260016020522090610cfd9082611fe9565b507f8c0400cfe2d1199b1a725c78960bcc2a344d869b80590d0f2bd005db15a572ce838383604051610d3193929190611f30565b60405180910390a1505050565b610d4661144f565b600480546001600160a01b0319166001600160a01b0383169081179091556040519081527f5db758e995a17ec1ad84bdef7e8c3293a0bd6179bcce400dff5d4c3d87db726b9060200160405180910390a150565b610da261144f565b6040516332fb62e760e21b81526001600160a01b037f0000000000000000000000000000000000000000000000000000000000000000169063cbed8b9c90610df690889088908890889088906004016120a8565b600060405180830381600087803b158015610e1057600080fd5b505af1158015610e24573d6000803e3d6000fd5b505050505050505050565b61ffff86166000908152600560205260408082209051610e529088908890611ef7565b90815260408051602092819003830190206001600160401b03871660009081529252902054905080610ed25760405162461bcd60e51b815260206004820152602360248201527f4e6f6e626c6f636b696e674c7a4170703a206e6f2073746f726564206d65737360448201526261676560e81b6064820152608401610606565b808383604051610ee3929190611ef7565b604051809103902014610f425760405162461bcd60e51b815260206004820152602160248201527f4e6f6e626c6f636b696e674c7a4170703a20696e76616c6964207061796c6f616044820152601960fa1b6064820152608401610606565b61ffff87166000908152600560205260408082209051610f659089908990611ef7565b90815260408051602092819003830181206001600160401b038916600090815290845282902093909355601f88018290048202830182019052868252610ffd918991899089908190840183828082843760009201919091525050604080516020601f8a018190048102820181019092528881528a9350915088908890819084018382808284376000920191909152506114a992505050565b7fc264d91f3adc5588250e1551f547752ca0cfa8f6b530d243b9f9f4cab10ea8e587878787856040516110349594939291906120e1565b60405180910390a150505050505050565b60408051600060208201819052603482018190526054820181905282516048818403018152606883019384905263040a7bb160e41b9093529182917f00000000000000000000000000000000000000000000000000000000000000006001600160a01b0316906340a7bb10906110c9908a90309086908c908c908c90606c0161211c565b6040805180830381865afa1580156110e5573d6000803e3d6000fd5b505050506040513d601f19601f820116820180604052508101906111099190612172565b925092505094509492505050565b61111f61160c565b6111917f000000000000000000000000000000000000000000000000000000000000000084848080601f01602080910402602001604051908101604052809392919081815260200183838082843760009201829052506040805160208101909152818152889450909250905034611665565b61119b6001600655565b505050565b6111a861144f565b600081116111f05760405162461bcd60e51b81526020600482015260156024820152744c7a4170703a20696e76616c6964206d696e47617360581b6044820152606401610606565b61ffff83811660008181526002602090815260408083209487168084529482529182902085905581519283528201929092529081018290527f9d5c7c0b934da8fefa9c7760c98383778a12dfbfc0c3b3106518f43fb9508ac090606001610d31565b61125a61144f565b61ffff83166000908152600160205260409020611278828483612196565b507ffa41487ad5d6728f0b19276fa1eddc16558578f5109fc39d2dc33c3230470dab838383604051610d3193929190611f30565b6112b461144f565b6001600160a01b0381166113195760405162461bcd60e51b815260206004820152602660248201527f4f776e61626c653a206e6577206f776e657220697320746865207a65726f206160448201526564647265737360d01b6064820152608401610606565b611322816114af565b50565b604051633d7b2f6f60e21b815261ffff808616600483015284166024820152306044820152606481018290526060907f00000000000000000000000000000000000000000000000000000000000000006001600160a01b03169063f5ecbdbc90608401600060405180830381865afa1580156113a5573d6000803e3d6000fd5b505050506040513d6000823e601f3d908101601f191682016040526113cd9190810190612255565b95945050505050565b6000806114395a60966366ad5c8a60e01b898989896040516024016113fe94939291906122c2565b60408051601f198184030181529190526020810180516001600160e01b03166001600160e01b0319909316929092179091523092919061180a565b9150915081610ae957610ae98686868685611894565b6000546001600160a01b03163314610b035760405162461bcd60e51b815260206004820181905260248201527f4f776e61626c653a2063616c6c6572206973206e6f7420746865206f776e65726044820152606401610606565b50505050565b600080546001600160a01b038381166001600160a01b0319831681178455604051919092169283917f8be0079c531659141344cd1fd0a4f28419497f9722a3daafe3b4186f6b6457e09190a35050565b60608161150d81601f612300565b101561154c5760405162461bcd60e51b815260206004820152600e60248201526d736c6963655f6f766572666c6f7760901b6044820152606401610606565b6115568284612300565b8451101561159a5760405162461bcd60e51b8152602060048201526011602482015270736c6963655f6f75744f66426f756e647360781b6044820152606401610606565b6060821580156115b95760405191506000825260208201604052611603565b6040519150601f8416801560200281840101858101878315602002848b0101015b818310156115f25780518352602092830192016115da565b5050858452601f01601f1916604052505b50949350505050565b60026006540361165e5760405162461bcd60e51b815260206004820152601f60248201527f5265656e7472616e637947756172643a207265656e7472616e742063616c6c006044820152606401610606565b6002600655565b61ffff86166000908152600160205260408120805461168390611ebd565b80601f01602080910402602001604051908101604052809291908181526020018280546116af90611ebd565b80156116fc5780601f106116d1576101008083540402835291602001916116fc565b820191906000526020600020905b8154815290600101906020018083116116df57829003601f168201915b50505050509050805160000361176d5760405162461bcd60e51b815260206004820152603060248201527f4c7a4170703a2064657374696e6174696f6e20636861696e206973206e6f742060448201526f61207472757374656420736f7572636560801b6064820152608401610606565b611778878751611931565b60405162c5803160e81b81526001600160a01b037f0000000000000000000000000000000000000000000000000000000000000000169063c58031009084906117cf908b9086908c908c908c908c90600401612313565b6000604051808303818588803b1580156117e857600080fd5b505af11580156117fc573d6000803e3d6000fd5b505050505050505050505050565b6000606060008060008661ffff166001600160401b0381111561182f5761182f611b42565b6040519080825280601f01601f191660200182016040528015611859576020820181803683370190505b50905060008087516020890160008d8df191503d92508683111561187b578692505b828152826000602083013e909890975095505050505050565b8180519060200120600560008761ffff1661ffff168152602001908152602001600020856040516118c5919061236d565b9081526040805191829003602090810183206001600160401b0388166000908152915220919091557fe183f33de2837795525b4792ca4cd60535bd77c53b7e7030060bfcf5734d6b0c906119229087908790879087908790612389565b60405180910390a15050505050565b61ffff82166000908152600360205260408120549081900361195257506127105b8082111561119b5760405162461bcd60e51b815260206004820181905260248201527f4c7a4170703a207061796c6f61642073697a6520697320746f6f206c617267656044820152606401610606565b803561ffff811681146119b457600080fd5b919050565b60008083601f8401126119cb57600080fd5b5081356001600160401b038111156119e257600080fd5b6020830191508360208285010111156119fa57600080fd5b9250929050565b80356001600160401b03811681146119b457600080fd5b60008060008060008060808789031215611a3157600080fd5b611a3a876119a2565b955060208701356001600160401b0380821115611a5657600080fd5b611a628a838b016119b9565b9097509550859150611a7660408a01611a01565b94506060890135915080821115611a8c57600080fd5b50611a9989828a016119b9565b979a9699509497509295939492505050565b600060208284031215611abd57600080fd5b610cae826119a2565b60008060408385031215611ad957600080fd5b611ae2836119a2565b946020939093013593505050565b600080600060408486031215611b0557600080fd5b611b0e846119a2565b925060208401356001600160401b03811115611b2957600080fd5b611b35868287016119b9565b9497909650939450505050565b634e487b7160e01b600052604160045260246000fd5b604051601f8201601f191681016001600160401b0381118282101715611b8057611b80611b42565b604052919050565b60006001600160401b03821115611ba157611ba1611b42565b50601f01601f191660200190565b600080600060608486031215611bc457600080fd5b611bcd846119a2565b925060208401356001600160401b03811115611be857600080fd5b8401601f81018613611bf957600080fd5b8035611c0c611c0782611b88565b611b58565b818152876020838501011115611c2157600080fd5b81602084016020830137600060208383010152809450505050611c4660408501611a01565b90509250925092565b60005b83811015611c6a578181015183820152602001611c52565b50506000910152565b60008151808452611c8b816020860160208601611c4f565b601f01601f19169290920160200192915050565b602081526000610cae6020830184611c73565b60008060408385031215611cc557600080fd5b611cce836119a2565b9150611cdc602084016119a2565b90509250929050565b80356001600160a01b03811681146119b457600080fd5b600060208284031215611d0e57600080fd5b610cae82611ce5565b600080600080600060808688031215611d2f57600080fd5b611d38866119a2565b9450611d46602087016119a2565b93506040860135925060608601356001600160401b03811115611d6857600080fd5b611d74888289016119b9565b969995985093965092949392505050565b60008060008060608587031215611d9b57600080fd5b611da4856119a2565b935060208501358015158114611db957600080fd5b925060408501356001600160401b03811115611dd457600080fd5b611de0878288016119b9565b95989497509550505050565b600080600060408486031215611e0157600080fd5b83356001600160401b03811115611e1757600080fd5b611e23868287016119b9565b9094509250611c46905060208501611ce5565b600080600060608486031215611e4b57600080fd5b611e54846119a2565b9250611e62602085016119a2565b9150604084013590509250925092565b60008060008060808587031215611e8857600080fd5b611e91856119a2565b9350611e9f602086016119a2565b9250611ead60408601611ce5565b9396929550929360600135925050565b600181811c90821680611ed157607f821691505b602082108103611ef157634e487b7160e01b600052602260045260246000fd5b50919050565b8183823760009101908152919050565b81835281816020850137506000828201602090810191909152601f909101601f19169091010190565b61ffff841681526040602082015260006113cd604083018486611f07565b634e487b7160e01b600052601160045260246000fd5b81810381811115611f7757611f77611f4e565b92915050565b8284823760609190911b6bffffffffffffffffffffffff19169101908152601401919050565b601f82111561119b57600081815260208120601f850160051c81016020861015611fca5750805b601f850160051c820191505b81811015610ae957828155600101611fd6565b81516001600160401b0381111561200257612002611b42565b612016816120108454611ebd565b84611fa3565b602080601f83116001811461204b57600084156120335750858301515b600019600386901b1c1916600185901b178555610ae9565b600085815260208120601f198616915b8281101561207a5788860151825594840194600190910190840161205b565b50858210156120985787850151600019600388901b60f8161c191681555b5050505050600190811b01905550565b600061ffff8088168352808716602084015250846040830152608060608301526120d6608083018486611f07565b979650505050505050565b61ffff861681526080602082015260006120ff608083018688611f07565b6001600160401b0394909416604083015250606001529392505050565b61ffff871681526001600160a01b038616602082015260a06040820181905260009061214a90830187611c73565b85151560608401528281036080840152612165818587611f07565b9998505050505050505050565b6000806040838503121561218557600080fd5b505080516020909101519092909150565b6001600160401b038311156121ad576121ad611b42565b6121c1836121bb8354611ebd565b83611fa3565b6000601f8411600181146121f557600085156121dd5750838201355b600019600387901b1c1916600186901b178355610845565b600083815260209020601f19861690835b828110156122265786850135825560209485019460019092019101612206565b50868210156122435760001960f88860031b161c19848701351681555b505060018560011b0183555050505050565b60006020828403121561226757600080fd5b81516001600160401b0381111561227d57600080fd5b8201601f8101841361228e57600080fd5b805161229c611c0782611b88565b8181528560208385010111156122b157600080fd5b6113cd826020830160208601611c4f565b61ffff851681526080602082015260006122df6080830186611c73565b6001600160401b038516604084015282810360608401526120d68185611c73565b80820180821115611f7757611f77611f4e565b61ffff8716815260c06020820152600061233060c0830188611c73565b82810360408401526123428188611c73565b6001600160a01b0387811660608601528616608085015283810360a085015290506121658185611c73565b6000825161237f818460208701611c4f565b9190910192915050565b61ffff8616815260a0602082015260006123a660a0830187611c73565b6001600160401b038616604084015282810360608401526123c78186611c73565b905082810360808401526123db8185611c73565b9897505050505050505056fea2646970667358221220f58cad66d5f05b1c0e4c5947d59116654062600a96f1f705cde335da9e6805be64736f6c63430008110033a26469706673582212208e3d25f5c36036f23a9f8518417d11fca3e66847de0b360fffdf14e356d9d61a64736f6c63430008110033",
  "linkReferences": {},
  "deployedLinkReferences": {}
}