{
  "_format": "hh-sol-artifact-1",
  "contractName": "LZSenderContract",
  "sourceName": "contracts/childs/LZSenderContract.sol",
  "abi": [
    {
      "inputs": [
        {
          "internalType": "address",
          "name": "layerZeroEndpoint_",
          "type": "address"
        },
        {
          "internalType": "uint16",
          "name": "dstChainId_",
          "type": "uint16"
        }
      ],
      "stateMutability": "nonpayable",
      "type": "constructor"
    },
    {
      "anonymous": false,
      "inputs": [
        {
          "indexed": false,
          "internalType": "uint16",
          "name": "_srcChainId",
          "type": "uint16"
        },
        {
          "indexed": false,
          "internalType": "bytes",
          "name": "_srcAddress",
          "type": "bytes"
        },
        {
          "indexed": false,
          "internalType": "uint64",
          "name": "_nonce",
          "type": "uint64"
        },
        {
          "indexed": false,
          "internalType": "bytes",
          "name": "_payload",
          "type": "bytes"
        },
        {
          "indexed": false,
          "internalType": "bytes",
          "name": "_reason",
          "type": "bytes"
        }
      ],
      "name": "MessageFailed",
      "type": "event"
    },
    {
      "anonymous": false,
      "inputs": [
        {
          "indexed": true,
          "internalType": "address",
          "name": "previousOwner",
          "type": "address"
        },
        {
          "indexed": true,
          "internalType": "address",
          "name": "newOwner",
          "type": "address"
        }
      ],
      "name": "OwnershipTransferred",
      "type": "event"
    },
    {
      "anonymous": false,
      "inputs": [
        {
          "indexed": false,
          "internalType": "uint16",
          "name": "_srcChainId",
          "type": "uint16"
        },
        {
          "indexed": false,
          "internalType": "bytes",
          "name": "_srcAddress",
          "type": "bytes"
        },
        {
          "indexed": false,
          "internalType": "uint64",
          "name": "_nonce",
          "type": "uint64"
        },
        {
          "indexed": false,
          "internalType": "bytes32",
          "name": "_payloadHash",
          "type": "bytes32"
        }
      ],
      "name": "RetryMessageSuccess",
      "type": "event"
    },
    {
      "anonymous": false,
      "inputs": [
        {
          "indexed": false,
          "internalType": "uint16",
          "name": "_dstChainId",
          "type": "uint16"
        },
        {
          "indexed": false,
          "internalType": "uint16",
          "name": "_type",
          "type": "uint16"
        },
        {
          "indexed": false,
          "internalType": "uint256",
          "name": "_minDstGas",
          "type": "uint256"
        }
      ],
      "name": "SetMinDstGas",
      "type": "event"
    },
    {
      "anonymous": false,
      "inputs": [
        {
          "indexed": false,
          "internalType": "address",
          "name": "precrime",
          "type": "address"
        }
      ],
      "name": "SetPrecrime",
      "type": "event"
    },
    {
      "anonymous": false,
      "inputs": [
        {
          "indexed": false,
          "internalType": "uint16",
          "name": "_remoteChainId",
          "type": "uint16"
        },
        {
          "indexed": false,
          "internalType": "bytes",
          "name": "_path",
          "type": "bytes"
        }
      ],
      "name": "SetTrustedRemote",
      "type": "event"
    },
    {
      "anonymous": false,
      "inputs": [
        {
          "indexed": false,
          "internalType": "uint16",
          "name": "_remoteChainId",
          "type": "uint16"
        },
        {
          "indexed": false,
          "internalType": "bytes",
          "name": "_remoteAddress",
          "type": "bytes"
        }
      ],
      "name": "SetTrustedRemoteAddress",
      "type": "event"
    },
    {
      "inputs": [],
      "name": "DEFAULT_PAYLOAD_SIZE_LIMIT",
      "outputs": [
        {
          "internalType": "uint256",
          "name": "",
          "type": "uint256"
        }
      ],
      "stateMutability": "view",
      "type": "function"
    },
    {
      "inputs": [
        {
          "internalType": "uint16",
          "name": "dstChainId_",
          "type": "uint16"
        },
        {
          "internalType": "bool",
          "name": "_useZro",
          "type": "bool"
        },
        {
          "internalType": "bytes",
          "name": "_adapterParams",
          "type": "bytes"
        }
      ],
      "name": "estimateFee",
      "outputs": [
        {
          "internalType": "uint256",
          "name": "nativeFee",
          "type": "uint256"
        },
        {
          "internalType": "uint256",
          "name": "zroFee",
          "type": "uint256"
        }
      ],
      "stateMutability": "view",
      "type": "function"
    },
    {
      "inputs": [
        {
          "internalType": "uint16",
          "name": "",
          "type": "uint16"
        },
        {
          "internalType": "bytes",
          "name": "",
          "type": "bytes"
        },
        {
          "internalType": "uint64",
          "name": "",
          "type": "uint64"
        }
      ],
      "name": "failedMessages",
      "outputs": [
        {
          "internalType": "bytes32",
          "name": "",
          "type": "bytes32"
        }
      ],
      "stateMutability": "view",
      "type": "function"
    },
    {
      "inputs": [
        {
          "internalType": "uint16",
          "name": "_srcChainId",
          "type": "uint16"
        },
        {
          "internalType": "bytes",
          "name": "_srcAddress",
          "type": "bytes"
        }
      ],
      "name": "forceResumeReceive",
      "outputs": [],
      "stateMutability": "nonpayable",
      "type": "function"
    },
    {
      "inputs": [
        {
          "internalType": "uint16",
          "name": "_version",
          "type": "uint16"
        },
        {
          "internalType": "uint16",
          "name": "_chainId",
          "type": "uint16"
        },
        {
          "internalType": "address",
          "name": "",
          "type": "address"
        },
        {
          "internalType": "uint256",
          "name": "_configType",
          "type": "uint256"
        }
      ],
      "name": "getConfig",
      "outputs": [
        {
          "internalType": "bytes",
          "name": "",
          "type": "bytes"
        }
      ],
      "stateMutability": "view",
      "type": "function"
    },
    {
      "inputs": [
        {
          "internalType": "uint16",
          "name": "_remoteChainId",
          "type": "uint16"
        }
      ],
      "name": "getTrustedRemoteAddress",
      "outputs": [
        {
          "internalType": "bytes",
          "name": "",
          "type": "bytes"
        }
      ],
      "stateMutability": "view",
      "type": "function"
    },
    {
      "inputs": [
        {
          "internalType": "uint16",
          "name": "_srcChainId",
          "type": "uint16"
        },
        {
          "internalType": "bytes",
          "name": "_srcAddress",
          "type": "bytes"
        }
      ],
      "name": "isTrustedRemote",
      "outputs": [
        {
          "internalType": "bool",
          "name": "",
          "type": "bool"
        }
      ],
      "stateMutability": "view",
      "type": "function"
    },
    {
      "inputs": [],
      "name": "lzEndpoint",
      "outputs": [
        {
          "internalType": "contract ILayerZeroEndpoint",
          "name": "",
          "type": "address"
        }
      ],
      "stateMutability": "view",
      "type": "function"
    },
    {
      "inputs": [
        {
          "internalType": "uint16",
          "name": "_srcChainId",
          "type": "uint16"
        },
        {
          "internalType": "bytes",
          "name": "_srcAddress",
          "type": "bytes"
        },
        {
          "internalType": "uint64",
          "name": "_nonce",
          "type": "uint64"
        },
        {
          "internalType": "bytes",
          "name": "_payload",
          "type": "bytes"
        }
      ],
      "name": "lzReceive",
      "outputs": [],
      "stateMutability": "nonpayable",
      "type": "function"
    },
    {
      "inputs": [
        {
          "internalType": "uint16",
          "name": "",
          "type": "uint16"
        },
        {
          "internalType": "uint16",
          "name": "",
          "type": "uint16"
        }
      ],
      "name": "minDstGasLookup",
      "outputs": [
        {
          "internalType": "uint256",
          "name": "",
          "type": "uint256"
        }
      ],
      "stateMutability": "view",
      "type": "function"
    },
    {
      "inputs": [
        {
          "internalType": "uint16",
          "name": "_srcChainId",
          "type": "uint16"
        },
        {
          "internalType": "bytes",
          "name": "_srcAddress",
          "type": "bytes"
        },
        {
          "internalType": "uint64",
          "name": "_nonce",
          "type": "uint64"
        },
        {
          "internalType": "bytes",
          "name": "_payload",
          "type": "bytes"
        }
      ],
      "name": "nonblockingLzReceive",
      "outputs": [],
      "stateMutability": "nonpayable",
      "type": "function"
    },
    {
      "inputs": [],
      "name": "owner",
      "outputs": [
        {
          "internalType": "address",
          "name": "",
          "type": "address"
        }
      ],
      "stateMutability": "view",
      "type": "function"
    },
    {
      "inputs": [
        {
          "internalType": "uint16",
          "name": "",
          "type": "uint16"
        }
      ],
      "name": "payloadSizeLimitLookup",
      "outputs": [
        {
          "internalType": "uint256",
          "name": "",
          "type": "uint256"
        }
      ],
      "stateMutability": "view",
      "type": "function"
    },
    {
      "inputs": [],
      "name": "precrime",
      "outputs": [
        {
          "internalType": "address",
          "name": "",
          "type": "address"
        }
      ],
      "stateMutability": "view",
      "type": "function"
    },
    {
      "inputs": [],
      "name": "renounceOwnership",
      "outputs": [],
      "stateMutability": "nonpayable",
      "type": "function"
    },
    {
      "inputs": [
        {
          "internalType": "uint16",
          "name": "_srcChainId",
          "type": "uint16"
        },
        {
          "internalType": "bytes",
          "name": "_srcAddress",
          "type": "bytes"
        },
        {
          "internalType": "uint64",
          "name": "_nonce",
          "type": "uint64"
        },
        {
          "internalType": "bytes",
          "name": "_payload",
          "type": "bytes"
        }
      ],
      "name": "retryMessage",
      "outputs": [],
      "stateMutability": "payable",
      "type": "function"
    },
    {
      "inputs": [
        {
          "internalType": "bytes",
          "name": "encodedPayload",
          "type": "bytes"
        },
        {
          "internalType": "address",
          "name": "refundAddress",
          "type": "address"
        }
      ],
      "name": "sendNftMithMessage",
      "outputs": [],
      "stateMutability": "payable",
      "type": "function"
    },
    {
      "inputs": [
        {
          "internalType": "uint16",
          "name": "_version",
          "type": "uint16"
        },
        {
          "internalType": "uint16",
          "name": "_chainId",
          "type": "uint16"
        },
        {
          "internalType": "uint256",
          "name": "_configType",
          "type": "uint256"
        },
        {
          "internalType": "bytes",
          "name": "_config",
          "type": "bytes"
        }
      ],
      "name": "setConfig",
      "outputs": [],
      "stateMutability": "nonpayable",
      "type": "function"
    },
    {
      "inputs": [
        {
          "internalType": "uint16",
          "name": "_dstChainId",
          "type": "uint16"
        },
        {
          "internalType": "uint16",
          "name": "_packetType",
          "type": "uint16"
        },
        {
          "internalType": "uint256",
          "name": "_minGas",
          "type": "uint256"
        }
      ],
      "name": "setMinDstGas",
      "outputs": [],
      "stateMutability": "nonpayable",
      "type": "function"
    },
    {
      "inputs": [
        {
          "internalType": "uint16",
          "name": "_dstChainId",
          "type": "uint16"
        },
        {
          "internalType": "uint256",
          "name": "_size",
          "type": "uint256"
        }
      ],
      "name": "setPayloadSizeLimit",
      "outputs": [],
      "stateMutability": "nonpayable",
      "type": "function"
    },
    {
      "inputs": [
        {
          "internalType": "address",
          "name": "_precrime",
          "type": "address"
        }
      ],
      "name": "setPrecrime",
      "outputs": [],
      "stateMutability": "nonpayable",
      "type": "function"
    },
    {
      "inputs": [
        {
          "internalType": "uint16",
          "name": "_version",
          "type": "uint16"
        }
      ],
      "name": "setReceiveVersion",
      "outputs": [],
      "stateMutability": "nonpayable",
      "type": "function"
    },
    {
      "inputs": [
        {
          "internalType": "uint16",
          "name": "_version",
          "type": "uint16"
        }
      ],
      "name": "setSendVersion",
      "outputs": [],
      "stateMutability": "nonpayable",
      "type": "function"
    },
    {
      "inputs": [
        {
          "internalType": "uint16",
          "name": "_srcChainId",
          "type": "uint16"
        },
        {
          "internalType": "bytes",
          "name": "_path",
          "type": "bytes"
        }
      ],
      "name": "setTrustedRemote",
      "outputs": [],
      "stateMutability": "nonpayable",
      "type": "function"
    },
    {
      "inputs": [
        {
          "internalType": "uint16",
          "name": "_remoteChainId",
          "type": "uint16"
        },
        {
          "internalType": "bytes",
          "name": "_remoteAddress",
          "type": "bytes"
        }
      ],
      "name": "setTrustedRemoteAddress",
      "outputs": [],
      "stateMutability": "nonpayable",
      "type": "function"
    },
    {
      "inputs": [
        {
          "internalType": "address",
          "name": "newOwner",
          "type": "address"
        }
      ],
      "name": "transferOwnership",
      "outputs": [],
      "stateMutability": "nonpayable",
      "type": "function"
    },
    {
      "inputs": [
        {
          "internalType": "uint16",
          "name": "",
          "type": "uint16"
        }
      ],
      "name": "trustedRemoteLookup",
      "outputs": [
        {
          "internalType": "bytes",
          "name": "",
          "type": "bytes"
        }
      ],
      "stateMutability": "view",
      "type": "function"
    }
  ],
  "bytecode": "0x60c06040523480156200001157600080fd5b506040516200257c3803806200257c8339810160408190526200003491620000b1565b8180620000413362000061565b6001600160a01b031660805250600160065561ffff1660a0525062000101565b600080546001600160a01b038381166001600160a01b0319831681178455604051919092169283917f8be0079c531659141344cd1fd0a4f28419497f9722a3daafe3b4186f6b6457e09190a35050565b60008060408385031215620000c557600080fd5b82516001600160a01b0381168114620000dd57600080fd5b602084015190925061ffff81168114620000f657600080fd5b809150509250929050565b60805160a05161241d6200015f600039600061112401526000818161043f01528181610595015281816107e40152818161088c015281816109ae01528181610db90152818161108201528181611356015261178e015261241d6000f3fe60806040526004361061019b5760003560e01c8063950c8a74116100ec578063d1deba1f1161008a578063df2a5b3b11610064578063df2a5b3b14610512578063eb8d72b714610532578063f2fde38b14610552578063f5ecbdbc1461057257600080fd5b8063d1deba1f146104b7578063d46fb188146104ca578063d653adec146104ff57600080fd5b8063b353aaa7116100c6578063b353aaa71461042d578063baf3292d14610461578063c446183414610481578063cbed8b9c1461049757600080fd5b8063950c8a74146103cd5780639f38369a146103ed578063a6c3d1651461040d57600080fd5b806342d65a8d11610159578063715018a611610133578063715018a6146103215780637533d788146103365780638cfd8f5c146103635780638da5cb5b1461039b57600080fd5b806342d65a8d146102925780635b8c41e6146102b257806366ad5c8a1461030157600080fd5b80621d3567146101a057806307e0db17146101c25780630df37483146101e257806310ddb137146102025780633d8b38f6146102225780633f1f4fa414610257575b600080fd5b3480156101ac57600080fd5b506101c06101bb366004611a18565b610592565b005b3480156101ce57600080fd5b506101c06101dd366004611aab565b6107c3565b3480156101ee57600080fd5b506101c06101fd366004611ac6565b61084c565b34801561020e57600080fd5b506101c061021d366004611aab565b61086b565b34801561022e57600080fd5b5061024261023d366004611af0565b6108c3565b60405190151581526020015b60405180910390f35b34801561026357600080fd5b50610284610272366004611aab565b60036020526000908152604090205481565b60405190815260200161024e565b34801561029e57600080fd5b506101c06102ad366004611af0565b61098f565b3480156102be57600080fd5b506102846102cd366004611baf565b6005602090815260009384526040808520845180860184018051928152908401958401959095209452929052825290205481565b34801561030d57600080fd5b506101c061031c366004611a18565b610a15565b34801561032d57600080fd5b506101c0610af1565b34801561034257600080fd5b50610356610351366004611aab565b610b05565b60405161024e9190611c9f565b34801561036f57600080fd5b5061028461037e366004611cb2565b600260209081526000928352604080842090915290825290205481565b3480156103a757600080fd5b506000546001600160a01b03165b6040516001600160a01b03909116815260200161024e565b3480156103d957600080fd5b506004546103b5906001600160a01b031681565b3480156103f957600080fd5b50610356610408366004611aab565b610b9f565b34801561041957600080fd5b506101c0610428366004611af0565b610cb5565b34801561043957600080fd5b506103b57f000000000000000000000000000000000000000000000000000000000000000081565b34801561046d57600080fd5b506101c061047c366004611cfc565b610d3e565b34801561048d57600080fd5b5061028461271081565b3480156104a357600080fd5b506101c06104b2366004611d17565b610d9a565b6101c06104c5366004611a18565b610e2f565b3480156104d657600080fd5b506104ea6104e5366004611d85565b611045565b6040805192835260208301919091520161024e565b6101c061050d366004611dec565b611117565b34801561051e57600080fd5b506101c061052d366004611e36565b6111a0565b34801561053e57600080fd5b506101c061054d366004611af0565b611252565b34801561055e57600080fd5b506101c061056d366004611cfc565b6112ac565b34801561057e57600080fd5b5061035661058d366004611e72565b611325565b337f00000000000000000000000000000000000000000000000000000000000000006001600160a01b03161461060f5760405162461bcd60e51b815260206004820152601e60248201527f4c7a4170703a20696e76616c696420656e64706f696e742063616c6c6572000060448201526064015b60405180910390fd5b61ffff86166000908152600160205260408120805461062d90611ebd565b80601f016020809104026020016040519081016040528092919081815260200182805461065990611ebd565b80156106a65780601f1061067b576101008083540402835291602001916106a6565b820191906000526020600020905b81548152906001019060200180831161068957829003601f168201915b505050505090508051868690501480156106c1575060008151115b80156106e95750805160208201206040516106df9088908890611ef7565b6040518091039020145b6107445760405162461bcd60e51b815260206004820152602660248201527f4c7a4170703a20696e76616c696420736f757263652073656e64696e6720636f6044820152651b9d1c9858dd60d21b6064820152608401610606565b6107ba8787878080601f01602080910402602001604051908101604052809392919081815260200183838082843760009201919091525050604080516020601f8a018190048102820181019092528881528a9350915088908890819084018382808284376000920191909152506113d692505050565b50505050505050565b6107cb61144f565b6040516307e0db1760e01b815261ffff821660048201527f00000000000000000000000000000000000000000000000000000000000000006001600160a01b0316906307e0db17906024015b600060405180830381600087803b15801561083157600080fd5b505af1158015610845573d6000803e3d6000fd5b5050505050565b61085461144f565b61ffff909116600090815260036020526040902055565b61087361144f565b6040516310ddb13760e01b815261ffff821660048201527f00000000000000000000000000000000000000000000000000000000000000006001600160a01b0316906310ddb13790602401610817565b61ffff8316600090815260016020526040812080548291906108e490611ebd565b80601f016020809104026020016040519081016040528092919081815260200182805461091090611ebd565b801561095d5780601f106109325761010080835404028352916020019161095d565b820191906000526020600020905b81548152906001019060200180831161094057829003601f168201915b505050505090508383604051610974929190611ef7565b60405180910390208180519060200120149150509392505050565b61099761144f565b6040516342d65a8d60e01b81526001600160a01b037f000000000000000000000000000000000000000000000000000000000000000016906342d65a8d906109e790869086908690600401611f30565b600060405180830381600087803b158015610a0157600080fd5b505af11580156107ba573d6000803e3d6000fd5b333014610a735760405162461bcd60e51b815260206004820152602660248201527f4e6f6e626c6f636b696e674c7a4170703a2063616c6c6572206d7573742062656044820152650204c7a4170760d41b6064820152608401610606565b610ae98686868080601f01602080910402602001604051908101604052809392919081815260200183838082843760009201919091525050604080516020601f8901819004810282018101909252878152899350915087908790819084018382808284376000920191909152506114a992505050565b505050505050565b610af961144f565b610b0360006114af565b565b60016020526000908152604090208054610b1e90611ebd565b80601f0160208091040260200160405190810160405280929190818152602001828054610b4a90611ebd565b8015610b975780601f10610b6c57610100808354040283529160200191610b97565b820191906000526020600020905b815481529060010190602001808311610b7a57829003601f168201915b505050505081565b61ffff8116600090815260016020526040812080546060929190610bc290611ebd565b80601f0160208091040260200160405190810160405280929190818152602001828054610bee90611ebd565b8015610c3b5780601f10610c1057610100808354040283529160200191610c3b565b820191906000526020600020905b815481529060010190602001808311610c1e57829003601f168201915b505050505090508051600003610c935760405162461bcd60e51b815260206004820152601d60248201527f4c7a4170703a206e6f20747275737465642070617468207265636f72640000006044820152606401610606565b610cae600060148351610ca69190611f64565b8391906114ff565b9392505050565b610cbd61144f565b818130604051602001610cd293929190611f7d565b60408051601f1981840301815291815261ffff8516600090815260016020522090610cfd9082611fe9565b507f8c0400cfe2d1199b1a725c78960bcc2a344d869b80590d0f2bd005db15a572ce838383604051610d3193929190611f30565b60405180910390a1505050565b610d4661144f565b600480546001600160a01b0319166001600160a01b0383169081179091556040519081527f5db758e995a17ec1ad84bdef7e8c3293a0bd6179bcce400dff5d4c3d87db726b9060200160405180910390a150565b610da261144f565b6040516332fb62e760e21b81526001600160a01b037f0000000000000000000000000000000000000000000000000000000000000000169063cbed8b9c90610df690889088908890889088906004016120a8565b600060405180830381600087803b158015610e1057600080fd5b505af1158015610e24573d6000803e3d6000fd5b505050505050505050565b61ffff86166000908152600560205260408082209051610e529088908890611ef7565b90815260408051602092819003830190206001600160401b03871660009081529252902054905080610ed25760405162461bcd60e51b815260206004820152602360248201527f4e6f6e626c6f636b696e674c7a4170703a206e6f2073746f726564206d65737360448201526261676560e81b6064820152608401610606565b808383604051610ee3929190611ef7565b604051809103902014610f425760405162461bcd60e51b815260206004820152602160248201527f4e6f6e626c6f636b696e674c7a4170703a20696e76616c6964207061796c6f616044820152601960fa1b6064820152608401610606565b61ffff87166000908152600560205260408082209051610f659089908990611ef7565b90815260408051602092819003830181206001600160401b038916600090815290845282902093909355601f88018290048202830182019052868252610ffd918991899089908190840183828082843760009201919091525050604080516020601f8a018190048102820181019092528881528a9350915088908890819084018382808284376000920191909152506114a992505050565b7fc264d91f3adc5588250e1551f547752ca0cfa8f6b530d243b9f9f4cab10ea8e587878787856040516110349594939291906120e1565b60405180910390a150505050505050565b60408051600060208201819052603482018190526054820181905282516048818403018152606883019384905263040a7bb160e41b9093529182917f00000000000000000000000000000000000000000000000000000000000000006001600160a01b0316906340a7bb10906110c9908a90309086908c908c908c90606c0161211c565b6040805180830381865afa1580156110e5573d6000803e3d6000fd5b505050506040513d601f19601f820116820180604052508101906111099190612172565b925092505094509492505050565b61111f61160c565b6111917f000000000000000000000000000000000000000000000000000000000000000084848080601f01602080910402602001604051908101604052809392919081815260200183838082843760009201829052506040805160208101909152818152889450909250905034611665565b61119b6001600655565b505050565b6111a861144f565b600081116111f05760405162461bcd60e51b81526020600482015260156024820152744c7a4170703a20696e76616c6964206d696e47617360581b6044820152606401610606565b61ffff83811660008181526002602090815260408083209487168084529482529182902085905581519283528201929092529081018290527f9d5c7c0b934da8fefa9c7760c98383778a12dfbfc0c3b3106518f43fb9508ac090606001610d31565b61125a61144f565b61ffff83166000908152600160205260409020611278828483612196565b507ffa41487ad5d6728f0b19276fa1eddc16558578f5109fc39d2dc33c3230470dab838383604051610d3193929190611f30565b6112b461144f565b6001600160a01b0381166113195760405162461bcd60e51b815260206004820152602660248201527f4f776e61626c653a206e6577206f776e657220697320746865207a65726f206160448201526564647265737360d01b6064820152608401610606565b611322816114af565b50565b604051633d7b2f6f60e21b815261ffff808616600483015284166024820152306044820152606481018290526060907f00000000000000000000000000000000000000000000000000000000000000006001600160a01b03169063f5ecbdbc90608401600060405180830381865afa1580156113a5573d6000803e3d6000fd5b505050506040513d6000823e601f3d908101601f191682016040526113cd9190810190612255565b95945050505050565b6000806114395a60966366ad5c8a60e01b898989896040516024016113fe94939291906122c2565b60408051601f198184030181529190526020810180516001600160e01b03166001600160e01b0319909316929092179091523092919061180a565b9150915081610ae957610ae98686868685611894565b6000546001600160a01b03163314610b035760405162461bcd60e51b815260206004820181905260248201527f4f776e61626c653a2063616c6c6572206973206e6f7420746865206f776e65726044820152606401610606565b50505050565b600080546001600160a01b038381166001600160a01b0319831681178455604051919092169283917f8be0079c531659141344cd1fd0a4f28419497f9722a3daafe3b4186f6b6457e09190a35050565b60608161150d81601f612300565b101561154c5760405162461bcd60e51b815260206004820152600e60248201526d736c6963655f6f766572666c6f7760901b6044820152606401610606565b6115568284612300565b8451101561159a5760405162461bcd60e51b8152602060048201526011602482015270736c6963655f6f75744f66426f756e647360781b6044820152606401610606565b6060821580156115b95760405191506000825260208201604052611603565b6040519150601f8416801560200281840101858101878315602002848b0101015b818310156115f25780518352602092830192016115da565b5050858452601f01601f1916604052505b50949350505050565b60026006540361165e5760405162461bcd60e51b815260206004820152601f60248201527f5265656e7472616e637947756172643a207265656e7472616e742063616c6c006044820152606401610606565b6002600655565b61ffff86166000908152600160205260408120805461168390611ebd565b80601f01602080910402602001604051908101604052809291908181526020018280546116af90611ebd565b80156116fc5780601f106116d1576101008083540402835291602001916116fc565b820191906000526020600020905b8154815290600101906020018083116116df57829003601f168201915b50505050509050805160000361176d5760405162461bcd60e51b815260206004820152603060248201527f4c7a4170703a2064657374696e6174696f6e20636861696e206973206e6f742060448201526f61207472757374656420736f7572636560801b6064820152608401610606565b611778878751611931565b60405162c5803160e81b81526001600160a01b037f0000000000000000000000000000000000000000000000000000000000000000169063c58031009084906117cf908b9086908c908c908c908c90600401612313565b6000604051808303818588803b1580156117e857600080fd5b505af11580156117fc573d6000803e3d6000fd5b505050505050505050505050565b6000606060008060008661ffff166001600160401b0381111561182f5761182f611b42565b6040519080825280601f01601f191660200182016040528015611859576020820181803683370190505b50905060008087516020890160008d8df191503d92508683111561187b578692505b828152826000602083013e909890975095505050505050565b8180519060200120600560008761ffff1661ffff168152602001908152602001600020856040516118c5919061236d565b9081526040805191829003602090810183206001600160401b0388166000908152915220919091557fe183f33de2837795525b4792ca4cd60535bd77c53b7e7030060bfcf5734d6b0c906119229087908790879087908790612389565b60405180910390a15050505050565b61ffff82166000908152600360205260408120549081900361195257506127105b8082111561119b5760405162461bcd60e51b815260206004820181905260248201527f4c7a4170703a207061796c6f61642073697a6520697320746f6f206c617267656044820152606401610606565b803561ffff811681146119b457600080fd5b919050565b60008083601f8401126119cb57600080fd5b5081356001600160401b038111156119e257600080fd5b6020830191508360208285010111156119fa57600080fd5b9250929050565b80356001600160401b03811681146119b457600080fd5b60008060008060008060808789031215611a3157600080fd5b611a3a876119a2565b955060208701356001600160401b0380821115611a5657600080fd5b611a628a838b016119b9565b9097509550859150611a7660408a01611a01565b94506060890135915080821115611a8c57600080fd5b50611a9989828a016119b9565b979a9699509497509295939492505050565b600060208284031215611abd57600080fd5b610cae826119a2565b60008060408385031215611ad957600080fd5b611ae2836119a2565b946020939093013593505050565b600080600060408486031215611b0557600080fd5b611b0e846119a2565b925060208401356001600160401b03811115611b2957600080fd5b611b35868287016119b9565b9497909650939450505050565b634e487b7160e01b600052604160045260246000fd5b604051601f8201601f191681016001600160401b0381118282101715611b8057611b80611b42565b604052919050565b60006001600160401b03821115611ba157611ba1611b42565b50601f01601f191660200190565b600080600060608486031215611bc457600080fd5b611bcd846119a2565b925060208401356001600160401b03811115611be857600080fd5b8401601f81018613611bf957600080fd5b8035611c0c611c0782611b88565b611b58565b818152876020838501011115611c2157600080fd5b81602084016020830137600060208383010152809450505050611c4660408501611a01565b90509250925092565b60005b83811015611c6a578181015183820152602001611c52565b50506000910152565b60008151808452611c8b816020860160208601611c4f565b601f01601f19169290920160200192915050565b602081526000610cae6020830184611c73565b60008060408385031215611cc557600080fd5b611cce836119a2565b9150611cdc602084016119a2565b90509250929050565b80356001600160a01b03811681146119b457600080fd5b600060208284031215611d0e57600080fd5b610cae82611ce5565b600080600080600060808688031215611d2f57600080fd5b611d38866119a2565b9450611d46602087016119a2565b93506040860135925060608601356001600160401b03811115611d6857600080fd5b611d74888289016119b9565b969995985093965092949392505050565b60008060008060608587031215611d9b57600080fd5b611da4856119a2565b935060208501358015158114611db957600080fd5b925060408501356001600160401b03811115611dd457600080fd5b611de0878288016119b9565b95989497509550505050565b600080600060408486031215611e0157600080fd5b83356001600160401b03811115611e1757600080fd5b611e23868287016119b9565b9094509250611c46905060208501611ce5565b600080600060608486031215611e4b57600080fd5b611e54846119a2565b9250611e62602085016119a2565b9150604084013590509250925092565b60008060008060808587031215611e8857600080fd5b611e91856119a2565b9350611e9f602086016119a2565b9250611ead60408601611ce5565b9396929550929360600135925050565b600181811c90821680611ed157607f821691505b602082108103611ef157634e487b7160e01b600052602260045260246000fd5b50919050565b8183823760009101908152919050565b81835281816020850137506000828201602090810191909152601f909101601f19169091010190565b61ffff841681526040602082015260006113cd604083018486611f07565b634e487b7160e01b600052601160045260246000fd5b81810381811115611f7757611f77611f4e565b92915050565b8284823760609190911b6bffffffffffffffffffffffff19169101908152601401919050565b601f82111561119b57600081815260208120601f850160051c81016020861015611fca5750805b601f850160051c820191505b81811015610ae957828155600101611fd6565b81516001600160401b0381111561200257612002611b42565b612016816120108454611ebd565b84611fa3565b602080601f83116001811461204b57600084156120335750858301515b600019600386901b1c1916600185901b178555610ae9565b600085815260208120601f198616915b8281101561207a5788860151825594840194600190910190840161205b565b50858210156120985787850151600019600388901b60f8161c191681555b5050505050600190811b01905550565b600061ffff8088168352808716602084015250846040830152608060608301526120d6608083018486611f07565b979650505050505050565b61ffff861681526080602082015260006120ff608083018688611f07565b6001600160401b0394909416604083015250606001529392505050565b61ffff871681526001600160a01b038616602082015260a06040820181905260009061214a90830187611c73565b85151560608401528281036080840152612165818587611f07565b9998505050505050505050565b6000806040838503121561218557600080fd5b505080516020909101519092909150565b6001600160401b038311156121ad576121ad611b42565b6121c1836121bb8354611ebd565b83611fa3565b6000601f8411600181146121f557600085156121dd5750838201355b600019600387901b1c1916600186901b178355610845565b600083815260209020601f19861690835b828110156122265786850135825560209485019460019092019101612206565b50868210156122435760001960f88860031b161c19848701351681555b505060018560011b0183555050505050565b60006020828403121561226757600080fd5b81516001600160401b0381111561227d57600080fd5b8201601f8101841361228e57600080fd5b805161229c611c0782611b88565b8181528560208385010111156122b157600080fd5b6113cd826020830160208601611c4f565b61ffff851681526080602082015260006122df6080830186611c73565b6001600160401b038516604084015282810360608401526120d68185611c73565b80820180821115611f7757611f77611f4e565b61ffff8716815260c06020820152600061233060c0830188611c73565b82810360408401526123428188611c73565b6001600160a01b0387811660608601528616608085015283810360a085015290506121658185611c73565b6000825161237f818460208701611c4f565b9190910192915050565b61ffff8616815260a0602082015260006123a660a0830187611c73565b6001600160401b038616604084015282810360608401526123c78186611c73565b905082810360808401526123db8185611c73565b9897505050505050505056fea2646970667358221220f58cad66d5f05b1c0e4c5947d59116654062600a96f1f705cde335da9e6805be64736f6c63430008110033",
  "linkReferences": {},
  "deployedLinkReferences": {}
}