{
  "_format": "hh-sol-artifact-1",
  "contractName": "LZSenderContract",
  "sourceName": "contracts/childs/LZSenderContract.sol",
  "abi": [
    {
      "inputs": [
        {
          "internalType": "address",
          "name": "_layerZeroEndpoint",
          "type": "address"
        },
        {
          "internalType": "uint16",
          "name": "_dstChainId",
          "type": "uint16"
        }
      ],
      "stateMutability": "nonpayable",
      "type": "constructor"
    },
    {
      "anonymous": false,
      "inputs": [
        {
          "indexed": false,
          "internalType": "uint16",
          "name": "_srcChainId",
          "type": "uint16"
        },
        {
          "indexed": false,
          "internalType": "bytes",
          "name": "_srcAddress",
          "type": "bytes"
        },
        {
          "indexed": false,
          "internalType": "uint64",
          "name": "_nonce",
          "type": "uint64"
        },
        {
          "indexed": false,
          "internalType": "bytes",
          "name": "_payload",
          "type": "bytes"
        },
        {
          "indexed": false,
          "internalType": "bytes",
          "name": "_reason",
          "type": "bytes"
        }
      ],
      "name": "MessageFailed",
      "type": "event"
    },
    {
      "anonymous": false,
      "inputs": [
        {
          "indexed": true,
          "internalType": "address",
          "name": "previousOwner",
          "type": "address"
        },
        {
          "indexed": true,
          "internalType": "address",
          "name": "newOwner",
          "type": "address"
        }
      ],
      "name": "OwnershipTransferred",
      "type": "event"
    },
    {
      "anonymous": false,
      "inputs": [
        {
          "indexed": false,
          "internalType": "uint16",
          "name": "_srcChainId",
          "type": "uint16"
        },
        {
          "indexed": false,
          "internalType": "bytes",
          "name": "_srcAddress",
          "type": "bytes"
        },
        {
          "indexed": false,
          "internalType": "uint64",
          "name": "_nonce",
          "type": "uint64"
        },
        {
          "indexed": false,
          "internalType": "bytes32",
          "name": "_payloadHash",
          "type": "bytes32"
        }
      ],
      "name": "RetryMessageSuccess",
      "type": "event"
    },
    {
      "anonymous": false,
      "inputs": [
        {
          "indexed": false,
          "internalType": "uint16",
          "name": "_dstChainId",
          "type": "uint16"
        },
        {
          "indexed": false,
          "internalType": "uint16",
          "name": "_type",
          "type": "uint16"
        },
        {
          "indexed": false,
          "internalType": "uint256",
          "name": "_minDstGas",
          "type": "uint256"
        }
      ],
      "name": "SetMinDstGas",
      "type": "event"
    },
    {
      "anonymous": false,
      "inputs": [
        {
          "indexed": false,
          "internalType": "address",
          "name": "precrime",
          "type": "address"
        }
      ],
      "name": "SetPrecrime",
      "type": "event"
    },
    {
      "anonymous": false,
      "inputs": [
        {
          "indexed": false,
          "internalType": "uint16",
          "name": "_remoteChainId",
          "type": "uint16"
        },
        {
          "indexed": false,
          "internalType": "bytes",
          "name": "_path",
          "type": "bytes"
        }
      ],
      "name": "SetTrustedRemote",
      "type": "event"
    },
    {
      "anonymous": false,
      "inputs": [
        {
          "indexed": false,
          "internalType": "uint16",
          "name": "_remoteChainId",
          "type": "uint16"
        },
        {
          "indexed": false,
          "internalType": "bytes",
          "name": "_remoteAddress",
          "type": "bytes"
        }
      ],
      "name": "SetTrustedRemoteAddress",
      "type": "event"
    },
    {
      "inputs": [],
      "name": "DEFAULT_PAYLOAD_SIZE_LIMIT",
      "outputs": [
        {
          "internalType": "uint256",
          "name": "",
          "type": "uint256"
        }
      ],
      "stateMutability": "view",
      "type": "function"
    },
    {
      "inputs": [],
      "name": "dstChainId",
      "outputs": [
        {
          "internalType": "uint16",
          "name": "",
          "type": "uint16"
        }
      ],
      "stateMutability": "view",
      "type": "function"
    },
    {
      "inputs": [
        {
          "internalType": "uint16",
          "name": "_dstChainId",
          "type": "uint16"
        },
        {
          "internalType": "bool",
          "name": "_useZro",
          "type": "bool"
        },
        {
          "internalType": "bytes",
          "name": "_adapterParams",
          "type": "bytes"
        }
      ],
      "name": "estimateFee",
      "outputs": [
        {
          "internalType": "uint256",
          "name": "nativeFee",
          "type": "uint256"
        },
        {
          "internalType": "uint256",
          "name": "zroFee",
          "type": "uint256"
        }
      ],
      "stateMutability": "view",
      "type": "function"
    },
    {
      "inputs": [
        {
          "internalType": "uint16",
          "name": "",
          "type": "uint16"
        },
        {
          "internalType": "bytes",
          "name": "",
          "type": "bytes"
        },
        {
          "internalType": "uint64",
          "name": "",
          "type": "uint64"
        }
      ],
      "name": "failedMessages",
      "outputs": [
        {
          "internalType": "bytes32",
          "name": "",
          "type": "bytes32"
        }
      ],
      "stateMutability": "view",
      "type": "function"
    },
    {
      "inputs": [
        {
          "internalType": "uint16",
          "name": "_srcChainId",
          "type": "uint16"
        },
        {
          "internalType": "bytes",
          "name": "_srcAddress",
          "type": "bytes"
        }
      ],
      "name": "forceResumeReceive",
      "outputs": [],
      "stateMutability": "nonpayable",
      "type": "function"
    },
    {
      "inputs": [
        {
          "internalType": "uint16",
          "name": "_version",
          "type": "uint16"
        },
        {
          "internalType": "uint16",
          "name": "_chainId",
          "type": "uint16"
        },
        {
          "internalType": "address",
          "name": "",
          "type": "address"
        },
        {
          "internalType": "uint256",
          "name": "_configType",
          "type": "uint256"
        }
      ],
      "name": "getConfig",
      "outputs": [
        {
          "internalType": "bytes",
          "name": "",
          "type": "bytes"
        }
      ],
      "stateMutability": "view",
      "type": "function"
    },
    {
      "inputs": [
        {
          "internalType": "uint16",
          "name": "_remoteChainId",
          "type": "uint16"
        }
      ],
      "name": "getTrustedRemoteAddress",
      "outputs": [
        {
          "internalType": "bytes",
          "name": "",
          "type": "bytes"
        }
      ],
      "stateMutability": "view",
      "type": "function"
    },
    {
      "inputs": [
        {
          "internalType": "uint16",
          "name": "_srcChainId",
          "type": "uint16"
        },
        {
          "internalType": "bytes",
          "name": "_srcAddress",
          "type": "bytes"
        }
      ],
      "name": "isTrustedRemote",
      "outputs": [
        {
          "internalType": "bool",
          "name": "",
          "type": "bool"
        }
      ],
      "stateMutability": "view",
      "type": "function"
    },
    {
      "inputs": [],
      "name": "lzEndpoint",
      "outputs": [
        {
          "internalType": "contract ILayerZeroEndpoint",
          "name": "",
          "type": "address"
        }
      ],
      "stateMutability": "view",
      "type": "function"
    },
    {
      "inputs": [
        {
          "internalType": "uint16",
          "name": "_srcChainId",
          "type": "uint16"
        },
        {
          "internalType": "bytes",
          "name": "_srcAddress",
          "type": "bytes"
        },
        {
          "internalType": "uint64",
          "name": "_nonce",
          "type": "uint64"
        },
        {
          "internalType": "bytes",
          "name": "_payload",
          "type": "bytes"
        }
      ],
      "name": "lzReceive",
      "outputs": [],
      "stateMutability": "nonpayable",
      "type": "function"
    },
    {
      "inputs": [
        {
          "internalType": "uint16",
          "name": "",
          "type": "uint16"
        },
        {
          "internalType": "uint16",
          "name": "",
          "type": "uint16"
        }
      ],
      "name": "minDstGasLookup",
      "outputs": [
        {
          "internalType": "uint256",
          "name": "",
          "type": "uint256"
        }
      ],
      "stateMutability": "view",
      "type": "function"
    },
    {
      "inputs": [
        {
          "internalType": "uint16",
          "name": "_srcChainId",
          "type": "uint16"
        },
        {
          "internalType": "bytes",
          "name": "_srcAddress",
          "type": "bytes"
        },
        {
          "internalType": "uint64",
          "name": "_nonce",
          "type": "uint64"
        },
        {
          "internalType": "bytes",
          "name": "_payload",
          "type": "bytes"
        }
      ],
      "name": "nonblockingLzReceive",
      "outputs": [],
      "stateMutability": "nonpayable",
      "type": "function"
    },
    {
      "inputs": [],
      "name": "owner",
      "outputs": [
        {
          "internalType": "address",
          "name": "",
          "type": "address"
        }
      ],
      "stateMutability": "view",
      "type": "function"
    },
    {
      "inputs": [
        {
          "internalType": "uint16",
          "name": "",
          "type": "uint16"
        }
      ],
      "name": "payloadSizeLimitLookup",
      "outputs": [
        {
          "internalType": "uint256",
          "name": "",
          "type": "uint256"
        }
      ],
      "stateMutability": "view",
      "type": "function"
    },
    {
      "inputs": [],
      "name": "precrime",
      "outputs": [
        {
          "internalType": "address",
          "name": "",
          "type": "address"
        }
      ],
      "stateMutability": "view",
      "type": "function"
    },
    {
      "inputs": [],
      "name": "renounceOwnership",
      "outputs": [],
      "stateMutability": "nonpayable",
      "type": "function"
    },
    {
      "inputs": [
        {
          "internalType": "uint16",
          "name": "_srcChainId",
          "type": "uint16"
        },
        {
          "internalType": "bytes",
          "name": "_srcAddress",
          "type": "bytes"
        },
        {
          "internalType": "uint64",
          "name": "_nonce",
          "type": "uint64"
        },
        {
          "internalType": "bytes",
          "name": "_payload",
          "type": "bytes"
        }
      ],
      "name": "retryMessage",
      "outputs": [],
      "stateMutability": "payable",
      "type": "function"
    },
    {
      "inputs": [
        {
          "internalType": "bytes",
          "name": "encodedPayload",
          "type": "bytes"
        },
        {
          "internalType": "address",
          "name": "refundAddress",
          "type": "address"
        }
      ],
      "name": "sendNftMitMessage",
      "outputs": [],
      "stateMutability": "payable",
      "type": "function"
    },
    {
      "inputs": [
        {
          "internalType": "uint16",
          "name": "_version",
          "type": "uint16"
        },
        {
          "internalType": "uint16",
          "name": "_chainId",
          "type": "uint16"
        },
        {
          "internalType": "uint256",
          "name": "_configType",
          "type": "uint256"
        },
        {
          "internalType": "bytes",
          "name": "_config",
          "type": "bytes"
        }
      ],
      "name": "setConfig",
      "outputs": [],
      "stateMutability": "nonpayable",
      "type": "function"
    },
    {
      "inputs": [
        {
          "internalType": "uint16",
          "name": "_dstChainId",
          "type": "uint16"
        },
        {
          "internalType": "uint16",
          "name": "_packetType",
          "type": "uint16"
        },
        {
          "internalType": "uint256",
          "name": "_minGas",
          "type": "uint256"
        }
      ],
      "name": "setMinDstGas",
      "outputs": [],
      "stateMutability": "nonpayable",
      "type": "function"
    },
    {
      "inputs": [
        {
          "internalType": "uint16",
          "name": "_dstChainId",
          "type": "uint16"
        },
        {
          "internalType": "uint256",
          "name": "_size",
          "type": "uint256"
        }
      ],
      "name": "setPayloadSizeLimit",
      "outputs": [],
      "stateMutability": "nonpayable",
      "type": "function"
    },
    {
      "inputs": [
        {
          "internalType": "address",
          "name": "_precrime",
          "type": "address"
        }
      ],
      "name": "setPrecrime",
      "outputs": [],
      "stateMutability": "nonpayable",
      "type": "function"
    },
    {
      "inputs": [
        {
          "internalType": "uint16",
          "name": "_version",
          "type": "uint16"
        }
      ],
      "name": "setReceiveVersion",
      "outputs": [],
      "stateMutability": "nonpayable",
      "type": "function"
    },
    {
      "inputs": [
        {
          "internalType": "uint16",
          "name": "_version",
          "type": "uint16"
        }
      ],
      "name": "setSendVersion",
      "outputs": [],
      "stateMutability": "nonpayable",
      "type": "function"
    },
    {
      "inputs": [
        {
          "internalType": "uint16",
          "name": "_srcChainId",
          "type": "uint16"
        },
        {
          "internalType": "bytes",
          "name": "_path",
          "type": "bytes"
        }
      ],
      "name": "setTrustedRemote",
      "outputs": [],
      "stateMutability": "nonpayable",
      "type": "function"
    },
    {
      "inputs": [
        {
          "internalType": "uint16",
          "name": "_remoteChainId",
          "type": "uint16"
        },
        {
          "internalType": "bytes",
          "name": "_remoteAddress",
          "type": "bytes"
        }
      ],
      "name": "setTrustedRemoteAddress",
      "outputs": [],
      "stateMutability": "nonpayable",
      "type": "function"
    },
    {
      "inputs": [
        {
          "internalType": "address",
          "name": "newOwner",
          "type": "address"
        }
      ],
      "name": "transferOwnership",
      "outputs": [],
      "stateMutability": "nonpayable",
      "type": "function"
    },
    {
      "inputs": [
        {
          "internalType": "uint16",
          "name": "",
          "type": "uint16"
        }
      ],
      "name": "trustedRemoteLookup",
      "outputs": [
        {
          "internalType": "bytes",
          "name": "",
          "type": "bytes"
        }
      ],
      "stateMutability": "view",
      "type": "function"
    }
  ],
  "bytecode": "0x60c06040523480156200001157600080fd5b50604051620025e5380380620025e58339810160408190526200003491620000b1565b8180620000413362000061565b6001600160a01b031660805250600160065561ffff1660a0525062000101565b600080546001600160a01b038381166001600160a01b0319831681178455604051919092169283917f8be0079c531659141344cd1fd0a4f28419497f9722a3daafe3b4186f6b6457e09190a35050565b60008060408385031215620000c557600080fd5b82516001600160a01b0381168114620000dd57600080fd5b602084015190925061ffff81168114620000f657600080fd5b809150509250929050565b60805160a05161247f620001666000396000818161024f01526109320152600081816104b4015281816105f701528181610846015281816108ee01528181610a9901528181610ea40152818161116d015281816113b8015261168d015261247f6000f3fe6080604052600436106101b65760003560e01c80638da5cb5b116100ec578063cbed8b9c1161008a578063df2a5b3b11610064578063df2a5b3b14610574578063eb8d72b714610594578063f2fde38b146105b4578063f5ecbdbc146105d457600080fd5b8063cbed8b9c1461050c578063d1deba1f1461052c578063d46fb1881461053f57600080fd5b8063a6c3d165116100c6578063a6c3d16514610482578063b353aaa7146104a2578063baf3292d146104d6578063c4461834146104f657600080fd5b80638da5cb5b14610410578063950c8a74146104425780639f38369a1461046257600080fd5b80633f1f4fa41161015957806366ad5c8a1161013357806366ad5c8a14610376578063715018a6146103965780637533d788146103ab5780638cfd8f5c146103d857600080fd5b80633f1f4fa4146102cc57806342d65a8d146103075780635b8c41e61461032757600080fd5b806310ddb1371161019557806310ddb1371461021d57806330c593f71461023d5780633d0d0b6e146102895780633d8b38f61461029c57600080fd5b80621d3567146101bb57806307e0db17146101dd5780630df37483146101fd575b600080fd5b3480156101c757600080fd5b506101db6101d6366004611a7a565b6105f4565b005b3480156101e957600080fd5b506101db6101f8366004611b0d565b610825565b34801561020957600080fd5b506101db610218366004611b28565b6108ae565b34801561022957600080fd5b506101db610238366004611b0d565b6108cd565b34801561024957600080fd5b506102717f000000000000000000000000000000000000000000000000000000000000000081565b60405161ffff90911681526020015b60405180910390f35b6101db610297366004611b69565b610925565b3480156102a857600080fd5b506102bc6102b7366004611bbc565b6109ae565b6040519015158152602001610280565b3480156102d857600080fd5b506102f96102e7366004611b0d565b60036020526000908152604090205481565b604051908152602001610280565b34801561031357600080fd5b506101db610322366004611bbc565b610a7a565b34801561033357600080fd5b506102f9610342366004611c7b565b6005602090815260009384526040808520845180860184018051928152908401958401959095209452929052825290205481565b34801561038257600080fd5b506101db610391366004611a7a565b610b00565b3480156103a257600080fd5b506101db610bdc565b3480156103b757600080fd5b506103cb6103c6366004611b0d565b610bf0565b6040516102809190611d62565b3480156103e457600080fd5b506102f96103f3366004611d75565b600260209081526000928352604080842090915290825290205481565b34801561041c57600080fd5b506000546001600160a01b03165b6040516001600160a01b039091168152602001610280565b34801561044e57600080fd5b5060045461042a906001600160a01b031681565b34801561046e57600080fd5b506103cb61047d366004611b0d565b610c8a565b34801561048e57600080fd5b506101db61049d366004611bbc565b610da0565b3480156104ae57600080fd5b5061042a7f000000000000000000000000000000000000000000000000000000000000000081565b3480156104e257600080fd5b506101db6104f1366004611da8565b610e29565b34801561050257600080fd5b506102f961271081565b34801561051857600080fd5b506101db610527366004611dc3565b610e85565b6101db61053a366004611a7a565b610f1a565b34801561054b57600080fd5b5061055f61055a366004611e31565b611130565b60408051928352602083019190915201610280565b34801561058057600080fd5b506101db61058f366004611e98565b611202565b3480156105a057600080fd5b506101db6105af366004611bbc565b6112b4565b3480156105c057600080fd5b506101db6105cf366004611da8565b61130e565b3480156105e057600080fd5b506103cb6105ef366004611ed4565b611387565b337f00000000000000000000000000000000000000000000000000000000000000006001600160a01b0316146106715760405162461bcd60e51b815260206004820152601e60248201527f4c7a4170703a20696e76616c696420656e64706f696e742063616c6c6572000060448201526064015b60405180910390fd5b61ffff86166000908152600160205260408120805461068f90611f1f565b80601f01602080910402602001604051908101604052809291908181526020018280546106bb90611f1f565b80156107085780601f106106dd57610100808354040283529160200191610708565b820191906000526020600020905b8154815290600101906020018083116106eb57829003601f168201915b50505050509050805186869050148015610723575060008151115b801561074b5750805160208201206040516107419088908890611f59565b6040518091039020145b6107a65760405162461bcd60e51b815260206004820152602660248201527f4c7a4170703a20696e76616c696420736f757263652073656e64696e6720636f6044820152651b9d1c9858dd60d21b6064820152608401610668565b61081c8787878080601f01602080910402602001604051908101604052809392919081815260200183838082843760009201919091525050604080516020601f8a018190048102820181019092528881528a93509150889088908190840183828082843760009201919091525061143892505050565b50505050505050565b61082d6114b1565b6040516307e0db1760e01b815261ffff821660048201527f00000000000000000000000000000000000000000000000000000000000000006001600160a01b0316906307e0db17906024015b600060405180830381600087803b15801561089357600080fd5b505af11580156108a7573d6000803e3d6000fd5b5050505050565b6108b66114b1565b61ffff909116600090815260036020526040902055565b6108d56114b1565b6040516310ddb13760e01b815261ffff821660048201527f00000000000000000000000000000000000000000000000000000000000000006001600160a01b0316906310ddb13790602401610879565b61092d61150b565b61099f7f000000000000000000000000000000000000000000000000000000000000000084848080601f01602080910402602001604051908101604052809392919081815260200183838082843760009201829052506040805160208101909152818152889450909250905034611564565b6109a96001600655565b505050565b61ffff8316600090815260016020526040812080548291906109cf90611f1f565b80601f01602080910402602001604051908101604052809291908181526020018280546109fb90611f1f565b8015610a485780601f10610a1d57610100808354040283529160200191610a48565b820191906000526020600020905b815481529060010190602001808311610a2b57829003601f168201915b505050505090508383604051610a5f929190611f59565b60405180910390208180519060200120149150509392505050565b610a826114b1565b6040516342d65a8d60e01b81526001600160a01b037f000000000000000000000000000000000000000000000000000000000000000016906342d65a8d90610ad290869086908690600401611f92565b600060405180830381600087803b158015610aec57600080fd5b505af115801561081c573d6000803e3d6000fd5b333014610b5e5760405162461bcd60e51b815260206004820152602660248201527f4e6f6e626c6f636b696e674c7a4170703a2063616c6c6572206d7573742062656044820152650204c7a4170760d41b6064820152608401610668565b610bd48686868080601f01602080910402602001604051908101604052809392919081815260200183838082843760009201919091525050604080516020601f89018190048102820181019092528781528993509150879087908190840183828082843760009201919091525061170992505050565b505050505050565b610be46114b1565b610bee600061170f565b565b60016020526000908152604090208054610c0990611f1f565b80601f0160208091040260200160405190810160405280929190818152602001828054610c3590611f1f565b8015610c825780601f10610c5757610100808354040283529160200191610c82565b820191906000526020600020905b815481529060010190602001808311610c6557829003601f168201915b505050505081565b61ffff8116600090815260016020526040812080546060929190610cad90611f1f565b80601f0160208091040260200160405190810160405280929190818152602001828054610cd990611f1f565b8015610d265780601f10610cfb57610100808354040283529160200191610d26565b820191906000526020600020905b815481529060010190602001808311610d0957829003601f168201915b505050505090508051600003610d7e5760405162461bcd60e51b815260206004820152601d60248201527f4c7a4170703a206e6f20747275737465642070617468207265636f72640000006044820152606401610668565b610d99600060148351610d919190611fc6565b83919061175f565b9392505050565b610da86114b1565b818130604051602001610dbd93929190611fdf565b60408051601f1981840301815291815261ffff8516600090815260016020522090610de8908261204b565b507f8c0400cfe2d1199b1a725c78960bcc2a344d869b80590d0f2bd005db15a572ce838383604051610e1c93929190611f92565b60405180910390a1505050565b610e316114b1565b600480546001600160a01b0319166001600160a01b0383169081179091556040519081527f5db758e995a17ec1ad84bdef7e8c3293a0bd6179bcce400dff5d4c3d87db726b9060200160405180910390a150565b610e8d6114b1565b6040516332fb62e760e21b81526001600160a01b037f0000000000000000000000000000000000000000000000000000000000000000169063cbed8b9c90610ee1908890889088908890889060040161210a565b600060405180830381600087803b158015610efb57600080fd5b505af1158015610f0f573d6000803e3d6000fd5b505050505050505050565b61ffff86166000908152600560205260408082209051610f3d9088908890611f59565b90815260408051602092819003830190206001600160401b03871660009081529252902054905080610fbd5760405162461bcd60e51b815260206004820152602360248201527f4e6f6e626c6f636b696e674c7a4170703a206e6f2073746f726564206d65737360448201526261676560e81b6064820152608401610668565b808383604051610fce929190611f59565b60405180910390201461102d5760405162461bcd60e51b815260206004820152602160248201527f4e6f6e626c6f636b696e674c7a4170703a20696e76616c6964207061796c6f616044820152601960fa1b6064820152608401610668565b61ffff871660009081526005602052604080822090516110509089908990611f59565b90815260408051602092819003830181206001600160401b038916600090815290845282902093909355601f880182900482028301820190528682526110e8918991899089908190840183828082843760009201919091525050604080516020601f8a018190048102820181019092528881528a93509150889088908190840183828082843760009201919091525061170992505050565b7fc264d91f3adc5588250e1551f547752ca0cfa8f6b530d243b9f9f4cab10ea8e5878787878560405161111f959493929190612143565b60405180910390a150505050505050565b60408051600060208201819052603482018190526054820181905282516048818403018152606883019384905263040a7bb160e41b9093529182917f00000000000000000000000000000000000000000000000000000000000000006001600160a01b0316906340a7bb10906111b4908a90309086908c908c908c90606c0161217e565b6040805180830381865afa1580156111d0573d6000803e3d6000fd5b505050506040513d601f19601f820116820180604052508101906111f491906121d4565b925092505094509492505050565b61120a6114b1565b600081116112525760405162461bcd60e51b81526020600482015260156024820152744c7a4170703a20696e76616c6964206d696e47617360581b6044820152606401610668565b61ffff83811660008181526002602090815260408083209487168084529482529182902085905581519283528201929092529081018290527f9d5c7c0b934da8fefa9c7760c98383778a12dfbfc0c3b3106518f43fb9508ac090606001610e1c565b6112bc6114b1565b61ffff831660009081526001602052604090206112da8284836121f8565b507ffa41487ad5d6728f0b19276fa1eddc16558578f5109fc39d2dc33c3230470dab838383604051610e1c93929190611f92565b6113166114b1565b6001600160a01b03811661137b5760405162461bcd60e51b815260206004820152602660248201527f4f776e61626c653a206e6577206f776e657220697320746865207a65726f206160448201526564647265737360d01b6064820152608401610668565b6113848161170f565b50565b604051633d7b2f6f60e21b815261ffff808616600483015284166024820152306044820152606481018290526060907f00000000000000000000000000000000000000000000000000000000000000006001600160a01b03169063f5ecbdbc90608401600060405180830381865afa158015611407573d6000803e3d6000fd5b505050506040513d6000823e601f3d908101601f1916820160405261142f91908101906122b7565b95945050505050565b60008061149b5a60966366ad5c8a60e01b898989896040516024016114609493929190612324565b60408051601f198184030181529190526020810180516001600160e01b03166001600160e01b0319909316929092179091523092919061186c565b9150915081610bd457610bd486868686856118f6565b6000546001600160a01b03163314610bee5760405162461bcd60e51b815260206004820181905260248201527f4f776e61626c653a2063616c6c6572206973206e6f7420746865206f776e65726044820152606401610668565b60026006540361155d5760405162461bcd60e51b815260206004820152601f60248201527f5265656e7472616e637947756172643a207265656e7472616e742063616c6c006044820152606401610668565b6002600655565b61ffff86166000908152600160205260408120805461158290611f1f565b80601f01602080910402602001604051908101604052809291908181526020018280546115ae90611f1f565b80156115fb5780601f106115d0576101008083540402835291602001916115fb565b820191906000526020600020905b8154815290600101906020018083116115de57829003601f168201915b50505050509050805160000361166c5760405162461bcd60e51b815260206004820152603060248201527f4c7a4170703a2064657374696e6174696f6e20636861696e206973206e6f742060448201526f61207472757374656420736f7572636560801b6064820152608401610668565b611677878751611993565b60405162c5803160e81b81526001600160a01b037f0000000000000000000000000000000000000000000000000000000000000000169063c58031009084906116ce908b9086908c908c908c908c90600401612362565b6000604051808303818588803b1580156116e757600080fd5b505af11580156116fb573d6000803e3d6000fd5b505050505050505050505050565b50505050565b600080546001600160a01b038381166001600160a01b0319831681178455604051919092169283917f8be0079c531659141344cd1fd0a4f28419497f9722a3daafe3b4186f6b6457e09190a35050565b60608161176d81601f6123bc565b10156117ac5760405162461bcd60e51b815260206004820152600e60248201526d736c6963655f6f766572666c6f7760901b6044820152606401610668565b6117b682846123bc565b845110156117fa5760405162461bcd60e51b8152602060048201526011602482015270736c6963655f6f75744f66426f756e647360781b6044820152606401610668565b6060821580156118195760405191506000825260208201604052611863565b6040519150601f8416801560200281840101858101878315602002848b0101015b8183101561185257805183526020928301920161183a565b5050858452601f01601f1916604052505b50949350505050565b6000606060008060008661ffff166001600160401b0381111561189157611891611c0e565b6040519080825280601f01601f1916602001820160405280156118bb576020820181803683370190505b50905060008087516020890160008d8df191503d9250868311156118dd578692505b828152826000602083013e909890975095505050505050565b8180519060200120600560008761ffff1661ffff1681526020019081526020016000208560405161192791906123cf565b9081526040805191829003602090810183206001600160401b0388166000908152915220919091557fe183f33de2837795525b4792ca4cd60535bd77c53b7e7030060bfcf5734d6b0c9061198490879087908790879087906123eb565b60405180910390a15050505050565b61ffff8216600090815260036020526040812054908190036119b457506127105b808211156109a95760405162461bcd60e51b815260206004820181905260248201527f4c7a4170703a207061796c6f61642073697a6520697320746f6f206c617267656044820152606401610668565b803561ffff81168114611a1657600080fd5b919050565b60008083601f840112611a2d57600080fd5b5081356001600160401b03811115611a4457600080fd5b602083019150836020828501011115611a5c57600080fd5b9250929050565b80356001600160401b0381168114611a1657600080fd5b60008060008060008060808789031215611a9357600080fd5b611a9c87611a04565b955060208701356001600160401b0380821115611ab857600080fd5b611ac48a838b01611a1b565b9097509550859150611ad860408a01611a63565b94506060890135915080821115611aee57600080fd5b50611afb89828a01611a1b565b979a9699509497509295939492505050565b600060208284031215611b1f57600080fd5b610d9982611a04565b60008060408385031215611b3b57600080fd5b611b4483611a04565b946020939093013593505050565b80356001600160a01b0381168114611a1657600080fd5b600080600060408486031215611b7e57600080fd5b83356001600160401b03811115611b9457600080fd5b611ba086828701611a1b565b9094509250611bb3905060208501611b52565b90509250925092565b600080600060408486031215611bd157600080fd5b611bda84611a04565b925060208401356001600160401b03811115611bf557600080fd5b611c0186828701611a1b565b9497909650939450505050565b634e487b7160e01b600052604160045260246000fd5b604051601f8201601f191681016001600160401b0381118282101715611c4c57611c4c611c0e565b604052919050565b60006001600160401b03821115611c6d57611c6d611c0e565b50601f01601f191660200190565b600080600060608486031215611c9057600080fd5b611c9984611a04565b925060208401356001600160401b03811115611cb457600080fd5b8401601f81018613611cc557600080fd5b8035611cd8611cd382611c54565b611c24565b818152876020838501011115611ced57600080fd5b81602084016020830137600060208383010152809450505050611bb360408501611a63565b60005b83811015611d2d578181015183820152602001611d15565b50506000910152565b60008151808452611d4e816020860160208601611d12565b601f01601f19169290920160200192915050565b602081526000610d996020830184611d36565b60008060408385031215611d8857600080fd5b611d9183611a04565b9150611d9f60208401611a04565b90509250929050565b600060208284031215611dba57600080fd5b610d9982611b52565b600080600080600060808688031215611ddb57600080fd5b611de486611a04565b9450611df260208701611a04565b93506040860135925060608601356001600160401b03811115611e1457600080fd5b611e2088828901611a1b565b969995985093965092949392505050565b60008060008060608587031215611e4757600080fd5b611e5085611a04565b935060208501358015158114611e6557600080fd5b925060408501356001600160401b03811115611e8057600080fd5b611e8c87828801611a1b565b95989497509550505050565b600080600060608486031215611ead57600080fd5b611eb684611a04565b9250611ec460208501611a04565b9150604084013590509250925092565b60008060008060808587031215611eea57600080fd5b611ef385611a04565b9350611f0160208601611a04565b9250611f0f60408601611b52565b9396929550929360600135925050565b600181811c90821680611f3357607f821691505b602082108103611f5357634e487b7160e01b600052602260045260246000fd5b50919050565b8183823760009101908152919050565b81835281816020850137506000828201602090810191909152601f909101601f19169091010190565b61ffff8416815260406020820152600061142f604083018486611f69565b634e487b7160e01b600052601160045260246000fd5b81810381811115611fd957611fd9611fb0565b92915050565b8284823760609190911b6bffffffffffffffffffffffff19169101908152601401919050565b601f8211156109a957600081815260208120601f850160051c8101602086101561202c5750805b601f850160051c820191505b81811015610bd457828155600101612038565b81516001600160401b0381111561206457612064611c0e565b612078816120728454611f1f565b84612005565b602080601f8311600181146120ad57600084156120955750858301515b600019600386901b1c1916600185901b178555610bd4565b600085815260208120601f198616915b828110156120dc578886015182559484019460019091019084016120bd565b50858210156120fa5787850151600019600388901b60f8161c191681555b5050505050600190811b01905550565b600061ffff808816835280871660208401525084604083015260806060830152612138608083018486611f69565b979650505050505050565b61ffff86168152608060208201526000612161608083018688611f69565b6001600160401b0394909416604083015250606001529392505050565b61ffff871681526001600160a01b038616602082015260a0604082018190526000906121ac90830187611d36565b851515606084015282810360808401526121c7818587611f69565b9998505050505050505050565b600080604083850312156121e757600080fd5b505080516020909101519092909150565b6001600160401b0383111561220f5761220f611c0e565b6122238361221d8354611f1f565b83612005565b6000601f841160018114612257576000851561223f5750838201355b600019600387901b1c1916600186901b1783556108a7565b600083815260209020601f19861690835b828110156122885786850135825560209485019460019092019101612268565b50868210156122a55760001960f88860031b161c19848701351681555b505060018560011b0183555050505050565b6000602082840312156122c957600080fd5b81516001600160401b038111156122df57600080fd5b8201601f810184136122f057600080fd5b80516122fe611cd382611c54565b81815285602083850101111561231357600080fd5b61142f826020830160208601611d12565b61ffff851681526080602082015260006123416080830186611d36565b6001600160401b038516604084015282810360608401526121388185611d36565b61ffff8716815260c06020820152600061237f60c0830188611d36565b82810360408401526123918188611d36565b6001600160a01b0387811660608601528616608085015283810360a085015290506121c78185611d36565b80820180821115611fd957611fd9611fb0565b600082516123e1818460208701611d12565b9190910192915050565b61ffff8616815260a06020820152600061240860a0830187611d36565b6001600160401b038616604084015282810360608401526124298186611d36565b9050828103608084015261243d8185611d36565b9897505050505050505056fea2646970667358221220614a0fd9abd4b06adf9c788a4aae8bddda67bc63a8698423805de5f341af3fbf64736f6c63430008110033",
  "linkReferences": {},
  "deployedLinkReferences": {}
}